S315080000000CE000201D00000831000008310000083F
S3150800001031000008310000083100000800F060BE19
S31508000020DFF808D000F0BFFE00F050BFF83F001020
S31508000030FEE76E2900F07882702900F0C9836629E8
S31508000040AFF300806529AFF300806729AFF300801E
S315080000506129AFF3008003681B0A28BF41F08001BD
S31508000060692900F02582642900F02282752900F0AA
S315080000701F826F2900F05483782900F09583E929B7
S3150800008000F0EC82E42900F0E982F52900F0E68226
S31508000090EF2900F05183F82900F094830368DB09FF
S315080000A028BF41F08001632900F07E85732900F09E
S315080000B08385E32900F08E85F32900F093850020D7
S315080000C07047000040BA7047C0BA704700BEFEE7E6
S315080000D0704770477CB51D4616460C00009001D047
S315080000E02044401E074B7B442A4669460190304609
S315080000F000F035FA05461CB10020694600F042FAC0
S3150800010028467CBDA504000040EA010310B59B07FC
S315080001100FD1042A0DD310C808C9121F9C42F8D063
S3150800012020BA19BA884201D9012010BD4FF0FF3014
S3150800013010BD1AB1D30703D0521C07E0002010BD2A
S3150800014010F8013B11F8014B1B1B07D110F8013BB6
S3150800015011F8014B1B1B01D1921EF1D1184610BD97
S31508000160032A40F2308010F0030C00F0158011F8D5
S31508000170013BBCF1020F624498BF11F801CB00F8AD
S31508000180013B38BF11F8013BA2F1040298BF00F801
S3150800019001CB38BF00F8013B11F0030300F0EA83F6
S315080001A0083AC0F0088051F8043B083A51F804CBE5
S315080001B0A0E80810F5E7121D5CBF51F8043B40F8AB
S315080001C0043BAFF30080D20724BF11F8013B11F8B6
S315080001D001CB48BF11F8012B24BF00F8013B00F8FA
S315080001E001CB48BF00F8012B7047431A28BF9A4233
S315080001F07FF6B6AF032A1044114440F2268010F069
S31508000200030F1EBF11F8013D521E00F8013D10F004
S31508000210030F7FF4F6AF11F0030300F0F083083AFA
S31508000220C0F00B8051F8043D083A51F804CD40F867
S31508000230043D40F804CDFFF7F3BF121D5CBF51F82B
S31508000240043D40F8043DAFF30080D20724BF11F8FF
S31508000250013D11F801CD48BF11F8012C24BF00F863
S31508000260013D00F801CD48BF00F8012C704702F0A7
S31508000270FF0343EA032242EA024200F002B84FF0C3
S3150800028000020429C0F0128010F0030C00F01B8055
S31508000290CCF1040CBCF1020F18BF00F8012BA8BF63
S315080002A020F8022BA1EB0C0100F00DB85FEAC17C27
S315080002B024BF00F8012B00F8012B48BF00F8012BDA
S315080002C070474FF0000200B513469446964620390B
S315080002D022BFA0E80C50A0E80C50B1F12001BFF4F1
S315080002E0F7AF090728BFA0E80C5048BF0CC05DF857
S315080002F004EB890028BF40F8042B08BF704748BFA5
S3150800030020F8022B11F0804F18BF00F8012B704718
S3150800031010B5044610F0030F08BF11F0030F40F0A4
S3150800032015804FF0013E121FC0F20E8051F8043BB3
S31508000330A3EB0E0C2CEA030C1CEACE1C08BF40F8F3
S31508000340043BF0D0A1F1040102F10402521E08DBBD
S3150800035011F8013B002B00F8013BF7D11146FFF7D6
S315080003608EFF204610BD00004FF0013C50F8042BCC
S3150800037051F8043B9A4221D1A2EB0C03934313EAAA
S31508000380CC1317D150F8042B51F8043B9A4215D1D7
S31508000390A2EB0C03934313EACC130BD150F8042BAE
S315080003A051F8043B9A4209D1A2EB0C03934313EA92
S315080003B0CC13DBD04FF00000704700BFD01A01BA4B
S315080003C0B1FA81F101F0180122FA01F0CB40C1F12E
S315080003D02001DBB2C0B2C01A2CFA01F3D11A91433C
S315080003E011EAC311E6D1704770B5044685690068FD
S315080003F0C10601D5302600E02026C00708D070BD0A
S31508000400D4E9012130469047206A00F101002062B4
S315080004106D1EF5D570BD70B5044685690078C007B0
S3150800042008D170BDD4E9012120209047206A00F147
S31508000430010020626D1EF5D570BD09684A0501D513
S3150800044040B27047C905FCD500B2704709684A052D
S3150800045001D5C0B27047C905FCD580B2704770B5E2
S315080004600C460546012A05D02878800600D5EA6993
S31508000470002302E0012305E05B1C934202D2E05C04
S315080004800028F9D1A869E618C01AA861286A18448C
S3150800049028622846FFF7A8FF04E0D5E9012114F8E9
S315080004A0010B9047B442F8D32846FFF7B4FF70BD56
S315080004B02DE9F0410646002410687529314616A52F
S315080004C011D0FFF7BAFF002803DAC0F1000013A520
S315080004D007E031688A0701D511A502E0490704D566
S315080004E010A5012401E0FFF7B1FF00210A2306F158
S315080004F0240707E0B0FBF3F203FB12003030785410
S315080005001046491C0028F5D123462A463046BDE840
S31508000510F04100F0E3BA0000000000002D000000E2
S315080005202B0000002000000011680268006A5305CD
S3150800053001D508700BE0D30501D5088007E013063E
S3150800054003D5C217C1E9000201E05206086001207E
S315080005507047000001694A1C02610878704700B5B7
S315080005608FB0CDE901310021059105497944CDE9DE
S3150800057003101146684600F037F90FB000BD0000B9
S31508000580E5FFFFFF0A6802F8010B0A607047D1E928
S3150800059000239A4202D2531C0B6010707047000069
S315080005A02DE9FF5F15468A460446DFF8AC80F84415
S315080005B00027D8E900103E46CDE9001011E03AF8C8
S315080005C016106A4602A800F011FB411C07D02178D4
S315080005D0890603D5E269391891420ED8074406F10F
S315080005E001062078800602D5E069B84205DDAE42EC
S315080005F0E5DB3AF816000028E1D1A069C01BA06126
S315080006002046FFF7F1FED8E90010CDE900100020DA
S3150800061016E03AF818106A4602A800F0E7FA81468A
S31508000620401C0BD000250DF1080B05E0D4E901218B
S315080006301BF8050090476D1C4D45F7D308F10100DE
S31508000640B0428046E5DB206A384420622046FFF740
S31508000650E2FEBDE8FF9F00006E7B00002DE9F04139
S315080006608046D21D22F007020025D2E90002F529AC
S3150800067014A612D0002A06DA0023D0EB030063EB97
S31508000680020211A608E0D8F800108B0701D50FA6BC
S3150800069002E0490701D50EA601251146002408F1F6
S315080006A0240704E000F0D5F930323A55641C50EAC4
S315080006B00102F7D12B46324621464046BDE8F041B5
S315080006C000F00CBA000000002D0000002B0000000E
S315080006D02000000030B4002100F124040CE002F0F0
S315080006E0070505F130054FEAD20242EA437265541E
S315080006F001F101014FEAD30352EA0305EFD1046879
S31508000700002310A2250708D504F020040C4304D0C2
S31508000710C46901230CA2641EC46130BC00F0DEB9B2
S3150800072010B5044621461068FFF790FE024620469B
S31508000730BDE810400023CDE7D21D22F00701D1E91C
S315080007400023C7E70000000030000000F0B40D46A3
S315080007500188090502D5234C7C4402E0214C7C44DF
S315080007600E34002100F124060BE002F00F074FEAD1
S315080007701212E75D42EA03724FEA1313775401F146
S31508000780010152EA0307F0D102780023120704D5C3
S31508000790702D06D009B1113402232246F0BC00F0B0
S315080007A09DB910340123F8E770B504460D46214675
S315080007B01068FFF74BFE024629462046BDE8704002
S315080007C00023C3E7D21D22F00703D3E90023BDE7C0
S315080007D00368126843F0200303600823C3610023FB
S315080007E0B4E70000CC7900002DE9F05F894604469D
S315080007F04FF0000ADFF878B1FB44C0F820A0204685
S31508000800E1688847002875D0252806D0D4E9012153
S315080008109047206A401C2062F1E700265F46204682
S31508000820E16888472028054608DB312D06D207EB04
S31508000830050010F8200C08B10643F0E7B00701D50B
S3150800084026F00406C4F81CA00027C4F818A02A2D10
S3150800085009D0284607F017F838B304EB8708303D67
S31508000860C8F8185019E059F8041B204604EB87020B
S315080008709161E1688847012F054618D1E06900288B
S3150800088020DA26F020061DE0D8F8180000EB8000D4
S3150800089005EB40003038C8F818002046E16888475C
S315080008A0054606F0F0FF0028EED1012F0AD02E2DBE
S315080008B008D12046E16888477F1C0546022F46F086
S315080008C02006C4DBA069002803DA404246F0010688
S315080008D0A061F00701D026F010066C2D0BD0682D0C
S315080008E009D04C2D39D06A2D35D0742D35D07A2DB6
S315080008F033D016E038E0E1682F4620468847B842EC
S31508000900054609D16C2F26D04FF48060E16806436E
S3150800091020468847054604E06C2F1AD04FF48070AD
S3150800092006430DB3A5F14100192802D8203546F42F
S3150800093000664A462946204626604E46FFF779FB5A
S3150800094080B101280BD0F61D26F0070000F1080932
S3150800095055E74020E4E78020D8E70020D6E706F1EF
S3150800096004094CE7284651E7206ABDE8F09F0000D5
S315080009705479000010B5203AC0F00B80B1E8185041
S31508000980203AA0E81850B1E81850A0E81850BFF46B
S31508000990F5AF5FEA027C24BFB1E81850A0E818500A
S315080009A044BF18C918C0BDE810405FEA827C24BF5E
S315080009B051F8043B40F8043B08BF7047D20728BFEC
S315080009C031F8023B48BF11F8012B28BF20F8023B3B
S315080009D048BF00F8012B7047431A28BF9A427FF692
S315080009E0C9AF104410F0030F11441EBF11F8013DA2
S315080009F0521E00F8013D10F0030F7FF4F6AF103ACF
S31508000A00C0F00A8010B531E91850103A20E918509C
S31508000A10BFF4F9AFBDE81040530724BF31E9081009
S31508000A2020E9081044BF51F8043D40F8043D12F08F
S31508000A30030F08BF7047D20728BF31F8023D48BFE9
S31508000A4011F8012C28BF20F8023D48BF00F8012CF8
S31508000A50704730B5B0F10A024FEA900E71F1000303
S31508000A604EEA817EB0EB0E0061EB91014FEA101E53
S31508000A704EEA017E10EB0E0041EB11114FEA102EE3
S31508000A804EEA016E10EB0E0041EB11214FEA104EB3
S31508000A904EEA014E10EB0E0041EB1141401841F1B0
S31508000AA000014FEAD00040EA41704FEAD10110EB4D
S31508000AB080054FEA810444EA907444EB01046D19F9
S31508000AC044EB0404521BA3414FF0000348BF0A320B
S31508000AD000D530BD401C41F1000130BD2DE9F0477D
S31508000AE00D4699469246044600F124080168880690
S31508000AF004D5E06921F01001216000E00120A84238
S31508000B0002DDA0EB050700E00027A16907EB050257
S31508000B1002EB0900A1EB0000A0612078C00602D410
S31508000B202046FFF761FC002608E0D4E901211AF8FF
S31508000B3006009047206A401C761C20624E45F4DB6E
S31508000B402078C0060AD52046FFF74EFC06E0D4E911
S31508000B50012130209047206A401C2062381EA7F1E8
S31508000B600107F4DC07E0D4E9012118F805009047ED
S31508000B70206A401C2062281EA5F10105F3DC2046E8
S31508000B80FFF749FC2078000602D50220BDE8F08769
S31508000B900120FBE710B5436913B1AFF3008001E00C
S31508000BA0FFF75DFC012010BD127800F124010A70E0
S31508000BB000224A700122EDE711684FF0FF32E9E79B
S31508000BC010B5436913B1AFF3008001E0FFF7E8FC05
S31508000BD0012010BD128800F1240182840022C284FB
S31508000BE00122EDE711684FF0FF32E9E770B50C46D0
S31508000BF01646054600F01AF8036893F8010101281D
S31508000C0006D0FF2C0FD8185D68B101202C7070BD76
S31508000C10D3F807013246214603442846BDE870400A
S31508000C2003F2071318474FF0FF3070BD10B500F0F8
S31508000C3005F8001D10BD00BFB56C000000487047E0
S31508000C40F06D0010814208BF704702F0030332F0CE
S31508000C50030205D050F804CB41F804CB121FF9D192
S31508000C60002BD8BF704710F8012B5B1E01F8012B2B
S31508000C70002BF8DC704701F0030231F003014FF056
S31508000C80000303D040F8043B091FFBD1002AD8BF54
S31508000C90704700F8013B521E002AFADC704710B56F
S31508000CA007480849084AFFF7CDFF08480849094A8E
S31508000CB0FFF7C8FFBDE8104007480849DBE7000012
S31508000CC074820008004000100000000074820008CA
S31508000CD0004000103C01000040410010483A000066
S31508000CE0FFF79EB910B472B63348016841F4700133
S31508000CF00160324C012262603148016821F40271B8
S31508000D0001603048016841F4FE6101602E480168BF
S31508000D1041F001010160016811F0020FFBD0DFF814
S31508000D20ACC00023CCF80030016821F0A061016056
S31508000D30016841F480310160016811F4003FFBD07D
S31508000D402168CCB22249112C0CBF40F2056440F24E
S31508000D5005740C60204C1F492160016841F08071C0
S31508000D600160016811F0007FFBD049F20241CCF81E
S31508000D700010DFF868C04FF48011CCF800100CF1B1
S31508000D8004010B60091D0B60154B4FF0805119606B
S31508000D9089131B1D1960016821F0010101601148C2
S31508000DA0026010BC704710B5FFF79CFF01F08EF883
S31508000DB0BDE81040FFF773BF88ED00E0002004E0AF
S31508000DC014ED00E0FCED00E000380240083802406F
S31508000DD0003C0240085440070438024030380240BC
S31508000DE04038024000380140EFF3108272B60260C4
S31508000DF07047016881F310887047EFF30581006832
S31508000E0009B14FF001007047016881F310887047F7
S31508000E1072B670470168EFF3108281F3108800BF3D
S31508000E2082F310887047EFF31080EFF3058180F0A6
S31508000E30010009B14FF000007047EFF3108072B659
S31508000E4080F001007047EFF3108062B680F0010071
S31508000E507047EFF3108172B601607047016881F33D
S31508000E601088704770477047144B1A071968506AFC
S31508000E70D3F800C08C45F9D1704730B583B0044625
S31508000E8000216846FFF7B0FFFFF7EEFF054620464C
S31508000E90FFF7E9FF032894BF0024C41EFFF7E4FF09
S31508000EA0401BA042FAD96846FFF7A3FF03B030BD3E
S31508000EB0A8214843401F00F021B90000240400403F
S31508000EC080684068704780688068704710B584B04D
S31508000ED06FF0030032496844884228BF314A03D379
S31508000EE040F804298842FBD2304C2F4860603048CD
S31508000EF0A06000F0A1FB2F482F490844A1680844C8
S31508000F00A06002F039F8206000F072FC01F074FB72
S31508000F1000F073FC0020009001230322042127A07F
S31508000F2000F028F92BA32EA2304931A000F022F9AF
S31508000F30364937A000F01EF901A902A800F070FB97
S31508000F40DDE90110FFF79BF938A006F0BFFC274939
S31508000F5037A006F0BBFC38A135A006F0B7FC20A1E7
S31508000F6038A006F0B3FC1BA136A006F0AFFC0121A1
S31508000F704EF6602002F0CAF90121022002F0BEFAFC
S31508000F800121084602F0C0F901F0D8FE30A006F0AB
S31508000F909DFC38A006F07EFC03F07BF904B010BD7A
S31508000FA0000000100DF0ADBA000000083440001033
S31508000FB074820000000000003C0100002E4E65749B
S31508000FC04D46207625642E25642E25642E25640D2F
S31508000FD00A00000031393A34383A3231000000004C
S31508000FE04A756E20203420323031340034790008B6
S31508000FF025732C204275696C6420446174653A0D2A
S315080010000A0925732025730D0A0000007C994C00F7
S3150800101041524D20436F6D70696C6572207665721A
S3150800102073696F6E2025640D0A0000000C0000002D
S31508001030252D3135730D0A004275696C64204461AB
S3150800104074653A002020252D3133730D0A000000FF
S315080010500C6D61696E2065786974656421213F3F6E
S315080010603F2E202048616C74696E67204350550DE9
S315080010700A0000006D61696E2065786974656421EF
S31508001080213F3F3F2E202048616C74696E672043DC
S3150800109050550D0A000000000020704700207047D8
S315080010A00020704710B501F049FDBDE8104003F077
S315080010B0F0B8000004B02DE9FF0F6846EFF305818C
S315080010C0FFF7F0BF81B000B52DE9FF5F6846EFF383
S315080010D00381C163AFF3008010B582B004460021D6
S315080010E06846FFF781FE0021204601F027FD03F040
S315080010F0D0F86846FFF77DFE02B010BD001FFDDC84
S31508001100F7460000034951F82020521E41F82020D6
S31508001110704700008C440010034951F8200000284D
S31508001120CCBF0120002070478C440010034951F8B9
S315080011302020521C41F82020704700008C440010E3
S3150800114010B582B0044600216846FFF74DFE074AEF
S31508001150116841EA04001060516800291CBF9068B4
S3150800116088476846FFF745FE02B010BD904000105C
S3150800117004F0CCB80FB410B503A9029800F010F823
S3150800118010BC5DF814FB04F073B904F01FBA0FB471
S3150800119010B504AA039900F05DFA10BC5DF814FBBB
S315080011A0034603480A461946406900F053BA000048
S315080011B00C4000102DE9FF4F89B00546014603F0A3
S315080011C00F0B08AA01A805F0BFFC002800F09D81B6
S315080011D00198C2688068816810468847049001981B
S315080011E003AE02ACC1688068D0F808C00846E0477C
S315080011F023463246294606F001FB002868D00498A3
S31508001200DDE90AA7816903984FF0010900EB800020
S3150800121001EB800001688068691AB1FBF0F200FBF7
S3150800122012100590002803DA00200590FEF74EFFFD
S31508001230049803994069884240F29B8104980423E4
S315080012408169039800EB800001EB8004029821690C
S3150800125000EB400003EB80000A582168A06802FBF7
S315080012600012691AB1FBF0F605990792401A069022
S31508001270002005906068B04217D90698504534BFDB
S315080012808046D046A06806900298226900EB400383
S31508001290082101EB83015158B1422BD2401C029020
S315080012A0E16881421AD8FEF711FFBAF1000F40F340
S315080012B06081B9F1000F00F05C810020029003986C
S315080012C00499401C039049698842B7D300F051B984
S315080012D02946AA4806F0DEFA00F029B900EB4002D2
S315080012E00420216900EB8200A2680858216800FBE7
S315080012F002100790BBF1000F18BFBBF1010F08D011
S31508001300BBF1020F4CD0BBF1030F00F0CF8000F009
S31508001310EAB80498007810F0020F13D0BBF1000F5A
S3150800132006D0424629463846FEF71AFF00F0DBB8D3
S315080013300B9841460268284600F056FF0B9908604C
S3150800134000F0D1B8BBF1000F05D1404606F0CBFA44
S31508001350070000F0EC80019829464246D0F80C9028
S3150800136080683B46D0F80CC04846E0475FEA00096B
S3150800137003D0BBF1000F07D0B5E0BBF1000F04BFE7
S31508001380384606F0AEFAAEE00B9841460268384693
S3150800139000F02AFF0B990860384606F0A2FAA2E088
S315080013A02946019802F090FA002804BF0DB0BDE85E
S315080013B0F08F2169029800EB400051F82010704820
S315080013C088430FD0A268206806FB02094D4523D141
S315080013D001984946D0F80CC08068036A6046984769
S315080013E0D0B912E0079885422CD1664800680028D3
S315080013F018BF06F076FA00206249486040F60C10DD
S3150800140006F071FA5F4908603AE001984946C368F0
S315080014108068426A18469047019800210091D0F8E2
S315080014200C90806842463B46D0F810C0294648468C
S31508001430E0475FEA000956D14246294652A006F01F
S3150800144029FA50E04F490A984A68104440F60C12A7
S31508001450904215D906F047FA0090002804BF0DB04F
S31508001460BDE8F08F4748426801680098FEF778FEA5
S315080014704448006806F035FA42490098086006E0D4
S3150800148040480068002804BF0DB0BDE8F08F3D480D
S315080014900A9A0168406808443946FEF761FE3948E9
S315080014A041680A980144374841601CE0294601987A
S315080014B002F00AFA002804BF0DB0BDE8F08F2169D2
S315080014C0029800EB400051F820102D4888430AD0B6
S315080014D00198A2682168C368806806FB0211426AFF
S315080014E0184690478146AAEB080ABAF1000F40DD74
S315080014F0B9F1000F3DD0002F18BF47444544606836
S31508001500761CB0423FF6B9AED7E60A9829182A489B
S31508001510D0E9063018449D4228BFA84201D9814225
S3150800152009D90090294625A00A9A06F0B3F90DB004
S315080015300020BDE8F08FBBF1000F1AD0BBF1010FF8
S3150800154004BF2946DDE90A200AD0BBF1020F04BF11
S315080015502846DDE90A2103D0BBF1030F03D008E0D2
S31508001560FEF7FEFD05E00A9919B1FF222846FEF7A7
S315080015707EFE0DB00120BDE8F08F0000F07900086E
S315080015803040014050400010204661696C65642077
S315080015905772697465536563746F72206174206C41
S315080015A06F636174696F6E2025782C2073697A657C
S315080015B0202578200D0A00000C40001020496E7680
S315080015C0616C696420616464726573732025782090
S315080015D0616E642072616E67652025782052616DA0
S315080015E02053746172742025782C2052616D206511
S315080015F06E642025780D0A0010B582B004460021D5
S315080016006846FFF7F1FB05490A6822EA0400086004
S315080016106846FFF7EEFB02B010BD000090400010D0
S31508001620034A02600348801A001D086070470000DC
S3150800163000000120F87F012070470020704703F062
S315080016400BBA014611F8012B002AFBD1081A401ED5
S315080016507047000070B51346ADF5007D04460A468E
S315080016604FF40071684600F0C1F804F47F4105465E
S31508001670B1F5407F0FD006DCB1F5807F18BFB1F514
S31508001680007F1FD107E06E46B1F5A06F11D0B1F506
S31508001690C06F17D105E002466946204600F061FD95
S315080016A010E00A48016869B100207055304688473D
S315080016B008E00024002D05DD305D01F0D9FD641C2D
S315080016C0A542F9DC0DF5007D284670BD4C4000109A
S315080016D070477047002070470020704703F0DEB956
S315080016E02DE9F04190460D46060001D0062D01DB96
S315080016F0FEF7ECFC06EB8504206908B1606B08B1BF
S31508001700FEF7E4FC2369186800F1010CBCF1080F28
S3150800171008BF4FF0000C01219A68002A18BF00275D
S315080017200AD02069A9408068C8F800007079FFF7D8
S3150800173086FF3846BDE8F0815A68624508BF996059
S3150800174000EB001003EB800000F10C07C3F800C0A3
S31508001750E7E770B516460C46050001D0062C01DBF6
S31508001760FEF7B4FC05EB8404206900281ABF606BF9
S315080017700028FEF7ABFCA6B100202169D1E90023B9
S315080017809A4202BF8A68002A70BD5A1C082A08BFF6
S315080017900022C1E9012003EB031001EB80000C30A5
S315080017A070BD2069D0E900218A4207BF8268002AF5
S315080017B001EB011100EB810008BF0020EFD170BDDD
S315080017C0002819BF002A00290120704710B5944641
S315080017D05C1C00228C4282BF0270012010BDC254DC
S315080017E01A466146FEF794FD002010BDFEF772BC4E
S315080017F010B500F00BFE012010BD00B583B005F052
S3150800180029FA04F0A5FE002001900090694601A877
S3150800181000F084FCDDE9001001F0C2FB00F050F98D
S3150800182000F016FB00F096FD00F06EFB0020FFF7B7
S315080018300AFB05F0F3F801F06BFD05F01DF9FFF75B
S3150800184048FF05F01DFDFFF743FF05F01AFD00F000
S315080018501CF800F015F800F055FB00F0EFFF00F05B
S31508001860D1F900F031FB00F057FC00F037FF00F02B
S31508001870B6FC00F007F803B05DF804EB01F0F9BC1C
S31508001880002070474FF04A4070470120704702F029
S315080018908DBD30B4C0680024002804BF30BC704732
S315080018A0438803EB000C0378022B0BD003DA33B121
S315080018B0012B07D003E0032B09D0FF2B0FD030BC38
S315080018C0002070478B4204BF30BC704719E08B423A
S315080018D017D143789578AB4213D130BC704703795A
S315080018E01578AB420DD143795578AB4209D1C388F7
S315080018F05588AB4205D103899588AB4204BF30BCF5
S315080019007047002C08BF6046CAD030BC704702F04A
S3150800191077BD02F00FBE10B40A22A0FB023401FB09
S3150800192002414FF0000C00FB0C1110BC1846704722
S3150800193000B583B04FF0000CCDF800C0CDF804C058
S3150800194000F002F803B000BD2DE9F05F0546ADF5DD
S31508001950825D0DF580500026D0E91AA8D0181446E5
S3150800196005EB010B03903046202206A90A54401CB9
S31508001970B0F5805FFADB5D456FD27DD2B8F1000F16
S3150800198005D028466D1C04AA0121C04703E015F8B6
S31508001990010B8DF810000020019084E001980121C8
S315080019A001FA00F09DF8101008420AD0AB4563D939
S315080019B0B8F1000F53D028466D1C02AA0121C04772
S315080019C051E05D4558D2B8F1000F05D06F1C6A4644
S315080019D001212846C04704E015F8010B8DF80000E0
S315080019E02F465F4548D2B8F1000F05D07D1C05AAE1
S315080019F001213846C04703E038788DF814007D1C6D
S31508001A009DF8140000F00F01CF1C9DF800104FEA56
S31508001A10101001EB0020C0F30B0000F110093DD0B7
S31508001A20C9F30B0006A9C6F30B02085C8DF8000083
S31508001A30885403998C421FD2BAF1000F08BF04F8E4
S31508001A40010B04D02046641C6A460121D047761C47
S31508001A5009F101097F1EE3D120E02BE00CE015F81F
S31508001A60010B8DF80800C6F30B0206A99DF80800BD
S31508001A70885403998C4205D30DF5825D4FF0FF30EB
S31508001A80BDE8F09FBAF1000F08BF04F8010B04D0B7
S31508001A902046641C02AA0121D047761C0198401CE6
S31508001AA00190082803DA03988442FFF477AF5D456E
S31508001AB0FFF463AF0DF5825D4FF00100BDE8F09FBE
S31508001AC0014802F04FBC0000B86D001010B50120A7
S31508001AD0FFF72CFB0220FFF729FB4FF6FD70810765
S31508001AE00882FFF7C1F9084AD2E90032C01A71EB39
S31508001AF0020028BF04F0F6FC0220FFF703FBBDE84E
S31508001B0010400120FFF7FEBA58400010F0B583B028
S31508001B100C460546174600216846FFF765F9002674
S31508001B20002C18BF00240FD005EB8400016941B1D1
S31508001B30406B30B90E604E608E602146284600F034
S31508001B4029F8641C062CEFDB002F18BF00210DD0E6
S31508001B5005EB81031A69002A1CBF586B002802D0BE
S31508001B60166056609660491C0629F1DB6846FFF741
S31508001B7040F903B0F0BD02F04CBD0000022824BFB6
S31508001B800020704735214843014901EB8000704722
S31508001B90E844001070B582B00D46040005D004EB89
S31508001BA08500016909B1406B10B102B0002070BD13
S31508001BB06079002814BF114E4FF0A04600216846F0
S31508001BC0FFF712F906EB451000F53061D0F8002B47
S31508001BD012F0004F0BD1621992F82E2042F400221F
S31508001BE0C0F8102BD0F8000B40F004400860684697
S31508001BF0FFF7FFF802B0012070BD000000000440A6
S31508001C00012070477047000070B505460120FFF7B0
S31508001C108DFA0220FFF78AFA224905EB450001EB07
S31508001C200014204604F0D4FC012000FA05F31E4DEA
S31508001C302B6094F8200000F003FE06462868184238
S31508001C40F6D1636A33B394F8220050B1FFF70CF962
S31508001C50164A1268821841F10003204604F0FEFB7A
S31508001C6018E094F8231094F82000A26A984794F88C
S31508001C70210003280ED194F82300B04204BF80F057
S31508001C80010084F8230005D0636A94F820003146E1
S31508001C90A26A98470220FFF735FABDE8704001208E
S31508001CA0FFF730BA40410010143C014000400010D4
S31508001CB010B582B0DDE9044CCDE9004C03F092F989
S31508001CC002B010BD70B5044690F85F50B0F87C00BD
S31508001CD0854228BF05462A46A16FA06DFEF740FA41
S31508001CE084F85C50A06F00212844A067B4F87C00F3
S31508001CF0401BA4F87C0094F85F00A84218BFA4F81B
S31508001D007E100BD1B4F87E00401B0004000CA4F82A
S31508001D107E001EBFAFF25300606770BD616770BD7D
S31508001D2030B515460C4600220221FFF7B2FD002801
S31508001D3008BF30BD00F10D0241880144206878B122
S31508001D40904288BF81422ED92B68934228BF994278
S31508001D5029D94278052A04BF0278072A23D10BE03D
S31508001D60002022602860206888421CD24378042B11
S31508001D700BD0052B0ED010E05A78042A01BF1A782A
S31508001D80092AC01D20600ED1EEE70278092A08BF8D
S31508001D90286002E00078072807D0206802781044F7
S31508001DA020608842E2D3002030BD012030BD02F019
S31508001DB06BBC704710B44FF0FF3C019C0628C4F872
S31508001DC000C0C3F800C0C2F800C0C1F800C024BFF4
S31508001DD010BC7047DFF828C003281CF800C0C1F8FB
S31508001DE000C00849095C116024BF10BC7047064949
S31508001DF0095C19600549085C206010BC7047000042
S31508001E007E7A0008847A0008787A00087B7A0008C7
S31508001E1000F47F4310B54FF0000CC0B2B3F5807FD5
S31508001E2006D0B3F5007F07D0B3F5407F0DD108E0A3
S31508001E30401EFFF79DF902E0401E02F02BFA844689
S31508001E4003E0401EFFF7F9FB8446604610BD00001C
S31508001E50034900200860486002490860012070476D
S31508001E601870001090400010014909680840704732
S31508001E709040001010B50446007994F85E10884228
S31508001E8008BF10BD052804D1012211462046FFF7D8
S31508001E903DFE94F85E002071072811D2DFE800F0B5
S31508001EA004080808080908000020A4F87C006067F0
S31508001EB010BD20460022BDE810400121FFF726BECE
S31508001EC0BDE81040FEF702B9012070470C4810B56E
S31508001ED0016840F2FF121143016000213C2001F025
S31508001EE02AFB00213D2001F026FB00213E2001F0BF
S31508001EF022FB0021BDE810403F2001F01CBB00007A
S31508001F003038024005F002B9012070470048704792
S31508001F1040420F00022824BF012070472DE9F04FE8
S31508001F2085B0B0F1000814BF73487448016814BF3F
S31508001F3041F0005141F0800101604FF035007049D1
S31508001F4008FB00F001EB800414BF6E4D4FF0A0456E
S31508001F5000216846FEF748FF0220C5F804088020DD
S31508001F60A8606948E8604FF41020A863D5F800080F
S31508001F7040F00300C5F80008A86B40F40010A863F9
S31508001F804FF0010A04F1C000C4F8D0A0E066B8F129
S31508001F90000F14BF0620042084F8700000220121D7
S31508001FA02046FFF776FC002814BFC07A082084F87C
S31508001FB05F0094F8701001204FF000090129C8BF8E
S31508001FC040210BDD04EB8002C2F834902218401C35
S31508001FD082F82E1094F870208242F3DC0026B8F1BD
S31508001FE0000F14BF03270027CDF8089003AA02A9FB
S31508001FF02046CDF80C90FFF793FE002818BFDFF8AF
S315080020000CB15CD0029894F87020807800F07F01BB
S315080020108A4254DD039A9278032A50D810F0800F2A
S315080020201CBF04EB8100C0F834A0029880880828F9
S3150800203018BF102803D0202818BF40283FD162189F
S3150800204082F82E008B2078430BEB800004EB81028C
S31508002050C0F80090C0F80490C0F808901061029883
S315080020607F1CC07800F00300012821D04900884071
S31508002070064303AA02A92046FFF752FE0028C1D14B
S31508002080EEB1A4F8CC604FF47A70FEF7F6FE0021A4
S31508002090404600F0EBF9B8F1000F4FF0000215D0FA
S315080020A01B494D2001F0F8FB002219494C2014E089
S315080020B06846FEF79EFE05B00020BDE8F08F68462C
S315080020C0FEF797FE05B00120BDE8F08F11494320C1
S315080020D001F0E2FB00220F492A2001F0DDFB4FF058
S315080020E0FF3068614FF48050A861C5F83498A86835
S315080020F040F00100A860DBE730380240343802407F
S31508002100E844001000000440400C004090460010CF
S31508002110254000081540000801207047034A026060
S315080021200348801A001D086070470000508101208E
S31508002130F8FF012000F47F41C0B2B1F5807F0AD0D4
S31508002140B1F5007F0AD0B1F5407F1CBF002070476B
S31508002150401EFFF7BFBA401EFFF715B8401E02F033
S31508002160FCB82DE9F0471746884600F47F444FF03F
S3150800217000096426C5B22CE0B4F5807F06D0B4F514
S31508002180007F09D0B4F5407F14D10BE0681E3A46AB
S315080021904146FEF7FAFF0AE0681E3A46414602F053
S315080021A0DEF804E0681E3A464146FFF795FA00282D
S315080021B012DB0AD14FF00000FEF735FE60B10021B0
S315080021C00122202000F070FC03E032263F1A8044EA
S315080021D081440FB1761ECFD24846BDE8F0874FF04E
S315080021E04A407047012070474B1E0029C8BF08495E
S315080021F00CDD10F801CB8CEA126C51F82CC08CEA75
S315080022000222B3F1000CA3F10103F2DC1046704779
S31508002210A47A0008002808BF704770B550F8041C57
S315080022201B4DA0F11404A94205D01AA0A268FEF716
S31508002230A1FFFEF747FFA268201F1158A94204D044
S3150800224024A0FEF797FFFEF73DFF3249E1602068BC
S3150800225058B1C2688A4208D1A26883681A44A26043
S3150800226000682060002818BF44606068002808BF1E
S3150800227070BDC2688A4218BF70BD8168A2681144E1
S31508002280816021680160002918BF486070BD0000A0
S315080022900DF0B1BA53696D706C65486561705F522F
S315080022A0656C656173653A204D656D6F727920625C
S315080022B06C6F636B206865616420636F72727570FA
S315080022C074696F6E3A202530387820253038780DB5
S315080022D00A00000053696D706C65486561705F524D
S315080022E0656C656173653A204D656D6F727920621C
S315080022F06C6F636B207461696C20636F72727570A2
S3150800230074696F6E3A202530387820253038780D74
S315080023100A000000EFBEADDE02F0E8BE502828BF76
S31508002320704738B58C46114603F00F020446012A59
S3150800233008BF032102D0002A18BF0221624601F015
S3150800234075F800200346024601460090204601F033
S31508002350FDFA38BD2DE9F0411420002100F082FA7B
S3150800236000201F49054621F81050401C0528FADBB5
S3150800237000241C4E012704EB440006EB00101A4902
S315080023800022876104F070FC641C102CF3DB1748EC
S31508002390056000221649062001F07EFA002215493A
S315080023A0072001F079FA00221349082001F074FA8F
S315080023B000221249092001F06FFA002210490A206A
S315080023C001F06AFA00220F49172001F065FA002287
S315080023D00D49282001F060FA0120BDE8F0810000CF
S315080023E04044001040410010D93B0008003C014021
S315080023F0DD330008E3330008E9330008EF3300084B
S31508002400F5330008FD3300086535000811494FF01B
S31508002410FF30086048608860C1F80001C1F804010F
S31508002420C1F808010D480C498160C160016141612C
S315080024308161C16201638163BFF35F8F094AC1632A
S3150800244007491160111F08600748016841F4E02137
S315080024500160704780E100E0B510000800800120A7
S315080024600007FA050CED00E024ED00E02DE9F04345
S315080024708946054635203A49684301EB800483B00E
S31508002480B4F8CC00002804BF03B0BDE8F083002DE3
S315080024900CBF4FF0A047334F00216846FEF7A4FC57
S315080024A00026D4F8D0004FF00108B9F1000F28D063
S315080024B000284DD1C4F8D080D7F8041841F002019D
S315080024C0C7F8041894F870000125012813DD04EBF9
S315080024D08500016900291CBF406B002806D001222F
S315080024E029462046FFF735F90028F8D194F87000F8
S315080024F06D1CA842EBDC84F85E602046FFF7BAFC48
S3150800250026E028B3C4F8D060002D14BF40F2C220DC
S3150800251040F2A220C6B214BF1E200B2033464FF04D
S3150800252000021146FFF7FAFE002D14BF1F200C20EB
S31508002530334600221146FFF7F1FED7F8041821F0BA
S315080025400201C7F8041884F85E802046FFF792FC5B
S315080025506846FEF74EFC03B00120BDE8F083000094
S31508002560E84400100000044070B582B00D46041E11
S315080025701CBF94F87000A842DEBF002002B070BDF0
S315080025806079002814BF1B4E4FF0A046002168460C
S31508002590FEF72AFC04EB8500016900291CBF406B85
S315080025A0002812D0E06E10F8150010F0010F12D0B6
S315080025B0012229462046FFF7CCF80028F8D16846BC
S315080025C0FEF717FC02B0012070BD6846FEF711FC45
S315080025D002B0002070BD6846FEF70FFC18B1214610
S315080025E0304601F090FB2A462146304601F016FB9C
S315080025F0E5E7000000000440214830B44FF0FF3101
S315080026000A0CC0E900121F48016841F00301016085
S315080026101D484FF0010CC0F808C00423400403808D
S315080026202021818000210181022282810183818308
S315080026305322028541634A1EC262A0F814C0134A97
S315080026401380131D1980124C17232380231D19800C
S31508002650104B19801B1D4FF6FF7119600E49A1F822
S3150800266000C0118841F001011180018841F0010183
S315080026700180002230BC09491C2001F00DB9000078
S315080026805840001040380240002004E00004004092
S31508002690080400402804004014040040CD1A00082D
S315080026A070B582B004460D4600216846FEF79CFBCD
S315080026B009484FF08046C0E900457463FEF7D4FB2D
S315080026C0001B71EB050024BF0220B0826846FEF7A6
S315080026D090FB02B070BD0000584000104FF07740E4
S315080026E0704700001A4910B51B300A6820F003012C
S315080026F0002A18BF174825D0D36883421FD193688C
S315080027008B421CD301F1280083420DD910461A18B2
S31508002710521A0368C2E900300260002B18BF5A60DB
S31508002720916083685B1A836062B10B48D0600B487E
S3150800273010619168131FC85002F1140010BD126889
S31508002740002AD9D106A0FEF715FD002010BD00000D
S315080027508C400010EFBEADDE5EBEADDE0DF0B1BA48
S31508002760202020204D656D6F72793A204F55544FC1
S31508002770464D454D4F525921212025640D0A00002A
S3150800278090F85C10002904BF02207047816D4A78D2
S315080027900A2A13D2DFE802F005071209120B1212F1
S315080027A00D0F00F00DB800F067BD00F05FBA00F03D
S315080027B037BA01F077B9012201F090B901F08CBC63
S315080027C081B00022ADF800204A88002A04BFCA88D2
S315080027D0022A24D190F85E30032B20D00A7812F012
S315080027E00F0208BF00F168011CD0012A02D0022A94
S315080027F005D014E0052B08BF694610D112E0042B5A
S3150800280001D18A885AB90A7902F07F028A8090F83B
S3150800281070108A423CBFC16E01EB420102D301200F
S3150800282001B0704781670221A0F87C100249416710
S31508002830002001B070470000C51C00080120704741
S31508002840502824BF002070470109054A02EB812160
S31508002850096900F00F0021FA00F000F00100704746
S31508002860000002400022134610B5121A73EB01024B
S315080028700BDA42F21072821A71F1000105DA00F0E1
S315080028805EFD03490860012010BD002010BD000050
S3150800289000400010502828BF7047020900F00F00BA
S315080028A0054B03EB8222012303FA00F080B20029CC
S315080028B014BF108350837047000002400628B2BF39
S315080028C0032A002070472DE9F04387B0894604465D
S315080028D01E469046002102A80F9FFEF785FA554826
S315080028E05549052C50F82450544804BF0A6842F04C
S315080028F020020ED0002C04BF0A6842F0100208D04D
S315080029004F4801684FF48032A240114301604D4898
S3150800291000E00A6000EB6900B0FBF9F028810C20A2
S31508002920092E08BF41F20C00B8F1000F06D040F49A
S315080029308060B8F1010F08BF40F40070A881012E2D
S3150800294008BF00264FF6FF7000EA063028820020EE
S3150800295017F0040F18BF4FF4007017F0020F18BFD6
S3150800296040F48070A88204A8009001AB06AA05A9C5
S315080029702046FFF71FFA7226032CA8BF8226F3B259
S31508002980002202210598FFF7C9FCF3B201220021B3
S315080029900698FFF7C3FC17F0040F02D00198401CF5
S315080029A01CD00022F3B211460198FFF7B7FC17F0C6
S315080029B0020F02D00498401C10D0F3B20122002165
S315080029C00498FFF7ABFC0021204600F0BFFA062C5E
S315080029D024D2DFE804F00A0E12161A1E02A8FEF721
S315080029E008FA07B00020BDE8F08300221649252022
S315080029F012E00022154926200EE00022144927205D
S31508002A000AE000221349342006E000221249352044
S31508002A1002E000221149472000F03EFFA88940F451
S31508002A200050A88102A8FEF7E4F907B00120BDE826
S31508002A30F08300008C7A00084438024000BD010586
S31508002A404038024080DE800295350008C13500080E
S31508002A50ED350008193600084536000871360008B5
S31508002A6010B5040004D04C2001F0A8F84D2003E06E
S31508002A702A2001F0A3F8432001F0A0F801212046FE
S31508002A80FFF7F4FC002C14BF05480648016814BF7C
S31508002A9021F0005121F080010160002010BD0000E6
S31508002AA030380240343802402DE9F043814685B07B
S31508002AB00F46104600F043FC04460D46002102A8C6
S31508002AC0FEF792F9FEF7D0F904194D4101264FF0A9
S31508002AD000083846FFF7C8F938B1044602A8FEF7D9
S31508002AE088F905B02046BDE8F083FEF7BDF9001B5E
S31508002AF071EB050006D302A8FEF77BF905B00020A6
S31508002B00BDE8F0831EB10220FEF706FB58B1CDE9F9
S31508002B10007801264A462046294603F023FD02A8E6
S31508002B20FEF778F9D5E702A8FEF76EF904F0A2F8E1
S31508002B30064602A8FEF76CF9CBE7000030B583B06D
S31508002B40054600220120CDE900020C4608234FF471
S31508002B50E1310220FFF7ACF824B1214611A000F0BC
S31508002B60D3F802E014A000F0CFF816A0E96B00F045
S31508002B70CBF818A0A96B00F0C7F81AA0696B00F08B
S31508002B80C3F805F140011BA000F0BEF80024214659
S31508002B9055F824201BA000F0B7F8641C0C2CF6DDB1
S31508002BA003B030BD455843455054494F4E20307800
S31508002BB0253032783A0D0A004552524F523A0D0ADC
S31508002BC0000000002020637073723D30782530388D
S31508002BD0780D0A002020706320203D307825303893
S31508002BE0780D0A0020206C7220203D307825303878
S31508002BF0780D0A002020737020203D307825303863
S31508002C00780D0A0020207225303264203D30782560
S31508002C103038780D0A000000FEF77DBE01207047A7
S31508002C2010B5044648887F289CBF8A88002A04BFB6
S31508002C30C988002903D194F85E10052901D301201B
S31508002C4010BD10F0FF0084F85D000CBF03200420BF
S31508002C5084F85E002046FFF70DF90020A4F87C00F2
S31508002C6001486067032010BDC51C000810B504465E
S31508002C70C888002832D194F85E20032A2ED0087816
S31508002C8010F00F0005D0012808BF10BD022825D175
S31508002C9014E04888012821D10A4602212046FEF779
S31508002CA0F8FDD8B1C07A10F0200F05D0B4F8680046
S31508002CB040F00200A4F8680006201CE0042A01D1AE
S31508002CC0888858B9087900F07F00888000281CBFDA
S31508002CD094F87020824201D94A880AB1012010BDB1
S31508002CE0E26E32F8103043F0010322F8103008790A
S31508002CF084F8710004200021A4F87C10014961675A
S31508002D0010BD0000C51C00080FB4FF2110B5C0B0E7
S31508002D1043AB6846429AFEF769FD04460220FEF771
S31508002D2032FA224669460220FEF72FFA0220FEF7FB
S31508002D302AFA40B010BC5DF814FB00002DE9F041FA
S31508002D4088B044F62060029003A906A8FEF768FC3E
S31508002D500399069800F024F9544C5548616802F026
S31508002D6053FD02A9534804F039FC002818BF012076
S31508002D7028B902A800F0B6FB002800F06F8001F021
S31508002D80EBFA00250126CDE90065032304224AA1B2
S31508002D9040F20150FEF7FBF94EA0009050A3534AAB
S31508002DA053A140F20150FEF7F2F9606800F0D8FA34
S31508002DB000221146104600F071FCE068FFF7BAF9E8
S31508002DC00123032204213CA00095FEF7D3F941A371
S31508002DD043A246494DA0FEF7CDF9524952A0FEF747
S31508002DE0C9F9E068FFF7A6F904A8009008230122AC
S31508002DF000210496534803F017FBFEF735F8DFF871
S31508002E00488106460F4685212020029AFFF74CFE88
S31508002E10040018BFFEF7F0FB14F0800F04D0002260
S31508002E2002A9012000F03AFC14F0050F1CBF204847
S31508002E3002F0DAFE1E48D0F8040810F0020F1BD084
S31508002E4020F00200C8F80000002202A9022000F0C3
S31508002E5025FCFEF709F806460F46D4E7144803F0A2
S31508002E6069F8002804BF4FF0FF30029087D001F0C0
S31508002E7013FA08B0BDE8F0810298411CC3D000F0EF
S31508002E805EFA04460D46FDF7EFFF801B61EB07016E
S31508002E90201A75EB0100B6D200221146072000F071
S31508002EA0FDFB034803F046F8ADE700000C400010B0
S31508002EB0386400106072001054696E79426F6F743E
S31508002EC06572207625642E25642E25642E25640DCC
S31508002ED00A00000031393A34373A35370000000025
S31508002EE04A756E2020342032303134003479000897
S31508002EF02573204275696C6420446174653A0D0A2D
S31508002F000925732025730D0A000000002573204249
S31508002F1075696C6420446174653A202573202573AD
S31508002F200D0A00007C994C0041524D20436F6D708C
S31508002F30696C65722076657273696F6E2025640DFB
S31508002F400A000000486C00103C6C001000B50346EF
S31508002F5041B1002101F074F9002118465DF804EB2F
S31508002F6001F088B9012101F085F9012118465DF8BB
S31508002F7004EB01F065B9000070B50022064D074C58
S31508002F8020211046FFF730F9024621462846BDE8BB
S31508002F907040FFF729B9000000400010000000004B
S31508002FA0074A10608160116800200860116848604F
S31508002FB011680448C8601168034808617047000032
S31508002FC08C400010EFBEADDE0DF0B1BA2DE9F00F62
S31508002FD000268BB001463746304632463346E84629
S31508002FE008F80230521C1F2AFADB0022FF230DF1D3
S31508002FF0200B0BF80230521C0A2AFADB00280FBFF6
S315080030004FF001090BB0BDE8F00F70474B880A78FE
S3150800301003EB010A022A39D003DA82B1012A06D162
S3150800302015E0032A00F0CB80FF2A00F0D480172091
S3150800303051460028EAD00BB0BDE8F00F70473E4273
S315080030400FBF01200BB0BDE8F00F7047F0E7002E68
S3150800305018BF0220ECD1162B06BF0A79122A0320C4
S31508003060E6D14A79012A18BF0420E1D1CA7A082A8A
S3150800307018BF102A04D0202A1CBF402A0520D7D101
S31508003080497D012914BF06200126D1E7002F18BF64
S315080030900720CDD10A79092A70D1CA88121D934210
S315080030A06CD14A79022A18BF0920C1D10A7A002AA6
S315080030B008BF0A20BCD04B7A012B88BF0B20B7D893
S315080030C0CB7A03F08F03802B18BF0C20B0D10D31BB
S315080030D0521ED5B24A78042A01D00E20A8E70A78EB
S315080030E0092A01D00D20A3E7CA780AB10F209FE765
S315080030F00B79002B18BF002210D01BF802C0BCF1B8
S31508003100FF0F07D00A2A07DA8C78A44518BF521C85
S31508003110F3D11A200A2A03DB1B2089E7102087E748
S3150800312091F802C009310BF802C04A78052A05D081
S3150800313091F800C061444A78052AF9D15A1ED2B2DC
S315080031402BB92DE04B78052B01D0122070E70B78B0
S31508003150072B01D011206BE78B7803F07F0CACF1BD
S3150800316001031F2B01D3182062E7CB7813F0030F56
S3150800317002D013F0C00F02D0132059E71DE00CEB64
S31508003180080313F801CCBCF1000F01D019204FE752
S3150800319003F8019CC91D1300A2F10102D2B2D1D1D4
S315080031A000287FF445AF2A00A5F10103DDB291D1CD
S315080031B0514508BF01273FF43BAF082038E70A7995
S315080031C0121D934218BF14207FF432AF49790329A0
S315080031D018BF15202CE7097911F0800F08BF1620B3
S315080031E026E7000010B582B0044600216846FDF7C0
S315080031F0FBFD1C49002051F824108881062C11D2A9
S31508003200DFE804F0030507090B0D252008E0262052
S3150800321006E0272004E0342002E0352000E04720BD
S3150800322000F0CCFC01212046FFF790FE0E48052C45
S3150800323012D0002C04BF016821F0100105D00B48FC
S3150800324001684FF48032A240914301606846FDF759
S31508003250D0FD02B0012010BD016821F020010160F7
S31508003260F4E700008C7A00084438024040380240EF
S3150800327070474FF04A40704710B50446C888002882
S3150800328004BF94F85E00052829D1087810F00F00CD
S3150800329005D0012808BF10BD022820D114E04888AF
S315080032A001281CD10A4602212046FEF7F2FAB0B1DF
S315080032B0C07A10F0200F12D0B4F8680020F002008F
S315080032C0A4F86800062017E0087910F07F008880C7
S315080032D005D094F87020824201D94A880AB10120A3
S315080032E010BDE26E32F8103023F0010322F81030D8
S315080032F0087984F8710004200021A4F87C1001499B
S31508003300616710BDC51C0008002070470020704783
S315080033100023024A0249034803F064BCD440001063
S31508003320A0400010E06D001000B583B0DDF810C0B5
S31508003330CDE9003C002300F0E5F803B000BD4FF4EA
S315080033407A71A0FB01017047044951F820000088F2
S3150800335010F0800018BF0120704700008C7A000822
S3150800336030B500F47F4183B0C4B2B1F5807F06D092
S31508003370B1F5007F10D0B1F5407F14D125E00021CA
S315080033800120CDE900011448082300220169601EC6
S31508003390FEF78EFC03B030BDC0F34210002105468F
S315080033A0FEF79CF910B103B0002030BD2846FEF7A1
S315080033B0AEFA002804BF03B030BD601E03B0022277
S315080033C0BDE830400121FEF7A4BA03B0601EBDE88F
S315080033D03040FEF707BF00000C4000100020FEF743
S315080033E013BC0120FEF710BC0220FEF70DBC03201B
S315080033F0FEF70ABC0420FEF707BC000070B50948B2
S315080034000068094909680525084000F478704409E8
S3150800341014F0010F1CBF2846FEF7F6FB6D1C640866
S31508003420F6D170BD143C0140003C01402DE9FF4F28
S315080034301F46DFF8A8C003090CEB832400F00F0C25
S31508003440012000FA0CF84FEA4C00032303FA00F5B2
S31508003450002683B0022A08BF012602D0012A08BF27
S31508003460022606FA00F281400491390A01FA00F9A7
S315080034704FEA4C70C00E0F2101FA00F6C7F303118C
S3150800348001FA00FB02924FEADC0A00216846FDF7C2
S31508003490ABFC20680499A84308432060E068029AB8
S315080034A0A8431043E060A068A84340EA0900A0606A
S315080034B004EB8A00016AB14341EA0B0101626068C4
S315080034C017F0010F14BF40EA080020EA0800606000
S315080034D06846FDF78EFC07B0BDE8F08F0000024095
S315080034E001F034BE70B5054600242046FFF7A8F95A
S315080034F010B1601E01242860204670BD0020704768
S3150800350003F03ABE502824BF002070472DE9F8433F
S3150800351090461F46DDE908620D4600230446194613
S31508003520FFF784FF33463A4641462046009500F0A9
S315080035300DFABDE8F883502828BF704738B5044609
S31508003540FFF7A8F900231A4601212046FFF76EFF68
S3150800355000210B460A462046009100F0F7F938BDCF
S315080035607047000070B509480068094909680A25C6
S31508003570084000F47C40840A14F0010F1CBF28465A
S31508003580FEF742FB6D1C6408F6D170BD143C014081
S31508003590003C014070B5094D2C8814F0200F03D06B
S315080035A02946002000F0CBFA14F0800F08BF70BD42
S315080035B02946BDE87040002000F0DABA0010014044
S315080035C070B5094D2C8814F0200F03D02946012028
S315080035D000F0B5FA14F0800F08BF70BD2946BDE8A3
S315080035E07040012000F0C4BA0044004070B5094D8F
S315080035F02C8814F0200F03D02946022000F09FFAE9
S3150800360014F0800F08BF70BD2946BDE8704002203F
S3150800361000F0AEBA0048004070B5094D2C8814F089
S31508003620200F03D02946032000F089FA14F0800FF2
S3150800363008BF70BD2946BDE87040032000F098BA5F
S31508003640004C004070B5094D2C8814F0200F03D0AB
S315080036502946042000F073FA14F0800F08BF70BDE5
S315080036602946BDE87040042000F082BA00500040A8
S3150800367070B5094D2C8814F0200F03D02946052073
S3150800368000F05DFA14F0800F08BF70BD2946BDE84A
S315080036907040052000F06CBA0014014070B515465C
S315080036A00C46092828BF70BDDFE800F005291C2A4A
S315080036B0323A44295A0001213C20FFF73CFF0121F8
S315080036C03D20FFF738FF01213E20FFF734FF002198
S315080036D03F20FFF730FFBDE8704028A140F20150B7
S315080036E0FDF755BD002C08BF70BD2068411C002998
S315080036F01CBF44F620618142CCBF216070BD70BDFD
S315080037000A46BDE8704020A140F20150FDF73FBDD2
S31508003710BDE870400A461FA140F20150FDF737BDCB
S315080037201FA140F20150FDF732FDBDE870401CA014
S31508003730FDF720BD31B11EA140F20150FDF727FD6E
S315080037401BA005E01FA140F20150FDF720FD1DA0BA
S31508003750FDF710FD2048C068BDE87040FEF7EABCDA
S31508003760002C08BF70BD0A461CA140F20150FDF7A7
S315080037700EFD44F00100286070BD000057616974B1
S31508003780696E670D0000000057723A2030782530C0
S3150800379038780D0045723A203078253038780D0093
S315080037A043686B207369676E6174757265200D00D6
S315080037B05369676E617475726520504153530D0ADB
S315080037C00D0A00005369676E61747572652046417B
S315080037D0494C0D0A0D0A00000C4000105374617222
S315080037E074696E67206170706C69636174696F6E65
S315080037F0206174203078253038780D0A00000000E2
S315080038000020704710B500F47F420446C1B2B2F5F5
S31508003810807F0CD0B2F5007F0ED0B2F5407F1CBF7A
S31508003820002010BD481EBDE81040FFF7F7B9BDE8F7
S315080038301040481EFEF770BD481EFEF79CF9C4F3FB
S315080038404210BDE81040FEF7B2BA000010B50446B3
S3150800385084B008A0FDF7F5FE06A10022CDE90021F7
S315080038600290012303220421204602F093FD04B0AE
S31508003870012010BD436F70797269676874204F62C2
S3150800388065726F6E206D6963726F73797374656D97
S31508003890732C20496E632E000A4A02EB8002BFF39E
S315080038A05F8F116400F01F020121914042094FF019
S315080038B0E02000EB8200C0F88012C0F80011012059
S315080038C070470000008001202DE9F04104460E46AD
S315080038D0D4E9021082B0D1F808C00025E84601AF45
S315080038E0E0473B464246314603F088FFB0B1D4E98B
S315080038F002108968884781690098102200EB8000C9
S3150800390002EB80000958019800EB400011F82000EE
S3150800391010280ABF03A00125FDF72CFC284602B093
S31508003920BDE8F081547279696E6720746F207772EA
S3150800393069746520746F20626F6F74737472617036
S3150800394020726567696F6E0D0A0000002DE9FF4F4A
S315080039508A46074600F00F00012101FA00F48107A4
S31508003960090F0F2202FA01F93A0902FA01F800EBE7
S315080039704001464883B000EB0115DDF840B01E460D
S315080039802846C5F824A002F023FE00216846ED600B
S31508003990FDF72AFA5FEA0A013D48C7F38102DFF814
S315080039A0F4A000EB820060D0016801EA09014145F4
S315080039B010D0DAF80010214206D06846FDF719FA49
S315080039C007B00020BDE8F08F016821EA090141EA45
S315080039D00801016085F8207085F8216085F822B015
S315080039E02D490598A8620868A0430860081D026862
S315080039F0A2430260062E22D2DFE806F02103080F52
S31508003A000803016821430160002003E00868204399
S31508003A100860012085F8230011E00268224302604D
S31508003A200868204308601D4B1C603846FEF708FFEF
S31508003A3019682142F8D180F0010085F82300DAF8E8
S31508003A4000002043CAF80000042E02D0052E05D037
S31508003A5015E03846FEF7F4FE88B103E03846FEF76F
S31508003A60EFFE60B90E48046009E0006800EA090044
S31508003A70404504D1DAF80000A043CAF800006846B9
S31508003A80FDF7B7F907B00120BDE8F08F40410010F7
S31508003A9008380140003C0140083C0140143C014004
S31508003AA0103C01404A88002A01BF8A88002AC98832
S31508003AB001290FD190F85E1003290BD000F160019F
S31508003AC081670121A0F87C10A0F87E1002494167A1
S31508003AD00020704701207047C51C000870B50446D1
S31508003AE088881546002804BFC888002806D194F897
S31508003AF05E00032802D04888012801D9012070BD3C
S31508003B0010F0FF0084F860000CBF0420052084F83C
S31508003B105E002046FEF7AEF925B10020A4F87C0029
S31508003B2001486067052070BDC51C000803F036BB58
S31508003B300123036000200B60C2E90000704770B5DE
S31508003B4005460C460120FDF7F1FA0220FDF7EEFACC
S31508003B50A1882846C9B2FFF7C3FC0120FDF7F0FA91
S31508003B600220FDF7CFFABDE870400120FDF7CABA7A
S31508003B7038B505460C460120FDF7D8FA0220FDF7B0
S31508003B80D5FA6946284600F032F9002819BF9DF88B
S31508003B900000A080A08920F0800008BFA081022034
S31508003BA0FDF7CEFA0220FDF7ADFA0120FDF7AAFAD5
S31508003BB038BD0000004870470CE0002000F01F01E7
S31508003BC0012202FA01F140094FF0E02202EB8000DF
S31508003BD0C0F880110120704710B50446406A0028D5
S31508003BE008BF10BD94F82000FEF72AFE94F823209B
S31508003BF0824218BF10BD94F820C00146636A604629
S31508003C00A26A984794F82100032818BF10BD94F8B3
S31508003C10230080F0010084F8230010BD2DE9F0414F
S31508003C20154600EB45148046D4F808090E4610F0F0
S31508003C30010F1CBF0120C4F8080904F51067D4F861
S31508003C40000910F0004F18BFBDE8F0815DB306EB20
S31508003C508500016900291CBF406B00282BD0012272
S31508003C6029463046FDF775FD00281CBF011D006872
S31508003C7021D001B340F40022C4F81029D4F8002951
S31508003C8042F004423A6008EB053202F580520028F9
S31508003C90D8BFBDE8F08151F8043B1360001F002827
S31508003CA0F9DCBDE8F081716F29B13046884796F88E
S31508003CB05C00B16DDDE7D4F8000940F000603860BB
S31508003CC0BDE8F081F8B51C4615000B46064614D02B
S31508003CD06A4629461846FDF703FD011D046006EBF2
S31508003CE0053000F58050002CD8BFF8BD0268241FA7
S31508003CF041F8042B002CF9DCF8BD03F18001996525
S31508003D0083F85C40EBE72DE9F0410546884601203B
S31508003D10FDF70CFA0220FDF709FA6C6914F0100F8A
S31508003D2014D0286A00F00F02C0F30A1300F4F0104A
S31508003D30B0F5802F18BFB0F5402F03D1414628466D
S31508003D40FFF7C0FF6C6914F0100FEAD114F4802F46
S31508003D5011D0D5F818084FF000070604360C0AD01B
S31508003D6016F0010F04D03A4641462846FFF756FF9B
S31508003D707F1C7608F4D114F4002F10D0D5F8180853
S31508003D804FF00007060C0AD016F0010F04D03A4689
S31508003D904146284600F044F87F1C7608F4D114F40E
S31508003DA0805F06D04146284600F080F84FF48050E0
S31508003DB0686114F4006F06D04146284600F080F981
S31508003DC04FF40060686114F0004F06D0414628465B
S31508003DD000F012F94FF0004068610220FDF792F9F1
S31508003DE0BDE8F0410120FDF78DB90020704701F0CC
S31508003DF037BA41094FF0E02202EB8101D1F80011F0
S31508003E0000F01F0021FA00F000F0010070470000E2
S31508003E10024A52F820008180704700008C7A000818
S31508003E2030B400EB4213D3F808CB1CF0010F1CBFCB
S31508003E300124C3F8084B1CF0080F1CBF4FF0080CF0
S31508003E40C3F808CBA2B101EB820C00EB4210DCF8F8
S31508003E5010C000F53060DCF808C0BCF1000F1CBFCC
S31508003E60D3F8001B41F0006113D0016030BC7047E5
S31508003E7091F85F2042F4002242F0C042C0F8102BAD
S31508003E80D0F8003B43F00443C0F8003B30BC00F0D8
S31508003E90D1B8114491F82E1041F40021C3F8101B33
S31508003EA0D3F8001B41F00441DFE700002DE9F04795
S31508003EB00C464FF0FF314161402141624FF04011FD
S31508003EC0816294F8702080230021002AC4BF4FF035
S31508003ED0FF0C4FF0804515DD00EB810643F48002A8
S31508003EE0C6F8002100EB41124033C2F808C9C2F8EF
S31508003EF008CBC2F80059C2F8005B94F87020491C38
S31508003F008A42E9DC4FF4866101614FF40041C0F84A
S31508003F100019C0F8001B0026C0F810694FF0C04110
S31508003F20C0F8101BB4F8CC104FF0011389084FF0F5
S31508003F3001024FF0020C18BFDFF89C802BD011F05D
S31508003F40030523D0A71804EB820997F82E7048EAD0
S31508003F508545D9F834903D43B9F1000F0AD045F0AC
S31508003F60006500EB421745EA8255C7F8005943EA4F
S31508003F700C030BE047F4002900EB4217C7F8109B27
S31508003F8045F00445C7F8005B43EA0C43521C890810
S31508003F904FEA4C0CD3D10125C0F810580921C0F8B6
S31508003FA01418C0F81C380D49816100F50061D0F875
S31508003FB0000820F4FE600860A91E0020FDF767FCD3
S31508003FC00320656684F85E0084F85D602046BDE8D7
S31508003FD0F047FDF74FBF00000080001010180C8056
S31508003FE0044951F82000008810F0400018BF01204D
S31508003FF0704700008C7A000800F60402D0F804081E
S3150800400020F00100106091F8CE0081F85E000846A5
S31508004010FDF730BF02494FF0A040FFF774BE00001D
S31508004020E844001001490248FFF76DBEBC45001080
S315080040300000044070B506460D460846FEF7A0FB8C
S31508004040044604280ED2DFE800F00D2E0B02D6F83F
S31508004050001895F85D2041EA0211C6F8001801E03B
S3150800406000206867002229463046FFF7D7FD052C51
S3150800407018BF70BD012495F870000128D8BF70BD1F
S3150800408005EB8400016900291CBF406B002804D099
S31508004090224629463046FFF7C1FD95F87000641C94
S315080040A0A042EDDC70BDD6F8001941F40011C6F83F
S315080040B00019D6F8001B41F40011C6F8001B70BDA4
S315080040C0084691F85E1080F8CE10062180F85E103A
S315080040D0FDF7D0BE0020704770B5044648880D46E7
S315080040E0030AC1B2E888454EA4F87E004FF0000CDA
S315080040F0B0B194F85E20032A0AD8626E42B1C4F8B9
S3150800410064C094F85F20824298BF1046A4F87E00E7
S31508004110C4F878C0A4F87CC06878062805D056E0AC
S31508004120A4F87CC00020666770BD012B04D0022B62
S3150800413013D0032B4BD11EE02A4601212046FDF75A
S31508004140A8FB00283ED0011DA167B4F87E100079AF
S31508004150814235D2A4F87C1034E02A460221204652
S31508004160FDF797FB70B3011DA167B4F87E10C088F0
S315080041708142EFD324E011B1052914D109E0204882
S31508004180A067B4F87E00042828BF0420A4F87C00A1
S3150800419018E01C49087830B1A167B4F87E1081424E
S315080041A038BF0846F2E72A4603212046FDF771FB89
S315080041B040B1011DA167B4F87E1000798142C9D3C8
S315080041C00146C7E7A06F10B10020666770BD2A4692
S315080041D0FF212046FDF75DFB002804BF012070BDC6
S315080041E000F10A01A1674088B4F87E10A0F10A021E
S315080041F0914228BF1146A4F87C10E5E7C51C0008C3
S3150800420060400010F06300100C4910B551F82010FA
S31508004210898A11F4007F0ED00B21012808BF0021DE
S3150800422002D0022808BF1D210846FEF709FB002810
S315080042301CBF002010BD012010BD00008C7A0008AC
S31508004240054A002952F82000818914BF41F020014F
S3150800425021F02001818170478C7A0008044951F8C1
S315080042602000808910F0800018BF012070470000E8
S315080042708C7A0008054A002952F82000818914BF63
S3150800428041F0800121F08001818170478C7A000815
S315080042907047FEE700F044BA024901480860FEE7A5
S315080042A00400FA050CED00E070B5284C254D264EA5
S315080042B02168302807D0402837D0306840F00400FD
S315080042C0306030BF70BD002918BF8847286840F0A5
S315080042D004002860306840F205210843306030BF8A
S315080042E01B48016841F480310160296821F0040106
S315080042F02960016811F4003FFBD0016841F0807124
S315080043000160016811F0007FFBD012490A6842F08B
S3150800431002020A60016821F0010101606068002854
S3150800432008BF70BDBDE870400047002918BF884720
S31508004330286840F004002860306840F006003060C5
S3150800434030BF70BD10ED00E0007000400440001062
S315080043500038024008380240704700F067BA00F09B
S31508004360D2BA000070B50E4E04463068A8B90125C9
S31508004370A5610021E561C4E9081104F12002111FB5
S31508004380081FFFF7D5FB0020C4E9020006490548C7
S31508004390C4E90001C4E904013560002070BD0000CD
S315080043A09C400010000095D9EE1FCC0130B583B0B3
S315080043B00C46054600216846FCF716FD2846FDF71B
S315080043C0DDFB78B1856825EA040100248160204672
S315080043D0FDF7D4FB806858B16846FCF70AFD03B0C0
S315080043E0284630BD6846FCF704FD03B0002030BD02
S315080043F0641C022CEBDB0420FDF7FEF8ECE700005A
S315080044002DE9F0418AB00546FDF7B8FB04460021C0
S3150800441008A8FCF7E9FC002C60D0404E206860B183
S31508004420706800F47F41B1F5007F06D1C0F34210F1
S31508004430A84204BF284600F027F9E06818B9002109
S31508004440284600F02BFB36A02022694602F0FCFB2A
S315080044500027374B00281ABF0020EC461F700FD0E4
S3150800446003EB40021CF800109170D77011B1401C84
S315080044702028F5DB022101EB400018700320587054
S31508004480002202212046FDF704FA0746206828BBC9
S3150800449027B380212046D4F80C80FBF712FF0020B2
S315080044A0FF22C4F80C8004EB4001401C81F84C2024
S315080044B081F84D200628F6DB65712271F87A10F02E
S315080044C0400FB4F8680014BF40F0010020F0010066
S315080044D0A4F868002846FDF71DFD30B108A8FCF7CA
S315080044E088FC0AB00020BDE8F081706800F47F41BE
S315080044F0B1F5007F04BFC0F34211A94205D1C0B28D
S31508004500401E02220121FDF704FA0120206008A8B6
S31508004510FCF76FFC0AB00120BDE8F0810C400010E2
S315080045205553425F4E414D455F434F4E46494700FE
S31508004530F063001070B50C46C0F3421100F01F0678
S3150800454082B015460846FDF719FB00281CBF01680E
S3150800455000294AD0062E48DAFF2D12D0691E0529F1
S3150800456043D2FF2C02D0611E05293ED200EB460637
S3150800457096F84C10FF2904BF96F84D10FF2934D140
S3150800458002E0FF2C31D0EEE7FF2D03D000EB8501CA
S31508004590096951B3FF2C03D000EB8401096921B3E3
S315080045A0FF2D03D000EB8501496BF1B9FF2C03D031
S315080045B000EB8401496BC1B10021FF2D09D000EB46
S315080045C0410292F84C30AB421CBF92F84D20AA42E9
S315080045D00BD0FF2C0CD000EB410292F84C30A342D2
S315080045E01CBF92F84D20A24202D102B0002070BD35
S315080045F0491C0629E1DB00216846FCF7F5FB86F82D
S315080046004C5086F84D406846FCF7F3FB02B0012093
S3150800461070BD30B5C0F3421100F01F0583B00846DF
S31508004620FDF7ACFA04001CBF2068002801D0062D4F
S3150800463002DB03B0002030BD00216846FCF7D4FB3E
S3150800464004EB4501002291F84C00FF2806D004EB44
S315080046508000006910B1026042608260FF2381F821
S315080046604C3091F84D00FF2806D004EB8000006915
S3150800467010B102604260826081F84D306846FCF7EE
S31508004680B8FB03B0012030BDF0B583B00546FDF791
S3150800469075FA040004BF03B0F0BD00216846FCF7B4
S315080046A0A3FB2068C8B11C4800218288D6B202F450
S315080046B07F40C2F34213A6F1010CB0F5007F04BF98
S315080046C0AB428C450FD004EB410292F84C70FF2F99
S315080046D004BF92F84D20FF2A05D06846FCF789FBEF
S315080046E003B00020F0BD491C0629E6DBB0F5007FC3
S315080046F002BFAB426046FDF73EFA0020206028461E
S31508004700FEF7AEF90548FCF7B8FB6846FCF771FBFF
S3150800471003B00120F0BD00000C400010A086010087
S315080047202DE9F74F8A4684B0C0F3421100F01F0402
S3150800473008460391FDF722FA5FEA00091FD0062C06
S315080047401DDA99F85E00052819D109EB440090F89E
S315080047504CB0BBF1FF0F12D009EB8B000290006939
S3150800476068B100216846FCF73FFB0024069EA04678
S31508004770002E88BF09EB0B074AD924B115E007B00C
S315080047800020BDE8F08F02980069D0E900218A422E
S3150800479002BF8268002A002405D001EB011100EB54
S315080047A0810000F10C04002C39D097F82800216804
S315080047B00D1AAE4238BF3546211D01442A465046D9
S315080047C0FBF7CEFC97F82800761B2844C0B287F87A
S315080047D028002168AA44A844884216D1002287F8EE
S315080047E02820029814460069D0E900318B4204BF9C
S315080047F08368002B05D0491C082908BF0021C0E999
S31508004800011259464846FDF7C5F906988045B4D3BE
S315080048106846FCF7EEFA07B04046BDE8F08F01207F
S3150800482000FA0BF10398FDF732F8F1E72DE9F047A6
S31508004830C0F3421100F01F054FF47A740846FDF7DD
S315080048409DF95FEA000851D0062D4FDA98F85E0008
S31508004850052852D108EB450090F84D90B9F1FF0FA5
S3150800486044D008EB8906306900283FD0D0E90021FA
S31508004870914284BF501A00F1080704D880680028BE
S3150800488014BF0827571A3269D2E90001884204BFC3
S315080048909068002834D0002C2BDD49464046FDF7A9
S315080048A063FE0020FCF7BFFA58B1FEF7A9FF40B136
S315080048B00620FFF79EFA00281CBF4FF4FA70FCF793
S315080048C0F7FA3269D2E9001081423CBF081A00F1B2
S315080048D0080504D39268002A14BF08250D1AAF42AA
S315080048E00CBF641E4FF47A742F46CCE70020BDE84F
S315080048F0F08700211160516091600120BDE8F087C2
S31508004900002CFADCF5E72DE9F74F8946C0F342118A
S3150800491000F01F0484B000250846FDF72FF90700AC
S315080049204FD0062C4DDA0698002804BF07B0BDE81C
S31508004930F08FB9F1000F44D097F85E00052840D1F2
S3150800494007EB440090F84D000290FF2839D007EB9A
S31508004950800003900069002833D000216846FCF7E0
S3150800496043FA02984FF0000B069E5C4607EB000AD6
S31508004970039800690268511C082908BF002183684A
S31508004980002B18BF4FF0000820D0B8F1000F2AD02E
S315080049909AF82E40B44228BF34462CB122464946DE
S315080049A008F10400FBF7DCFB9AF82E00A04288BF4A
S315080049B04FF0010B361BA1442544C8F800400024DB
S315080049C038E007B04FF0FF30BDE8F08F43688B4200
S315080049D004BF01238360016002EB021100EB810032
S315080049E000F10C08D1E7641C642C09D906988642A4
S315080049F02BD103980021006901604160816024E0A1
S31508004A000120FCF789FB00BB6846FCF7F6F900288D
S31508004A1004BF97F85E00052817D138460299FDF7B6
S31508004A20A3FD6846FCF7F0F93220FCF741FA684620
S31508004A30FCF7EEF9BBF1000F9AD097F85E0005284F
S31508004A4003D138460299FDF78FFD6846FCF7D1F980
S31508004A5007B02846BDE8F08F30B583B00D4604464A
S31508004A6000216846FCF7C0F92046FDF787F870B1C3
S31508004A70846844EA05018160A1421CBF0420FCF752
S31508004A805FFB6846FCF7B5F903B0204630BD6846BB
S31508004A90FCF7AFF903B0002030BD00002DE9F04166
S31508004AA00E460025FDF76AF8070004BF1C20BDE87E
S31508004AB0F081002E08BF144E3046FEF787FA5FEAEB
S31508004AC0000818BFBDE8F0810F4CF868A04218BF6F
S31508004AD002F007FFA64208BFFE6011D030783446C0
S31508004AE028B160880444054420780028F9D12C1D93
S31508004AF0204602F0F8FE22463146F860FBF730FB06
S31508004B004046BDE8F08100007C7F00080160002176
S31508004B1041608160C160016141618161C161016279
S31508004B2041628162C0E90B11C0E90D1170470000AE
S31508004B302DE9F04104460068069E1F460068904627
S31508004B400D46002808BF13A0016861604068A06090
S31508004B50002239463046FDF747FB20612869606127
S31508004B602068B0F850102183B0F85010491CA0F8FE
S31508004B705010A88A608348F002006662C4E90707F5
S31508004B8000200246E0602021201DFDF72DFBE06095
S31508004B90BDE8F0814D53706B7456310070B504460C
S31508004BA0C56800200246E0602021201DFDF71CFB99
S31508004BB0A8420CBF01200020E56070BD10B5044670
S31508004BC0D4E9081000B939B90022FDF70DFB2169AF
S31508004BD0884204BF012010BD002010BD2DE9F04118
S31508004BE004460068069D1E46006817468846002843
S31508004BF008BF11A0016861604068A06000223146C4
S31508004C002846FDF7F1FAC4E904082068B0F8501000
S31508004C102183B0F85010491CA0F85010002060837A
S31508004C20E761E060C4E9086502462021201DFDF71A
S31508004C30DBFAE060BDE8F0814D53706B74563100C5
S31508004C4030B50D4693B00446016802A8FFF75EFF2B
S31508004C500020009044F2010045EA000200231946AC
S31508004C6002A8FFF7BBFF02A9206801F0D8FB13B022
S31508004C7030BD0121816370472DE9F05F061D0446AA
S31508004C80B0464FF0020A4FF006090127A06B072825
S31508004C9080F0B780DFE800F09F040D425478A40046
S31508004CA0204600F0BBF82020C4F838A0C4E90A80E2
S31508004CB0ECE7206804F12C02111FD0F80CC04068FC
S31508004CC0036860469847002818BFE06A7ED0C0F19E
S31508004CD02005002D1CDD082D34BFAB464FF0080B10
S31508004CE05A4649A1201DFBF70FFA88B15A4648A132
S31508004CF0201DFBF709FA58B16A1E711C3046FBF7EE
S31508004D0074FAA06A401EA062E06A401CE062DEE710
S31508004D10082D28BF0320B9D3A063B7E7206804F19C
S31508004D202C02111FD0F80CC04068036860469847EB
S31508004D30002850D0E06A002808BF0420A6D1EBE777
S31508004D402046FFF72BFFB0B120682146C36880686C
S31508004D5002681846904770B1206AB0B3606AB0B36B
S31508004D60FCF782F8C4E90C010520A063606AA0621A
S31508004D70206AE0628AE7207F10F0010F2ED1042115
S31508004D802046FFF75DFF29E0FCF76EF8D4E90C230F
S31508004D9005468B46801A61EB0301FDF73DFF1E4A67
S31508004DA0801A71F1000019D2C4E90C5B206804F17D
S31508004DB02C02111FD0F80CC040680368604698475B
S31508004DC020B1E06A00287FF461AF01E003E005E066
S31508004DD0C4F838905AE70120BDE8F09FA76355E765
S31508004DE02046FFF7EBFE38B120682146C368806885
S31508004DF0426818469047F1E708212046FFF720FF4A
S31508004E00ECE70020BDE8F09F4D5364626756310019
S31508004E104D53706B745631000087930310B50446E2
S31508004E20406A002808BF10BD20682146C36880680C
S31508004E308268184690470020606210BD2DE9F0434D
S31508004E4004465B4883B00D46D0F8100900287DD08B
S31508004E505848216908180AD0A0F58030B0F5FF50E7
S31508004E6015D0534802F0B0FB042871D09CE0504896
S31508004E7002F0AAFB042869D101214D4802F0FAFB89
S31508004E80002863D101214A4802F0A0FA69E0DFF858
S31508004E902891D9F800000028D8BFFBF717F9DFF8E2
S31508004EA01C81D8F8000028B9FBF710F9D8F80000DB
S31508004EB0002875D0D9F80000002871DDD8F8004020
S31508004EC00027A07904280CD1394802F07DFB042874
S31508004ED012D0D9F800203648D8F8001002F0A8FBFE
S31508004EE00127D8F8000002F0FCFC0020C8F80000F2
S31508004EF003B03846BDE8F08304F5127200212C4849
S31508004F0002F047FB002814BF0025012504F553725B
S31508004F100121274802F03DFB00280CBF012400248C
S31508004F200021234802F0A6FB002814BF012600260C
S31508004F3001211F4802F09EFB002818BF012035EA10
S31508004F40060108BF34EA0000CBD1C2E72CE0FFE730
S31508004F502946174802F08EFB30BB2946144802F052
S31508004F6035FA002804BF03B0BDE8F08304F1140342
S31508004F70D4E90212CDE900120293D4E900230146CE
S31508004F800220FCF78BF82076012806D104F11400DC
S31508004F90FCF786F820760128F8D010F0FF0F03D02A
S31508004FA003B00020BDE8F08303B00120BDE8F0831C
S31508004FB060720010B0DFFFBF544000105040001070
S31508004FC010B4DDE9014C80E81E1000214161F7218B
S31508004FD0017610BC704710B504461430FCF75CF82F
S31508004FE0204610BD062824BF002070472DE9F0434F
S31508004FF085B08946DDE90C6504461F4690460021C2
S3150800500002A8FBF7F1FE04EB4400354900EBC400A7
S3150800501001EBC00CDCF8140010F4003F06D002A81F
S31508005020FBF7E7FE05B00120BDE8F0830020CCE9D8
S315080050300F04CCF81400DCF8141041F0080141F410
S315080050400031CCF8141015F0080F05D0DCF8141050
S3150800505041F48071CCF8141015F0100F05D0DCF867
S31508005060141041F00401CCF8141015F0020F05D005
S31508005070DCF8141041F40061CCF81410C021CCF807
S3150800508034104021CCF838100021CCF81810CCF890
S315080050901C101449CCF8000001EB04224FF480716F
S315080050A0CCE90101CCE903020F49CCF8200001EB59
S315080050B004224FF48071CCE90901CCE90B02CDE951
S315080050C000653B46424649462046FDF7F7FB04463F
S315080050D002A8FBF78EFE05B02046BDE8F083000067
S315080050E0086E0010F0570010F05D0010062824BF67
S315080050F00020704710B582B0044600216846FBF7C9
S3150800510073FE04EB4400104900EBC40001EBC00138
S31508005110486910F4003F10D00020C1E90F0448691F
S3150800512020F4003048612046FEF75CF804466846DD
S31508005130FBF75FFE02B0204610BD6846FBF759FE36
S3150800514002B0012010BD0000086E0010062824BF1A
S315080051500020704770B50E46054600EB45003749F6
S3150800516000EBC50001EBC00482B0606910F0040FC3
S3150800517003D0112E3CD0132E2ED000216846FBF703
S3150800518033FE236AE06A002288B3002A46D01670E6
S3150800519004F1200002F0C0FB616B88420FD36069FE
S315080051A010F4807F03D00121284600F0E1FA6069F7
S315080051B010F4006F03D000212846FFF741F868462F
S315080051C0FBF717FE0521284600F0F2FA0120FBF747
S315080051D0B7FF02B0012070BDFBF746FEA061E16192
S315080051E0606920F00800606102B0012070BD04E02B
S315080051F0606940F008006061EBE703F1010CC4F850
S3150800520020C0A06A844508BF2262D4E90801884202
S3150800521004BF0120E062206BC218B6E701212846C8
S3150800522000F0C6FA06A002F051FB09A0FBF7A2FFA0
S315080052306846FBF7DEFD02B0002070BD086E001060
S315080052400C427566666572204F56464C570D0A0025
S31508005250427566666572204F56464C570D0A000021
S31508005260062824BF0020704730B50D4600EB4001E4
S3150800527001EBC000244983B001EBC0040021684655
S31508005280FBF7B2FD606910F0010F60690AD020F0E3
S3150800529001006061132028706846FBF7AAFD03B079
S315080052A0012030BD10F0020F0BD0606920F002001B
S315080052B06061112028706846FBF79BFD03B001204A
S315080052C030BDD4E900200021904204BFE268002ADC
S315080052D008D0421C6260A3689A4208BF6160E16018
S315080052E02169014451B1087828700220FBF728FF8C
S315080052F06846FBF77EFD03B0012030BD6846FBF724
S3150800530078FD03B0002030BD086E00102DE9F04787
S3150800531084B0164688468246062806D3FAF7D6FE8D
S3150800532004B04FF0FF30BDE8F087B8F1000F37D072
S315080053300AEB4A004D4900EBCA0001EBC00460695C
S3150800534010F4803F2CD1606910F4003F28D0002566
S31508005350A946002E62D9002102A8FBF745FD721B5B
S315080053600092616A08BF4F4626D0206A814204BF70
S31508005370E36A002B19D088429ABFA36A581A401AC2
S31508005380824298BF1046009008446062A26A904222
S3150800539008BFC4F82490C4F82C90206B47180BE07B
S315080053A004B04FF0FF30BDE8F087CDF80090C4F8A0
S315080053B024904F46C4F82090002F47D0D4E908100F
S315080053C0884247D9A26A0A44121AA36B9A4218D885
S315080053D0884245D9A26A1144081A00990844984295
S315080053E00FD9606910F4807F03D00121504600F080
S315080053F0A1F9606910F4006F03D001215046FEF749
S315080054001FFF08EB05003946009AFAF7A9FE00982F
S31508005410054402A8FBF7EDFCAE429CD8002168467D
S31508005420FBF7E2FCC4F83C90D4E90801884204BFC3
S31508005430E06A002803D00521504600F0B9F968460D
S31508005440FBF7D7FC04B02846BDE8F08702A8FBF7AF
S31508005450D0FCE3E7E26A002A14BFA26A0A1AB4E794
S31508005460E26A002A14BFA06A081AB6E7086E001096
S3150800547070B584B00546062802D3FAF727FE8AE0F7
S3150800548005EB4500504900EBC50001EBC004606917
S3150800549010F4803F7AD1606910F4003F76D06069D5
S315080054A0062610F0040F03D0606910F0080F72D0BA
S315080054B02846FEF7A9FE00286DD000216846FBF7AE
S315080054C093FC6846FBF799FC90B92846FEF7C6FE9A
S315080054D070B13046FEF78DFC50B1D4E90001884220
S315080054E001D1E06898B3606910F4803F50D136E086
S315080054F0D4E90001884204BFE068002827D0606923
S3150800550010F4803F44D12846FEF77EFEE8B32846CD
