S315080100000CE000201D00010831000108310001083B
S3150801001031000108310001083100010801F006BF6D
S31508010020DFF808D001F065FF01F0FEBFF83F0010C8
S31508010030FEE76E2900F03884702900F08985662963
S315080100402BF03D8465292BF03A8467292BF03784F8
S315080100506129AFF3008003681B0A28BF41F08001BC
S31508010060692900F0E583642900F0E283752900F027
S31508010070DF836F2900F01485782900F05585E92971
S3150801008000F0AC84E42900F0A984F52900F0A684DF
S31508010090EF2900F01185F82900F054850368DB097A
S315080100A028BF41F08001632901F0BA81732901F063
S315080100B0BF81E32901F0CA81F32901F0CF8100202C
S315080100C07047000040BA7047C0BA704700BEFEE7E5
S315080100D07047704753EA020C00F069802DE9F04B2E
S315080100E04FF00006002B1FBFB3FA83F503FA05F498
S315080100F024FA05F65E4012BF1643B2FA82F502FAF1
S3150801010005F4C5F120051EBF22FA05FC44EA0C04D4
S31508010110203556EA044C4FEA144418BF641C4FF0C4
S3150801012000084FF00009904271EB030C39D30029FE
S3150801013019BFB1FA81F701FA07F6B0FA80F700FAA2
S3150801014007F6C7F120071EBF20FA07FC46EA0C0688
S315080101502037B6FBF4FCA7EB0507103F07F01F0B8A
S31508010160CBF120060CFA0BFB2CFA06F644BFB34674
S315080101700026202FA4BF5E464FF0000B5BEA060C53
S3150801018008BF4FF0010B19EB0B09ABFB027C48EBDF
S315080101900608C01B06FB02CC0BFB03CC71EB0C015A
S315080101A0C1E70B46024641464846BDE8F08B13B502
S315080101B04FF000004FF0000100F0C8FABDE81C40FE
S315080101C07047B2F120030AD5C2F1200301FA02F100
S315080101D020FA03F300FA02F041EA0301704700FA34
S315080101E003F14FF000007047B2F120030AD5C2F1BE
S315080101F0200320FA02F001FA03F321FA02F140EA98
S315080102000300704721FA03F04FF000017047B2F17D
S3150801021020030AD5C2F1200320FA02F001FA03F3FA
S3150801022041FA02F140EA0300704741FA03F04FEA46
S31508010230E171704710B54C1084EA530404D5404265
S31508010240C1F1000138BF491E1B4204D55242C3F110
S31508010250000338BF5B1EFFF73DFF14F0804F04D043
S315080102604042C1F1000138BF491E14F0004F04D0C5
S315080102705242C3F1000338BF5B1E10BD7CB515465B
S315080102801A460C00009001D02044401E074B7B44BF
S3150801029069460190284600F022FB05461CB100205C
S315080102A0694600F02FFB28467CBD00007D0600004C
S315080102B00A460146014800F06ABD000084A50010FF
S315080102C02DE9F04782460E4614469846DDF82090F9
S315080102D094B1012C0BD04A465046650805FB0867C0
S315080102E03946904700280CD00DDA2C46F0E74A46E5
S315080102F031465046904710B10020BDE8F087304698
S31508010300FBE73846F9E7641B641E07EB0806DFE7D7
S31508010310401ECAB210F8011F8A4202D00029F9D13B
S315080103200020704740EA010310B59B070FD1042A44
S315080103300DD310C808C9121F9C42F8D020BA19BAA1
S31508010340884201D9012010BD4FF0FF3010BD1AB106
S31508010350D30703D0521C07E0002010BD10F8013B5B
S3150801036011F8014B1B1B07D110F8013B11F8014B82
S315080103701B1B01D1921EF1D1184610BD40EA01039B
S31508010380024630B59B0710D14FF0013400E008C290
S3150801039008C91D1B9D4315EAC41FF8D013F0FF01B8
S315080103A002F8011B0DD01B0AF8E711F8013B002BD7
S315080103B002F8013B05D011F8013B002B02F8013B7D
S315080103C0F3D130BD032A40F2308010F0030C00F05F
S315080103D0158011F8013BBCF1020F624498BF11F870
S315080103E001CB00F8013B38BF11F8013BA2F1040229
S315080103F098BF00F801CB38BF00F8013B11F00303A1
S3150801040000F06780083AC0F0088051F8043B083AC2
S3150801041051F804CBA0E80810F5E7121D5CBF51F8A6
S31508010420043B40F8043BAFF30080D20724BF11F820
S31508010430013B11F801CB48BF11F8012B24BF00F885
S31508010440013B00F801CB48BF00F8012B7047431A5E
S3150801045028BF9A427FF6B6AF032A1044114440F2E8
S31508010460268010F0030F1EBF11F8013D521E00F839
S31508010470013D10F0030F7FF4F6AF11F0030300F00E
S315080104806D80083AC0F00B8051F8043D083A51F8DE
S3150801049004CD40F8043D40F804CDFFF7F3BF121D23
S315080104A05CBF51F8043D40F8043DAFF30080D20724
S315080104B024BF11F8013D11F801CD48BF11F8012CEF
S315080104C024BF00F8013D00F801CD48BF00F8012C12
S315080104D0704710B5203AC0F00B80B1E81850203AA1
S315080104E0A0E81850B1E81850A0E81850BFF4F5AFC5
S315080104F05FEA027C24BFB1E81850A0E8185044BF4F
S3150801050018C918C0BDE810405FEA827C24BF51F8BB
S31508010510043B40F8043B08BF7047D20728BF31F8AF
S31508010520023B48BF11F8012B28BF20F8023B48BF00
S3150801053000F8012B7047431A28BF9A427FF6C9AFC4
S31508010540104410F0030F11441EBF11F8013D521E4D
S3150801055000F8013D10F0030F7FF4F6AF103AC0F032
S315080105600A8010B531E91850103A20E91850BFF43D
S31508010570F9AFBDE81040530724BF31E9081020E957
S31508010580081044BF51F8043D40F8043D12F0030F2A
S3150801059008BF7047D20728BF31F8023D48BF11F896
S315080105A0012C28BF20F8023D48BF00F8012C7047EE
S315080105B002F0FF0343EA032242EA024200F002B8CC
S315080105C04FF000020429C0F0128010F0030C00F06D
S315080105D01B80CCF1040CBCF1020F18BF00F8012BEB
S315080105E0A8BF20F8022BA1EB0C0100F00DB85FEAB9
S315080105F0C17C24BF00F8012B00F8012B48BF00F885
S31508010600012B70474FF0000200B5134694469646F3
S31508010610203922BFA0E80C50A0E80C50B1F1200106
S31508010620BFF4F7AF090728BFA0E80C5048BF0CC0B4
S315080106305DF804EB890028BF40F8042B08BF704712
S3150801064048BF20F8022B11F0804F18BF00F8012B84
S31508010650704710B5044610F0030F08BF11F0030FD9
S3150801066040F015804FF0013E121FC0F20E8051F87E
S31508010670043BA3EB0E0C2CEA030C1CEACE1C08BFA8
S3150801068040F8043BF0D0A1F1040102F10402521E24
S3150801069008DB11F8013B002B00F8013BF7D11146A5
S315080106A0FFF78EFF204610BD4FF0013C50F8042B92
S315080106B051F8043B9A4221D1A2EB0C03934313EA66
S315080106C0CC1317D150F8042B51F8043B9A4215D193
S315080106D0A2EB0C03934313EACC130BD150F8042B6A
S315080106E051F8043B9A4209D1A2EB0C03934313EA4E
S315080106F0CC13DBD04FF00000704700BFD01A01BA07
S31508010700B1FA81F101F0180122FA01F0CB40C1F1E9
S315080107102001DBB2C0B2C01A2CFA01F3D11A9143F7
S3150801072011EAC311E6D1704770B5064C7C44064DF3
S315080107307D4403E0206820448047241DAC42F9D15A
S3150801074070BD0000A02E0300A42E030029F078BE78
S3150801075010B500F0A7FB006810BD10B5044600F0FF
S31508010760A1FB046010BD70B5044685690068C10621
S3150801077001D5302600E02026C00708D070BDD4E98F
S31508010780012130469047206A00F1010020626D1E62
S31508010790F5D570BD70B5044685690068C00708D1EE
S315080107A070BDD4E9012120209047206A00F101009B
S315080107B020626D1EF5D570BD09684A0501D540B29E
S315080107C07047C905FCD500B2704709684A0501D5C5
S315080107D0C0B27047C905FCD580B2704770B50546E9
S315080107E00C46012A05D02868800600D5EA69002347
S315080107F002E0012305E05B1C934202D2E05C00287B
S31508010800F9D1A869E618C01AA861286A18442862A5
S315080108102846FFF7A8FF04E0D5E9012114F8010BE2
S315080108209047B442F8D32846FFF7B4FF70BD0000DD
S315080108302DE9F0410746002510687529394616A4A1
S3150801084011D0FFF7B9FF002803DAC0F1000013A49D
S3150801085007E039688A0701D511A402E0490704D5DA
S3150801086010A4012501E0FFF7B0FF00210A2307F1D3
S31508010870240607E0B0FBF3F203FB12003030705494
S315080108801046491C0028F5D12B4622463846BDE8B4
S31508010890F04100F050BB0000000000002D000000F0
S315080108A02B0000002000000011680268006A530549
S315080108B001D508700BE0D30501D5088007E01306BA
S315080108C003D5C217C1E9000201E0520608600120FA
S315080108D07047000001694A1C02610878704700B533
S315080108E08FB0CDE901310021059105497944CDE95A
S315080108F003101146684600F037F90FB000BD000035
S31508010900E5FFFFFF0A6802F8010B0A607047D1E9A3
S3150801091000239A4202D2531C0B60107070470000E4
S315080109202DE9FF5F04468A461546DFF8AC80F84490
S315080109300027D8E900103E46CDE9001011E03AF843
S3150801094016106A4602A800F08DFD411C07D02168E1
S31508010950890603D5E269391891420ED8074406F18A
S3150801096001062068800602D5E069B84205DDAE4277
S31508010970E5DB3AF816000028E1D1A069C01BA061A1
S315080109802046FFF7F0FED8E90010CDE90010002057
S3150801099016E03AF818106A4602A800F063FD814687
S315080109A0401C0BD000250DF1080B05E0D4E9012107
S315080109B01BF8050090476D1C4D45F7D308F101005A
S315080109C0B0428046E5DB206A384420622046FFF7BC
S315080109D0E1FEBDE8FF9F0000AE2103002DE9F041CD
S315080109E08046D21D22F007020026D2E90002F52927
S315080109F014A512D0002A06DA0023D0EB030063EB14
S31508010A00020211A508E0D8F800108B0701D50FA539
S31508010A1002E0490701D50EA501261146002408F171
S31508010A20240704E000F042FA30323A55641C50EAD1
S31508010A300102F7D133462A4621464046BDE8F04130
S31508010A4000F079BA000000002D0000002B0000001C
S31508010A502000000030B4002100F124040CE002F06B
S31508010A60070505F130054FEAD20242EA4372655499
S31508010A7001F101014FEAD30352EA0305EFD10468F4
S31508010A80002310A2250708D504F020040C4304D03E
S31508010A90C46901230CA2641EC46130BC00F04BBAC0
S31508010AA010B5044621461068FFF78FFE0246204618
S31508010AB0BDE810400023CDE7D21D22F00701D1E998
S31508010AC00023C7E70000000030000000F0B40F461D
S31508010AD00168090502D5234C7C4402E0214C7C447B
S31508010AE00E34002100F124050BE002F00F064FEA4F
S31508010AF01212A65D42EA03724FEA13136E5401F10C
S31508010B00010152EA0306F0D12246046800232407AC
S31508010B1004D5702F05D009B111320223F0BC00F0BB
S31508010B200ABA10320123F9E770B504460D46214683
S31508010B301068FFF74AFE024629462046BDE870407E
S31508010B400023C3E7D21D22F00703D3E90023BDE73B
S31508010B500368126843F0200303600823C361002376
S31508010B60B4E700000C2003002DE9F05F044689462E
S31508010B704FF0000ADFF878B1FB44C0F820A0204600
S31508010B80E1688847002875D0252806D0D4E90121CF
S31508010B909047206A401C2062F1E700265F462046FE
S31508010BA0E16888472028054608DB312D06D207EB80
S31508010BB0050010F8200C08B10643F0E7B00701D587
S31508010BC026F00406C4F81CA00027C4F818A02A2D8C
S31508010BD009D0284629F05DFC38B304EB8708303D77
S31508010BE0C8F8185019E059F8041B204604EB870287
S31508010BF09161E1688847012F054618D1E069002807
S31508010C0020DA26F020061DE0D8F8180000EB80004F
S31508010C1005EB40003038C8F818002046E1688847D7
S31508010C20054629F036FC0028EED1012F0AD02E2DD3
S31508010C3008D12046E16888477F1C0546022F46F001
S31508010C402006C4DBA069002803DA404246F0010603
S31508010C50A061F00701D026F010066C2D0BD0682D87
S31508010C6009D04C2D39D06A2D35D0742D35D07A2D31
S31508010C7033D016E038E0E1682F4620468847B84267
S31508010C80054609D16C2F26D04FF48060E1680643EA
S31508010C9020468847054604E06C2F1AD04FF4807029
S31508010CA006430DB3A5F14100192802D8203546F4AB
S31508010CB000664A462946204626604E46FFF7B9F998
S31508010CC080B101280BD0F61D26F0070000F10809AE
S31508010CD055E74020E4E78020D8E70020D6E706F16B
S31508010CE004094CE7284651E7206ABDE8F09F000051
S31508010CF0941F030070B50646484231EA00000FD03A
S31508010D002A20741C0025307000F0C8F8034600201C
S31508010D1053F82520110F120109292BD957312AE039
S31508010D20042913D004DC012908D0022904D109E0D9
S31508010D3008290FD0102911D0002070BD00F0AEF897
S31508010D4000680EE000F0AAF840680AE000F0A6F88C
S31508010D50806806E000F0A2F8C06802E000F09EF89C
S31508010D60006928B120F0030050F8041C084470BD3E
S31508010D7048A070BD3031401C082804F8011BC9DBA6
S31508010D806D1C052DC3DB00202070304670BD2DE992
S31508010D90F04709B14B0902D00020BDE8F08732B10E
S31508010DA013782A2B06D0BDE8F04700F025B8BDE830
S31508010DB0F0479FE7551C81460F464FF0010800246E
S31508010DC00026314615F8010B392801D8303800E0DC
S31508010DD05738491C082940EA0616F3DB08FA04F0D5
S31508010DE0384203D000F05AF840F82460641C052CF8
S31508010DF0E6DB39464846DAE72DE9F04106460C4670
S31508010E00154688070AD511462348784429F0E8FB90
S31508010E1007003CD000F042F87F1C4760E0070AD083
S31508010E2029461D4878441A38AFF3008007002ED0AA
S31508010E3000F034F8076060070AD529461648784451
S31508010E403438AFF30080070021D000F027F8876017
S31508010E5020070AD52946104878444E3829F0AAFBB6
S31508010E60070014D000F01AF8C760E0060AD529462B
S31508010E70094878446838AFF30080050007D000F0C8
S31508010E800DF8056121463046BDE8F04132E7BDE877
S31508010E90F0810000430000009226030000487047D5
S31508010EA0B0A5001000487047C4A5001030B5B0F1D0
S31508010EB00A024FEA900E71F100034EEA817EB0EB09
S31508010EC00E0061EB91014FEA101E4EEA017E10EB0E
S31508010ED00E0041EB11114FEA102E4EEA016E10EB8E
S31508010EE00E0041EB11214FEA104E4EEA014E10EB6E
S31508010EF00E0041EB1141401841F100014FEAD000C3
S31508010F0040EA41704FEAD10110EB80054FEA8104AE
S31508010F1044EA907444EB01046D1944EB0404521B32
S31508010F20A3414FF0000348BF0A3200D530BD401C2B
S31508010F3041F1000130BD2DE9F0470D4604469246C0
S31508010F40994600F124080168880604D5E06921F06C
S31508010F501001216000E00120A84202DDA0EB05078F
S31508010F6000E00027A16907EB050202EB0300A1EBEC
S31508010F700000A0612068C00602D42046FFF7F3FBF3
S31508010F80002608E0D4E901211AF806009047206AEC
S31508010F90401C761C20624E45F4DB2068C0060AD543
S31508010FA02046FFF7E0FB06E0D4E90121302090470F
S31508010FB0206A401C2062381EA7F10107F4DC07E00D
S31508010FC0D4E9012118F805009047206A401C2062DF
S31508010FD0281EA5F10105F3DC2046FFF7DBFB206897
S31508010FE0000602D50220BDE8F0870120FBE770471D
S31508010FF02DE9FF4F0C461E464FF0FF378BB0D2E95D
S315080110000001DDF860800A908A46C1F30A5505B9E0
S315080110103D46002108464FF00000BAF1000F00F4E2
S31508011020400005DA00EB80004FF4400101EA500068
S315080110304FEA9059B9F1010F00DDB9460A9850EA0D
S315080110404A000ED044F61050A5F2FF3545432F1439
S31508011050B8F1000F1ED07542291E1EDDC9F1000226
S315080110601CE0B8F1010F4FF0000001D1F24307E08F
S31508011070302101E02154401CB042FBDB30460022FE
S31508011080002121540B99C1F80880C1E900200FB04D
S31508011090BDE8F08FBD1B6D1CDEE74A4600DA6942E2
S315080110A006A800F047FA06AB07CB03AB07C35046C1
S315080110B00A9900F0B1FA8DE80700A0F500501F382B
S315080110C000900398002D09DD42F21F014A460844A3
S315080110D003A90390684600F010FD08E0A0F500504A
S315080110E04A461F3803A90390684600F01AFD8DE8A1
S315080110F007000004000C03D04FF0FF30410800E060
S315080111001046B8F1000F03D00022009215461FE0E1
S31508011110751E06D4FFF7CAFE02F1300262556D1E2E
S31508011120F8D5B3460122084302D000227F1C04E009
S315080111302078302801D100227F1E002A099787D0FE
S315080111401DE0112D07DAFFF7B1FE303262556D1C2D
S3150801115050EA0102F5D108430FD10021681E05E0C6
S31508011160235C625C6354491C2254401E8142F7DBAE
S31508011170AB46A81B401E099001E0009848B1002023
S3150801118004F80B000B98099AC0F80880C0E9002BEF
S315080111907DE711264FF000085AE72DE9F04F8846FA
S315080111A00446D21D22F0070191B0D1E90001CDE92B
S315080111B00A0125F0F5F902460B98C00F01D02D203A
S315080111C007E02068810701D52B2002E0202101EAEA
S315080111D0C000032A099001D0072A05DB03464146C8
S315080111E0204600F067F90EE12068800601D5E0691E
S315080111F000E00620B8F1650F814606D0B8F1660F02
S3150801120018D0B8F1670F72D132E00020B9F1110F89
S315080112100090484601DB112300E0431C0AAA01A9F4
S315080112200CA8FFF7E5FEDDE90C70002609F10105BA
S31508011230834648E001204B4600904FF000470AAA32
S3150801124001A90CA8FFF7D4FEDDE90C050E990026C5
S31508011250AB4619B909F1010100EB0105B9EB050026
S3150801126003D4C0F1FF3609F10105A5EB09002BE00E
S31508011270B9F1010F01DA4FF001090020B9F1110F97
S315080112800090484601DD112300E003460AAA01A998
S315080112900CA8FFF7ADFEDDE90C704D460026834626
S315080112A0206800070AD4AB4500DA5D4601A8012D7E
S315080112B004DD411911F8011C302907D04F4502DA1E
S315080112C017F1040F04DA0120824610E06D1EEEE7DD
S315080112D0002F02DCED1B3E4403E0781CA84200DD2A
S315080112E00546A7EB060000F1010A4FF00047206802
S315080112F0000703D4AA4501DB4FF0FF3A0021B7F1F5
S31508011300004F0DF143088DF8431022D002202B23FC
S31508011310002F01DA7F422D230A22011EA0F10100C6
S3150801132000DC4FB197FBF2F102FB117C0F460CF181
S31508011330300C08F801CDF0E7A8F101000370216827
S31508011340090501D5452100E06521A0F1010800F84C
S31508011350011C09980FA9A1EB080707F1070700B1B6
S31508011360012000EB050101EBEA70A1693844A1EB04
S315080113700000A0F10100A0612068C00602D4204641
S31508011380FFF7F1F9099830B1D4E901219047206AAC
S3150801139000F1010020622068C00620D52046FFF72B
S315080113A0E2F91CE0002E04DBB34502DD01A8805DED
S315080113B000E03020D4E901219047206A761C401CC0
S315080113C0BAF1010A20620AD1FFF768FDC06801680F
S315080113D0405CD4E901219047206A401C2062281EFE
S315080113E0A5F10105DEDC07E0D4E9012118F8010BB6
S315080113F09047206A401C2062381EA7F10107F3DCDA
S315080114002046FFF7C7F9022011B041E610B5436936
S3150801141013B1AFF3008001E0FFF7E0F9012010BD39
S31508011420126800F124010A7000224A700122EDE7D0
S3150801143011684FF0FF32E9E710B5436913B1AFF30D
S31508011440008001E0FFF76CFA012010BD126800F177
S31508011450240182840022C2840122EDE711684FF03B
S31508011460FF32E9E770B505460C46164600F01AF84C
S31508011470036893F80101012806D0FF2C0FD8185DDF
S3150801148068B101202C7070BDD3F807013246214698
S3150801149003442846BDE8704003F2071318474FF086
S315080114A0FF3070BD10B5FFF7F9FC001D10BD00BF78
S315080114B0319102002DE9F04104461F4603260168D1
S315080114C0072A01F4006004DB08B116A505E016A594
S315080114D003E008B115A500E015A521F0100020606C
S315080114E0A069C01EA0610FB1401EA0612046FFF78A
S315080114F03AF94FB1D4E9012138469047206A401C90
S315080115002062C01C206206E0206AFAE7D4E90121BC
S3150801151015F8010B9047761EF8D22046FFF73AF9DF
S31508011520BDE8F0814E414E006E616E00494E46009F
S31508011530696E66002DE9F047814616468AB0354838
S315080115407844D0E9002380680092CDE9013031481A
S3150801155078440C38D0E90223006903924FF0370228
S31508011560CDE9043041F69B30014491FBF2F0A0F13C
S31508011570800502FB10141B3C02D56442012000E0E1
S315080115800020DFF890A080460027FA44AAF1C60A8F
S315080115900DE0E00709D03246684607EB47010AEB3A
S315080115A0810100F0BEFA8DE8070064107F1C002C4B
S315080115B0EFD1184F7F44B43F17E0E80713D007EB84
S315080115C004100DF1180A90E80E00AAE80E00C0688A
S315080115D0F04201D198190890324606A903A800F0ED
S315080115E0A0FA03AB07C36D10641C002DE5D1324682
S315080115F06946B8F1000F03A802D000F07EFA01E0AF
S3150801160000F08FFAC9E90001C9F808200AB0BDE857
S31508011610F0870000101803005FEA400C08BF91F03C
S31508011620000F4FEA8C234FEAC12243EA51514FEA90
S315080116301C5018BF00F5F0404FEA300018BF41F0C2
S3150801164000415FEA6C5C00F02980BCF1FF3F08BFEE
S3150801165040F080407047130C06BF12044FF0100C7F
S315080116604FF0000C130E04BF12020CF1080C130FF5
S3150801167004BF12010CF1040C930F04BF92000CF184
S31508011680020CD30F04BF52000CF1010C11464FF0A6
S315080116900002A0F11F00A0EB0C00704711F0004FEB
S315080116A008BF704731F000413FF4D5AF0B0C06BFB8
S315080116B009044FF0100C4FF0000C0B0E04BF090281
S315080116C00CF1080C0B0F04BF09010CF1040C8B0F6C
S315080116D004BF89000CF1020CCB0F04BF49000CF1C1
S315080116E0010CCCF12003A0EB0C0022FA03F302FA59
S315080116F00CF241EA030100F10100704720F07F4C2A
S3150801170080EA030023F07F47ACEB070303F57C531C
S3150801171000F0004003F1FF032DE980494FEA154B1C
S3150801172009B44FEA144325EA0B4E24EA03480FF29B
S31508011730042606EB132749083E785FEA320203FBC3
S315080117400667C7F5000707FB06F64FEA54374FEA5F
S31508011750D64606F1020607FB066CCCF1005C4FEA99
S315080117601C472CEA074C07FB06F40CFB06F504EBB1
S3150801177015464FEA961634BF00204FF000404FEA4F
S31508011780D13706FB07FC4FEA1C4C0CFB0BF7D21BA7
S3150801179003FB0CF761EB07010CFB0EF7B0EB0740F7
S315080117A072EB17420CFB08F734BFA2EB0742B2EB08
S315080117B0074261EB17414FEA0C444FEA910706FBD2
S315080117C007FC4FEA1C4C0CFB0BF7B0EBC74072EB5E
S315080117D0573203FB0CF734BFA2EBC742B2EBC74241
S315080117E061EB57310CFB0EF7B0EBC70072EB577282
S315080117F00CFB08F734BFA2EBC702B2EBC70261EBD9
S315080118005771039F4FEA816141EA921104EBCC04B7
S315080118104FEAD1374FEA826206FB07FC42EA901289
S315080118204FEA80604FEA1C4C0CFB0BF7D21B03FBFB
S315080118300CF761EB07010CFB0EF7B0EB074072EBF7
S3150801184017420CFB08F734BFA2EB0742B2EB07427B
S3150801185061EB17414FEA8C554FEA910704EB9C243B
S3150801186006FB07FC4FEA1C4C0CFB0BF7B0EBC74019
S3150801187072EB573203FB0CF734BFA2EBC742B2EB4C
S31508011880C74261EB57310CFB0EF7B0EBC70072EBA1
S3150801189057720CFB08F734BFA2EBC702B2EBC702BB
S315080118A061EB577115EB4C254FEA816141EA9211BB
S315080118B04FEA82624FEAD13742EA901206FB07FCE9
S315080118C044F100044FEA80604FEA1C4C0CFB0BF70D
S315080118D0D21B03FB0CF761EB07010CFB0EF7B0EB10
S315080118E0074072EB17420CFB08F734BFA2EB07421D
S315080118F0B2EB074261EB174115EB1C154FEA813133
S3150801190041EA92414FEA823242EA90424FEA8030F6
S315080119104FEA0C7644F1000448EA03434EEA0B48C1
S315080119204FF0000EB2EB080C71EB030724BF6246B9
S3150801193039464EEB0E0E4FF0000B00185241494145
S315080119404BEB0B0BB2EB080C71EB03077BF1000BAE
S3150801195024BF624639464EEB0E0E4FF0000B0018B7
S31508011960524149414BEB0B0BB2EB080C71EB0307E8
S315080119707BF1000B24BF624639464EEB0E0E51EA47
S31508011980020718BF46F0010616EB0E7655F100025E
S3150801199054F1000103D5BDE88901BDE80088BDE819
S315080119A08901BDE80048B619524141EB0101A3F18D
S315080119B00103704780807F7E7D7C7B7A7978777694
S315080119C076757473727171706F6E6E6D6C6C6B6A0D
S315080119D06A696868676666656464636362616160AB
S315080119E0605F5F5E5E5D5D5C5C5B5B5A5A59595828
S315080119F05857575656555555545453535252525192
S31508011A00515050504F4F4F4E4E4D4D4D4C4C4C4BE7
S31508011A104B4B4A4A4A49494948484847474747462E
S31508011A20464645454544444444434343434242426A
S31508011A3042414141002B26D4770021D01CB54FEAFB
S31508011A40370703B44FF010004FF010014FF00000B4
S31508011A500FBCBDE810400BF1010BBBF1010F08BF2C
S31508011A605FEA170722BF12F1010211F101014FF0D6
S31508011A70004143F1000300F0004043EA00007047CB
S31508011A80F9D35708DAE746EA064613F1400F4FEA53
S31508011A9016461FDD13F1200FDFBF16430A46002144
S31508011AA020335B42C8D0C3F1200746EA064602FA4C
S31508011AB007F74FEA164646EA0706C3F1200722FA50
S31508011AC003F201FA07F721FA03F14FF0000342EA9C
S31508011AD00702B1E746EA020646EA06464FEA16460D
S31508011AE046EA0106BCBF46EA0646360C4FF0000335
S31508011AF04FF000024FF000019EE72DE9C0489346DA
S31508011B0030B491E8380007C831EA400C48BF34EAD6
S31508011B10430C03D5FFF7F2FDFFF78CFFF0BCBDE8D8
S31508011B2000882DE9C048934630B491E8380007C8C3
S31508011B3010F0804F08BF13F0804F03D100F005F86D
S31508011B40FFF778FFF0BCBDE8008820F07F4780EA00
S31508011B50030023F07F4C07EB0C03A3F57C5300F03D
S31508011B600040A3F1FE0392F0000F00F0B38095F058
S31508011B70000F00F077802DE901494FEA11404FEA3D
S31508011B80144621EA004800FB06FC24EA064708FB3E
S31508011B9006F607FB08F800FB07F718EB06484CEBB7
S31508011BA0164C4FEA124B18EB07484FEA15464CEB11
S31508011BB0174022EA0B4E0BFB06FC25EA06470EFBED
S31508011BC006F607FB0EFE0BFB07F71EEB064E4CEB64
S31508011BD0164C4FF000061EEB074E4CEB174B18EB55
S31508011BE00B0840F1000018EB0E0B58EB000840F10A
S31508011BF000008F1A4FF000013CBFC943661B14BF92
S31508011C00B5EB040C00213CBFC943F61B4FEA174448
S31508011C104EEA8E0E27EA04454FEA1C4704FB076283
S31508011C202CEA074C05FB07F70CFB05F604FB0CFC35
S31508011C3016EB074642EB174216EB0C4642EB1C42E3
S31508011C401BEB060658EB0202414146EA9E0601D500
S31508011C50BDE80189B619524141EB0101A3F101031E
S31508011C60BDE801894FEA14454FEA114724EA0546BA
S31508011C7021EA074C05FB07F406FB07F70CFB06F1FF
S31508011C8005FB0CFC11EB074144EB17444FEA1247DD
S31508011C9011EB0C4144EB1C4422EA074C05FB07F205
S31508011CA006FB07F70CFB06F605FB0CFC16EB0746CD
S31508011CB042EB174216EB0C4642EB1C456A1854F1E7
S31508011CC0000148BF7047B619524141EB0101A3F122
S31508011CD00103704795F0000F37D04FEA11424FEADA
S31508011CE0144721EA024624EA074C02FB07F106FBE0
S31508011CF007F70CFB06F402FB0CFC14EB074441EB5B
S31508011D0017414FEA154714EB0C4441EB1C4125EAF0
S31508011D10074C02FB07F506FB07F70CFB06F602FB69
S31508011D200CFC16EB074645EB174516EB0C4645EB3F
S31508011D301C42121951F1000148BF7047B6195241A8
S31508011D4041EB0101A3F1010370474FEA14454FEA3C
S31508011D50114724EA054621EA074C05FB07F106FB6C
S31508011D6007F70CFB06F24FF0000605FB0CFC12EB1D
S31508011D70074241EB174112EB0C4251EB1C4148BF9C
S31508011D807047921841EB0101A3F101037047000066
S31508011D90814208BF704702F0030332F0030205D0FF
S31508011DA050F804CB41F804CB121FF9D1002BD8BF48
S31508011DB0704710F8012B5B1E01F8012B002BF8DC8C
S31508011DC0704701F0030231F003014FF0000303D01D
S31508011DD040F8043B091FFBD1002AD8BF704700F819
S31508011DE0013B521E002AFADC704710B5074808491C
S31508011DF0084AFFF7CDFF08480849094AFFF7C8FF0F
S31508011E00BDE8104007480849DBE70000C44E05084D
S31508011E100040001000000000C44E050800400010F4
S31508011E20D0010000D041001060680000FEF7F8B844
S31508011E3010B472B63748016841F470010160364C36
S31508011E40012262603548016821F402710160344853
S31508011E50016841F4FE6101603248016841F00101FF
S31508011E600160016811F0020FFBD0DFF8BCC0002346
S31508011E70CCF80030016821F0A0610160016841F4E5
S31508011E8080310160016811F4003FFBD02168CCB2B2
S31508011E902649112C0CBF40F2056440F205740C600A
S31508011EA0244C23492160016841F080710160016871
S31508011EB011F0007FFBD049F20241CCF80010DFF89F
S31508011EC078C04FF48011CCF800100CF104010B60B6
S31508011ED0091D0B60194B4FF08051196089131B1DA1
S31508011EE01960016821F0010101601548026010BC02
S31508011EF0704710B5FFF79CFF01F05EFCBDE8104086
S31508011F00FFF773BF10B5FFF793FFBDE8104001F067
S31508011F1053BC000088ED00E0002004E014ED00E069
S31508011F20FCED00E00038024008380240003C02405F
S31508011F30085440070438024030380240403802400D
S31508011F4000380140EFF3108272B6026070470168EB
S31508011F5081F310887047EFF30581006809B14FF0E6
S31508011F6001007047016881F31088704772B670479F
S31508011F700168EFF3108281F3108882F310887047A5
S31508011F80EFF31080EFF3058180F0010009B14FF0FE
S31508011F9000007047EFF3108072B680F001007047B9
S31508011FA0EFF3108062B680F001007047EFF31081FD
S31508011FB072B601607047016881F3108870470000A6
S31508011FC070477047144A13071168586AD2F800C057
S31508011FD08C45F9D1704730B583B00446002168466F
S31508011FE0FFF7B0FFFFF7EEFF05462046FFF7E9FFCB
S31508011FF0032894BF0024C41EFFF7E4FF401BA04238
S31508012000FAD96846FFF7A3FF03B030BDA8214843B4
S31508012010401F00F01BB90000240400408068406896
S31508012020704780688068704710B584B06FF0030008
S3150801203032496844884228BF314A03D340F8042903
S315080120408842FBD2304C2F4860603048A06000F0CF
S3150801205057FC2F482F490844A1680844A06002F09C
S31508012060F5FD206000F05BFE02F052F800F060FE1C
S315080120700020034600900222042127A000F0EDFB70
S315080120802BA32EA2304931A000F0E7FB364937A031
S3150801209000F0E3FB01A902A800F026FCDDE9011026
S315080120A0FEF78EFA38A028F037FA274937A028F024
S315080120B033FA38A135A028F02FFA20A138A028F044
S315080120C02BFA1BA136A028F027FA01214EF660202B
S315080120D003F0B6F90121022003F038FB0121084675
S315080120E003F0ACF902F0D6FC30A028F015FA38A0B6
S315080120F028F0DEF905F04AF804B010BD000000101A
S315080121000DF0ADBA0000010800400010C44E0400ED
S3150801211000000000D00100002E4E65744D46207661
S3150801212025642E25642E25642E25640D0A000000DB
S3150801213031343A31353A31330000000041756720B0
S31508012140313520323031320098BA030825732C20F4
S315080121504275696C6420446174653A0D0A092573F0
S315080121602025730D0A000000A744060041524D20A0
S31508012170436F6D70696C65722076657273696F6EEF
S315080121802025640D0A0000000C000000252D3135BC
S31508012190730D0A004275696C6420446174653A00DE
S315080121A02020252D3133730D0A0000000C6D61695D
S315080121B06E2065786974656421213F3F3F2E202092
S315080121C048616C74696E67204350550D0A0000001A
S315080121D06D61696E2065786974656421213F3F3FA9
S315080121E02E202048616C74696E67204350550D0A8C
S315080121F00000000010B502F0D9FABDE8104004F05D
S31508012200C5BF000004B02DE9FF0F6846EFF305814D
S31508012210FFF7F0BF81B000B52DE9FF5F6846EFF320
S315080122200381C163AFF3008010B582B00446002173
S315080122306846FFF787FE0021204602F0B7FA04F048
S31508012240A5FF6846FFF783FE02B010BD001FFDDC3F
S31508012250F7460000034951F82020521E41F8202074
S315080122607047000010420010034951F82000002869
S31508012270CCBF01200020704710420010034951F8D5
S315080122802020521C41F820207047000010420010FF
S315080122902DE9F04F8046BE48BE499BB0081AC01CBE
S315080122A016904FEA186017901FFA88F04FF0000B46
S315080122B018904FF0000A0AF031FB0023022204218C
S315080122C0B5A0CDF800B023F0C1FE07F04DFABBA0CA
S315080122D023F0BCFEBD4CC4F8008015F02DF900288A
S315080122E0C0F20D81BAA023F0B1FEC8F3074020B1B0
S315080122F0BB48016841F000410160B94815F016F97B
S315080123000028C0F2FC80B7A023F0A0FE0CF0D8F894
S3150801231001202071DFF8B492B7A023F097FE169832
S315080123209B4920F003079B4D0C4601AA68460BF012
S315080123309BFC00281CBF0099002907D0C86889683A
S3150801234089688847006810F0020F0FD0002000281E
S315080123503DDB2A462146ACA023F078FE291B002244
S31508012360204601F0BDFBB049086026E00C2138463D
S3150801237007F0EEF9060008BF4FF07A40E7D0DDE92D
S31508012380001E0346C86889683A46D1F80CC07146EA
S31508012390E04700280EBF4FF077403446F519D6D0EE
S315080123A0D4E76A462146484623F078FD00280EDB25
S315080123B0606E2044C01C20F0030404F17C00A8428E
S315080123C004D2204624F032F80028EAD10020002859
S315080123D07DDB96A023F03AFE50210AA811F0B2FB44
S315080123E018B99BA023F032FE67E01398C26880688B
S315080123F08168104688470AA97C2691EC080A8DEC63
S31508012400080ADDE91212CDE908120068CDF850B0C4
S31508012410C0F340044CB90121304607F0BDF91490C8
S31508012420002845D03146FEF7CBF87742324614A943
S31508012430684611F0D6FC80B3149D284623F0BEFFEA
S3150801244058B3686EC01C20F003052CB90C21284628
S3150801245007F07EF91590F8B101223946684611F060
S3150801246017FD2A4615A9684611F0BBFCA8B1159DAA
S31508012470284623F0DBFF58B182A023F0E7FD19AA0D
S315080124802946484623F00AFD002807DA0CB10FE071
S3150801249074B9159807F06EF907E005E0199801690E
S315080124A041F008010161C1E714B9149807F062F90E
S315080124B00AA811F07BFB002897D179A023F0C6FD65
S315080124C07B4810F0EBFA002815DB7A4800E012E0A9
S315080124D019F044FB764811F03FF900280BDB76A08A
S315080124E023F0B4FD00213E48189A16F041FD75A067
S315080124F023F0ACFD03E0014674A023F0A7FD384C98
S31508012500206810F0005F17D1206820F44060206031
S31508012510206840F40060206070480068006830B1A7
S315080125200121002300911A46092107F0FFF817989F
S31508012530002818BF0CF006FC206810F0005F20D0B8
S31508012540A06810F0010F1AD0052131EA00000CBF6E
S315080125500120002060F317480020FFF71BFD5548AE
S3150801256019F0A1FE14F0F8FF184880F804B000F03D
S315080125708FFE00F0DDFB0020FFF712FD99E604F05F
S315080125804DFEBAF1000F7FF494AE1BB0BDE8F08F93
S31508012590D8350408C44E05080D0A54696E79434CAA
S315080125A05220284275696C642025642E25642E25DF
S315080125B0642E2564290D0A0D0A0000005374617200
S315080125C074696E672E2E2E0D0A0000001440001045
S315080125D0437265617465642045452E0D0A00000045
S315080125E058520010537461727465642048617264AC
S315080125F0776172652E0D0A00437265617465205410
S31508012600532E0D0A00000000204C6F6164696E6745
S315080126102073746172742061742025782C20656E8C
S31508012620642025780D0A0000904000104C6F616403
S31508012630696E67204465706C6F796D656E742041AB
S315080126407373656D626C6965732E0D0A000000006F
S315080126504552524F523A20436F756C64206E6F741F
S315080126602066696E642064657669636520666F72A3
S31508012670204445504C4F594D454E5420757361675A
S31508012680650D0A00417474616368696E6720646543
S31508012690706C6F7965642066696C652E0D0A000099
S315080126A05265736F6C76696E672E0D0A000000001D
S315080126B08C5500101059001052656164792E0D0A67
S315080126C000000000446F6E652E0D0A004572726F98
S315080126D0723A20253038780D0A000000844000102F
S315080126E030B583B0044600216846FFF72BFC06483F
S315080126F0016801EA04050168A14301606846FFF71C
S3150801270026FC03B0284630BD6C40001010B582B0D7
S31508012710044600216846FFF715FC0748016821436E
S315080127200160416800291CBF806888476846FFF731
S315080127300EFC02B010BD00006C4000102DE9F043FC
S3150801274089B00500109E0F4698467CD03C68002C3F
S3150801275011BF002A002009B0BDE8F08304F1B000DA
S315080127603860A2F10109B0212046FDF74BFFB8F107
S31508012770000F08BFA846C4F800802878606068780A
S31508012780A0606888E060002E18BF306814D0C4F8CD
S31508012790980060681B2856D2DFE800F0551717170E
S315080127A017171717171717171717171C3741414503
S315080127B03755555555174F00294602A812F07CFA88
S315080127C00028A8BF0398E4DBE1E7D5E90101C4E9DC
S315080127D0040138E06D688DB12846C4F8945000F0BC
S315080127E0C0F8C4F890007F2828BF7F2003462A46F0
S315080127F0802104F1100000F079FA24E00020C4F8E1
S315080128009400C4F8900020741DE0686800234A46C5
S3150801281039460096FFF792FF09B0BDE8F08368686C
S31508012820C4F898000FE0E868C4F89C00E888C4F882
S31508012830A000A868C4F8A40005E06868C4F8A80060
S31508012840A868C4F8AC0009B00120BDE8F08304F01B
S3150801285005BE0120704706F065B90FB410B503A986
S31508012860029800F025F810BC5DF814FB04F01EBEB2
S3150801287006F00ABA06F0B6BA0FB410B504AA039957
S3150801288000F078F810BC5DF814FB10F8012B412A0A
S3150801289002D35A2AD8BF203211F8013B412B02D361
S315080128A05A2BD8BF20330AB19A42EED0D01A7047B4
S315080128B0034603480A461946406900F05BB800001A
S315080128C03840001010B582B0044600216846FFF76B
S315080128D039FB04480168A14301606846FFF737FBE5
S315080128E002B010BD6C400010034A02600348801A0A
S315080128F0001D08607047000000000020F8FD012057
S3150801290010B528F0F6FEBDE8104002A11F20FDF71C
S31508012910CFBC00000000000000207047002070476F
S3150801292005F091BC0FB410B505AB049A00F0F5F9A2
S3150801293010BC5DF814FB70B505000B4614461CBFA8
S31508012940002C002B05D0104600F00BF8401C9842CD
S3150801295001D9012070BD21462846FDF70FFD00204B
S3150801296070BD014611F8012B002AFBD1081A401E39
S315080129707047000070B51346ADF5007D04460A465A
S315080129804FF40071684600F0C8F9054604F47F4023
S31508012990B0F5407F0FD006DCB0F5807F18BFB0F5E3
S315080129A0007F1FD107E06E46B0F5A06F11D0B0F5D4
S315080129B0C06F17D105E02A466946204601F045F859
S315080129C010E00A48016869B1002070553046884709
S315080129D008E00024002D05DD305D02F069FB641C6A
S315080129E0A542F9DC0DF5007D284670BD10400010A2
S315080129F0072070470F4910B50A6812F4807F0FD176
S31508012A000A6842F480720A600B490022C1F804235D
S31508012A10CA624A6001228A60084ACA60084A0A618B
S31508012A2001F0D4F800220123114601F0E8F801204B
S31508012A3010BD00004438024000200140922449029A
S31508012A409224491270B59EB004460E4600214348A9
S31508012A50CDE900011AA8694611F0B8FC0EA920466D
S31508012A6001F068FC002871DB03A9304601F062FC1D
S31508012A7000286BDB9DF8100070B19DF83E00002818
S31508012A8008BF4FF0224061D00022214668460EF069
S31508012A90D7FB00285ADB58E0314668460EF066FC3B
S31508012AA0002853DB9DF83C0003A9A8B19DF8120044
S31508012AB028B90C3168460EF0EBF8002846DBBDF85C
S31508012AC00200012818BFFDF701FBDDE90001029AA2
S31508012AD0A260C4E9000138E09DF80000102808D179
S31508012AE0019830B10278122A03D1407810F0100FFC
S31508012AF003D02078102822D112E02078102808D196
S31508012B00606830B10278122A03D1407810F0100FAC
S31508012B1015D00C3168460EF0BBF8002816DB0EE01E
S31508012B20606860B10278122A09D1407810F0100F56
S31508012B3005D10C3168460EF07FFA002806DB694696
S31508012B4020460EF0D3FD002800DB002005461AA812
S31508012B5011F062FC1EB0284670BD0000100001008D
S31508012B607047000010B542694FF4B473526892FB7E
S31508012B70F3FC03FB1C220A4B83FB0232A2EBE27233
S31508012B80002AB8BF3C32074B002903EB820214BF67
S31508012B90B2F90210B2F900100FF0CAF9002010BDFF
S31508012BA0ABAAAA2ABCBA0308022070470C291CBF83
S31508012BB00020704710B504460A48016841F00051E3
S31508012BC00160002201231146201D01F018F806486C
S31508012BD0002C016814BF41F4803141F00101016004
S31508012BE0012010BD4038024000740040704770470C
S31508012BF00020704740F2812070470020704700206E
S31508012C0070470020704705F03FBB05F075BB2DE9FD
S31508012C10F04105000E46174601D0062E01DBFDF7E9
S31508012C2055FA05EB8604206908B1606B08B1FDF712
S31508012C304DFA20690268511C082908BF00210123A1
S31508012C40D0F808C0BCF1000F18BF4FF000080BD12F
S31508012C50D0F804C08C4508BF8360016002EB0211FD
S31508012C6000EB810000F10C08206903FA06F180687F
S31508012C7038606879FFF754FE4046BDE8F08170B5C3
S31508012C8004000D46164601D0062D01DBFDF71EFA96
S31508012C9004EB8504206900281ABF606B0028FDF73C
S31508012CA015FAA6B100202169D1E90032934202BF83
S31508012CB08B68002B70BD531C082B08BF0023C1E984
S31508012CC0013002EB021001EB80000C3070BD206967
S31508012CD0D0E900218A4207BF8268002A01EB011167
S31508012CE000EB810008BF0020EFD170BD10B59446F6
S31508012CF01A46002819BFBCF1000F0029012010BD92
S31508012D00541C00238C4282BF0370012010BD8354DA
S31508012D106146FDF79EFC002010BDFDF7AFBA10B560
S31508012D2001F01EF8012010BD112101600120704734
S31508012D3000B5254883B0007904281CBF23A027F0D5
S31508012D40B7FB0EF0B9FE09F06BFB0020019000906D
S31508012D50694601A800F05EFEDDE9001002F01FF8E1
S31508012D6000F096F900F092FC00F072FF00F042FDC7
S31508012D700020FFF715F90AF0B5FE02F065FB0AF027
S31508012D80E1FEFFF734FF11F003FDFFF72FFF11F006
S31508012D9000FD00F032F803F015FB00F029F800F009
S31508012DA027FD01F013FB00F01AFB00F003FD00F00C
S31508012DB02FFE01F02BFA00F085FE00F01BF803B098
S31508012DC05DF804EB02F0DEBA00C00008436F6E66D8
S31508012DD0696775726174696F6E2076657273696F5A
S31508012DE06E20213D2076657273696F6E0A000000B8
S31508012DF004F0D4BA4FF04A407047012070470000EA
S31508012E00082824BF0020704730B420490B5C0831DC
S31508012E100A5C01F1100000EB83001D4950F8040C0F
S31508012E2010F4803F18BF1B49C0F3842C01240D6898
S31508012E3004FA0CFC15EA0C0F11D10D6845EA0C0CC5
S31508012E40C1F800C0842101808482012B18BF082B98
S31508012E5005D1B0F8441041F40041A0F8441000EB44
S31508012E60820300219986682312F0010F18BF4FF4D7
S31508012E70D04300F1180112F0020F18BF00F11C012E
S31508012E8008881843088030BC0120704708280408C0
S31508012E904038024044380240002808BF704730B520
S31508012EA083B004460D4600216846FFF74BF8002219
S31508012EB02946204602F062FF6846FFF748F803B044
S31508012EC030BD00002DE9F04784B007000C46904656
S31508012ED04FF0000638D03D7844F480300090D8F899
S31508012EE000000190D8F804000290A54208BF012607
S31508012EF023D0192C12D0102C16D0DFF86CA005EBB4
S31508012F0085095AF8290010F4003F08BFFDF7DEF8D5
S31508012F100AEB89004079042816D119E0102D04BF5F
S31508012F207868002805D106E00198002808BF192D00
S31508012F3001D0002600E0012636B13C70D8F8000021
S31508012F407860D8F80400B86004B03046BDE8F08768
S31508012F5004EB84000AEB8000407904283CBF2C4628
S31508012F600126F1D2E9E70000AC01040804F0B0BD7E
S31508012F7030B4C0680024002804BF30BC70474388B9
S31508012F8003EB000C0378012B18BF022B06D0032B89
S31508012F9009D0FF2B10D030BC002070478B4204BFEC
S31508012FA030BC70471AE0032918D155884378EDB229
S31508012FB0AB4213D130BC704703791578AB420DD1BA
S31508012FC043795578AB4209D1C3885588AB4205D1B7
S31508012FD003899588AB4204BF30BC7047002C08BFF3
S31508012FE06046CCD030BC704704F09CBD04F03ABEB4
S31508012FF040F674610160012070470FB410B505AB46
S31508013000049A00F0AEF810BC5DF814FB4FF0FF3CD3
S31508013010C3F800C0C2F800C0C1F800C0032828BF21
S315080130207047DFF818C01CF800C0C1F800C0044991
S31508013030095C11600349085C18607047A4BA030863
S31508013040A7BA0308AABA030800487047007A030A10
S3150801305010B40A22A0FB023401FB02414FF0000C16
S3150801306000FB0C1110BC18467047B0F90000B1F905
S315080130700010401A70470020704708207047072241
S315080130800FF0F8BC014804F051BA0000E8910010AD
S31508013090014804F055BA0000E891001008B50B463E
S315080130A000920246014804F081FA08BDE891001031
S315080130B010B50120FFF7E2F80220FFF7DFF84FF617
S315080130C0FD7081070882FEF77DFF084AD2E90032C2
S315080130D0C01A71EB020028BF09F056F90220FFF762
S315080130E0B9F8BDE810400120FFF7B4B83040001028
S315080130F0F0B583B005460C46164600216846FEF72C
S3150801310021FF0027002C18BF00240FD005EB8401EE
S31508013110086940B1496B31B9076047608760214644
S31508013120284600F041F8641C062CEFDB002E18BF78
S3150801313000200DD005EB8002116900291CBF526BD6
S31508013140002A02D00F604F608F60401C0628F1DB11
S315080131506846FEF7FCFE03B0F0BD04F0F2BD04F0CC
S315080131602BBE70B505460C4609680068FFF7D5FD04
S31508013170012111EBE07208BF206829680023014488
S3150801318029600B702168081A2060104670BD00007E
S31508013190022824BF0020704735214843014901EB25
S315080131A0800070472092001070B582B004000D4669
S315080131B005D004EB8500016909B1406B10B102B075
S315080131C0002070BD6079002814BF114E4FF0A0464B
S315080131D000216846FEF7B6FE06EB451000F530619C
S315080131E0D0F8002B12F0004F0BD1621992F82E205D
S315080131F042F40022C0F8102BD0F8000B40F004402E
S3150801320008606846FEF7A3FE02B0012070BD000003
S3150801321000000440034A10B50021116003F027FDA0
S31508013220002010BD984100107047000010B50446F3
S3150801323004202080022060800020A080E0803723BF
S3150801324008A2382104F10800FFF750FD0E48302284
S315080132500E49D0F85004206404F14400FDF7B2F891
S31508013260012010BD436F70797269676874204F62D7
S3150801327065726F6E206D6963726F73797374656DAC
S31508013280732C20496E632E0000C0000854C4000840
S3150801329070B51E4D002455F8240018B18047641CEA
S315080132A0102CF8D300F058F800F032F801F092F833
S315080132B001F083FE00F00FFC01F08AF801F02CFA08
S315080132C002F07EFC00F026F801F003FB01F065FD33
S315080132D002F0D8FA03F0A2FA11F05DFA0AF098FCA6
S315080132E000F0AEFF01F0C4F801F048FD01F0F0FB73
S315080132F00020FEF74FFE00F04DFE00F02BFA0EF00F
S31508013300B7FBBDE8704009F01BB80000D0410010BA
S3150801331004F066B84FF04A407047802070470000B5
S3150801332000B587B00146684611F0C6FC00280EDBD9
S3150801333003980849C07B00EB800051F820004FF440
S31508013340C02131EA000002BF012007B000BD0020FC
S3150801335007B000BDAC0104080120704740F2012006
S3150801336070470020704700001649174AFF23095C79
S31508013370125C164812F0010F00EB810050F8040C9C
S3150801338018BF4FF47F4300F1180112F0020F18BF5E
S3150801339000F11C010A889A430A80018B828B11432A
S315080133A00DD10B4910F4803F18BF0A49C0F3842098
S315080133B0012202FA00F00A6822EA000008600120E8
S315080133C07047000008280408102804082028040863
S315080133D040380240443802404FF400707047704745
S315080133E02DE9F041DFF84080044682B0D8F80000A4
S315080133F00D4616461F46002804BF02B0BDE8F081F7
S3150801340000216846FEF79EFD300440EA042040EAA2
S3150801341005013A46D8F8000002F0B0FC6846FEF706
S3150801342096FD02B0BDE8F0819841001070B50546D9
S315080134300120FEF723FF0220FEF720FF224905EBB4
S31508013440450001EB0014204609F02AF801201F4E19
S3150801345000FA05F3336094F8200000F0CBFF054627
S3150801346030681842F6D1636A33B394F8220050B132
S31508013470FEF7A8FD164A1268821841F10003204694
S3150801348008F020FF18E094F8231094F82000A26AA7
S31508013490984794F8210003280ED194F82300A842EE
S315080134A004BF80F0010084F8230005D0636A94F80C
S315080134B020002946A26A98470220FEF7CBFEBDE8FE
S315080134C070400120FEF7C6BE28430010143C014097
S315080134D02040001013460A460146014804F076B812
S315080134E0E891001000B583B09DED040ADDED050AEB
S315080134F08DED000ACDED010A05F0ACF803B000BD6B
S3150801350070B5044690F85F00B4F87C50A84238BFFD
S3150801351005462A46A16FA06DFCF754FF84F85C5056
S31508013520A06F00212844A067B4F87C00401BA4F8CA
S315080135307C0094F85F00A84218BFA4F87E100BD14E
S31508013540B4F87E00401B0004000CA4F87E001EBFE0
S31508013550AFF25300606770BD616770BD30B50C4648
S31508013560154600220221FFF703FD002808BF30BDDA
S3150801357000F10D0241880144206878B1904288BF64
S3150801358081422ED92B68934228BF994229D942787C
S31508013590052A04BF0278072A23D10BE000202260FE
S315080135A02860206888421CD24378042B0BD0052B4F
S315080135B00ED010E05A78042A01BF1A78092AC01DCC
S315080135C020600ED1EEE70278092A08BF286002E0DA
S315080135D00078072807D020680278104420608842BE
S315080135E0E2D3002030BD012030BD04F00DBC00003F
S315080135F010B44FF0FF3C019C0628C4F800C0C3F87C
S3150801360000C0C2F800C0C1F800C024BF10BC704792
S31508013610DFF828C003281CF800C0C1F800C0084913
S31508013620095C116024BF10BC70470649095C196022
S315080136300549085C206010BC70470000E60E0408C6
S31508013640EC0E0408E00E0408E30E040800F47F43B8
S3150801365010B54FF0000CC0B2B3F5807F06D0B3F5B4
S31508013660007F07D0B3F5407F0DD108E0401EFFF774
S31508013670F2F802E0401E03F0CFFD844603E0401E47
S31508013680FFF74CF98446604610BD00000349002047
S31508013690086048600249086001207047D8A70010F1
S315080136A06C40001001490968084070476C400010D9
S315080136B010B5044684B014A0FFF753F9002212A1ED
S315080136C0CDE900211346029002220421204608F082
S315080136D08DFD1648D0F8040100281CBF4069002852
S315080136E004F1400409D0818BC28B038C408C218064
S315080136F06280A380E08004B010BD00202080608035
S31508013700A080E08004B010BD436F70797269676864
S3150801371074204F6265726F6E206D6963726F73797B
S315080137207374656D732C20496E632E008C550010D9
S3150801373000207047014803F094BF0000E89100108B
S3150801374008B50B4600920246014803F0ABFF08BDD7
S31508013750E8910010014804F06FB80000E8910010E4
S3150801376010B50446007994F85E10884208BF10BD6A
S31508013770052804D1012211462046FFF7B9FC94F821
S315080137805E002071072811D2DFE800F00408080856
S31508013790080908000020A4F87C00606710BD2046CF
S315080137A00022BDE810400121FFF7A2BCBDE8104088
S315080137B0FCF78CBC012070470C4810B5016840F233
S315080137C0FF121143016000213C2001F0DCFF0021BA
S315080137D03D2001F0D8FF00213E2001F0D4FF002151
S315080137E0BDE810403F2001F0CEBF0000303802404E
S315080137F010F0A2BC012070470320704700487047AB
S3150801380040420F002DE9F04F85B08046022822BFBD
S31508013810012005B0BDE8F08FB8F1000F14BF744858
S315080138207448016814BF41F0005141F080010160FC
S315080138304FF03500704908FB00F001EB800414BF16
S315080138406E4D4FF0A0454FF000016846FEF77AFB32
S315080138500220C5F804088020A8606948E8604FF48A
S315080138601020A863D5F8000840F00300C5F8000841
S31508013870A86B40F40010A8634FF0010A04F1C000D8
S31508013880C4F8D0A0E066B8F1000F14BF06200420E2
S3150801389084F87000002201212046FFF769FB002801
S315080138A014BFC07A082084F85F0094F870100120CC
S315080138B04FF000090129C8BF40210BDD04EB800246
S315080138C0C2F834902218401C82F82E1094F8702001
S315080138D08242F3DC0026B8F1000F14BF0327002744
S315080138E0CDF8089003AA02A92046CDF80C90FFF757
S315080138F035FE002818BFDFF80CB15CD0029894F8A1
S315080139007020807800F07F018A4254DD039A92780C
S31508013910032A50D810F0800F1CBF04EB8100C0F8B1
S3150801392034A002988088082818BF102803D02028B8
S3150801393018BF40283FD1621882F82E008B207843A1
S315080139400BEB800004EB8102C0F80090C0F80490EC
S31508013950C0F80890106102987F1CC07800F0030037
S31508013960012821D049008840064303AA02A9204616
S31508013970FFF7F4FD0028C1D1EEB1A4F8CC604FF4ED
S315080139807A70FEF728FB0021404600F01BFAB8F1D1
S31508013990000F4FF0000215D01B494D2002F0DCFB49
S315080139A0002219494C2014E06846FEF7D0FA05B002
S315080139B00020BDE8F08F6846FEF7C9FA05B0012078
S315080139C0BDE8F08F1149432002F0C6FB00220F49DA
S315080139D02A2002F0C1FB4FF0FF3068614FF4805096
S315080139E0A861C5F83498A86840F00100A860DBE72B
S315080139F0303802403438024020920010000004405A
S31508013A00400C0040C8930010B96C0108A96C010864
S31508013A1001207047002202600A60704700F47F4166
S31508013A20C0B2B1F5807F0AD0B1F5007F0AD0B1F5F1
S31508013A30407F1CBF00207047401EFFF7E0B8401EBC
S31508013A40FEF716BF401E03F08CBC2DE9F0470F4662
S31508013A50164600F47F494FF000086424C5B22BE0EE
S31508013A60B9F5807F06D0B9F5007F09D0B9F5407F51
S31508013A7014D10BE0681E32463946FEF7FBFE0AE012
S31508013A80681E3246394603F06EFC04E0681E32466B
S31508013A903946FFF7B6F8002811DB09D10020FEF7F1
S31508013AA06FFA60B100210122202000F037FE03E001
S31508013AB03224361A074480440EB1641ED0D24046D9
S31508013AC0BDE8F0874FF04A40704700207047002054
S31508013AD070470120704770470120704700207047E2
S31508013AE04B1E0029C8BF08490CDD10F801CB8CEA2A
S31508013AF0126C51F82CC08CEA0222B3F1000CA3F126
S31508013B000103F2DC10467047B8070408704704F051
S31508013B1017BE4FF0FF30704770B5044682B00D46A8
S31508013B20164610EE100A27F073FD41EC100B3246CB
S31508013B308DED000B29462046FEF7F4FE02B070BD56
S31508013B402DE9FF4F82468DB04069171E8B46C26B21
S31508013B50DDE91A6889B2DDF87090104400EBC105F9
S31508013B604FF000042BD92988504609F087FF109990
S31508013B70FCF79AFDF8B996B12A465146684616F0F9
S31508013B8050FA7069816D084400EB0802314606A8AF
S31508013B9016F04FFA06A968460FF066FD58B1DAF82D
S31508013BA00C000BEB040141EA0040C9F8000011B012
S31508013BB00120BDE8F08F641C0835BC42D3D3002030
S31508013BC0C9F8000011B0BDE8F08F0000072824BF2E
S31508013BD04FF0FF3070470249085CC91D085C704701
S31508013BE06628040810B5FA210160084601F056FA5C
S31508013BF0012010BD502834BF0320002070475028EB
S31508013C0028BF704738B504468C4603F00F001146A5
S31508013C10012808BF032102D0002818BF02216246E5
S31508013C20204601F007FD00200346024601460090A2
S31508013C30204602F0D7FA38BD002203238A4228BF5C
S31508013C407047502ABCBF8354521CF7DB70470000EB
S31508013C502DE9F0411420002100F0DEFB00201F4968
S31508013C60054621F81050401C0528FADB00241C4E95
S31508013C70012704EB440006EB00101A49002287616C
S31508013C800DF024FF641C102CF3DB17480560002295
S31508013C901649062002F060FA00221549072002F0AB
S31508013CA05BFA00221349082002F056FA002212494B
S31508013CB0092002F051FA002210490A2002F04CFAB2
S31508013CC000220F49172002F047FA00220D49282041
S31508013CD002F042FA0120BDE8F081000028460010F2
S31508013CE0284300109B650108003C0140E555010881
S31508013CF0EB550108F1550108F7550108FD5501086D
S31508013D000556010889580108502824BF0020704724
S31508013D1070B50E46040900F00F00012101FA00F5FD
S31508013D2082B000216846FEF70DF90C49002E31F8DC
S31508013D30140008BFA84309D0284208BF284305D064
S31508013D406846FEF704F902B0002070BD21F8140098
S31508013D506846FEF7FCF802B0012070BD284600103F
S31508013D6012494FF0FF30086048608860C1F80001C9
S31508013D70C1F80401C1F808010E480D498160C16006
S31508013D80016141618161C16201638163BFF35F8F33
S31508013D900A4AC16308491160A2F10401086008488A
S31508013DA0016841F4E02101607047000080E100E00C
S31508013DB00522010800FE01200007FA050CED00E0C6
S31508013DC024ED00E02DE9F04305460F463520394933
S31508013DD0684301EB800483B0B4F8CC00002804BF23
S31508013DE003B0BDE8F083002D0CBF4FF0A046324E5C
S31508013DF000216846FEF7A6F8D4F8D0004FF000086F
S31508013E004FF0010947B300284DD1C4F8D090D6F830
S31508013E10041841F00201C6F8041894F87000012547
S31508013E20012813DD04EB8500016900291CBF406BDD
S31508013E30002806D0012229462046FEF720FF002841
S31508013E40F8D194F870006D1CA842EBDC84F85E800A
S31508013E502046FFF785FC26E028B3C4F8D080002D5C
S31508013E6014BF40F2C22040F2A220C7B214BF1E20DE
S31508013E700B203B464FF000021146FFF7C0FE002D0E
S31508013E8014BF1F200C203B4600221146FFF7B7FE40
S31508013E90D6F8041821F00201C6F8041884F85E90D1
S31508013EA02046FFF75DFC6846FEF751F803B001208E
S31508013EB0BDE8F083209200100000044070B582B07E
S31508013EC0041E0D461CBF94F87000A842DEBF0020F0
S31508013ED002B070BD6079002814BF1B4E4FF0A04692
S31508013EE000216846FEF72EF804EB850001690029D2
S31508013EF01CBF406B002812D0E06E30F8150010F098
S31508013F00010F12D0012229462046FEF7B8FE0028E5
S31508013F10F8D16846FEF71BF802B0012070BD684665
S31508013F20FEF715F802B0002070BD6846FEF713F8D3
S31508013F3018B12146304602F0C9FB2A4621463046C9
S31508013F4002F04DFBE5E700000000044002282CBF03
S31508013F504FF0FF30001D704770B504460D460B48FB
S31508013F6008F09EFA002C08BF70BD084801230849CD
S31508013F70224683610DF0AAFD4FF47A7005FB00F124
S31508013F80BDE87040014808F098B90000D8A70010AC
S31508013F90496F010810B5024808F082FA012010BDE0
S31508013FA0D8A700102DE9F04F87B05748DFF8509190
S31508013FB0CDF81090DFF84CA1046800260AF16008D4
S31508013FC0002C04BF07B0BDE8F08FD4E90210896858
S31508013FD0884707463020039001A80290D4E90210C9
S31508013FE00DF1140B896806AD8847DDE902215B46A8
S31508013FF0009522F05BF8386810F0020F08D1D4E971
S3150801400002C040F60C12DCF80CC03E4B0199E047A1
S31508014010DFF8F8B0002558F82500B0F1FF3F03D0C6
S3150801402010EB0B0027D125E000F0C6FF386810F029
S31508014030020F10D008EB850001F0BBFB4FF0000C16
S31508014040CDF800C0D4E902160422D1F810C0014601
S3150801405004AB30460DE00AEB85005346C0F8609084
S3150801406000200090D4E902C040F60C12DCF810C01A
S315080140700199E04701266D1C002E3CD1322DCAD389
S315080140800598B96900EB800001EB800500F094FF03
S31508014090A86826F056FA06002DD0386810F0020FE7
S315080140A005D0AA6830460199FCF78CF907E0D4E9EE
S315080140B002C00199DCF80CC0AA683346E047FF2222
S315080140C0C82106F16000FCF773FAC6F86090D4E9D6
S315080140D002200199526A904700F06EFF0020AA68F3
S315080140E00090D4E902C00199DCF810C03346E047D4
S315080140F0304626F024FA03F091F807B0BDE8F08FB0
S31508014100444C544200C0000864400010BCB3ABBD27
S31508014110214830B44FF0FF310A0CC0E900121F489C
S31508014120016841F0030101601D484FF0010CC0F818
S3150801413008C00423400403802021818000210181D5
S3150801414002228281018381835322028541634A1EA9
S31508014150C262A0F814C0134A1380131D1980124CA9
S3150801416017232380231D1980104B19801B1D4FF619
S31508014170FF7119600E49A1F800C0118841F00101CB
S315080141801180018841F001010180002230BC0949F2
S315080141901C2001F0E1BF0000304000104038024009
S315080141A0002004E000040040080400402804004000
S315080141B014040040B130010870B582B004460D46BA
S315080141C000216846FDF7BEFE09484FF08046C0E962
S315080141D000457463FDF7F6FE001B71EB050024BF6D
S315080141E00220B0826846FDF7B2FE02B070BD00003B
S315080141F030400010014908600020704798410010BE
S31508014200002070474FF0FF307047704708F07CB9BF
S315080142100020704713460A460146014803F016BBBB
S31508014220E89100100146014803F03ABBE8910010F5
S31508014230014803F0B7BB0000E891001004F0B0BADA
S3150801424004F0C2BA04F0D6BA90F85C10002904BF8B
S3150801425002207047816D4A780A2A13D2DFE802F0F4
S3150801426005071209120B12120D0F00F00DB801F015
S315080142709DB800F09BBB00F073BB02F05DB801224C
S3150801428002F076B802F070BD81B00022ADF80020C8
S315080142904A88002A04BFCA88022A24D190F85E30C7
S315080142A0032B20D00A7812F00F0208BF00F168012B
S315080142B01CD0012A02D0022A05D014E0052B08BF1A
S315080142C0694610D112E0042B01D18A885AB98A8825
S315080142D002F07F028A8090F870108A423CBFC16E54
S315080142E001EB420102D3012001B070478167022127
S315080142F0A0F87C1002494167002001B07047000010
S31508014300013501080FB40A4608B505A90091014609
S315080143100348049B03F0AEF901B05DF814FB0000F5
S31508014320E891001000B583B08DED000BFEF7FAFA9F
S3150801433003B000BD2DE9F04105000C4603D02878ED
S31508014340142808BF6D6800270126256095B12878CD
S31508014350102801D1686868B1294604F1080010F0EF
S31508014360ABFC0028B8BFBDE8F08127712878102872
S315080143700BD103E0267167718E7122E06868407877
S3150801438010F0100F18BF012000D100206071A1683C
S3150801439001F06002202A18BF402A06D001F01F0149
S315080143A001291CBF0829102901D0A67109E030B9D5
S315080143B00549E068896B884218BF002000D10120B1
S315080143C0A0710020BDE8F081185400100120704743
S315080143D0012070470FF0E6BE7047000003484FF40E
S315080143E07A710068B0FBF1F07047000020400010B8
S315080143F050207047502824BF002070470109054AFC
S3150801440002EB8121096900F00F0021FA00F000F0A2
S3150801441001007047000002400022134610B5121A27
S3150801442073EB01020BDA42F21072821A71F1000182
S3150801443005DA01F020F803490860012010BD0020C3
S3150801444010BD000020400010502828BF70470209FF
S3150801445000F00F00054B03EB8222012303FA00F05B
S3150801446080B2002914BF10835083704700000240B0
S315080144707047000030B50446006A294985B051F8ED
S315080144802000018911F0800FFBD100210180E0692C
S31508014490002818BFFDF7BAFD606800280CBF012186
S315080144A000212068FFF7D0FFA0680125002818BF62
S315080144B0022503AB02AA01A9206AFEF7A7FD00237C
S315080144C01A4619460095019800F0CAFF00230125EE
S315080144D01A4619460095029800F0C2FF00231A46AB
S315080144E019460095039800F0BBFF206A68B10D498B
S315080144F0012804BF086820F480400CD0022804BFB4
S31508014500086820F4004006D006E00748016821F44F
S315080145108051016000E0086005B0012030BD00004F
S31508014520B0BA030840380240443802400628B2BFF0
S31508014530032A002070472DE9F04387B004468946CF
S3150801454090461F46002102A80F9EFDF7FBFC544822
S315080145505449052C50F82450534804BF0A6842F0C0
S3150801456020020ED0002C04BF0A6842F0100208D0BF
S315080145704E4801684FF48032A240114301604C480D
S3150801458000E00A6000EB6900B0FBF9F028810C2015
S31508014590092F08BF41F20C00B8F1000F06D040F40C
S315080145A08060B8F1010F08BF40F40070A881012F9F
S315080145B008BF002738032882002016F0040F18BF09
S315080145C04FF4007016F0020F18BF40F48070A882ED
S315080145D004A8009001AB06AA05A92046FFF708F82A
S315080145E07220032CA8BF8220C7B23B4600220221B3
S315080145F00598FFF704FB3B46012200210698FFF7C1
S31508014600FEFA16F0040F02D00198401C1CD00022B5
S315080146103B4611460198FFF7F2FA16F0020F02D04F
S315080146200498401C10D03B46012200210498FFF74C
S31508014630E6FA0021204600F0F3FA062C24D2DFE838
S3150801464004F00A0E12161A1E02A8FDF780FC07B01E
S315080146500020BDE8F08300221649252012E0002239
S31508014660154926200EE00022144927200AE00022D7
S315080146701349342006E000221249352002E00022BF
S315080146801149472001F068FDA88940F40050A88126
S3150801469002A8FDF75CFC07B00120BDE8F083000025
S315080146A0F40E04084438024000BD010540380240B2
S315080146B080DE8002B95A0108E55A0108115B010832
S315080146C03D5B0108695B0108955B01080620704797
S315080146D010B5040004D04C2001F033FF4D2003E04F
S315080146E02A2001F02EFF432001F02BFF012120464D
S315080146F0FFF768FB002C14BF05480648016814BF7C
S3150801470021F0005121F080010160002010BD000058
S315080147103038024034380240012070472DE9F04311
S31508014720814685B00F46104600F0A5FE04460D46A3
S31508014730002102A8FDF706FCFDF744FC04194D41CA
S3150801474001263846FEF7AEFF38B1804602A8FDF7C6
S31508014750FEFB05B04046BDE8F083FDF733FC001BC0
S3150801476071EB050006D302A8FDF7F1FB05B00020A1
S31508014770BDE8F0831EB10220FDF776FD60B1002089
S31508014780CDE9007001264A462046294607F052FE21
S3150801479002A8FDF7EDFBD4E702A8FDF7E3FB0DF050
S315080147A09BF9064602A8FDF7E1FBCAE730B50C46B8
S315080147B083B0054600210120CDE900010A460823F8
S315080147C04FF4E1310220FEF78DFE24B1214612A0F5
S315080147D000F046F902E015A000F042F916A0E96BCF
S315080147E000F03EF918A0A96B00F03AF91AA0696B16
S315080147F000F036F905F140011BA000F031F900245B
S31508014800214655F824201CA000F02AF9641C0C2C1A
S31508014810F6DD03B030BD0000455843455054494FB5
S315080148204E203078253032783A0D0A004552524FDB
S31508014830523A0D0A000000002020637073723D3061
S3150801484078253038780D0A002020706320203D3005
S3150801485078253038780D0A0020206C7220203D30EA
S3150801486078253038780D0A002020737020203D30D5
S3150801487078253038780D0A002020722530326420D8
S315080148803D3078253038780D0A00000030B50C46E1
S315080148900546011D808885B0022806D103AA684607
S315080148A016F060FD08B1039810B105B0284630BD71
S315080148B0294620460CF0F0FE019A0099201D926FB8
S315080148C089B202EBC101496818F030F805B02046F3
S315080148D030BD4FF04A40704730B505460B4887B0A2
S315080148E02A46D0F8B0410A48CDE90004694603A82A
S315080148F00CF062FE0028BEBF002007B030BD04F1EF
S315080149001400617C07B001FB050030BD5852001048
S315080149101000010000B5FDF755FB5DF804EBFEF745
S3150801492097BBFEF795BB16220260192008607047EF
S3150801493081777047002070470120704708282EBFED
S315080149404FF0FF300149085C704700001828040839
S3150801495001207047002070470120704703F0A0BA74
S3150801496010B5044648887F289CBF8A88002A04BF58
S31508014970C988002903D194F85E10052901D30120BD
S3150801498010BD10F0FF0084F85D000CBF0320042061
S3150801499084F85E002046FEF7E3FE0020A4F87C00BA
S315080149A001486067032010BD0135010810B50446AA
S315080149B0C888002832D194F85E20032A2ED00878B8
S315080149C010F00F0005D0012808BF10BD022825D117
S315080149D014E04888012821D10A4602212046FEF71B
S315080149E0C7FAD8B1C07A10F0200F05D0B4F868001C
S315080149F040F00200A4F8680006201CE0042A01D150
S31508014A00888858B9888800F07F00888000281CBFEC
S31508014A1094F87020824201D94A880AB1012010BD52
S31508014A20E26E32F8103043F0010322F8103088881C
S31508014A3084F8710004200021A4F87C1001496167FB
S31508014A4010BD00000135010808B5009313460A4652
S31508014A500146024802F00EFE08BD0000E89100106A
S31508014A600FB4FF2110B5C0B043AB6846429AFEF7B2
S31508014A7054F904460220FDF7FBFE22466946022048
S31508014A80FDF7F8FE0220FDF7F3FE40B010BC5DF815
S31508014A9014FB000000213222084662F30F0061F37D
S31508014AA0174010B5012161F31F60FDF7F1FBBDE861
S31508014AB0104001A025F0FCBC45786974696E672E23
S31508014AC00D0A0000002070474B2101700120704734
S31508014AD070B5124D002404EB440005EB001007F0F5
S31508014AE0DFFC641C102CF6DB0D490020086006204B
S31508014AF001F027FD072001F024FD082001F021FD22
S31508014B00092001F01EFD0A2001F01BFD172001F006
S31508014B1018FD282001F015FD012070BD284300105D
S31508014B20003C014030B50446006A83B0032822BF21
S31508014B30002003B030BD68B13649012804BF0868B2
S31508014B4040F480400CD0022804BF086840F40040B5
S31508014B5006D006E03048016841F48051016000E062
S31508014B6008602E48226A216950F822304FF45170A4
S31508014B70002918BF40F64430A168002918BF40F043
S31508014B800300E168002908BF80F001004AF21041DC
S31508014B90002A18BF45F208216269B1EBC20F84BF2A
S31508014BA0090940F02000B1EB420F84BF890840F0A3
S31508014BB010008A4238BF40F00800188002AB01AAEB
S31508014BC06946206AFEF722FA216A40F25220022932
S31508014BD008BF40F26220C3B21D4601220021009897
S31508014BE0FFF70DF800222B4611460198FFF707F843
S31508014BF02B46012200210298FFF701F8D4E90001AA
S31508014C0000F0C1FDA069002818BFFDF7FFF90120D2
S31508014C1003B030BD4038024044380240B0BA0308F8
S31508014C2000B5034641B1002102F0AEF9002118464C
S31508014C305DF804EB02F0C2B9012102F0BFF90121C6
S31508014C4018465DF804EB02F09FB9000070B5002222
S31508014C50064D074C20211046FEF742FF0246214623
S31508014C602846BDE87040FEF73BBF00000040001033
S31508014C700000000038B578B1C46901F0F8FF0020DA
S31508014C800346024600900121204600F085FB0028D4
S31508014C9004BF4FF07D4038BD002038BD30B40C1D2F
S31508014CA000F1040C012B2CD0022B1BD0042B02D0B3
S31508014CB0082B37D10AE0406849681AB188422DDCC9
S31508014CC034DA2FE0884229D830D22BE0002AD4E9F9
S31508014CD00023DCE9000102D030BC00F02AB830BC60
S31508014CE000F036B83AB1B0F90400B1F904108842B7
S31508014CF014DC1BDA16E08088898888420ED815D21A
S31508014D0010E03AB190F9040091F90410884205DCE3
S31508014D100CDA07E000790979884202D930BC01200A
S31508014D20704703D230BC4FF0FF30704730BC0020CB
S31508014D307047B2EB000C73EB010CBCBF0120704746
S31508014D40801A71EB0300B4BF4FF0FF3000207047A3
S31508014D50B2EB000C73EB010C3CBF01207047801AC3
S31508014D6071EB030034BF4FF0FF300020704700009D
S31508014D700146014801F054BFAC40001010B5FFF7D9
S31508014D8037FB441E48BF10BD00212046FEF7BCFF75
S31508014D90641EF9D510BD0020704707F0C7BB7047E0
S31508014DA02DE9F00F00268BB00146374630463246CC
S31508014DB03346E84608F80230521C1F2AFADB00225D
S31508014DC0FF230DF1200B0BF80230521C0A2AFADBDD
S31508014DD000280FBF4FF001090BB0BDE8F00F70476F
S31508014DE04B880A7803EB010A022A39D003DA82B121
S31508014DF0012A06D115E0032A00F0CC80FF2A00F02B
S31508014E00D580172051460028EAD00BB0BDE8F00F2F
S31508014E1070473E420FBF01200BB0BDE8F00F704747
S31508014E20F0E7002E18BF0220ECD1162B06BF0A792F
S31508014E30122A0320E6D14A79012A18BF0420E1D1B2
S31508014E40CA7A082A18BF102A04D0202A1CBF402A69
S31508014E500520D7D1497D012914BF06200126D1E7AE
S31508014E60002F18BF0720CDD10A79092A72D1CA881D
S31508014E70121D93426ED14A79022A18BF0920C1D15F
S31508014E800A7A002A08BF0A20BCD04B7A012B88BFB0
S31508014E900B20B7D8CB7A03F08F03802B18BF0C20D1
S31508014EA0B0D10D31521ED5B24A78042A01D00E204E
S31508014EB0A8E70A78092A01D00D20A3E7CA780AB11A
S31508014EC00F209FE70B79002B18BF002210D01BF883
S31508014ED002C0BCF1FF0F07D00A2A07DA8C78A4456D
S31508014EE018BF521CF3D11A200A2A03DB1B2089E7B3
S31508014EF0102087E791F802C009310BF802C04A78F9
S31508014F00052A05D091F800C061444A78052AF9D1E5
S31508014F105A1ED2B22BB92EE04B78052B01D012209E
S31508014F2070E70B78072B01D011206BE78B7803F01C
S31508014F307F03A3F1010CBCF11F0F01D3182061E710
S31508014F4091F803C01CF0030F02D01CF0C00F02D069
S31508014F50132057E71CE0434413F801CCBCF1000FBA
S31508014F6001D019204EE703F8019CC91D1300A2F1CF
S31508014F700102D2B2D0D100287FF444AF2A00A5F1AC
S31508014F800103DDB290D1514508BF01273FF43AAF7D
S31508014F90082037E70A79121D934218BF14207FF4B7
S31508014FA031AF4979032918BF15202BE7097911F083
S31508014FB0800F08BF162025E770477047F0B50746EA
S31508014FC02DED028B89B00C4615461E469DED108ABD
S31508014FD0DDED118AFFF7A6FD002802BF09B0BDEC79
S31508014FE0028BF0BD02968DED038ACDED048ACDE9DB
S31508014FF00045386A0590684601F038FD00281CBF4F
S315080150003846FFF737FA09B0BDEC028BF0BD000050
S3150801501010B582B0044600216846FCF793FF1C4987
S31508015020002051F824108881062C11D2DFE804F0FB
S31508015030030507090B0D252008E0262006E0272091
S3150801504004E0342002E0352000E0472001F079FA37
S3150801505001212046FFF7E4FD0E48052C12D0002C4D
S3150801506004BF016821F0100105D00B4801684FF40F
S315080150708032A240914301606846FCF768FF02B09E
S31508015080012010BD016821F020010160F4E700004C
S31508015090F40E0408443802404038024070470020A4
S315080150A07047C0697047807F084018BF0120704764
S315080150B070472DE9F04FD1F8009083B0002800F031
S315080150C0E480022289F80020002389F801304FF094
S315080150D0090C89F804C089F80520012289F80920F4
S315080150E090F8282089F80A2090F8342089F80B20AE
S315080150F090F8402089F80C20D0F81CE0BEF1000F8A
S3150801510000F0C380DEF80C00009089F8080009F168
S315080151100D00086000989A460028C4BF0EF11400D5
S3150801512001907EDD9EF811200198002502FB0A00F8
S3150801513000281CBF4468002C74D0D1F800C009208F
S315080151408CF8000004208CF80100207C8CF8020001
S3150801515000208CF8030094F834008CF8050094F8C4
S3150801516040008CF8060094F84C008CF8070094F877
S3150801517058008CF808000CF109000860A66A002E90
S315080151801CBFF068002884BF06F1140002902FD9CD
S31508015190727C02FB050000281FBF4768002FFB69C8
S315080151A0002B72D0D1F8008013F1140208F1020025
S315080151B06BD0D3F80CB00BF1020B88F800B03F7C2A
S315080151C088F80170D3F80C800027B8F1000F08D9C8
S315080151D012F8018B00F8018BD3F80C807F1CB845B7
S315080151E0F6D80860F0686D1CA84288BF0298CFD827
S315080151F0E369002B49D0D8688CF80400D8684FF0C9
S31508015200000C00282CD903F114074FF007084FF0BA
S31508015210050B587C00FB0C7000281CBF4268002A4D
S3150801522001E023E031E030D008680CF1010C80F888
S31508015230008080F801B0167C8670147FC470158DC5
S31508015240858092F83420827104F08002324382709C
S3150801525024F08002C270C01D0860D8686045D8D89D
S3150801526000980AF1010A8245FFF65CAF0868092130
S31508015270A0EB0900A9F8020089F80410001FA9F893
S31508015280060003B00020BDE8F08F03B04FF02140BF
S31508015290BDE8F08FF0B4DFF8D8C0DDE904161CF8D4
S315080152A000500CF1080C1CF800700CF1100000EB12
S315080152B0850050F804CC10681A680B68824288BFCA
S315080152C002462C491CF4803F18BF2B49B1FBF3F168
S315080152D0C1B1B1F5803F08D9B0F1004F0FD24908E5
S315080152E040005200B1F5803FF6D8022D18BF052DB2
S315080152F025D0B0F5803F22D3B1F5004F19D9F0BCBE
S31508015300002070471D49B3FBF1F454231CF4803F78
S3150801531018BFA8231A49884284BF1946B0FBF4F07E
S3150801532004D85843B0FBF4F001215A43B2FBF4F216
S31508015330DBE7490040085208B0F5803FDCD2491E38
S31508015340ACF82810401ECCF82C000CEB870082869E
S31508015350B800022101FA00F0BCF82010002E14BF93
S31508015360084321EA0000ACF82000F0BC0120704790
S315080153700828040800BD0105007A030A40420F0007
S31508015380611886014FF04A4070470000014802F053
S3150801539095BB0000E891001008B5DDF808C0CDF806
S315080153A000C003F0B3FA08BD02F0B2BD10B5044659
S315080153B0C888002804BF94F85E00052829D1087812
S315080153C010F00F0005D0012808BF10BD022820D112
S315080153D014E0488801281CD10A4602212046FDF717
S315080153E0C7FDB0B1C07A10F0200F12D0B4F868002A
S315080153F020F00200A4F86800062017E0888810F05B
S315080154007F00888005D094F87020824201D94A88A5
S315080154100AB1012010BDE26E32F8103023F0010303
S3150801542022F81030888884F8710004200021A4F835
S315080154307C100149616710BD0135010800207047DC
S3150801544000207047002070470023024A024903489A
S3150801545008F054BC10410010DC40001010920010F6
S3150801546000B583B0DDF810C0CDE9003C002300F09B
S3150801547071F903B000BD4FF47A71A0FB01017047C1
S31508015480044951F82000008810F0800018BF012057
S3150801549070470000F40E040830B500F47F4183B06C
S315080154A0C4B2B1F5807F06D0B1F5007F10D0B1F551
S315080154B0407F14D125E000210120CDE900011448DF
S315080154C0082300220169601EFEF70CF803B030BDFF
S315080154D0C0F3421000210546FDF795FB10B103B054
S315080154E0002030BD2846FDF77FFD002804BF03B024
S315080154F030BD601E03B00222BDE830400121FDF730
S3150801550075BD03B0601EBDE83040FEF7E5BA000080
