S315080000000CE000201D00000831000008310000083F
S3150800001031000008310000083100000800F060BE19
S31508000020DFF808D000F0BFFE00F058BFF83F001018
S31508000030FEE76E2900F07882702900F0C9836629E8
S31508000040AFF300806529AFF300806729AFF300801E
S315080000506129AFF3008003681B0A28BF41F08001BD
S31508000060692900F02582642900F02282752900F0AA
S315080000701F826F2900F05483782900F09583E929B7
S3150800008000F0EC82E42900F0E982F52900F0E68226
S31508000090EF2900F05183F82900F094830368DB09FF
S315080000A028BF41F08001632900F07E85732900F09E
S315080000B08385E32900F08E85F32900F093850020D7
S315080000C07047000040BA7047C0BA704700BEFEE7E6
S315080000D0704770477CB515461A460C00009001D04B
S315080000E02044401E074B7B4469460190284600F091
S315080000F036FA05461CB10020694600F043FA284640
S315080001007CBD0000A504000040EA010310B59B076A
S315080001100FD1042A0DD310C808C9121F9C42F8D063
S3150800012020BA19BA884201D9012010BD4FF0FF3014
S3150800013010BD1AB1D30703D0521C07E0002010BD2A
S3150800014010F8013B11F8014B1B1B07D110F8013BB6
S3150800015011F8014B1B1B01D1921EF1D1184610BD97
S31508000160032A40F2308010F0030C00F0158011F8D5
S31508000170013BBCF1020F624498BF11F801CB00F8AD
S31508000180013B38BF11F8013BA2F1040298BF00F801
S3150800019001CB38BF00F8013B11F0030300F0EA83F6
S315080001A0083AC0F0088051F8043B083A51F804CBE5
S315080001B0A0E80810F5E7121D5CBF51F8043B40F8AB
S315080001C0043BAFF30080D20724BF11F8013B11F8B6
S315080001D001CB48BF11F8012B24BF00F8013B00F8FA
S315080001E001CB48BF00F8012B7047431A28BF9A4233
S315080001F07FF6B6AF032A1044114440F2268010F069
S31508000200030F1EBF11F8013D521E00F8013D10F004
S31508000210030F7FF4F6AF11F0030300F0F083083AFA
S31508000220C0F00B8051F8043D083A51F804CD40F867
S31508000230043D40F804CDFFF7F3BF121D5CBF51F82B
S31508000240043D40F8043DAFF30080D20724BF11F8FF
S31508000250013D11F801CD48BF11F8012C24BF00F863
S31508000260013D00F801CD48BF00F8012C704702F0A7
S31508000270FF0343EA032242EA024200F002B84FF0C3
S3150800028000020429C0F0128010F0030C00F01B8055
S31508000290CCF1040CBCF1020F18BF00F8012BA8BF63
S315080002A020F8022BA1EB0C0100F00DB85FEAC17C27
S315080002B024BF00F8012B00F8012B48BF00F8012BDA
S315080002C070474FF0000200B513469446964620390B
S315080002D022BFA0E80C50A0E80C50B1F12001BFF4F1
S315080002E0F7AF090728BFA0E80C5048BF0CC05DF857
S315080002F004EB890028BF40F8042B08BF704748BFA5
S3150800030020F8022B11F0804F18BF00F8012B704718
S3150800031010B5044610F0030F08BF11F0030F40F0A4
S3150800032015804FF0013E121FC0F20E8051F8043BB3
S31508000330A3EB0E0C2CEA030C1CEACE1C08BF40F8F3
S31508000340043BF0D0A1F1040102F10402521E08DBBD
S3150800035011F8013B002B00F8013BF7D11146FFF7D6
S315080003608EFF204610BD00004FF0013C50F8042BCC
S3150800037051F8043B9A4221D1A2EB0C03934313EAAA
S31508000380CC1317D150F8042B51F8043B9A4215D1D7
S31508000390A2EB0C03934313EACC130BD150F8042BAE
S315080003A051F8043B9A4209D1A2EB0C03934313EA92
S315080003B0CC13DBD04FF00000704700BFD01A01BA4B
S315080003C0B1FA81F101F0180122FA01F0CB40C1F12E
S315080003D02001DBB2C0B2C01A2CFA01F3D11A91433C
S315080003E011EAC311E6D1704770B5044685690068FD
S315080003F0C10601D5302600E02026C00708D070BD0A
S31508000400D4E9012130469047206A00F101002062B4
S315080004106D1EF5D570BD70B5044685690068C007C0
S3150800042008D170BDD4E9012120209047206A00F147
S31508000430010020626D1EF5D570BD09684A0501D513
S3150800044040B27047C905FCD500B2704709684A052D
S3150800045001D5C0B27047C905FCD580B2704770B5E2
S3150800046005460C46012A05D02868800600D5EA69A3
S31508000470002302E0012305E05B1C934202D2E05C04
S315080004800028F9D1A869E618C01AA861286A18448C
S3150800049028622846FFF7A8FF04E0D5E9012114F8E9
S315080004A0010B9047B442F8D32846FFF7B4FF70BD56
S315080004B02DE9F0410746002510687529394616A426
S315080004C011D0FFF7BAFF002803DAC0F1000013A421
S315080004D007E039688A0701D511A402E0490704D55F
S315080004E010A4012501E0FFF7B1FF00210A2307F157
S315080004F0240607E0B0FBF3F203FB12003030705419
S315080005001046491C0028F5D12B4622463846BDE838
S31508000510F04100F0E3BA0000000000002D000000E2
S315080005202B0000002000000011680268006A5305CD
S3150800053001D508700BE0D30501D5088007E013063E
S3150800054003D5C217C1E9000201E05206086001207E
S315080005507047000001694A1C02610878704700B5B7
S315080005608FB0CDE901310021059105497944CDE9DE
S3150800057003101146684600F037F90FB000BD0000B9
S31508000580E5FFFFFF0A6802F8010B0A607047D1E928
S3150800059000239A4202D2531C0B6010707047000069
S315080005A02DE9FF5F04468A461546DFF8AC80F84415
S315080005B00027D8E900103E46CDE9001011E03AF8C8
S315080005C016106A4602A800F011FB411C07D02168E4
S315080005D0890603D5E269391891420ED8074406F10F
S315080005E001062068800602D5E069B84205DDAE42FC
S315080005F0E5DB3AF816000028E1D1A069C01BA06126
S315080006002046FFF7F1FED8E90010CDE900100020DA
S3150800061016E03AF818106A4602A800F0E7FA81468A
S31508000620401C0BD000250DF1080B05E0D4E901218B
S315080006301BF8050090476D1C4D45F7D308F10100DE
S31508000640B0428046E5DB206A384420622046FFF740
S31508000650E2FEBDE8FF9F0000067B00002DE9F041A1
S315080006608046D21D22F007020026D2E90002F529AB
S3150800067014A512D0002A06DA0023D0EB030063EB98
S31508000680020211A508E0D8F800108B0701D50FA5BE
S3150800069002E0490701D50EA501261146002408F1F6
S315080006A0240704E000F0D5F930323A55641C50EAC4
S315080006B00102F7D133462A4621464046BDE8F041B5
S315080006C000F00CBA000000002D0000002B0000000E
S315080006D02000000030B4002100F124040CE002F0F0
S315080006E0070505F130054FEAD20242EA437265541E
S315080006F001F101014FEAD30352EA0305EFD1046879
S31508000700002310A2250708D504F020040C4304D0C2
S31508000710C46901230CA2641EC46130BC00F0DEB9B2
S3150800072010B5044621461068FFF790FE024620469B
S31508000730BDE810400023CDE7D21D22F00701D1E91C
S315080007400023C7E70000000030000000F0B40F46A1
S315080007500168090502D5234C7C4402E0214C7C44FF
S315080007600E34002100F124050BE002F00F064FEAD3
S315080007701212A65D42EA03724FEA13136E5401F190
S31508000780010152EA0306F0D1224604680023240731
S3150800079004D5702F05D009B111320223F0BC00F040
S315080007A09DB910320123F9E770B504460D46214676
S315080007B01068FFF74BFE024629462046BDE8704002
S315080007C00023C3E7D21D22F00703D3E90023BDE7C0
S315080007D00368126843F0200303600823C3610023FB
S315080007E0B4E70000647900002DE9F05F0446894605
S315080007F04FF0000ADFF878B1FB44C0F820A0204685
S31508000800E1688847002875D0252806D0D4E9012153
S315080008109047206A401C2062F1E700265F46204682
S31508000820E16888472028054608DB312D06D207EB04
S31508000830050010F8200C08B10643F0E7B00701D50B
S3150800084026F00406C4F81CA00027C4F818A02A2D10
S3150800085009D0284606F0E3FF38B304EB8708303D95
S31508000860C8F8185019E059F8041B204604EB87020B
S315080008709161E1688847012F054618D1E06900288B
S3150800088020DA26F020061DE0D8F8180000EB8000D4
S3150800089005EB40003038C8F818002046E16888475C
S315080008A0054606F0BCFF0028EED1012F0AD02E2DF2
S315080008B008D12046E16888477F1C0546022F46F086
S315080008C02006C4DBA069002803DA404246F0010688
S315080008D0A061F00701D026F010066C2D0BD0682D0C
S315080008E009D04C2D39D06A2D35D0742D35D07A2DB6
S315080008F033D016E038E0E1682F4620468847B842EC
S31508000900054609D16C2F26D04FF48060E16806436E
S3150800091020468847054604E06C2F1AD04FF48070AD
S3150800092006430DB3A5F14100192802D8203546F42F
S3150800093000664A462946204626604E46FFF779FB5A
S3150800094080B101280BD0F61D26F0070000F1080932
S3150800095055E74020E4E78020D8E70020D6E706F1EF
S3150800096004094CE7284651E7206ABDE8F09F0000D5
S31508000970EC78000010B5203AC0F00B80B1E81850AA
S31508000980203AA0E81850B1E81850A0E81850BFF46B
S31508000990F5AF5FEA027C24BFB1E81850A0E818500A
S315080009A044BF18C918C0BDE810405FEA827C24BF5E
S315080009B051F8043B40F8043B08BF7047D20728BFEC
S315080009C031F8023B48BF11F8012B28BF20F8023B3B
S315080009D048BF00F8012B7047431A28BF9A427FF692
S315080009E0C9AF104410F0030F11441EBF11F8013DA2
S315080009F0521E00F8013D10F0030F7FF4F6AF103ACF
S31508000A00C0F00A8010B531E91850103A20E918509C
S31508000A10BFF4F9AFBDE81040530724BF31E9081009
S31508000A2020E9081044BF51F8043D40F8043D12F08F
S31508000A30030F08BF7047D20728BF31F8023D48BFE9
S31508000A4011F8012C28BF20F8023D48BF00F8012CF8
S31508000A50704730B5B0F10A024FEA900E71F1000303
S31508000A604EEA817EB0EB0E0061EB91014FEA101E53
S31508000A704EEA017E10EB0E0041EB11114FEA102EE3
S31508000A804EEA016E10EB0E0041EB11214FEA104EB3
S31508000A904EEA014E10EB0E0041EB1141401841F1B0
S31508000AA000014FEAD00040EA41704FEAD10110EB4D
S31508000AB080054FEA810444EA907444EB01046D19F9
S31508000AC044EB0404521BA3414FF0000348BF0A320B
S31508000AD000D530BD401C41F1000130BD2DE9F0477D
S31508000AE00D4604469246994600F124080168880690
S31508000AF004D5E06921F01001216000E00120A84238
S31508000B0002DDA0EB050700E00027A16907EB050257
S31508000B1002EB0300A1EB0000A0612068C00602D426
S31508000B202046FFF761FC002608E0D4E901211AF8FF
S31508000B3006009047206A401C761C20624E45F4DB6E
S31508000B402068C0060AD52046FFF74EFC06E0D4E921
S31508000B50012130209047206A401C2062381EA7F1E8
S31508000B600107F4DC07E0D4E9012118F805009047ED
S31508000B70206A401C2062281EA5F10105F3DC2046E8
S31508000B80FFF749FC2068000602D50220BDE8F08779
S31508000B900120FBE710B5436913B1AFF3008001E00C
S31508000BA0FFF75DFC012010BD126800F124010A70F0
S31508000BB000224A700122EDE711684FF0FF32E9E79B
S31508000BC010B5436913B1AFF3008001E0FFF7E8FC05
S31508000BD0012010BD126800F1240182840022C2841B
S31508000BE00122EDE711684FF0FF32E9E770B50546D7
S31508000BF00C46164600F01AF8036893F80101012816
S31508000C0006D0FF2C0FD8185D68B101202C7070BD76
S31508000C10D3F807013246214603442846BDE870400A
S31508000C2003F2071318474FF0FF3070BD10B500F0F8
S31508000C3005F8001D10BD00BF4D6C00000048704748
S31508000C40F06D0010814208BF704702F0030332F0CE
S31508000C50030205D050F804CB41F804CB121FF9D192
S31508000C60002BD8BF704710F8012B5B1E01F8012B2B
S31508000C70002BF8DC704701F0030231F003014FF056
S31508000C80000303D040F8043B091FFBD1002AD8BF54
S31508000C90704700F8013B521E002AFADC704710B56F
S31508000CA007480849084AFFF7CDFF08480849094A8E
S31508000CB0FFF7C8FFBDE8104007480849DBE7000012
S31508000CC0188B00080040001000000000188B000870
S31508000CD0004000103C01000040410010483A000066
S31508000CE0FFF79EB910B472B63748016841F470012F
S31508000CF00160364C012262603548016821F40271B0
S31508000D0001603448016841F4FE61016032480168B7
S31508000D1041F001010160016811F0020FFBD0DFF814
S31508000D20BCC00023CCF80030016821F0A061016046
S31508000D30016841F480310160016811F4003FFBD07D
S31508000D402168CCB22649112C0CBF40F2056440F24A
S31508000D5005740C60244C23492160016841F08071B8
S31508000D600160016811F0007FFBD049F20241CCF81E
S31508000D700010DFF878C04FF48011CCF800100CF1A1
S31508000D8004010B60091D0B60194B4FF08051196067
S31508000D9089131B1D1960016821F0010101601548BE
S31508000DA0026010BC704710B5FFF79CFF01F0AEF863
S31508000DB0BDE81040FFF773BF10B5FFF793FFBDE816
S31508000DC0104001F0A3B8000088ED00E0002004E020
S31508000DD014ED00E0FCED00E000380240083802405F
S31508000DE0003C0240085440070438024030380240AC
S31508000DF04038024000380140EFF3108272B60260B4
S31508000E007047016881F310887047EFF30581006821
S31508000E1009B14FF001007047016881F310887047E7
S31508000E2072B670470168EFF3108281F3108882F377
S31508000E3010887047EFF31080EFF3058180F001000A
S31508000E4009B14FF000007047EFF3108072B680F0DA
S31508000E5001007047EFF3108062B680F0010070471A
S31508000E60EFF3108172B601607047016881F310884C
S31508000E707047000070477047144A13071168586A8C
S31508000E80D2F800C08C45F9D1704730B583B0044616
S31508000E9000216846FFF7B0FFFFF7EEFF054620463C
S31508000EA0FFF7E9FF032894BF0024C41EFFF7E4FFF9
S31508000EB0401BA042FAD96846FFF7A3FF03B030BD2E
S31508000EC0A8214843401F00F021B90000240400402F
S31508000ED080684068704780688068704710B584B03D
S31508000EE06FF0030032496844884228BF314A03D369
S31508000EF040F804298842FBD2304C2F4860603048BD
S31508000F00A06000F09FFB2F482F490844A1680844B9
S31508000F10A06002F055F8206000F070FC01F092FB2A
S31508000F2000F072FC0020034600900222042127A04C
S31508000F3000F028F92BA32EA2304931A000F022F99F
S31508000F40364937A000F01EF901A902A800F06EFB89
S31508000F50DDE90110FFF793F938A006F083FC27496D
S31508000F6037A006F07FFC38A135A006F07BFC20A14F
S31508000F7038A006F077FC1BA136A006F073FC012109
S31508000F804EF6602002F0E6F90121022002F0DCFAB2
S31508000F900121084602F0DCF901F0F4FE30A006F063
S31508000FA061FC38A006F042FC03F099F904B010BDC4
S31508000FB0000000100DF0ADBA000000083440001023
S31508000FC0188B0000000000003C0100002E4E6574DE
S31508000FD04D46207625642E25642E25642E25640D1F
S31508000FE00A00000031343A31343A3339000000003F
S31508000FF0417567203135203230313200CC7800080F
S3150800100025732C204275696C6420446174653A0D19
S315080010100A0925732025730D0A000000A744060057
S3150800102041524D20436F6D70696C6572207665720A
S3150800103073696F6E2025640D0A0000000C0000001D
S31508001040252D3135730D0A004275696C642044619B
S3150800105074653A002020252D3133730D0A000000EF
S315080010600C6D61696E2065786974656421213F3F5E
S315080010703F2E202048616C74696E67204350550DD9
S315080010800A0000006D61696E2065786974656421DF
S31508001090213F3F3F2E202048616C74696E672043CC
S315080010A050550D0A000000000020704700207047C8
S315080010B00020704710B501F063FDBDE8104003F04D
S315080010C00EB9000004B02DE9FF0F6846EFF305815D
S315080010D0FFF7F0BF81B000B52DE9FF5F6846EFF373
S315080010E00381C163AFF3008010B582B004460021C6
S315080010F06846FFF781FE0021204601F041FD03F016
S31508001100EEF86846FFF77DFE02B010BD001FFDDC55
S31508001110F7460000034951F82020521E41F82020C6
S31508001120704700008C440010034951F8200000283D
S31508001130CCBF0120002070478C440010034951F8A9
S315080011402020521C41F82020704700008C440010D3
S3150800115010B582B0044600216846FFF74DFE0748E1
S31508001160016821430160416800291CBF80688847DF
S315080011706846FFF746FE02B010BD0000904000101A
S3150800118004F0F6B80FB410B503A9029800F010F8E9
S3150800119010BC5DF814FB04F09DB904F049BA0FB40D
S315080011A010B504AA039900F05BFA10BC5DF814FBAD
S315080011B0034603480A461946406900F051BA00003A
S315080011C00C4000102DE9FF4F89B00546014603F093
S315080011D00F0B08AA01A805F095FC002800F09D81D0
S315080011E00198C2688068816810468847049001980B
S315080011F003AE02ACC26880688168104688472346F9
S315080012003246294606F0C6FA002868D00498DDE971
S315080012100A97816903984FF0010A00EB800001EBF9
S31508001220800001688068691AB1FBF0F200FB1210B1
S315080012300590002803DA00200590FEF747FF04987A
S3150800124003994069884240F29C8104980423816985
S31508001250039800EB800001EB80040298216900EBFB
S31508001260400003EB80000A582168A06802FB0012C0
S31508001270691AB1FBF0F605990792401A0690002004
S3150800128005906068B04217D90698484534BF80462D
S31508001290C846A0680690029B216903EB4302082012
S315080012A000EB82000858B0422BD2581C0290E16825
S315080012B081421AD8FEF70AFFB9F1000F40F361819F
S315080012C0BAF1000F00F05D8100200290039804999E
S315080012D0401C039049698842B7D300F052B92946A1
S315080012E0AA4806F0A3FA00F02AB900EB4002042047
S315080012F0216900EB8200A2680858216800FB0210E9
S315080013000790BBF1000F18BFBBF1010F08D0BBF166
S31508001310020F4CD0BBF1030F00F0D08000F0EBB801
S315080013200498006810F0020F13D0BBF1000F06D026
S31508001330424629463846FEF713FF00F0DCB80B98FC
S3150800134041460268284600F073FF0B99086000F0D2
S31508001350D2B8BBF1000F05D1404606F090FA070057
S3150800136000F0ED80019829464246D0F80CA0806826
S315080013703B46D0F80CC05046E0475FEA000A03D067
S31508001380BBF1000F07D0B6E0BBF1000F04BF38462B
S3150800139006F073FAAFE00B9841460268384600F04B
S315080013A047FF0B990860384606F067FAA3E0294616
S315080013B0019802F0AFFA002804BF0DB0BDE8F08F1F
S315080013C02169029800EB400051F8201070488843C4
S315080013D00FD0A268206806FB020A554524D1019859
S315080013E05146D0F80CC08068036A60469847D8B959
S315080013F013E0079885422DD166480068002818BF73
S3150800140006F03BFA00206349486040F60C1006F0E7
S3150800141036FA01465F4801603AE001985146C368CA
S315080014208068426A18469047019800210091D0F8D2
S315080014300CA0806842463B46D0F810C02946504664
S31508001440E0475FEA000A56D14246294652A006F00E
S31508001450EDF950E04F4A0A995068084440F60C11D5
S31508001460884215D906F00BFA0090002804BF0DB083
S31508001470BDE8F08F4748426801680098FEF770FE9D
S315080014804448006806F0F9F942480099016006E008
S3150800149040480068002804BF0DB0BDE8F08F3D48FD
S315080014A00A9A0168406808443946FEF759FE3948E1
S315080014B00A9940680144374841601CE0294601986A
S315080014C002F028FA002804BF0DB0BDE8F08F2169A4
S315080014D0029800EB400051F820102D4888430AD0A6
S315080014E00198A2682168C368806806FB0211426AEF
S315080014F0184690478246A9EB0809B9F1000F40DD66
S31508001500BAF1000F3DD0002F18BF47444544606824
S31508001510761CB0423FF6B8AED6E60A9829182A488D
S31508001520D0E9063018449D4228BFA84201D9814215
S3150800153009D90090294625A00A9A06F077F90DB030
S315080015400020BDE8F08FBBF1000F1AD0BBF1010FE8
S3150800155004BF2946DDE90A200AD0BBF1020F04BF01
S315080015602846DDE90A2103D0BBF1030F03D008E0C2
S31508001570FEF7F6FD05E00A9919B1FF222846FEF79F
S3150800158076FE0DB00120BDE8F08F000088790008CE
S315080015903040014050400010204661696C65642067
S315080015A05772697465536563746F72206174206C31
S315080015B06F636174696F6E2025782C2073697A656C
S315080015C0202578200D0A00000C40001020496E7670
S315080015D0616C696420616464726573732025782080
S315080015E0616E642072616E67652025782052616D90
S315080015F02053746172742025782C2052616D206501
S315080016006E642025780D0A0010B582B004460021C4
S315080016106846FFF7F1FB04480168A1430160684684
S31508001620FFF7EFFB02B010BD90400010034A0260BE
S315080016300348801A001D086070470000000001205A
S31508001640F87F012070470020704703F040BA014632
S3150800165011F8012B002AFBD1081A401E704700001A
S3150800166070B51346ADF5007D04460A464FF4007181
S31508001670684600F0C1F8054604F47F40B0F5407F9F
S315080016800FD006DCB0F5807F18BFB0F5007F1FD1FC
S3150800169007E06E46B0F5A06F11D0B0F5C06F17D150
S315080016A005E02A466946204600F07FFD10E00A4814
S315080016B0016869B1002070553046884708E0002463
S315080016C0002D05DD305D01F0F7FD641CA542F9DC4F
S315080016D00DF5007D284670BD4C40001070477047D8
S315080016E0002070470020704703F012BA2DE9F04138
S315080016F005000E46174601D0062E01DBFEF7E6FC6E
S3150800170005EB8604206908B1606B08B1FEF7DEFCBC
S3150800171020690268511C082908BF00210123D0F856
S3150800172008C0BCF1000F18BF4FF000080BD1D0F865
S3150800173004C08C4508BF8360016002EB021100EB10
S31508001740810000F10C08206903FA06F18068386008
S315080017506879FFF77AFF4046BDE8F08170B5040066
S315080017600D46164601D0062D01DBFEF7AFFC04EB4D
S315080017708504206900281ABF606B0028FEF7A6FCBE
S31508001780A6B100202169D1E90032934202BF8B68D5
S31508001790002B70BD531C082B08BF0023C1E901307C
S315080017A002EB021001EB80000C3070BD2069D0E915
S315080017B000218A4207BF8268002A01EB011100EB6B
S315080017C0810008BF0020EFD170BD10B594461A46B7
S315080017D0002819BFBCF1000F0029012010BD541CB8
S315080017E000238C4282BF0370012010BD83546146DA
S315080017F0FEF78EFD002010BDFEF76CBC10B500F09C
S315080018002BFE012010BD000000B5244883B00079E6
S3150800181004281CBF22A006F009F805F0F5F904F023
S31508001820BBFE002001900090694601A800F09AFCD2
S31508001830DDE9001001F0D8FB00F05EF900F028FBA6
S3150800184000F0AEFD00F080FB0020FFF703FB05F07B
S31508001850C3F801F081FD05F0EFF8FFF740FF05F04A
S31508001860DBFCFFF73BFF05F0D8FC00F030F800F092
S3150800187029F800F067FB01F007F800F0DFF900F03F
S3150800188043FB00F06DFC00F04FFF00F0CBFC00F0CE
S315080018901BF803B05DF804EB01F00FBDFC800008EF
S315080018A0436F6E66696775726174696F6E207665D7
S315080018B07273696F6E20213D2076657273696F6E4B
S315080018C00A000000002070474FF04A407047012088
S315080018D0704702F0A3BD30B4C0680024002804BFD6
S315080018E030BC7047438803EB000C0378012B18BF04
S315080018F0022B06D0032B09D0FF2B10D030BC0020BA
S3150800190070478B4204BF30BC70471AE0032918D1D0
S3150800191055884378EDB2AB4213D130BC7047037992
S315080019201578AB420DD143795578AB4209D1C388B6
S315080019305588AB4205D103899588AB4204BF30BCB4
S315080019407047002C08BF6046CCD030BC704702F008
S315080019508FBD02F02DBE10B40A22A0FB023401FB93
S3150800196002414FF0000C00FB0C1110BC18467047E2
S3150800197000B583B04FF0000CCDF800C0CDF804C018
S3150800198000F002F803B000BD2DE9F05F0546ADF59D
S31508001990825D0DF580500026D0E91AA8D0181446A5
S315080019A005EB010B02903046202206A90A54401C7A
S315080019B0B0F5805FFADB5D4570D27ED2B8F1000FD4
S315080019C005D028466D1C04AA0121C04703E015F876
S315080019D0010B8DF81000002000900298844272D204
S315080019E00099012088409DF8101008420AD0AB459E
S315080019F063D9B8F1000F53D028466D1C03AA0121FC
S31508001A00C04751E05D4558D2B8F1000F05D06F1CAC
S31508001A1001AA01212846C04704E015F8010B8DF8F4
S31508001A2004002F465F4548D2B8F1000F05D07D1C4B
S31508001A3005AA01213846C04703E038788DF8140016
S31508001A407D1C9DF8140000F00F01CF1C9DF80410B2
S31508001A504FEA101001EB0020C0F30B0000F110094B
S31508001A603ED0C9F30B0006A9C6F30B02085C8DF835
S31508001A700400885402998C421FD2BAF1000F08BF9D
S31508001A8004F8010B04D02046641C01AA0121D047A2
S31508001A90761C09F101097F1EE3D121E029E00CE05B
S31508001AA015F8010B8DF80C00C6F30B0206A99DF874
S31508001AB00C00885402998C4206D34FF0FF300DF57E
S31508001AC0825DBDE8F09F11E0BAF1000F08BF04F887
S31508001AD0010B04D02046641C03AA0121D047761CBA
S31508001AE00098401C00900828FFF677AF5D45FFF484
S31508001AF064AF0120E3E70000014802F059BC00008A
S31508001B00B86D001010B50120FFF718FB0220FFF78B
S31508001B1015FB4FF6FD7081070882FFF7ADF9084AF5
S31508001B20D2E90032C01A71EB020028BF04F0FEFCAD
S31508001B300220FFF7EFFABDE810400120FFF7EABAE6
S31508001B4058400010F0B583B005460C4616460021ED
S31508001B506846FFF751F90027002C18BF00240FD05C
S31508001B6005EB8401086940B1496B31B907604760E4
S31508001B7087602146284600F029F8641C062CEFDB0E
S31508001B80002E18BF00200DD005EB80021169002930
S31508001B901CBF526B002A02D00F604F608F60401C3A
S31508001BA00628F1DB6846FFF72CF903B0F0BD02F012
S31508001BB06EBD0000022824BF002070473521484327
S31508001BC0014901EB80007047E844001070B582B007
S31508001BD004000D4605D004EB8500016909B1406B88
S31508001BE010B102B0002070BD6079002814BF114EF4
S31508001BF04FF0A04600216846FFF7FEF806EB4510B1
S31508001C0000F53061D0F8002B12F0004F0BD16219A5
S31508001C1092F82E2042F40022C0F8102BD0F8000BC0
S31508001C2040F0044008606846FFF7EBF802B0012070
S31508001C3070BD000000000440012070477047000096
S31508001C4070B505460120FFF779FA0220FFF776FA04
S31508001C50224905EB450001EB0014204604F0DCFCA4
S31508001C6001201F4E00FA05F3336094F8200000F0B7
S31508001C700DFE054630681842F6D1636A33B394F808
S31508001C80220050B1FFF7F8F8164A1268821841F197
S31508001C900003204604F00CFC18E094F8231094F88E
S31508001CA02000A26A984794F8210003280ED194F8D8
S31508001CB02300A84204BF80F0010084F8230005D061
S31508001CC0636A94F820002946A26A98470220FFF71B
S31508001CD021FABDE870400120FFF71CBA4041001008
S31508001CE0143C01400040001000B583B09DED040A85
S31508001CF0DDED050A8DED000ACDED010A03F0B6F912
S31508001D0003B000BD70B5044690F85F00B4F87C5087
S31508001D10A84238BF05462A46A16FA06DFEF720FAED
S31508001D2084F85C50A06F00212844A067B4F87C00B2
S31508001D30401BA4F87C0094F85F00A84218BFA4F8DA
S31508001D407E100BD1B4F87E00401B0004000CA4F8EA
S31508001D507E001EBFAFF25300606770BD616770BD3D
S31508001D6030B50C46154600220221FFF7B4FD0028BF
S31508001D7008BF30BD00F10D0241880144206878B1E2
S31508001D80904288BF81422ED92B68934228BF994238
S31508001D9029D94278052A04BF0278072A23D10BE0FD
S31508001DA0002022602860206888421CD24378042BD1
S31508001DB00BD0052B0ED010E05A78042A01BF1A78EA
S31508001DC0092AC01D20600ED1EEE70278092A08BF4D
S31508001DD0286002E00078072807D0206802781044B7
S31508001DE020608842E2D3002030BD012030BD02F0D9
S31508001DF089BC704710B44FF0FF3C019C0628C4F814
S31508001E0000C0C3F800C0C2F800C0C1F800C024BFB3
S31508001E1010BC7047DFF828C003281CF800C0C1F8BA
S31508001E2000C00849095C116024BF10BC7047064908
S31508001E30095C19600549085C206010BC7047000001
S31508001E40167A00081C7A0008107A0008137A000827
S31508001E5000F47F4310B54FF0000CC0B2B3F5807F95
S31508001E6006D0B3F5007F07D0B3F5407F0DD108E063
S31508001E70401EFFF785F902E0401E02F031FA84465B
S31508001E8003E0401EFFF7DFFB8446604610BD0000F6
S31508001E90034900200860486002490860012070472D
S31508001EA018700010904000100149096808407047F2
S31508001EB09040001010B50446007994F85E108842E8
S31508001EC008BF10BD052804D1012211462046FFF798
S31508001ED039FE94F85E002071072811D2DFE800F079
S31508001EE004080808080908000020A4F87C006067B0
S31508001EF010BD20460022BDE810400121FFF722BE92
S31508001F00BDE81040FEF7E2B8012070470C4810B54E
S31508001F10016840F2FF121143016000213C2001F0E4
S31508001F2030FB00213D2001F02CFB00213E2001F072
S31508001F3028FB0021BDE810403F2001F022BB00002D
S31508001F403038024005F0AEB80120704700487047A7
S31508001F5040420F002DE9F04F85B08046022822BF87
S31508001F60012005B0BDE8F08FB8F1000F14BF744822
S31508001F707448016814BF41F0005141F080010160C6
S31508001F804FF03500704908FB00F001EB800414BFE0
S31508001F906E4D4FF0A0454FF000016846FEF72CFF46
S31508001FA00220C5F804088020A8606948E8604FF454
S31508001FB01020A863D5F8000840F00300C5F800080B
S31508001FC0A86B40F40010A8634FF0010A04F1C000A2
S31508001FD0C4F8D0A0E066B8F1000F14BF06200420AC
S31508001FE084F87000002201212046FFF774FC0028BF
S31508001FF014BFC07A082084F85F0094F87010012096
S315080020004FF000090129C8BF40210BDD04EB80020F
S31508002010C2F834902218401C82F82E1094F87020CA
S315080020208242F3DC0026B8F1000F14BF032700270D
S31508002030CDF8089003AA02A92046CDF80C90FFF720
S315080020408FFE002818BFDFF80CB15CD0029894F810
S315080020507020807800F07F018A4254DD039A9278D6
S31508002060032A50D810F0800F1CBF04EB8100C0F87B
S3150800207034A002988088082818BF102803D0202882
S3150800208018BF40283FD1621882F82E008B2078436B
S315080020900BEB800004EB8102C0F80090C0F80490B6
S315080020A0C0F80890106102987F1CC07800F0030001
S315080020B0012821D049008840064303AA02A92046E0
S315080020C0FFF74EFE0028C1D1EEB1A4F8CC604FF45C
S315080020D07A70FEF7DAFE0021404600F0EFF9B8F113
S315080020E0000F4FF0000215D01B494D2001F0FAFBF6
S315080020F0002219494C2014E06846FEF782FE05B016
S315080021000020BDE8F08F6846FEF77BFE05B001208B
S31508002110BDE8F08F1149432001F0E4FB00220F4986
S315080021202A2001F0DFFB4FF0FF3068614FF4805042
S31508002130A861C5F83498A86840F00100A860DBE7F4
S315080021403038024034380240E844001000000440A9
S31508002150400C00409046001071400008614000089D
S3150800216001207047034A02600348801A001D086070
S315080021707047000050810120F8FF012000F47F41DC
S31508002180C0B2B1F5807F0AD0B1F5007F0AD0B1F5AB
S31508002190407F1CBF00207047401EFFF7A1BA401EB3
S315080021A0FEF7F9BF401E02F0FEB82DE9F0470F46CC
S315080021B0164600F47F494FF000086424C5B22BE0A8
S315080021C0B9F5807F06D0B9F5007F09D0B9F5407F0B
S315080021D014D10BE0681E32463946FEF7DEFF0AE0E8
S315080021E0681E3246394602F0E0F804E0681E3246B8
S315080021F03946FFF777FA002811DB09D10020FEF7E8
S3150800220019FE60B100210122202000F071FC03E0D4
S315080022103224361A074480440EB1641ED0D2404692
S31508002220BDE8F0874FF04A4070470120704700002C
S315080022304B1E0029C8BF08490CDD10F801CB8CEAF3
S31508002240126C51F82CC08CEA0222B3F1000CA3F1EF
S315080022500103F2DC104670473C7A0008002808BFE4
S31508002260704770B550F8041C1B4DA0F11404A94220
S3150800227005D01AA0A268FEF785FFFEF72BFFA26815
S31508002280201F1158A94204D024A0FEF77BFFFEF7B1
S3150800229021FF3249E160206858B1C2688A4208D1F4
S315080022A0A26883681A44A26000682060002818BFE4
S315080022B044606068002808BF70BDC2688A4218BFBB
S315080022C070BD8168A2681144816021680160002997
S315080022D018BF486070BD00000DF0B1BA53696D7043
S315080022E06C65486561705F52656C656173653A2017
S315080022F04D656D6F727920626C6F636B20686561DE
S315080023006420636F7272757074696F6E3A20253037
S31508002310387820253038780D0A00000053696D702A
S315080023206C65486561705F52656C656173653A20D6
S315080023304D656D6F727920626C6F636B207461698D
S315080023406C20636F7272757074696F6E3A202530EF
S31508002350387820253038780D0A000000EFBEADDE4B
S3150800236002F0FABE502828BF704738B504468C4696
S3150800237003F00F001146012808BF032102D00028E8
S3150800238018BF02216246204601F074F80020034671
S31508002390024601460090204601F0FEFA38BD0000CC
S315080023A02DE9F0411420002100F082FA00201F498F
S315080023B0054621F81050401C0528FADB00241C4E5F
S315080023C0012704EB440006EB00101A490022876136
S315080023D004F024FC641C102CF3DB1748056000226B
S315080023E01649062001F07EFA00221549072001F059
S315080023F079FA00221349082001F074FA00221249DA
S31508002400092001F06FFA002210490A2001F06AFA41
S3150800241000220F49172001F065FA00220D492820ED
S3150800242001F060FA0120BDE8F08100004044001088
S3150800243040410010213C0008003C014025340008BA
S315080024402B34000831340008373400083D340008BE
S3150800245045340008B135000812494FF0FF300860CE
S3150800246048608860C1F80001C1F80401C1F8080194
S315080024700E480D498160C160016141618161C16297
S3150800248001638163BFF35F8F0A4AC163084911601C
S31508002490A2F1040108600848016841F4E0210160DE
S315080024A07047000080E100E0C510000800800120A8
S315080024B00007FA050CED00E024ED00E02DE9F043F5
S315080024C005460F4635203949684301EB800483B039
S315080024D0B4F8CC00002804BF03B0BDE8F083002D93
S315080024E00CBF4FF0A046324E00216846FEF784FC2A
S315080024F0D4F8D0004FF000084FF0010947B3002880
S315080025004DD1C4F8D090D6F8041841F00201C6F8A7
S31508002510041894F870000125012813DD04EB8500E2
S31508002520016900291CBF406B002806D001222946F4
S315080025302046FFF713F90028F8D194F870006D1CAF
S31508002540A842EBDC84F85E802046FFF7B3FC26E061
S3150800255028B3C4F8D080002D14BF40F2C22040F240
S31508002560A220C7B214BF1E200B203B464FF0000224
S315080025701146FFF7F7FE002D14BF1F200C203B461F
S3150800258000221146FFF7EEFED6F8041821F00201E4
S31508002590C6F8041884F85E902046FFF78BFC684658
S315080025A0FEF72FFC03B00120BDE8F083E8440010D5
S315080025B00000044070B582B0041E0D461CBF94F896
S315080025C07000A842DEBF002002B070BD6079002806
S315080025D014BF1B4E4FF0A04600216846FEF70CFCC0
S315080025E004EB8500016900291CBF406B002812D046
S315080025F0E06E30F8150010F0010F12D001222946BE
S315080026002046FFF7ABF80028F8D16846FEF7F9FB35
S3150800261002B0012070BD6846FEF7F3FB02B0002049
S3150800262070BD6846FEF7F1FB18B12146304601F049
S3150800263090FB2A462146304601F014FBE5E70000E8
S3150800264000000440214830B44FF0FF310A0CC0E9BD
S3150800265000121F48016841F0030101601D484FF050
S31508002660010CC0F808C0042340040380202181809F
S3150800267000210181022282810183818353220285FE
S3150800268041634A1EC262A0F814C0134A1380131D80
S315080026901980124C17232380231D1980104B19808B
S315080026A01B1D4FF6FF7119600E49A1F800C011886D
S315080026B041F001011180018841F0010101800022E9
S315080026C030BC09491C2001F00DB900005840001023
S315080026D040380240002004E000040040080400409E
S315080026E02804004014040040051B000870B582B099
S315080026F004460D4600216846FEF77EFB09484FF062
S315080027008046C0E900457463FEF7B6FB001B71EB13
S31508002710050024BF0220B0826846FEF772FB02B0AD
S3150800272070BD0000584000104FF077407047000019
S315080027301A4910B51B300A6820F00301002A18BF91
S31508002740174825D0D36883421FD193688B421CD380
S3150800275001F1280083420DD910461A18521A036847
S31508002760C2E900300260002B18BF5A609160836886
S315080027705B1A836062B10B48D0600B4810619168A0
S31508002780131FC85002F1140010BD1268002AD9D1CF
S3150800279006A0FEF7F7FC002010BD00008C400010D4
S315080027A0EFBEADDE5EBEADDE0DF0B1BA2020202054
S315080027B04D656D6F72793A204F55544F464D454DCC
S315080027C04F525921212025640D0A000090F85C100B
S315080027D0002904BF02207047816D4A780A2A13D25D
S315080027E0DFE802F005071209120B12120D0F00F0AE
S315080027F00DB800F065BD00F05DBA00F035BA01F01D
S3150800280075B9012201F08EB901F08CBC81B00022A5
S31508002810ADF800204A88002A04BFCA88022A24D1B3
S3150800282090F85E30032B20D00A7812F00F0208BF0A
S3150800283000F168011CD0012A02D0022A05D014E052
S31508002840052B08BF694610D112E0042B01D18A88EE
S315080028505AB98A8802F07F028A8090F870108A42F4
S315080028603CBFC16E01EB420102D3012001B07047A3
S3150800287081670221A0F87C1002494167002001B057
S3150800288070470000051D000801207047502824BF26
S31508002890002070470109054A02EB8121096900F009
S315080028A00F0021FA00F000F0010070470000024016
S315080028B00022134610B5121A73EB01020BDA42F224
S315080028C01072821A71F1000105DA00F05CFD034905
S315080028D00860012010BD002010BD00000040001057
S315080028E0502828BF7047020900F00F00054B03EB7C
S315080028F08222012303FA00F080B2002914BF108354
S3150800290050837047000002400628B2BF032A002001
S3150800291070472DE9F04387B00446894690461F461E
S31508002920002102A80F9EFEF767FA54485449052C61
S3150800293050F82450534804BF0A6842F020020ED0CB
S31508002940002C04BF0A6842F0100208D04E480168FD
S315080029504FF48032A240114301604C4800E00A60FF
S3150800296000EB6900B0FBF9F028810C20092F08BF9D
S3150800297041F20C00B8F1000F06D040F48060B8F1BF
S31508002980010F08BF40F40070A881012F08BF002777
S3150800299038032882002016F0040F18BF4FF4007081
S315080029A016F0020F18BF40F48070A88204A80090A1
S315080029B001AB06AA05A92046FFF71CFA7220032CCC
S315080029C0A8BF8220C7B23B46002202210598FFF71E
S315080029D0C9FC3B46012200210698FFF7C3FC16F006
S315080029E0040F02D00198401C1CD000223B46114619
S315080029F00198FFF7B7FC16F0020F02D00498401CA6
S31508002A0010D03B46012200210498FFF7ABFC0021B9
S31508002A10204600F0BFFA062C24D2DFE804F00A0E9E
S31508002A2012161A1E02A8FEF7ECF907B00020BDE838
S31508002A30F08300221649252012E000221549262097
S31508002A400EE00022144927200AE000221349342008
S31508002A5006E000221249352002E0002211494720EB
S31508002A6000F040FFA88940F40050A88102A8FEF7AC
S31508002A70C8F907B00120BDE8F0830000247A0008F1
S31508002A804438024000BD01054038024080DE80021D
S31508002A90E13500080D3600083936000865360008A5
S31508002AA091360008BD36000810B5040004D04C2045
S31508002AB001F0A8F84D2003E02A2001F0A3F84320EE
S31508002AC001F0A0F801212046FFF7F8FC002C14BFFE
S31508002AD005480648016814BF21F0005121F080011D
S31508002AE00160002010BD0000303802403438024032
S31508002AF02DE9F043814685B00F46104600F043FCA9
S31508002B0004460D46002102A8FEF776F9FEF7B4F949
S31508002B1004194D4101263846FFF7C6F938B18046F3
S31508002B2002A8FEF76EF905B04046BDE8F083FEF749
S31508002B30A3F9001B71EB050006D302A8FEF761F99D
S31508002B4005B00020BDE8F0831EB10220FEF7ECFABE
S31508002B5060B10020CDE9007001264A462046294684
S31508002B6003F024FD02A8FEF75DF9D4E702A8FEF7F4
S31508002B7053F904F059F8064602A8FEF751F9CAE7D0
S31508002B8030B50C4683B0054600210120CDE9000189
S31508002B900A4608234FF4E1310220FFF7A5F824B1CD
S31508002BA0214612A000F0D4F802E015A000F0D0F8F3
S31508002BB016A0E96B00F0CCF818A0A96B00F0C8F8CD
S31508002BC01AA0696B00F0C4F805F140011BA000F0DB
S31508002BD0BFF80024214655F824201CA000F0B8F8B8
S31508002BE0641C0C2CF6DD03B030BD00004558434587
S31508002BF05054494F4E203078253032783A0D0A0025
S31508002C004552524F523A0D0A0000000020206370C8
S31508002C1073723D3078253038780D0A0020207063AD
S31508002C2020203D3078253038780D0A0020206C7237
S31508002C3020203D3078253038780D0A002020737022
S31508002C4020203D3078253038780D0A00202072255E
S31508002C50303264203D3078253038780D0A0000007F
S31508002C60FEF779BE0120704710B5044648887F28CC
S31508002C709CBF8A88002A04BFC988002903D194F812
S31508002C805E10052901D3012010BD10F0FF0084F85D
S31508002C905D000CBF0320042084F85E002046FFF781
S31508002CA009F90020A4F87C0001486067032010BDDC
S31508002CB0051D000810B50446C888002832D194F8C6
S31508002CC05E20032A2ED0087810F00F0005D00128C0
S31508002CD008BF10BD022825D114E04888012821D153
S31508002CE00A4602212046FEF7F6FDD8B1C07A10F052
S31508002CF0200F05D0B4F8680040F00200A4F8680078
S31508002D0006201CE0042A01D1888858B9888800F072
S31508002D107F00888000281CBF94F87020824201D961
S31508002D204A880AB1012010BDE26E32F8103043F02D
S31508002D30010322F81030888884F8710004200021E5
S31508002D40A4F87C100149616710BD0000051D000844
S31508002D500FB4FF2110B5C0B043AB6846429AFEF7E0
S31508002D604BFD04460220FEF716FA22466946022063
S31508002D70FEF713FA0220FEF70EFA40B010BC5DF813
S31508002D8014FB00002DE9F04188B044F6206002905B
S31508002D9003A906A8FEF74AFC0399069800F024F949
S31508002DA0544C5548616802F063FD02A9534804F083
S31508002DB0E1FB002818BF012028B902A800F0B8FBDB
S31508002DC0002800F06F8001F0EDFA00250095022337
S31508002DD004224BA140F201500195FEF7E0F94FA0FD
S31508002DE0009051A3534A54A140F20150FEF7D7F977
S31508002DF0606800F0D9FA00221146104600F074FC0B
S31508002E00E068FFF7BBF90023022204213CA00095E5
S31508002E10FEF7B8F941A344A246494EA0FEF7B2F917
S31508002E20524953A0FEF7AEF9E068FFF7A7F901206B
S31508002E30049004A80090082301220021534803F0B7
S31508002E401DFBFEF719F8DFF8488106460F4685216F
S31508002E502020029AFFF74CFE040018BFFEF7D4FBA9
S31508002E6014F0800F04D0002202A9012000F03CFCD7
S31508002E7014F0050F1CBF204802F0E7FE1E48D0F8E4
S31508002E80040810F0020F1BD020F00200C8F800005A
S31508002E90002202A9022000F027FCFDF7EDFF0646F6
S31508002EA00F46D4E7144803F077F8002804BF4FF01C
S31508002EB0FF30029087D001F015FA08B0BDE8F0811E
S31508002EC00298411CC3D000F05EFA04460D46FDF791
S31508002ED0D3FF801B61EB0701201A75EB0100B6D200
S31508002EE000221146072000F0FFFB034803F054F8C0
S31508002EF0ADE700000C400010386400106072001046
S31508002F0054696E79426F6F746572207625642E2532
S31508002F10642E25642E25640D0A00000031343A31EA
S31508002F20343A3332000000004175672031352032CB
S31508002F3030313200CC7800082573204275696C64FC
S31508002F4020446174653A0D0A0925732025730D0A14
S31508002F50000000002573204275696C642044617482
S31508002F60653A2025732025730D0A0000A74406003C
S31508002F7041524D20436F6D70696C6572207665729B
S31508002F8073696F6E2025640D0A000000486C0010F6
S31508002F903C6C001000B5034641B1002101F076F9FA
S31508002FA0002118465DF804EB01F08AB9012101F009
S31508002FB087F9012118465DF804EB01F067B90000AE
S31508002FC070B50022064D074C20211046FFF730F950
S31508002FD0024621462846BDE87040FFF729B9000099
S31508002FE00040001000000000074A10608160116868
S31508002FF0002008601168486011680448C8601168B4
S3150800300003480861704700008C400010EFBEADDE33
S315080030100DF0B1BA2DE9F00F00268BB00146374600
S31508003020304632463346E84608F80230521C1F2A14
S31508003030FADB0022FF230DF1200B0BF80230521C9D
S315080030400A2AFADB00280FBF4FF001090BB0BDE8CA
S31508003050F00F70474B880A7803EB010A022A39D029
S3150800306003DA82B1012A06D115E0032A00F0CC80E2
S31508003070FF2A00F0D580172051460028EAD00BB069
S31508003080BDE8F00F70473E420FBF01200BB0BDE808
S31508003090F00F7047F0E7002E18BF0220ECD1162B70
S315080030A006BF0A79122A0320E6D14A79012A18BFEF
S315080030B00420E1D1CA7A082A18BF102A04D0202A87
S315080030C01CBF402A0520D7D1497D012914BF0620F7
S315080030D00126D1E7002F18BF0720CDD10A79092A82
S315080030E072D1CA88121D93426ED14A79022A18BF34
S315080030F00920C1D10A7A002A08BF0A20BCD04B7A17
S31508003100012B88BF0B20B7D8CB7A03F08F03802B0F
S3150800311018BF0C20B0D10D31521ED5B24A78042AF8
S3150800312001D00E20A8E70A78092A01D00D20A3E7C6
S31508003130CA780AB10F209FE70B79002B18BF002227
S3150800314010D01BF802C0BCF1FF0F07D00A2A07DA15
S315080031508C78A44518BF521CF3D11A200A2A03DB1F
S315080031601B2089E7102087E791F802C009310BF880
S3150800317002C04A78052A05D091F800C061444A7809
S31508003180052AF9D15A1ED2B22BB92EE04B78052B57
S3150800319001D0122070E70B78072B01D011206BE7BE
S315080031A08B7803F07F03A3F1010CBCF11F0F01D349
S315080031B0182061E791F803C01CF0030F02D01CF039
S315080031C0C00F02D0132057E71CE0434413F801CC84
S315080031D0BCF1000F01D019204EE703F8019CC91D68
S315080031E01300A2F10102D2B2D0D100287FF444AF75
S315080031F02A00A5F10103DDB290D1514508BF012788
S315080032003FF43AAF082037E70A79121D934218BFF0
S3150800321014207FF431AF4979032918BF15202BE70D
S31508003220097911F0800F08BF162025E710B582B07E
S31508003230044600216846FDF7DFFD1C49002051F8C9
S3150800324024108881062C11D2DFE804F0030507094B
S315080032500B0D252008E0262006E0272004E0342070
S3150800326002E0352000E0472000F0CCFC0121204692
S31508003270FFF790FE0E48052C12D0002C04BF0168FB
S3150800328021F0100105D00B4801684FF48032A240A6
S31508003290914301606846FDF7B4FD02B0012010BDF8
S315080032A0016821F020010160F4E70000247A000893
S315080032B0443802404038024070474FF04A40704751
S315080032C010B50446C888002804BF94F85E0005288F
S315080032D029D1087810F00F0005D0012808BF10BDC5
S315080032E0022820D114E0488801281CD10A46022168
S315080032F02046FEF7F0FAB0B1C07A10F0200F12D0CF
S31508003300B4F8680020F00200A4F86800062017E068
S31508003310888810F07F00888005D094F87020824253
S3150800332001D94A880AB1012010BDE26E32F8103080
S3150800333023F0010322F81030888884F871000420ED
S315080033400021A4F87C100149616710BD051D00081D
S3150800335000207047002070470023024A02490348AC
S3150800336003F01ABCD4400010A0400010E06D001015
S3150800337000B583B0DDF810C0CDE9003C002300F0AD
S31508003380E7F803B000BD4FF47A71A0FB010170475E
S31508003390044951F82000008810F0800018BF012069
S315080033A070470000247A000830B500F47F4183B0E6
S315080033B0C4B2B1F5807F06D0B1F5007F10D0B1F563
S315080033C0407F14D125E000210120CDE900011448F1
S315080033D0082300220169601EFEF786FC03B030BD93
S315080033E0C0F3421000210546FEF77EF910B103B07E
S315080033F0002030BD2846FEF7AAFA002804BF03B00D
S3150800340030BD601E03B00222BDE830400121FEF740
S31508003410A0BA03B0601EBDE83040FEF706BF000044
S315080034200C4000100020FEF70BBC0120FEF708BC7C
S315080034300220FEF705BC0320FEF702BC0420FEF7B7
S31508003440FFBB000070B509480068094909680525E9
S31508003450084000F47870440914F0010F1CBF284690
S31508003460FEF7EEFB6D1C6408F6D170BD143C0140F6
S31508003470003C01402DE9FF4F1E460309DFF8A8C0AE
S3150800348000F00F000CEB8324012303FA00F7430036
S315080034904FF0030C0CFA03F583B04FF0000C022A28
S315080034A008BF4FF0010C03D0012A08BF4FF0020CE9
S315080034B00CFA03F299400491310A01FA03F841071C
S315080034C0C90E4FEAD0090292C6F303100F2200FA7A
S315080034D001FB02FA01FA00216846FDF78DFC206817
S315080034E00499A84308432060E068029AA843104359
S315080034F0E060A068A84340EA0800A06004EB8900E1
S31508003500016A21EA0A0141EA0B010162606816F0C4
S31508003510010F14BF3843B84360606846FDF771FC75
S3150800352007B0BDE8F08F00000000024001F044BE7D
S3150800353070B5054600242046FFF7A8F910B1601EAD
S3150800354001242860204670BD0020704703F0E0BDC6
S31508003550502824BF002070472DE9F843174698469F
S31508003560DDE908620D46002304461946FFF782FF87
S315080035703346424639462046009500F00DFABDE826
S31508003580F883502828BF704738B50446FFF7A8F9CE
S3150800359000231A4601212046FFF76CFF0020034648
S315080035A0024601460090204600F0F6F938BD7047FD
S315080035B070B509480068094909680A25084000F4F1
S315080035C07C40840A14F0010F1CBF2846FEF738FB1E
S315080035D06D1C6408F6D170BD143C0140003C0140E6
S315080035E070B5094D2C8814F0200F03D02946002009
S315080035F000F0C9FA14F0800F08BF70BD2946BDE86F
S315080036007040002000F0D8BA0010014070B5094D8E
S315080036102C8814F0200F03D02946012000F0B3FAB5
S3150800362014F0800F08BF70BD2946BDE87040012020
S3150800363000F0C2BA0044004070B5094D2C8814F059
S31508003640200F03D02946022000F09DFA14F0800FBF
S3150800365008BF70BD2946BDE87040022000F0ACBA2C
S315080036600048004070B5094D2C8814F0200F03D08F
S315080036702946032000F087FA14F0800F08BF70BDB2
S315080036802946BDE87040032000F096BA004C004079
S3150800369070B5094D2C8814F0200F03D02946042054
S315080036A000F071FA14F0800F08BF70BD2946BDE816
S315080036B07040042000F080BA0050004070B5094DF3
S315080036C02C8814F0200F03D02946052000F05BFA59
S315080036D014F0800F08BF70BD2946BDE8704005206C
S315080036E000F06ABA0014014070B50C461546092860
S315080036F028BF70BDDFE800F005291C2A323A4429A4
S315080037005A0001213C20FFF73CFF01213D20FFF72D
S3150800371038FF01213E20FFF734FF00213F20FFF745
S3150800372030FFBDE8704028A140F20150FDF737BDD3
S31508003730002C08BF70BD2068411C00291CBF44F638
S3150800374020618142CCBF216070BD70BD2246BDE8B4
S31508003750704020A140F20150FDF721BD2246BDE888
S3150800376070401FA140F20150FDF719BD1FA140F29C
S315080037700150FDF714FDBDE870401CA0FDF702BD21
S3150800378034B11EA140F20150FDF709FD1BA005E06A
S315080037901FA140F20150FDF702FD1DA0FDF7F2FC46
S315080037A02048C068BDE87040FEF7E8BC002C08BF9A
S315080037B070BD22461CA140F20150FDF7F0FC44F012
S315080037C00100286070BD000057616974696E670D55
S315080037D00000000057723A203078253038780D00FE
S315080037E045723A203078253038780D0043686B20CA
S315080037F07369676E6174757265200D005369676E2B
S31508003800617475726520504153530D0A0D0A000004
S315080038105369676E6174757265204641494C0D0A95
S315080038200D0A00000C4000105374617274696E67CB
S31508003830206170706C69636174696F6E20617420B1
S315080038403078253038780D0A0000000000207047CF
S3150800385010B500F47F410446C0B2B1F5807F0CD0A4
S31508003860B1F5007F0ED0B1F5407F1CBF002010BD1A
S31508003870401EBDE81040FFF7F5B9BDE81040401EF0
S31508003880FEF76EBD401EFEF792F9C4F34210BDE87E
S315080038901040FEF7ACBA000010B5044684B008A084
S315080038A0FDF7D5FE002206A1CDE9002113460290B8
S315080038B002220421204602F097FD04B0012010BD23
S315080038C0436F70797269676874204F6265726F6EAC
S315080038D0206D6963726F73797374656D732C2049F3
S315080038E06E632E000A4A02EB8002BFF35F8F1164F3
S315080038F000F01F020121914042094FF0E02000EB41
S315080039008200C0F88012C0F800110120704700003C
S31508003910008001202DE9F04104460E46D4E9021044
S3150800392082B089680025E84601AF88473B4642468B
S31508003930314603F02FFFB8B1D4E9021089688847E9
S3150800394081690098102200EB800002EB800009587C
S31508003950019800EB400051F82000C0B210280ABFB9
S3150800396003A00125FDF70EFC284602B0BDE8F0814C
S31508003970547279696E6720746F207772697465204E
S31508003980746F20626F6F74737472617020726567EA
S31508003990696F6E0D0A0000002DE9FF4F06468A463C
S315080039A000F00F00012101FA00F48107090F0F2228
S315080039B002FA01F8320902FA01F900EB400145481A
S315080039C083B000EB0115DDF840B01F462846C5F860
S315080039D024A002F021FE00216846ED60FDF70CFAEE
S315080039E03D48C6F381013D4B00EB8100BAF1000F5B
S315080039F060D0016801EA080149450FD019682142DB
S31508003A0006D06846FDF7FDF907B00020BDE8F08F3F
S31508003A10016821EA080141EA0901016085F8206088
S31508003A2085F8217085F822B00598A8622C480168A7
S31508003A30A1430160011D0A68A2430A60062F25D228
S31508003A40DFE807F02403080F080308682043086026
S31508003A50002003E0016821430160012085F8230066
S31508003A6014E00A6822430A60016821430160DFF80E
S31508003A707480C8F800403046FEF708FFD8F80010F2
S31508003A802142F6D180F0010085F82300186820430A
S31508003A901860042F02D0052F05D013E03046FEF734
S31508003AA0F5FE78B103E03046FEF7F0FE50B90E4851
S31508003AB0046007E0006800EA0800484502D1186873
S31508003AC0A04318606846FDF79CF907B00120BDE8D9
S31508003AD0F08F00004041001008380140003C0140CA
S31508003AE0083C0140143C0140103C01404A88002A29
S31508003AF001BF8A88002AC98801290FD190F85E106B
S31508003B0003290BD000F1600181670121A0F87C1020
S31508003B10A0F87E10024941670020704701207047CF
S31508003B20051D000870B5044688881546002804BF98
S31508003B30C888002806D194F85E00032802D0488871
S31508003B40012801D9012070BD10F0FF0084F860003B
S31508003B500CBF0420052084F85E002046FEF7AAF96B
S31508003B6025B10020A4F87C0001486067052070BDD7
S31508003B70051D000803F0DEBA0123036000200B6070
S31508003B80C2E90000704770B505460C460120FDF7EE
S31508003B90D5FA0220FDF7D2FAA088C1B22846FFF767
S31508003BA0C5FC0120FDF7D4FA0220FDF7B3FABDE8FB
S31508003BB070400120FDF7AEBA38B505460C4601201F
S31508003BC0FDF7BCFA0220FDF7B9FA6946284600F067
S31508003BD034F9002819BF9DF80000A080A08920F0BC
S31508003BE0800008BFA0810220FDF7B2FA0220FDF787
S31508003BF091FA0120FDF78EFA38BD0000004870479B
S31508003C000CE0002000F01F01012202FA01F1400930
S31508003C104FF0E02202EB8000C0F8801101207047C7
S31508003C2010B50446406A002808BF10BD94F8200065
S31508003C30FEF72CFE94F82320824218BF10BD94F894
S31508003C4020C00146636A6046A26A984794F8210034
S31508003C50032818BF10BD94F8230080F0010084F8EB
S31508003C60230010BD2DE9F041164600EB46148046A8
S31508003C70D4F808090D4610F0010F1CBF0120C4F83E
S31508003C80080904F51067D4F8000910F0004F18BFAA
S31508003C90BDE8F0815EB305EB8600016900291CBF0B
S31508003CA0406B00282BD0012231462846FDF756FDE9
S31508003CB001001CBF081D096821D000B341F4002289
S31508003CC0C4F81029D4F8002942F004423A6008EBF7
S31508003CD0063202F580520029D8BFBDE8F08150F8B7
S31508003CE0043B1360091F0029F9DCBDE8F081696F00
S31508003CF029B12846884795F85C10A86DDDE7D4F801
S31508003D00000940F000603860BDE8F081F8B5064665
S31508003D1015001C468C4615D06A4629466046FDF7AE
S31508003D20E5FC0146001D0C6006EB053101F58051E6
S31508003D30002CD8BFF8BD0A68241F40F8042B002CB5
S31508003D40F9DCF8BD0CF18000CCF8580081F85C402D
S31508003D50EAE72DE9F041054688460120FDF7EEF928
S31508003D600220FDF7EBF96C6914F0100F14D0286ADD
S31508003D7000F00F02C0F30A1300F4F010B0F5802F1C
S31508003D8018BFB0F5402F03D141462846FFF7BEFFBE
S31508003D906C6914F0100FEAD114F4802F11D0D5F8FD
S31508003DA018084FF000070604360C0AD016F0010F63
S31508003DB004D03A4641462846FFF754FF7F1C76084A
S31508003DC0F4D114F4002F10D0D5F818084FF00007D6
S31508003DD0060C0AD016F0010F04D03A46414628468A
S31508003DE000F044F87F1C7608F4D114F4805F06D0FE
S31508003DF04146284600F080F84FF48050686114F474
S31508003E00006F06D04146284600F080F94FF400605E
S31508003E10686114F0004F06D04146284600F012F9B2
S31508003E204FF0004068610220FDF774F9BDE8F041E3
S31508003E300120FDF76FB90020704701F043BA410928
S31508003E404FF0E02202EB8101D1F8001100F01F00CB
S31508003E5021FA00F000F0010070470000024A52F80B
S31508003E602000818070470000247A000830B400EBF7
S31508003E704213D3F808CB1CF0010F1CBF0124C3F86A
S31508003E80084B1CF0080F1CBF4FF0080CC3F808CBF2
S31508003E90A2B101EB820C00EB4210DCF810C000F571
S31508003EA03060DCF808C0BCF1000F1CBFD3F8001B5B
S31508003EB041F0006113D0016030BC704791F85F2073
S31508003EC042F4002242F0C042C0F8102BD0F8003B62
S31508003ED043F00443C0F8003B30BC00F0D1B81144AD
S31508003EE091F82E1041F40021C3F8101BD3F8001BDB
S31508003EF041F00441DFE700002DE9F0470C464FF09A
S31508003F00FF314161402141624FF04011816294F8CE
S31508003F10702080230021002AC4BF4FF0FF0C4FF009
S31508003F20804515DD00EB810643F48002C6F80021C2
S31508003F3000EB41124033C2F808C9C2F808CBC2F8F0
S31508003F400059C2F8005B94F87020491C8A42E9DCE3
S31508003F504FF4866101614FF40041C0F80019C0F8BA
S31508003F60001B0026C0F810694FF0C041C0F8101BAE
S31508003F70B4F8CC104FF001128B084FF001014FF046
S31508003F80020C18BFDFF89C802BD013F0030523D052
S31508003F90671804EB810997F82E7048EA8545D9F821
S31508003FA034903D43B9F1000F0AD045F0006500EBA7
S31508003FB0411745EA8155C7F8005942EA0C020BE059
S31508003FC047F4002900EB4117C7F8109B45F0044554
S31508003FD0C7F8005B42EA0C42491C9B084FEA4C0CA6
S31508003FE0D3D10125C0F810580921C0F81418C0F813
S31508003FF01C280D49816100F50061D0F8000820F4FD
S31508004000FE600860A91E0020FDF763FC03206566B4
S3150800401084F85E0084F85D602046BDE8F047FDF749
S3150800402049BF00000080001010180C80044951F8A0
S315080040302000008810F0400018BF012070470000DB
S31508004040247A000800F60402D0F8040820F00100DB
S31508004050106091F8CE0081F85E000846FDF72ABF89
S3150800406002494FF0A040FFF774BE0000E844001074
S3150800407001490248FFF76DBEBC4500100000044028
S3150800408070B506460D460846FEF7A0FB044604280A
S315080040900ED2DFE800F00D2E0B02D6F8001895F8C0
S315080040A05D2041EA0211C6F8001801E000206867A1
S315080040B0002229463046FFF7D5FD052C18BF70BDEE
S315080040C0012495F870000128D8BF70BD05EB84005F
S315080040D0016900291CBF406B002804D022462946E6
S315080040E03046FFF7BFFD95F87000641CA042EDDC72
S315080040F070BDD6F8001941F40011C6F80019D6F8B3
S31508004100001B41F40011C6F8001B70BD084691F863
S315080041105E1080F8CE10062180F85E10FDF7CABE44
S315080041200020704770B5044648880D46030AC1B298
S31508004130E888454EA4F87E004FF0000CB0B194F81C
S315080041405E20032A0AD8626E42B1C4F864C094F8A5
S315080041505F20824298BF1046A4F87E00C4F878C053
S31508004160A4F87CC06878062805D053E0A4F87CC07B
S315080041700020666770BD012B04D0022B13D0032BD9
S3150800418048D11EE02A4601212046FDF7A4FB002857
S315080041903ED0011DA167B4F87E100079814235D260
S315080041A0A4F87C1034E02A4602212046FDF793FB4A
S315080041B070B3011DA167B4F87E10C0888142EFD3A1
S315080041C024E011B1052914D109E02048A067B4F804
S315080041D07E00042828BF0420A4F87C0018E01C49A7
S315080041E0087830B1A167B4F87E10814238BF084616
S315080041F0F2E72A4603212046FDF76DFB40B1011D73
S31508004200A167B4F87E1000798142C9D30146C7E791
S31508004210A06FA8B92A46FF212046FDF75CFB0028B7
S3150800422004BF012070BD00F10A01A1674088B4F8F7
S315080042307E10A0F10A02914228BF1146A4F87C100C
S315080042400020666770BD0000051D0008604000106C
S31508004250F06300100C4910B551F82010898A11F442
S31508004260007F0ED00B21012808BF002102D00228AA
S3150800427008BF1D210846FEF709FB00281CBF0020C1
S3150800428010BD012010BD0000247A0008054A002947
S3150800429052F82000818914BF41F0200121F0200145
S315080042A081817047247A0008044951F820008089E2
S315080042B010F0800018BF012070470000247A00081B
S315080042C0054A002952F82000818914BF41F080016F
S315080042D021F0800181817047247A00087047FEE743
S315080042E000F05CBA024901480860FEE70400FA05D6
S315080042F00CED00E070B5284C254D264E2168302877
S3150800430007D0402837D0306840F00400306030BF0E
S3150800431070BD002918BF8847286840F00400286047
S31508004320316840F205200843306030BF1B480168F9
S3150800433041F480310160296821F00401296001688F
S3150800434011F4003FFBD0016841F0807101600168FB
S3150800435011F0007FFBD012490A6842F002020A6097
S31508004360016821F0010101606068002808BF70BD7E
S31508004370BDE870400047002918BF8847286840F004
S3150800438004002860306840F00600306030BF70BD19
S3150800439010ED00E0007000400440001000380240B4
S315080043A008380240704700F07FBA00F0E8BA00000B
S315080043B02DE9F041164E0446306830BB0125A5614B
S315080043C00021E561C4E9081104F12002111F081F44
S315080043D0FFF7D2FB0020C4E902000F480D49C922A5
S315080043E0A1FB00C702FB0072C31701FB0321C4E946
S315080043F000C10849C922A1FB00C7C31702FB007008
S3150800440001FB0300C4E904C035600020BDE8F08163
S315080044109C40001000C0692A8C49020030B583B060
S3150800442005460C4600216846FCF7E6FC2846FDF7DB
S31508004430C1FB78B1856825EA04010024816020461D
S31508004440FDF7B8FB806858B16846FCF7DAFC03B09C
S31508004450284630BD6846FCF7D4FC03B0002030BDC2
S31508004460641C022CEBDB0420FDF7CEF8ECE7000019
S31508004470F0B505462DED028B8BB0FDF79BFB044688
S31508004480002108A8FCF7B8FC002C63D0424F20682E
S3150800449060B1786800F47F41B1F5007F06D1C0F3BA
S315080044A04210A84204BF284600F02CF9E06818B963
S315080044B00021284600F02CFB38A02022694602F08D
S315080044C09DFB0026DFF8E4C000281ABF00206B46D3
S315080044D08CF8006010D00CEB4002195C9170D67015
S315080044E011B1401C2028F6DB022101EB40008CF8B4
S315080044F0000003208CF80100002202212046FDF767
S31508004500EAF90646206828BB26B394ED038A80217B
S315080045102046FBF7D6FE002084ED038AFF2204EB33
S315080045204001401C81F84C2081F84D200628F6DB16
S3150800453065712271F07A10F0400FB4F8680014BF64
S3150800454040F0010020F00100A4F868002846FDF7B5
S3150800455001FD38B108A8FCF754FC0BB00020BDECEF
S31508004560028BF0BD786800F47F41B1F5007F04BF87
S31508004570C0F34211A94205D1C0B2401E0222012150
S31508004580FDF7E7F90120206008A8FCF73AFC0BB014
S315080045900120BDEC028BF0BD0C4000105553425F64
S315080045A04E414D455F434F4E46494700F063001064
S315080045B070B50C46C0F3421100F01F0682B01546CE
S315080045C00846FDF7F7FA00281CBF016800294AD0FB
S315080045D0062E48DAFF2D12D0691E052943D2FF2C74
S315080045E002D0611E05293ED200EB460696F84C100D
S315080045F0FF2904BF96F84D10FF2934D102E0FF2C9D
S3150800460031D0EEE7FF2D03D000EB8501096951B3E0
S31508004610FF2C03D000EB8401096921B3FF2D03D0D9
S3150800462000EB8501496BF1B9FF2C03D000EB84013F
S31508004630496BC1B10021FF2D09D000EB410292F868
S315080046404C30AB421CBF92F84D20AA420BD0FF2C2F
S315080046500CD000EB410292F84C30A3421CBF92F8F2
S315080046604D20A24202D102B0002070BD491C062985
S31508004670E1DB00216846FCF7BFFB86F84C5086F85C
S315080046804D406846FCF7BDFB02B0012070BD30B551
S31508004690C0F3421100F01F0583B00846FDF78AFAF9
S315080046A004001CBF2068002801D0062D02DB03B0D9
S315080046B0002030BD00216846FCF79EFB04EB45014F
S315080046C0002291F84C00FF2806D004EB8000006910
S315080046D010B1026042608260FF2381F84C3091F885
S315080046E04D00FF2806D004EB8000006910B1026077
S315080046F04260826081F84D306846FCF782FB03B061
S31508004700012030BDF0B583B00546FDF753FA040025
S3150800471004BF03B0F0BD00216846FCF76DFB2068B6
S31508004720C8B11C4900204968CEB201F47F42C1F3E2
S315080047304213A6F1010CB2F5007F04BFAB428445D3
S315080047400FD004EB400191F84C70FF2F04BF91F88D
S315080047504D10FF2905D06846FCF753FB03B000202F
S31508004760F0BD401C0628E6DBB2F5007F02BFAB426F
S315080047706046FDF71CFA002020602846FEF794F9EB
S315080047800548FCF782FB6846FCF73BFB03B00120B3
S31508004790F0BD00000C400010A08601002DE9F74F7F
S315080047A08B4684B0C0F3421100F01F0408460091FE
S315080047B0FDF700FA5FEA00091FD0062C1DDA99F802
S315080047C05E00052819D109EB440090F84CA0BAF10F
S315080047D0FF0F12D009EB8A000190006968B1002129
S315080047E002A8FCF709FB0024069EA046002E88BFF7
S315080047F009EB0A074AD924B115E007B00020BDE83D
S31508004800F08F01980069D0E900218A4202BF8268C8
S31508004810002A002405D001EB011100EB810000F10C
S315080048200C04002C39D097F8280021680D1AAE42DE
S3150800483038BF3546211D01442A465846FBF790FCE9
S3150800484097F82800761B2844C0B287F82800216804
S31508004850AB44A844884216D1002287F8282001983C
S3150800486014460069D0E900318B4204BF8368002BE7
S3150800487005D0491C082908BF0021C0E90112514684
S315080048804846FDF7A3F906988045B4D302A8FCF775
S31508004890B8FA07B04046BDE8F08F012000FA0AF1E1
S315080048A00098FDF716F8F1E72DE9F041C0F342113B
S315080048B000F01F054FF47A740846FDF77BF90700E8
S315080048C01ED0062D1CDA97F85E00052851D107EB95
S315080048D0450090F84D80B8F1FF0F11D007EB880519
S315080048E0286968B1D0E900128A4284BF881A00F1A3
S315080048F008062FD88068002814BF08268E1A29E0D3
S315080049000020BDE8F08141463846FDF753FE0020F9
S31508004910FCF790FA58B1FEF799FF40B10620FFF769
S315080049208EFA00281CBF4FF4FA70FCF7C9FA2869FA
S31508004930D0E9001291423CBF881A083004D3806837
S31508004940002814BF0820881A86420CBF641E4FF43C
S315080049507A7406462869D0E90012914204BF806835
S31508004960002809D0002CCEDC2869002101604160AE
S3150800497081600120BDE8F081002CFADCF4E72DE91E
S31508004980F74F8946C0F3421100F01F0484B0002592
S315080049900846FDF70FF9070033D0062C31DA0698DA
S315080049A0002804BF07B0BDE8F08FB9F1000F28D082
S315080049B097F85E00052824D107EB440090F84D00CF
S315080049C00290FF281DD007EB800003900069C0B154
S315080049D000216846FCF710FA02984FF0000A069E76
S315080049E0544607EB000B039800690268511C082916
S315080049F008BF00218368002B18BF4FF0000811D1AB
S31508004A0004E007B04FF0FF30BDE8F08F43688B42F3
S31508004A1004BF01238360016002EB021100EB8100F1
S31508004A2000F10C08B8F1000F18D09BF82E40B442DC
S31508004A3028BF34462CB12246494608F10400FBF744
S31508004A408FFB9BF82E00A04288BF4FF0010A361B49
S31508004A50A1442544C8F80040002426E0641C642CC0
S31508004A6009D9069886422BD103980021006901606E
S31508004A704160816024E00120FCF756FB00BB6846D4
S31508004A80FCF7C3F9002804BF97F85E00052817D17C
S31508004A9038460299FDF78EFD6846FCF7BDF93220C7
S31508004AA0FCF70EFA6846FCF7BBF9BAF1000F9AD084
S31508004AB097F85E00052803D138460299FDF77AFD76
S31508004AC06846FCF79EF907B02846BDE8F08F30B572
S31508004AD083B004460D4600216846FCF78DF920464A
S31508004AE0FDF768F870B1846844EA05018160A1425F
S31508004AF01CBF0420FCF72CFB6846FCF782F903B0C0
S31508004B00204630BD6846FCF77CF903B0002030BD6E
S31508004B102DE9F0410D460024FDF74CF8060004BFC8
S31508004B201C20BDE8F081002D08BF144D2846FEF76D
S31508004B3071FA070018BFBDE8F081DFF84080F06819
S31508004B40404518BF02F099FE454508BFF56011D0EB
S31508004B502978284629B1418808440C440178002957
S31508004B60F9D1241D204602F08AFE22462946F06025
S31508004B70FBF7F6FA3846BDE8F0810000147F000816
S31508004B800160002141608160C1600161416181610C
S31508004B90C161016241628162C0E90B11C0E90D1170
S31508004BA0704700002DE9F04104460068069E0D4650
S31508004BB0006890461F46002808BF13A00168616078
S31508004BC04068A060002239463046FDF731FB206177
S31508004BD0286960612068B0F850102183B0F8501039
S31508004BE0491CA0F85010A88A608348F00200666243
S31508004BF0C4E9070700200246E0602021201DFDF7D2
S31508004C0017FBE060BDE8F0814D53706B74563100B8
S31508004C1070B50446C56800200246E0602021201DC4
S31508004C20FDF706FBA8420CBF01200020E56070BD19
S31508004C3010B50446D4E9081000B939B90022FDF7C1
S31508004C40F7FA2169884204BF012010BD002010BD73
S31508004C502DE9F04104460068069D0F460068904617
S31508004C601E46002808BF12A0016861604068A0605F
S31508004C70002231462846FDF7DBFAC4E90407206816
S31508004C80B0F850102183B0F85010491CA0F8501005
S31508004C9000206083C4F81C80E060C4E90865024609
S31508004CA02021201DFDF7C4FAE060BDE8F081000070
S31508004CB04D53706B7456310030B50D4693B00446AB
S31508004CC0016802A8FFF75CFF0020009044F201008B
S31508004CD045EA00020023194602A8FFF7B9FF02A910
S31508004CE0206801F0C6FB13B030BD0121816370470F
S31508004CF02DE9F05F071D0446B8464FF0020B4FF04A
S31508004D00060A4FF00109A06B072880F0B780DFE894
S31508004D1000F09E040D415377A400204600F0BCF82D
S31508004D202020C4F838B0C4E90A80ECE7206804F10A
S31508004D302C02111FD0F80CC04068036860469847DB
S31508004D40002818BFE06A7DD0C0F12005002D1BDDC4
S31508004D50082D34BF2E46082632464AA1201DFBF7E9
S31508004D60D3F988B1324649A1201DFBF7CDF958B1D0
S31508004D706A1E791C3846FBF738FAA06A401EA062FC
S31508004D80E06A401CE062DFE7082D28BF0320BAD39B
S31508004D90A063B8E7206804F12C02111FD0F80CC0F4
S31508004DA04068036860469847002850D0E06A0028A3
S31508004DB008BF0420A7D1EBE72046FFF729FFB0B1CB
S31508004DC020682146C368806802681846904770B113
S31508004DD0206AB0B3606AB0B3FCF74EF8C4E90C01B8
S31508004DE00520A063606AA062206AE0628BE7E0693A
S31508004DF010F0010F2ED104212046FFF75DFF29E0B0
S31508004E00FCF73AF8D4E90C2305460E46801A61EBFE
S31508004E100301FDF725FF1F4A801A71F1000019D218
S31508004E20C4E90C56206804F12C02111FD0F80CC0F6
S31508004E30406803686046984720B1E06A00287FF416
S31508004E4062AF01E003E005E0C4F838A05BE70120A3
S31508004E50BDE8F09FC4F8389055E72046FFF7E8FE0E
S31508004E6038B120682146C36880684268184690476A
S31508004E70F0E708212046FFF71FFFEBE70020BDE813
S31508004E80F09F00004D536462675631004D53706BB6
S31508004E90745631000087930310B50446406A00280B
S31508004EA008BF10BD20682146C36880688268184616
S31508004EB090470020606210BD2DE9F04304465B4828
S31508004EC083B00D46D0F8100900287DD058482169CE
S31508004ED008180AD0A0F58030B0F5FF5015D0534811
S31508004EE002F03EFB042871D09CE0504802F038FBE3
S31508004EF0042869D101214D4802F086FB002863D1B8
S31508004F0001214A4802F02EFA69E0DFF82891D9F81B
S31508004F1000000028D8BFFBF7D9F8DFF81C81D8F8BD
S31508004F20000028B9FBF7D2F8D8F80000002875D099
S31508004F30D9F80000002871DDD8F800400025A079CE
S31508004F4004280CD1394802F00BFB042812D0D9F8F2
S31508004F5000203648D8F8001002F032FB0125D8F8B0
S31508004F60000002F08AFC0020C8F8000003B02846BA
S31508004F70BDE8F08304F5127200212C4802F0D5FA38
S31508004F80002814BF0027012704F55372012127487A
S31508004F9002F0CBFA00280CBF012400240021234884
S31508004FA002F032FB002814BF0126002601211F4803
S31508004FB002F02AFB002818BF012037EA060108BFBD
S31508004FC034EA0000CBD1C2E72CE0FFE729461748B0
S31508004FD002F01AFB30BB2946144802F0C3F9002830
S31508004FE004BF03B0BDE8F08304F11403D4E9021248
S31508004FF0CDE900120293D4E9002301460220FCF70A
S3150800500055F82076012806D104F11400FCF750F86B
S3150800501020760128F8D010F0FF0F03D003B0002047
S31508005020BDE8F08303B00120BDE8F083607200108C
S31508005030B0DFFFBF54400010504000109DED000A3D
S31508005040DDED010A8360C0E9001280ED030AC0EDB8
S31508005050040A00214161F7210176704710B504461C
S315080050601430FCF721F8204610BD0000062824BF9E
S31508005070002070472DE9F04104462DED028B84B0DF
S315080050800E46174698469DED0C8A002102A80D9DEE
S31508005090FBF7B2FE04EB44002C4900EBC40001EB1D
S315080050A0C000416911F4003F08D002A8FBF7A9FE29
S315080050B0012004B0BDEC028BBDE8F0810021C0E9F7
S315080050C00F144161426942F0080242F4003242611B
S315080050D015F0080F03D0426942F48072426115F058
S315080050E0100F03D0426942F00402426115F0020F24
S315080050F003D0426942F400624261C0224263402200
S31508005100002383618263C3614FF480730160104A90
S31508005110C0E9011302EB0422C0E903120162C0E9E7
S3150800512009130C4A434602EB0422C0E90B128DED23
S31508005130008A3A46314620460195FDF7E5FB0446C6
S3150800514002A8FBF75EFE2046B3E70000086E0010D3
S31508005150F0570010F05D0010062824BF00207047A5
S3150800516010B582B0044600216846FBF745FE04EBFD
S315080051704400104900EBC40001EBC000416911F47A
S31508005180003F10D00021C0E90F14416921F4003115
S3150800519041612046FEF74AF804466846FBF731FEA9
S315080051A002B0204610BD6846FBF72BFE02B0012070
S315080051B010BD0000086E0010062824BF00207047A6
S315080051C070B505460E4600EB4500354900EBC500AF
S315080051D001EBC00482B0606910F0040F03D0112EF1
S315080051E015D0132E08D000216846FBF705FEE26AA3
S315080051F0216A0020F2B90FE0FBF73EFEA061E161EB
S31508005200606920F00800606102B0012070BD606925
S3150800521040F00800606130E04A1C2262A36A9A42A4
S3150800522014BF10462062626A904204BF0120E06201
S31508005230206B084420B3067004F1200002F038FB06
S31508005240616B88420FD3606910F4807F03D0012117
S31508005250284600F0C1FA606910F4006F03D00021F7
S315080052602846FFF713F86846FBF7CBFD05212846C5
S3150800527000F0D2FA0120FBF76BFF02B0012070BDE7
S315080052800121284600F0C8FA06A002F0EBFA09A0A8
S31508005290FBF778FF6846FBF7B4FD02B0002070BD47
S315080052A0086E00100C427566666572204F56464CAD
S315080052B0570D0A00427566666572204F56464C576A
S315080052C00D0A0000062824BF0020704730B50D4699
S315080052D000EB400101EBC000244983B001EBC00498
S315080052E000216846FBF788FD606910F0010F6069C8
S315080052F00AD020F001006061132028706846FBF789
S3150800530080FD03B0012030BD10F0020F0BD060699C
S3150800531020F002006061112028706846FBF771FDD5
S3150800532003B0012030BDD4E900200021904204BF1B
S31508005330E268002A08D0421C6260A3689A4208BF45
S315080053406160E1602169014451B108782870022042
S31508005350FBF7FEFE6846FBF754FD03B0012030BD9F
S315080053606846FBF74EFD03B0002030BD086E0010FE
S315080053702DE9F04784B0814688461646062806D3A6
S31508005380FAF7A4FE04B04FF0FF30BDE8F087B8F195
S31508005390000F37D009EB49004D4900EBC90001EB76
S315080053A0C004606910F4803F2CD1606910F4003F96
S315080053B028D00025AA46002E62D9002102A8FBF7AC
S315080053C01BFD721B0092606A08BF574626D0216AE9
S315080053D0884204BFE36A002B19D081429ABFA36AA8
S315080053E0191A091A8A4298BF114600910144616246
S315080053F0A26A914208BFC4F824A0C4F82CA0216B65
S315080054000F180BE004B04FF0FF30BDE8F087CDF879
S3150800541000A0C4F824A05746C4F820A0002F47D0FF
S31508005420D4E90801814247D9A26A0244521AA36BF9
S315080054309A4218D8814245D9A26A1044401A00995E
S31508005440084498420FD9606910F4807F03D001217F
S31508005450484600F0A3F9606910F4006F03D00121F3
S315080054604846FEF713FF08EB05003946009AFAF797
S3150800547077FE0098054402A8FBF7C3FCAE429CD809
S3150800548000216846FBF7B8FCC4F83CA0D4E908013B
S31508005490884204BFE06A002803D00521484600F088
S315080054A0BBF96846FBF7ADFC04B02846BDE8F087B3
S315080054B002A8FBF7A6FCE3E7E26A002A14BFA26A81
S315080054C0421AB4E7E26A002A14BFA06A401AB6E78D
S315080054D0086E001070B584B00546062802D3FAF7A0
S315080054E0F5FD8AE005EB4500504900EBC50001EBE8
S315080054F0C004606910F4803F7AD1606910F4003FF7
S3150800550076D06069062610F0040F03D0606910F0A3
