S02B0000433A5C6E65746D662D696E7465727072657465725F7673323031355C4275696C644F75747075745CB7
S31508000000F8FF0010817200088972000889720008DA
S31508000010897200088972000889720008284BD3F88B
S31508000020882042F47002C3F888205A6922F40272C2
S315080000305A61244B1A6842F001021A601A4611687E
S31508000040204B8907FBD500229A601A6822F0A06225
S315080000501A601A6842F480321A601A4B1B689803B1
S31508000060FBD5194B1B68DBB2112B184B0CBF40F2A2
S31508000070056240F205721A60124B154A5A601A68F0
S3150800008042F080721A601A4611680E4B8901FBD538
S3150800009049F202429A604FF480121A6300225A63A8
S315080000A09A634FF080521A644FF480425A641A6871
S315080000B022F001021A60A3F5803301221A60704704
S315080000C000ED00E000380240002004E0003C024059
S315080000D00854400708B5FFF7A1FF024B9847024BA3
S315080000E0984708BD310100087D01000808B5FFF7EB
S315080000F095FF014B984708BD7D010008814230B540
S3150800010015D002F00304034622F00302D51AE8428A
S3150800011004D053F8045B41F8045BF7E701391A1970
S31508000120934204D013F8010B01F8010FF8E730BD2C
S3150800013008B50A480A490B4AFFF7E0FF0A4A0B487E
S315080001400B49FFF7DBFF0B4B0B4A23F0030323B1E5
S31508000150002142F8041F043BF9E708BDB075000802
S31508000160B002002000000000A8020000007300088A
S3150800017000000020B01F0000AC020020094A136BE3
S3150800018010B543F01F031363074C3D200021A04719
S315080001903C200021A0473E200021A0473F20002107
S315080001A0A04710BD00380240B92A0008FEE7000043
S315080001B070477047074B4FF08042596A506A5B6A2E
S315080001C09942F7D10B46002242EA00021046194628
S315080001D0704700BF0004004037B50B4B04460021AA
S315080001E068469847FFF7E6FF032C05468CBF033C95
S315080001F00024FFF7DFFF401BA042FAD96846034BED
S31508000200984703B030BD00BF91250008C5250008F2
S3150800021001207047012070478068704753B10A442F
S31508000220023B914204D231F8020B23F8020FF8E799
S315080002300120704718467047002070470020704715
S31508000240002070470A448A4207D931F8020B4FF654
S31508000250FF739842F7D0002070470120704701F1DC
S315080002607841124A8B0B032B88BF4B0C116988BF48
S3150800027004330029BCBF0E4951604FEAC303BCBF13
S3150800028001F18831516043F0020143F4803343F0B1
S315080002900203116113611361044BDA68D203FBD4BC
S315080002A04FF000421A610120704700BF003C02402F
S315080002B0230167457047836858687047836898685C
S315080002C07047F8B5069870BB18480469002CBCBF7F
S315080002D0174C446001EB0207B8BF04F1883440F2BA
S315080002E00112B8BF44609E1E02610D46BD422946F2
S315080002F013D235F8022B36F8023F9A42F6D025F883
S31508000300023C0A4AD06810F48034FAD13288934203
S31508000310ECD00848084DA84705E0044B4FF00042CA
S315080003201A610120F8BD0020F8BD00BF003C02405C
S315080003302301674500710008BD2F000808B501496B
S31508000340884708BD952C0008004870470CE0002037
S3150800035000207047002070477047000037B50446F4
S3150800036000200090014602460346084DA84708B9F2
S31508000370074B9847074B0020984701280ABF4FF0BC
S31508000380FF330020236003B030BD00BF7D2A00087C
S31508000390552D0008A126000838B50C46154608282C
S315080003A055D8DFE800F005541825293038544A0096
S315080003B0274C3D200121A0473C200121A0473E2093
S315080003C00121A0473F200121A0472249224B40F2A4
S315080003D00150984738BD002939D00B685A1C36D0C9
S315080003E044F61F62934232DC44F620630B6038BD44
S315080003F040F20150194902E0194940F201502246DB
S31508000400154B984738BD144B164940F2015098478A
S315080004101448154B0FE0104B134D40F2015019B11B
S3150800042012499847114802E0114998471048A847C9
S31508000430104BD868104B984738BD41B1224640F258
S3150800044001500E49044B44F0010498472C6038BD0E
S31508000450B92A00081C6600083551000825660008F8
S31508000460316600083D660008155100084D6600080B
S315080004706066000888010020A93C00087366000829
S3150800048037B583680D469B680446C0689847294671
S315080004906A4601AB0D4DA847A8B1A368E0689B68FA
S315080004A09847009B8269142101FB032301991A6965
S315080004B00C234B43D35C102B04D10548054B9847B6
S315080004C0002000E0012003B030BD00BF91360008CF
S315080004D0946600081551000830B5094C094B85B0DB
S315080004E0054620469847002304218DE81800029007
S315080004F00A462846044CA047012005B030BD00BF77
S31508000500BA6600088D51000895180008D0F8042826
S3150800051012F0010310B50BD10C6AB4F5006F07D8B9
S31508000520031D42F001024B62C0F80428012010BDE9
S31508000530002010BD4A6A031D9A4201BFD0F804384C
S3150800054023F00103C0F80438002308BF4B620120DA
S315080005507047000038B5144612680D465AB100684F
S315080005600968074B9847002807DD2A68236802446C
S315080005701B1A2A602360012038BD002038BD00BF41
S31508000580513C00088368C0689B68184710B58468A2
S31508000590C068E468A446BDE81040604710B58468A2
S315080005A0C0682469A446BDE8104060478368C068EF
S315080005B05B6A18472DE9F04F8FB0044689460492C6
S315080005C003F00F050AA821460BAA914B9847002865
S315080005D000F072818F4E0A98B04783460A98B04752
S315080005E021460CAA0DAB8C4EB04720B98B488C4BD4
S315080005F02146984772E10C9ACDF818901423534374
S31508000600DBF81820D118D358E21A8B68B2FBF3F13D
S3150800061003FB1123002B02DA824B984700230122A1
S31508000620049F03920C99DBF81420914280F06E81A6
S3150800063014224A43DBF818108E1851F802E00D9A76
S315080006403169B0684FF00C0C0CFB0211C31A4968EB
S31508000650079301FB00E1CEEB04020891B2FBF0F22E
S3150800066005927368059A9A4280F01B81079B069A41
S3150800067031690598934228BF13469846B36807938D
S315080006800D9B0C2202FB0312916888420DD9F16872
S3150800069001338B420D9302D3624B984701E11269ED
S315080006A03368079902FB01330893032D00F2E980AA
S315080006B0DFE815F0040004003C00CE009BF800308B
S315080006C09B070FD545B9049B20461A68564B4146E9
S315080006D09847049B1860D4E0384621464246534B57
S315080006E09847CEE035B94046514B9847074600280B
S315080006F000F0F4800A98DFF84CC1214642463B4692
S31508000700E047039018B9002D40F0BB800AE0002DA1
S3150800071040F0B780049B38461A68434B41469847D1
S31508000720049B18603846434B9847AAE00A98424B00
S3150800073021469847002800F0D1800D9932690C238C
S315080007404B43D2583D4B13403C4A934221D0B268A2
S315080007503368059902FB01339C4208D10A998B68D4
S31508000760C8681B6A21469847002800F0D1800023F4
S3150800077000930A98DFF8D0C0214642463B46E04738
S31508000780039000287DD12E48254B2146424698479E
S3150800079077E0089BDFF8B4A09C420ED1DAF8000097
S315080007A008B1244B98470023CAF8043040F60C10C9
S315080007B01F4B9847CAF8000017E0DAF8040040F61D
S315080007C00C134844984210D9194B984709900028A9
S315080007D000F084809AE80600144B9847DAF800007F
S315080007E0144A9047099BCAF80030DFF860A0DAF887
S315080007F00030002B72D0DAF80400394618444A460D
S315080008000A4B9847DAF804304B44CAF8043038E003
S31508000810F134000885050008913600088467000849
S31508000820BD2F0008552D0008A11F0008915D00087E
S31508000830B11D0008BD1D00088104000830400140B4
S31508000840D26700088D0500089D050008B002002043
S315080008500A98334B2146984700283FD00D993269AC
S315080008600C234B43D2582F4B13402E4A934208D0A1
S315080008703368B168059A0A9801FB02312A4B9847F2
S315080008800390069BC8EB0303002B06933EDD039BF0
S31508000890002B3BD007B14744059B013344440593DD
S315080008A0DFE6069B002B31DD039B7BB30C9A002306
S315080008B001320D930C92B5E61C4A9369D2699C42A3
S315080008C01A4405D3944203D204EB0901914207D98D
S315080008D0009221461648174C4A46A04700201CE0BD
S315080008E0022D06D0032D09D0012D0FD104982146DB
S315080008F001E0049920464A460F4B06E0B9F1000F7D
S3150800090004D00E4B2046FF214A469847012004E0B2
S315080009100A98054B2146984729E70FB0BDE8F08F9E
S315080009208104000830400140AD0500088801002018
S3150800093001680008BD2F0008915D0008DD5D00080C
S3150800094073B50446C06A00283CD0A36B3BB1231D8F
S315080009501846FF2124221C4DA847206032E01B4B75
S315080009609847636B06469868194B9847054630B30F
S31508000970337813F0020F636B04D09A68216B154B1A
S31508000980984705E09A68E06A216B134E2B46B047F4
S31508000990216BE06A114B9847FF214FF490720A4B7E
S315080009A005F594709847636B00220092E06A216B04
S315080009B09A680B4C2B46A04728460A4B01E00A4882
S315080009C00A4B984702B070BDDD5D00088505000832
S315080009D0B11D0008915D00088D050008AD050008E9
S315080009E09D050008BD1D00083D680008BD2F0008CC
S315080009F02DE9F04307468DB00B461446F9620029E7
S31508000A0000F0B0801A4602A83021584B984706468F
S31508000A1080B93D1D2846FF212422554B98470123BE
S31508000A203D60BB630FCD3E630FC40FCD0FC42B686B
S31508000A30236097E04F4B0B984F4D984702993963BF
S31508000A406A4601AB0646A84710B94C4B984789E059
S31508000A50B269009B142101FB03237B6333780025CD
S31508000A6003F00203BD6303F0FF06002B48D107F12C
S31508000A700408FF2124223E4B414D40469847414BEE
S31508000A8040F60C109847814640F60C120B98396BC5
S31508000A904B46A8473E6032462423534309EB0301DD
S31508000AA0D1F84811002916DA03F594734B444246E7
S31508000AB003F1240153F8040B42F8040B8B42F9D1D5
S31508000AC046460FCE25460FC50FCE0FC533682B6099
S31508000AD0C7F8008002E00132082ADDD13B685BB91D
S31508000AE03846294B454698470FCD0FC40FCD0FC43E
S31508000AF02B682360C7F800804846244B984731E0A6
S31508000B00234B386B98473D6080462B464FF0240EA2
S31508000B100EFB03FE08EB0E05D5F84821002A0EDA6F
S31508000B2005F594750FCD26460FC60FCD0FC60EF5E3
S31508000B30947E2B68336008EB0E033B6002E00133BA
S31508000B40082BE3D13B686BB938460F4B08F594750B
S31508000B5098470FCD0FC40FCD0FC42B68236008F537
S31508000B6094733B600DB0BDE8F08300BF7138000890
S31508000B70DD5D00088505000891360008552D00083A
S31508000B808D050008B11D000841090008BD1D0008B3
S31508000B90D7250008F0B5836A8DB00446002B5AD0D5
S31508000BA0866B3EB10268136A23F000431362012381
S31508000BB0836249E0C06A002846D0284B984701233B
S31508000BC0A362037803F0020303F0FF058BB12568DF
S31508000BD0234B2035284698470268E06A0CAB22F07A
S31508000BE0004243F8242D2946009604221D4DA847A5
S31508000BF02AE0636B9F681C4B38469847064618B32D
S31508000C003346E06A216BDFF86CC03A46E0472B466C
S31508000C10242202FB036202F5A471D2F84821002AB5
S31508000C2004DA0B6823F000430B6002E00133082B5B
S31508000C30EED100230093E06A216B0A4D33463A460B
S31508000C40A8473046094B9847094BE16A204603AA4C
S31508000C5098470023A3620DB0F0BD00BF85050008C4
S31508000C60D72500089D050008B11D0008BD1D000810
S31508000C70F10900088D0500082DE9F04F434B8FB0A8
S31508000C8005469847064600287DD000242846314662
S31508000C9005AA3F4B2C60AC62EC622C636C63AC63B8
S31508000CA0984730463B4B9847D0F8188001948346BE
S31508000CB0A246A1460EAB03EB840353F8243C01334A
S31508000CC046D0630102930123AB6200270EAB03EB08
S31508000CD0840353F8243CFB40DB0736D4029BF918FF
S31508000CE0D8F810304FF00C0E0EFB093EDEF808302F
S31508000CF0DEF804000133181A8A45504419DC81428B
S31508000D0017DCD8F80000D8F80830234ACAEB0101E6
S31508000D1003FB01031946304603939047039B20B112
S31508000D20194630461D4B98470FE01D481D4B9847FE
S31508000D300BE0D8F80C3009F10109994582460EF105
S31508000D400C0ED3D310E0184B98470137202FBDD18E
S31508000D500134092CAED1AB6A13B12846134B984718
S31508000D603046134B98478DE7019B01330193019A4F
S31508000D70DBF814309A42E6D2DBF8183001981422D0
S31508000D8002FB0038ACE70FB0BDE8F08F79350008F4
S31508000D90F10900088505000881040008AD0500086A
S31508000DA073680008BD2F0008552D0008950B00082C
S31508000DB091350008036823B94068003018BF012040
S31508000DC07047012070470000054A0023036043600E
S31508000DD0C3609360136353639363D3631364704769
S31508000DE0B002002038B50546006898B169680A4C13
S31508000DF000220323A047094C094B04F10800984731
S31508000E000023A36023636363A363E3632364284621
S31508000E10044B984738BD00BFB5050008B00200204E
S31508000E20950B0008C90D00082DE9F0438FB004465C
S31508000E30164601A802AA254B0D46984740B3244FEB
S31508000E400198B847DDF8089080460198B8474946A2
S31508000E5003AA04AB1F4FB84708B9002033E0D8F8F7
S31508000E601820039B142101FB032304991A690C23F8
S31508000E704B43D058184B98420CD0B0F1804F09D04C
S31508000E80164A20F480311033914218BF184601E003
S31508000E90019002952368019943B9A06084E860002F
S31508000EA0E1600F480F4B05AA98470BE0E2689142AC
S31508000EB0D3D1A2689042D0D162681344AB42CCD158
S31508000EC03244626001200FB0BDE8F083F1340008B7
S31508000ED08505000891360008101000C03040004013
S31508000EE0B8020020F10900082DE9F043012B8BB068
S31508000EF005468946984601D8802A04D02846274BB5
S31508000F009847002047E0C3681BB9254B984701203E
S31508000F1041E01846234B984703789A07074614D4A6
S31508000F206868214B984706460028E7D01F4CE868B2
S31508000F3095E806003346A047044638B92846174BB5
S31508000F40984730461A4B984724E02E686A68194C29
S31508000F5080230093AB68019331464B4603A8A0470C
S31508000F6003A84146144B9847044638B11348144B16
S31508000F70984728460A4B9847012402E02846074B1B
S31508000F8098473B789B0702D43046094B984703A8F5
S31508000F900C4B984720460BB0BDE8F083E50D0008DA
S31508000FA0C90D000885050008B11D00088D05000853
S31508000FB0BD1D00081F1C00084D1C0008B8020020B3
S31508000FC0950B0008391C000837B5D0F80438104AC4
S31508000FD0016023F00203C0F804380E4BC0F8083845
S31508000FE0044602F1080300900B490C4D00F5016018
S31508000FF0A84704F66C100A4B9847302109480A4B53
S3150800100098470A480A4B9847002003B030BD00BFEE
S31508001010D4660008FFFFFE0093680008CD2200088A
S31508001020C90D0008F4020020CD180008B8020020F7
S31508001030790C000808B500F50160014B984708BD12
S31508001040E924000837B51A4B01AA054608200C46BC
S315080010509847019B002B18BF1C46164B9847164B02
S3150800106028689847154B1B7813B92868144B984776
S31508001070144B00209847144B9847144B9847144B29
S31508001080984790B1134B2568984785420DD1124B66
S3150800109098472046114B984761682268A368054619
S315080010A004F10C000E4CA0472C46A04703B030BDF7
S315080010B09903000843520008A93C0008201900209B
S315080010C0313B00087B2500083F520008D52500085B
S315080010D0510300084903000859030008550300088E
S315080010E0552100082DE9F04194B014AE002446F8C5
S315080010F0504D074620210AA81E4B0196984738B935
S31508001100002033E0082C1ED10AA81B4B984730B3A1
S315080011101A4B0AA8984701A90422194B05460AA89A
S315080011209847019BD3F80080164B98478045E9D12C
S31508001130154B16482946984714AB03EB840301342C
S3150800114043F8485CDEE700238DE848000AA86FF0FC
S31508001150004101220E4B98470028D9D1D4E7002C2C
S31508001160CED0384602990B4B9847012014B0BDE8FB
S31508001170F08100BFD138000875370008AD35000882
S31508001180E138000849030008155100089B68000863
S315080011908539000845100008F8B520220E6A0E4F5A
S315080011A005460C46006804316323B847202801D059
S315080011B00020F8BD236A23B92868084B9847012000
S315080011C0F8BD616A0029F7D0286832466323B84714
S315080011D0B042EDD1F0E700BF953B0008A93C0008F6
S315080011E008B50122014B984708BD00BF99110008B0
S315080011F0F0B5CC6993B00E46E107189F22D444F0A7
S315080012000101F16104F400541AB144F4004443B9ED
S3150800121002E044F4804413B944F001040AB919926F
S31508001220174600F50165294602A8074B984702A804
S31508001230311D2246199B0097044CA047284602A94F
S31508001240034B984713B0F0BD69210008F92100083F
S31508001250012300081FB5CB6913F0020308D104ACBB
S31508001260012244F8082D009408240194024CA04752
S31508001270012004B010BD00BFF1110008F0B5CB691C
S3150800128013F0020493B007460D460ED102AE084B82
S3150800129030469847431E5A425A41402301930096C6
S315080012A0234638462946034CA047012013B0F0BD13
S315080012B0D9040008F11100082DE9F04F8BB000247D
S315080012C004900591A04627462546394B9847064679
S315080012D048B900240094019404980599354D0122D3
S315080012E02346A84760E034B10C207843324B984730
S315080012F005460028EDD0314B304698474369099397
S315080013004FF0000E099B9E4538D08369142202FBD4
S315080013100E334FF0000CDA680892089A94452AD0E2
S315080013200CB9013724E00C2202FB08FB02FB0CF285
S31508001330069205EB0B011A6903910699079202EBCF
S31508001340010A9A68DAF80490196809FB021145F847
S315080013500B10DAF80810C9EB0109039909FB0222F8
S315080013604A600699079A525C039908F101088A604F
S315080013700CF1010CD1E70EF1010EC3E73046104B14
S31508001380984706460028B6D10CB901249DE70C23D8
S315080013905F4304980095334601970599054E224602
S315080013A0B0472846074B984720460BB0BDE8F08F54
S315080013B079350008F1110008B11D000885050008F7
S315080013C091350008BD1D00082DE9F04300F66C189C
S315080013D0ADF20C4D0746164BD1F8249040460E4602
S315080013E09847D9F80440054620B14046114B98471E
S315080013F0002018E0B4F5806F28BF4FF480640DF123
S315080014000808214642460123DFF830C0D9F8000013
S31508001410E04701943846CDF80080314601222B4634
S31508001420054CA04701200DF20C4DBDE8F08300BF26
S31508001430B50D0008E50D0008F1110008B50500080E
S315080014402DE9FF4100F66C170646114BD1F82480AA
S3150800145038460D469847044620B138460D4B9847FE
S31508001460002011E003AF234698E803003A46DFF868
S315080014702CC0E047042301933046234600972946AB
S315080014800122054CA047012004B0BDE8F08100BF49
S31508001490B50D0008E50D0008F1110008B5050008AE
S315080014A070B500F66C14134B88B0054620460E46F8
S315080014B09847034620B120460F4B9847002016E070
S315080014C00E4A91690291D1690391116A526A06928C
S315080014D00222079202AA01240092182228460591A0
S315080014E00192049431462246054DA847204608B085
S315080014F070BD00BFB50D0008E50D00088801002085
S31508001500F111000813B5002400940194014CA0477A
S3150800151002B010BDF111000838B5CB695A0404466B
S315080015200D4630D4D0F8042842F00202C0F8042848
S3150800153003F00202154B002A03F10C010ABF0B4601
S3150800154001220C2212F1FF3217D318686969884202
S3150800155011D198685B6810F0010F4FEA60002946C0
S3150800156018BF2258204418BFD35898472946024620
S315080015700023204605E00C33E4E7002220462946EE
S315080015801346034CA047012038BD00BFE866000893
S315080015900515000810B50A8BD0F80848A24204D0F1
S315080015A0C0F80828024B984710BD002010BD00BFA0
S315080015B01915000838B54C6A084D01220023A847BA
S315080015C04CB1216811F0010105D1054B2020642298
S315080015D09847044B9847012038BD00BF05150008F9
S315080015E09D520008452D00082DE9F041294DD5F8F2
S315080015F010498AB080460F46002C41D04C6A002C10
S315080016003ED02168012938D82846234B984704F14B
S31508001610840668B128462168204B324698472846F2
S3150800162021681F4B3246984748BB1E4B984726E011
S315080016308023009301903146231D03A84FF482723C
S31508001640DFF870C0E04703A82168174B984768B1D0
S3150800165028462168114B3246984728462168104B80
S315080016603246984720B90F4B984701E0044600E0F8
S31508001670012403A80D4B984702E0002400E001244A
S315080016804046224639460023094CA04701200AB0A5
S31508001690BDE8F081F4020020551B0008811B0008F4
S315080016A0A51B0008552D00084D1C0008391C00080C
S315080016B0051500081F1C00082DE9F0414D6A134B5B
S315080016C000F66C1807460E46404695E80600984709
S315080016D0044618B940460E4B984713E02C4603209B
S315080016E054F8081B0B4B0022984795E8030022463E
S315080016F00223094C094DA04704463146384622467E
S315080017000023A8472046BDE8F08100BF290E00083F
S31508001710E50D000899030008B50500080515000839
S315080017202DE9F04100F66C180746114B4C6A404605
S315080017300E469847054628B140460E4B9847002066
S31508001740BDE8F08121680C4B2A460420984794E8A6
S3150800175003002A460323094CA04704462B4638466D
S3150800176031462246064DA8472046BDE8F08100BF0F
S31508001770B50D0008E50D000899030008B505000831
S31508001780051500082DE9F043D1F82480244BD8F834
S31508001790007000F66C1485B0054620460E4698473C
S315080017A020B120461F4B9847002035E001A839464E
S315080017B002AA1D4BDFF88C90984727F0030438B12E
S315080017C021460198194C042203ABA047039C00E06C
S315080017D02468C847231A5C425C41DFF86CC0284677
S315080017E0314604B9A7B901220023E0470021C822DF
S315080017F00F4B202098470F480F4B9847284624B18F
S31508001800D8F800100D4B984705E00D4B984702E0B5
S3150800181022462346E047012005B0BDE8F08300BF15
S31508001820B50D0008E50D0008F13400088D0500081F
S315080018309D520008F4020020351B000845100008D8
S31508001840E51000084903000805150008F8B54C6AB4
S315080018500D4F0D46002106460A460520B84723685F
S31508001860626804F1080106F66C10084CA0470446A5
S31508001870214606200022B84730462246294600233C
S31508001880034CA0470120F8BD99030008E90E00089B
S315080018900515000838B5059D8380BDF81030C3804E
S315080018A00023069C01804280037265B15CB1362C28
S315080018B098BF234600F108004FF038012A4688BF32
S315080018C03723014CA04738BD6151000870B54FF069
S315080018D0FF338CB0C0F824390446264B02A8984733
S315080018E000283CD00B9B029AC4F814299A68C4F8BD
S315080018F010399268D868204E9047D4F8141901AA6E
S315080019006B460546B04738B1AA69019B142101FB0D
S315080019100323C4F8183901E0184B98472B7803F0CD
S31508001920020303F0FF0263B10123C4F81C39002344
S31508001930C4F82039D4F81409114B9847C4F80C098F
S3150800194016E0C4F81C29D4F81419C4F80C4923461F
S31508001950D4F810090B4C40F60C12A04708E00123F6
S31508001960C4F81009C4F81809C4F81C39C4F8203991
S315080019700CB070BDD138000891360008552D000806
S31508001980D72500088D05000810B50446D0F81009BB
S3150800199090B1D4F81C3933B1D4F81409074B9847D9
S315080019A0C4F80C0910BDC4F80C49D4F81419234618
S315080019B040F60C12024CA04710BD00BFD725000800
S315080019C08D0500082DE9F3471F46D0F810390A9D02
S315080019D0044689469246002B5DD0304B9847D4F88A
S315080019E01C29D4F80C19002A51D140F60C1695B1C9
S315080019F00023BB420DD001EB0900C55C1AF80300B1
S31508001A00A84304D0D4F8183901259E6803E00133A9
S31508001A10EFE78ABB15463046214B9847804690B17A
S31508001A204346D4F81009D4F81419DFF884C03246AE
S31508001A30E0470023BB4208D008EB09021AF8031056
S31508001A40D1540133F6E7174B98473DB1D4F810390E
S31508001A50D4F814199A68D868526A904700230093F4
S31508001A60D4F81419D4F810090F4C43463246A04747
S31508001A7040460E4B98470EE0374600230093D4F8AD
S31508001A801009094C49443A465346A04703E0002D3D
S31508001A90F3D03E46ACE702B0BDE8F08789190008E6
S31508001AA0B11D0008552D00089D050008BD1D00083C
S31508001AB08D05000873B50D46D0F8101904468B68D5
S31508001AC0C8685B6AD4F81419164698470023009329
S31508001AD0D4F81419D4F8100932462B46034DA847F2
S31508001AE02046034B984702B070BD00BF9D0500080D
S31508001AF089190008D0F8103970B5BBB1D0F80C298F
S31508001B0002F1600302F59475AB420FD01C68084ECB
S31508001B10B44203D0013409D00433F5E744F620640F
S31508001B209B1A0C60C0F82439012070BD002070BDD6
S31508001B30444C54421FB5D0F8241900234A1C039379
S31508001B4004D0009303AA0423014CA04704B010BD97
S31508001B50C51900084FF482735943D0F80C3901F5BA
S31508001B60127119444B1E01F203118B4205D013F86A
S31508001B70012FFF2AF9D00020704701207047000086
S31508001B8037B5D0F80C494FF4827303FB01410125A0
S31508001B9001F51271091B0095014CA04703B030BD31
S31508001BA0C519000870B50D4B04460D4616469847EC
S31508001BB00023D4F80C29F15C4FF4827000FB052051
S31508001BC0184490F84822914205D10133B3F5827F33
S31508001BD0EFD1012070BD002070BD00BF8919000833
S31508001BE038B5D0F8103904460D465BB1064B984710
S31508001BF04FF4827000FB05F1D4F80C3901F5127127
S31508001C00581838BD184638BD89190008D0F8103953
S31508001C101BB1D0F80C39987970471846704710B53B
S31508001C2080E80E00029BC360039B036100234361A7
S31508001C30F723037610BD000010B5034B0446143095
S31508001C409847204610BD00BF3D2500082DE9F04302
S31508001C504A4DD5F8103985B004460E460BB9012011
S31508001C6089E00369464A934206D002F58F3202F5A7
S31508001C70F07293420ED054E02846424B9847042807
S31508001C80EDD128460121404B98470028E7D1284640
S31508001C90012153E03D4C2368002B01DC3C4B98475F
S31508001CA03C4D2B680BB93A4B98472E680EB9002065
S31508001CB061E02368002BFADDB379042B01D00024F8
S31508001CC028E02E482F4B984704281DD106F5127296
S31508001CD0314F2A480021B84706F55372012180463C
S31508001CE02648294EB847002107462448B04701210F
S31508001CF081462248B047B9F1000F02D1B8F1000F6A
S31508001D00DDD008B9002FDAD022681C482968234B91
S31508001D10984701242868224B984700232B602046C1
S31508001D2029E02846174B9847042898D12846314673
S31508001D30154B9847002892D128463146194B9847A3
S31508001D4001460028B3D0A3680093E368019304F121
S31508001D5014050295022094E80C00134EB04720762D
S31508001D6094F91800012803D12846104B9847F6E73E
S31508001D70B0FA80F0400905B0BDE8F083F40200200F
S31508001D80502000400D1C0008551B0008B402002016
S31508001D90552D0008B0020020A51B0008B51A00083A
S31508001DA0BD1D0008E11B0008352500083925000877
S31508001DB008B5014B984708BDDD4F000808B5014B2B
S31508001DC0984708BD3D4F00082DE9F04F8BB044F603
S31508001DD02063059306A807A9534B544DDFF858818D
S31508001DE0984706980799524B98476968514B524845
S31508001DF098475248524B05A9984760B905A8514BD0
S31508001E00984740B94046504B9847002840F086808E
S31508001E104FF0FF3305934D4B4D4EDFF87CA1DFF8AD
S31508001E207C914C4F00249847042213460094019451
S31508001E30494940F20150B0474849494A494BCDF80B
S31508001E4000A040F20150B047474B6868474E984794
S31508001E50214622462046C847E868B84704210A466C
S31508001E60234600943C48B0473E4A3D4940485346BD
S31508001E70B04704213F48B047E8683F4DB8470AAB2A
S31508001E80012243F8082D214600933C4C3C48082380
S31508001E90A047A8474C4606460F4620208521059AA6
S31508001EA0384B9847814608B1374B984719F0800F49
S31508001EB003D0012005A90022A04719F0050F02D07A
S31508001EC01D48324B9847D8F80438DFF86C9013F061
S31508001ED002020BD023F00203022005A90022C9F84A
S31508001EE00438A047A84706460F46D6E7059B03923F
S31508001EF00133D2D0A847264BB0EB060A059861EB0A
S31508001F00070B9847594508BF5045039AC5D207207D
S31508001F101146A04748460C4B9847BEE71D4B9847C5
S31508001F200BB0BDE8F08F00BF6D5000088801002097
S31508001F30194F0008C90F0008200C0020F4020020E1
S31508001F40F51A00085D030008E5100008435200086A
S31508001F5035510008A93C0008BE680008D868000882
S31508001F60406D0008F16800089D3A00081551000800
S31508001F70066900081D690008B5010008F92400086B
S31508001F80301400209D5200088952000835100008B8
S31508001F90592D0008452D0008FD680008990300081A
S31508001FA030B504460B1B0344002B09DD14F8013B2E
S31508001FB0044D83EA126355F8233083EA0222F1E7D7
S31508001FC0104630BD386900082DE9F04FADF5805D43
S31508001FD085B015460DF581521C32176805EB030AC4
S31508001FE0044600EB0109002304AA20219954013371
S31508001FF0B3F5805FF8D14FF000084C4580F0A48017
S31508002000661C2FB1204601210DF10D02B84702E0EA
S3150800201023788DF80D3034464FF0000B5545ECD239
S3150800202001269DF80D3006FA0BF21A4258D14C4596
S3150800203080F08780A3197FB10093204631460DF1C1
S315080020400E02B847009B4B457BD2184631460DF128
S315080020500F020234B84708E022788DF80E20994519
S315080020606FD963788DF80F3002349DF80F609DF8AC
S315080020700E2006F00F03360902EB0626C6F30B06FA
S3150800208003331036284604A9C6F30B0204AD8A5C4E
S315080020908DF80E20C8F30B0150456A5451D00DF542
S315080020A08151183100F1010C096879B101930DF5D8
S315080020B081531833CDF800C01B6801210DF10E02BB
S315080020C065469847DDF800C0019B01E06546027049
S315080020D0013B08F1010806F101066046D3D129E063
S315080020E04C452ED2631C3FB10093204631460DF174
S315080020F00F02B847009B02E022788DF80F201C4695
S3150800210004A9C8F30B039DF80F20CA540DF5815393
S3150800211018336E1C1B684BB10DF5815318332846CE
S3150800212001210DF10F021B68984700E02A70354619
S3150800213008F101080BF1010BBBF1080F7FF46EAF34
S315080021405BE74FF0FF3000E001200DF5805D05B03C
S31508002150BDE8F08F13B5002400940194014CA04704
S3150800216002B010BDC91F000810B5084B044620224E
S3150800217040F8041B002198470023002000216362D1
S31508002180A362E362C4E90C01A36310BDDD5D000828
S315080021902DE9F0479A460368089F154D90461A6838
S315080021A0144B002A08BF1A4689461168416004463E
S315080021B051688160061D514600223846A8472268A4
S315080021C02061B2F85030C4F81490591CA2F8501087
S315080021D0002223836283C4F81C80C4F820A06762A7
S315080021E0E26030462021A847E060BDE8F08700BFDE
S315080021F0A11F0008386D00082DE9F04799460368C5
S31508002200DDF82080174E15461A68174B002A08BFB6
S315080022101A468A4611684160044651688160071D5E
S31508002220494600224046B0472268DAF81030636112
S31508002230B2F850302061591CA2F850102383BAF81E
S3150800224014306383002245F00205E561C4F8209046
S31508002250C4F82480E26038462021B047E060BDE833
S31508002260F08700BFA11F0008386D0008436A10B543
S3150800227004463BB103689A68D86892682146904735
S315080022800023636210BD0000002238B52021C5680E
S31508002290044BC260044604309847431B5842E56025
S315080022A0584138BDA11F000810B50446406A08B950
S315080022B0236A3BB9044B216A002298472369C31A4B
S315080022C05842584110BD00BFA11F000838B580E824
S315080022D00E0000F11005049BC36000210446A0F817
S315080022E050104022044B28469847044B284621465E
S315080022F098470123A36438BDDD5D000869210008FD
S315080023004368C0685B68184730B5044693B00D4605
S3150800231002A82168084B9847002145F4804200919D
S3150800232002A842F001020B46044DA8472068044B58
S3150800233002A9984713B030BD692100089121000809
S3150800234001230008000000002DE9F8430446061D95
S31508002350A36B062B00F2A780DFE803F0A8040C3D68
S315080023604D719700564B204698470223A363A662F1
S31508002370202359E0214651F8283B5A68D868156841
S3150800238004F12C02A847002800F09080E56AC5F100
S315080023902005002D1BDD072D94BFA8464FF0080821
S315080023A030464849484F4246B84780B130464749C3
S315080023B04246B84758B1464B3046611D6A1E984793
S315080023C0A36A013BA362E36A0133E362DEE7072DF2
S315080023D0BED9032357E0214651F8283B5A68D868E6
S315080023E0156804F12C02A84700285FD0E36A002B81
S315080023F0AED1042347E02046364B9847B0B1236850
S315080024009A68D86812682146904778B1236A002BE3
S3150800241038D0636A8BB1304B98470523A363C4E968
S315080024200C01636AA362236AE36291E7E369DB0747
S3150800243003D420460421294B9847012323E0264B41
S31508002440984780468946D4E90C01B8EB000069EB49
S315080024500101234B984718A3D3E900238B4208BFF1
S315080024608242EAD32146C4E90C8951F8283B5A68C6
S31508002470D868156804F12C02A847B8B1E36A002B9E
S315080024807FF466AF0623A36362E72046154B984799
S3150800249030B123689A68D868526821469047CCE7D5
S315080024A020460821C7E70020BDE8F8830120BDE8DB
S315080024B0F88300BFAFF30080FF8693030000000097
S315080024C06D22000893680008715D0008386D0008E1
S315080024D0A75D000889220008B5010008092300083D
S315080024E0A12E0008A922000808B51030014B98470C
S315080024F008BD00BF49230008F0B5044693B00F464F
S315080025001D4602A82146084B16469847189B009375
S3150800251002A8394632462B46044DA847204602A94A
S31508002520034B984713B0F0BD6921000891210008B4
S3150800253001230008002070470020704700207047DC
S31508002540006800F0010070470368DB0703D4EFF367
S315080025501083036062B670470368DB0705D4EFF3A0
S31508002560108362B600BF83F310887047EFF31080BC
S3150800257000F0010080F00100704772B60120704734
S3150800258062B601207047EFF31083036072B6704796
S3150800259010B5034B416004469847204610BD00BF5E
S315080025A08725000808B50368DB0701D5014B98475E
S315080025B008BD00BF872500080368DB0700D462B69C
S315080025C07047000010B5024B04469847204610BDD8
S315080025D0B9250008704770472DE9F04F040900F047
S315080025E00F054FF00108A40204F1804405FA08F625
S315080025F00327022A9B4685B004F5003408FA05F33A
S3150800260007FA06F705D0424514BF4FF000084FF009
S3150800261002084FEA1B2A00F0070001FA06FC08FA2E
S3150800262006F80AFA06FA002186001B4A019302A850
S31508002630CDF800C090472168DDF800C0019BFF4334
S31508002640394041EA0C022260E2683A4048EA02024E
S31508002650E260A268ED08174004EB850547EA0A0719
S31508002660A760296A0F22CBF30319B24021EA0202B6
S3150800267009FA06F942EA09022A6262681BF0010FA2
S3150800268014BF134322EA0303636002A8034B984767
S3150800269005B0BDE8F08F00BF91250008C5250008E4
S315080026A04F289FBF03099B0203F1804303F50033BC
S315080026B002469FBF186902F00F02D04000F00100E1
S315080026C088BF002070470000436A10B50446BBB1B6
S315080026D00C4B90F82000984794F82330984201460E
S315080026E00ED1636A94F82000A26A984794F82130BC
S315080026F0032B02BF94F8233083F0010384F82330B8
S3150800270010BD00BFA12600082DE9F84F8146284CC8
S315080027100120A0470220A047264C274B302707FB5D
S315080027200947384698474FF0010808FA09F8A246BB
S31508002730DFF898B0214BCBF81480302505FB09A5A6
S3150800274005F1200495F820009847DBF8143018EABC
S31508002750030F0646ECD1636813B3A2786AB1EC6A34
S3150800276014B9144BD3F80043154B9847021941F195
S31508002770000338461349884712E02078E178AA6AA8
S3150800278098476378032B0BD1E3789E4205D063689C
S315080027902078AA6A3146984702E086F00106E67074
S315080027A00220094CA0470120A047BDE8F88F00BFCA
S315080027B02D300008A01500205D330008A12600086A
S315080027C0B50100080932000841300008003C014004
S315080027D008B50020014B984708BD00BF0927000827
S315080027E008B50120014B984708BD00BF0927000816
S315080027F008B50220014B984708BD00BF0927000805
S3150800280008B50320014B984708BD00BF09270008F3
S3150800281008B50420014B984708BD00BF09270008E2
S3150800282038B5084B5C691B681C40C4F3441405257D
S31508002830E30702D52846044B9847640805F10105C5
S31508002840F6D138BD003C01400927000838B5084BC9
S315080028505C691B681C40C4F385240A25E30702D576
S315080028602846044B9847640805F10105F6D138BD9A
S31508002870003C0140092700082DE9F04F87B000F019
S315080028800F0601929B4600F00302012392004FEACD
S31508002890101A03FA06F50F239340039180460AFAA5
S315080028A002FA04A800214F4A0293DFF85091904794
S315080028B0DDF80CC0029B3027B40807FB0697BCF16D
S315080028C0000F71D0A40004F1804404F59C34A2687A
S315080028D01A40524509D0444A1268154276D1A26870
S315080028E022EA030343EA0A03A360302202FB0692A4
S315080028F0109B82F82230019B936282F8208082F82E
S3150800290021B0C2F824C03846384B9847364BFF608A
S315080029109968E84301409960DA680240DA600BF189
S31508002920FF32042A2BD8DFE802F0030B150B03004D
S31508002930DA682A43DA60302303FB0699002306E0A7
S315080029409A682A439A60302303FB0699012389F87B
S31508002950233014E0DA682A43DA609A682A439A60D0
S31508002960214C234B65614046984763691D42F7D160
S31508002970302303FB069980F0010089F823001A4AE0
S315080029801368BBF1040F43EA0503136004D14046FC
S31508002990174B9847E0B91DE0BBF1050F1AD1404621
S315080029A0134B9847A0B115E00234124A52F8242076
S315080029B0134053450ED10C4A136823EA05051560E2
S315080029C03846C7F824C0094B984703E0002402E0BC
S315080029D0054B1D61012404A8074B9847204607B0FC
S315080029E0BDE8F08F91250008003C01405D330008E2
S315080029F0A126000800380140C5250008A0150020BA
S31508002A004F2837B504460D4614D803F00F0101299F
S31508002A1003D0002918BF022200E0032220461146EF
S31508002A202A46054DA8470021204600910A460B462E
S31508002A30024CA04703B030BDD92500087928000804
S31508002A404F28F7B504460F4616461D460FD80021EF
S31508002A509DF82420DFF820C00B46E0470097204663
S31508002A6031462A469DF82030024CA04700E0002057
S31508002A7003B0F0BD79280008D925000813B50093DE
S31508002A809DF810300193024C0023A04702B010BDF8
S31508002A90412A00084F280ED803099B0200F00F00B0
S31508002AA0012203F18043824003F5003392B209B153
S31508002AB01A8370475A8370474F2837B504460ED88D
S31508002AC0084B094D98470022204613460121A8477E
S31508002AD00021204600910A460B46044CA04703B045
S31508002AE030BD00BF952A0008D925000879280008B6
S31508002AF010F1FF3238B541F1FF33002542F20E746A
S31508002B009D4208BF944206D3044B9847044BC3F82A
S31508002B100003012038BD002038BD00BF592D00082C
S31508002B20A015002070B51F4B1420002198471E4A97
S31508002B300023A2F80433A2F80633A2F80833A2F851
S31508002B400A33A2F80C331C46154628190126866155
S31508002B501649174B002230349847B4F5407FF4D114
S31508002B60144B154D154900241C6022460620A8471B
S31508002B70224613490720A847224612490820A84793
S31508002B80224611490920A847224610490A20A84783
S31508002B9022460F491720A8470E4922462820A8474B
S31508002BA0304670BDF12A0008A0150020C926000885
S31508002BB009340008003C0140392C0008D1270008D8
S31508002BC0E1270008F1270008012800081128000855
S31508002BD0212800084D280008124B4FF0FF32C3F891
S31508002BE08020C3F88420C3F88820C3F88021C3F85E
S31508002BF08421C3F888210C4B0C4A9A60DA601A6162
S31508002C005A619A61DA621A639A63DA63BFF35F8F6D
S31508002C10074A0849D1609360536A43F4E023536234
S31508002C20704700BF00E100E000000020D1720008F4
S31508002C3000ED00E00007FA0503460A4A103042F89C
S31508002C402010BFF35F8F03F01F025B099B0003F19F
S31508002C50604303F56143012000FA02F2C3F88021BC
S31508002C601A60704700000020420900F01F03012087
S31508002C7000FA03F102F12003014A42F823107047D3
S31508002C8000E100E008B5024B9847012008BD00BFE7
S31508002C90D92B0008302810B502D0402833D040E0A0
S31508002CA0234C236803B19847224A2349136943F002
S31508002CB0040313610B6843F4017343F001030B60CB
S31508002CC030BF1E4B196841F480311960116921F033
S31508002CD0040111611968194A8903FBD5136843F081
S31508002CE080731360154B1A689201FBD59A6842F0F7
S31508002CF002029A601A6822F001021A606368B3B188
S31508002D00BDE8104018470A4B1B6803B19847094AA3
S31508002D10136943F004031361074A136843F0060373
S31508002D2003E0054A136843F00403136030BF10BD7F
S31508002D30B018002000ED00E00070004000380240A6
S31508002D40FEE70000014B024ADA60FEE700ED00E00C
S31508002D500400FA0500BEFEE74FF47A73A0FB0301F0
S31508002D607047000010B501200C4CA0470220A04770
S31508002D704FF080434FF6FD721A82094B9847094B6C
S31508002D80D3E90023994208BF904201D3064B9847DE
S31508002D900220064CA0470120A04710BD2D30000890
S31508002DA0B5010008B8180020FD32000841300008B7
S31508002DB073B50C4B04460D466846002198474FF0FC
S31508002DC08046094BC3E90045084B74639847A942F6
S31508002DD008BFA04224BF0223B3826846044B984723
S31508002DE002B070BD91250008B8180020B50100088A
S31508002DF0C52500081F4A204B4FF0FF304FF6FF71DC
S31508002E0010B5C3E90001136C43F0030313641B4AAE
S31508002E10936843F0010393604FF080430424202213
S31508002E201C8002219A8000221A81998153211A83D3
S31508002E309A8319854FF0FF315A63D96210490120E8
S31508002E4098820C8017248A800C814FF6FF748A8139
S31508002E500A85CC628882088880B240F00100088022
S31508002E60198889B241F0010119801C200549064BD1
S31508002E70984710BD00380240B8180020002004E02A
S31508002E8000040040652D0008392C000808B5A82361
S31508002E9058430538014B984708BD00BF8D72000896
S31508002EA010B50A24A0FB042304FB01331046194677
S31508002EB010BD012303600B6000200021C2E9000158
S31508002EC07047000013B5214B9847214B98470024BB
S31508002ED0684601A91F4B0094019498479DE8030092
S31508002EE01D4B98471D4B98471D4B98471D4B9847B8
S31508002EF01D4B984720461D4B98471D4B98471D4B21
S31508002F0098471D4B98471D4B98471D4B98471D4B97
S31508002F1098471D4B98471D4B98471D4B98471D4B87
S31508002F2098471D4B98471D4B98471D4B98471D4B77
S31508002F3098471D4B98471D4B98471D4B98471D4B67
S31508002F4098471D4B984702B010BD00BFB133000823
S31508002F50F531000859500008194F0008B951000802
S31508002F6049520008252B0008B95300088125000896
S31508002F708134000865530008193A00089D51000875
S31508002F809F510008A5510008A15100083B520008AE
S31508002F90693D0008213E0008993A00082F520008AA
S31508002FA0815000083752000833520008B351000810
S31508002FB0AD510008A7510008295200080FB470B592
S31508002FC0C2B046ABFF2153F8042B019302A80A4C62
S31508002FD00A4DA0470A4C0646E068A847324602A9A9
S31508002FE00023E068074EB047E068A84742B0BDE84E
S31508002FF0704004B0704700BF55510008A93C00084E
S3150800300088010020953B00080FB407B504AA064BB3
S3150800301052F8041B019240F20150984703B05DF83C
S3150800302004EB04B0704700BF85500008034B03EB60
S315080030308000036C01330364704700BFC01800208A
S31508003040034B03EB8000036C013B0364704700BF2E
S31508003050C0180020044B03EB8000006C0028D4BF86
S3150800306000200120704700BFC0180020002010B5BE
S3150800307020210246034CA047034902460348A047BD
S3150800308010BD00BFA11F000800000000B00200200C
S3150800309030B585B002AB2C4A934203D32B4A43F88A
S315080030A00429F8E72A4C2B4B2B4963652B4B2C4AF2
S315080030B02C4D0B441344A3652B4B98472B4BE065CB
S315080030C098472B4B98472B4B98470024042100948C
S315080030D00A4623462848A847284A294B29492A4800
S315080030E0A84704212948A84702A803A9284B9847B6
S315080030F0039A284B029821469847274C2748A04709
S3150800310027482049A04726482649A04726481B495C
S31508003110A04725481A49A0470121244B4EF66020AE
S3150800312098470121224B0220984701200146214B4E
S315080031309847214B98472148A0472148214B984753
S31508003140214B984705B030BD000000100DF0ADBA10
S31508003150C018002000000008A802000080720000C5
S3150800316000000000155100086D300008852C000885
S31508003170F52D0008C52E0008756D0008F1680008D1
S31508003180A56D0008406D00088B6D00081D690008D4
S315080031906D500008DD5D000809300008AE6D0008B6
S315080031A0B06D0008B86D0008C46D0008D13100087C
S315080031B0D5310008CD310008C91D0008CE6D0008BC
S315080031C0CF6D0008BD2F0008412D0008002070476C
S315080031D00020704700207047826910B52AB18268BE
S315080031E0C06822B1BDE810401047014B984710BD92
S315080031F0C5330008034B1A1D1A6000225A609B60EB
S31508003200704700BF28190020F7B516461F4656EA2C
S315080032100703044601D1174B9847174B6846002108
S315080032209847164BC4E904671D682B461A682AB1E5
S31508003230D3E904018F4208BF864202D2A34202D1D3
S315080032400CE01346F2E76168226801B10A6002B130
S3150800325051605A68626023605C601460AC4203D1B6
S3150800326030463946064B98476846064B984703B09A
S31508003270F0BD00BF552D000891250008281900202B
S31508003280B12D0008C525000870B5144C23681646EC
S315080032901A68254642B1D3E90423994208BF9042E9
S315080032A034BF0324002400E00524E30701D50C4BB2
S315080032B09847F0B2DDE904230A49884714F0060F57
S315080032C00BD0A2072B6802D5D3E9040103E04FF01F
S315080032D0FF304FF6FF71024B984770BD2819002042
S315080032E0B12D00083D0300084268036802B1136067
S315080032F003B15A60002303604360704737B5104B2B
S315080033006846002198470F4B1C6825689DB1102018
S315080033100D4B98470D4B204698472B6813B1D5E9B6
S31508003320040103E04FF0FF304FF6FF71084B984752
S315080033302046084B98476846074B984703B030BD68
S31508003340912500082819002065520008E93200086E
S31508003350B12D0008D9310008C525000873B50F4CF2
S315080033600F4B054600216846984726680D4B2846A8
S315080033709847AE420DD1234653F8042B9A4202D001
S31508003380D2E9040103E04FF0FF304FF6FF71064B18
S3150800339098476846054B984702B070BD2819002023
S315080033A091250008E9320008B12D0008C525000856
S315080033B0034B1A1D1A6000225A609B60704700BFB3
S315080033C034190020836813B50446ABB10B4B684625
S315080033D0002198470A4B63B1A3420AD06168226864
S315080033E001B10A6002B151605A68626023605C608C
S315080033F014606846034B984702B010BD9125000833
S3150800340038190020C5250008002303604360816041
S31508003410C260704710B50468206818B12046024B90
S315080034209847204610BD00BFE932000837B50E4B55
S315080034306846002198470D480D4B984760B1846847
S31508003440C5680C4B684698470CB12846A04768469D
S31508003450094B9847012400E004466846074B9847FD
S31508003460204603B030BD00BF91250008341900205E
S315080034701534000849250008A5250008C5250008B3
S31508003480044B1A1D1A6000225A60DA6001229B60FA
S315080034901A61704740190020F8B5044616461F46BB
S315080034A00D4609B9104B98470CB90F4B984700239E
S315080034B0A560E6602360636017B90C4B2BB911E071
S315080034C02B683046984770B1F7E7A3420AD061687F
S315080034D0226801B10A6002B151605A6862602360CD
S315080034E05C6014600120F8BD552D000844190020C1
S315080034F000232DE9F04703601D4B91461A69824661
S31508003500884612B90020BDE8F0871C68002CF9D05F
S315080035102368002BF6D02046164B9847D0F814E0BF
S315080035200025754521D014276F438369DE19DB59B9
S31508003530434518D8B168726802FB0132904512D229
S31508003540CAF80040C3EB0803B3FBF1F3C9F800302F
S31508003550B1684B43C9F8003032681344C9F80030E3
S315080035600120BDE8F0870135DBE72468D0E700BF16
S315080035704019002085050008044B186920B1186811
S315080035800368002B08BF0020704700BF40190020C1
S31508003590054A0346106928B1186818B10368002B54
S315080035A008BF0020704700BF4019002005C8104416
S315080035B070470000F0B50446406A8BB050B14368C6
S315080035C0002B60D0314EB0476F460546234604F1BE
S315080035D0280E01E0034656E0186859683A4603C2C1
S315080035E0083373451746F7D1A36973B96369002B86
S315080035F03AD1626A50686062002839D04268002A67
S3150800360036D0B047054643692EE0013BA361002347
S315080036106269A969142000FB021213B1D368013B41
S31508003620A361A1690C234B431169CF18C95C2369AF
S315080036309942D9D12B787868116813F0020FE3699B
S3150800364014BF43F0010323F00103E3619368BA68EA
S31508003650E360121A03FB001102FB0333A360002385
S315080036606360216001230EE0013B63610123CFE71C
S315080036706A460AAE154603CDB542206061602A4601
S3150800368004F10804F6D118460BB0F0BD850500080C
S315080036902DE9F04700241460D0F814809A46444572
S315080036A02CD0142565438669771976598E4223D816
S315080036B0D7F808C07D6805FB0C65A9421CD23D6990
S315080036C0D7F80C906B684FF0000E03FB0C66CE45DE
S315080036D012D0AF686B68FF1A07FB0CC73E44B142AD
S315080036E005F10C0505D214600120CAF800E0BDE812
S315080036F0F0870EF1010EEAE70134D0E70020BDE8B5
S31508003700F0872DE9F0471E68DDF820E014279C466F
S31508003710774343699E422AD28469DEF800303C44E6
S315080037200C25D4F80C905D434B451ADAD4F8108072
S3150800373008EB050A18F8058088450DD1A068DAF85F
S315080037400450216805FB001111600120CCF80060C7
S31508003750CEF80030BDE8F0870C350029EED00133ED
S31508003760E2E70023CEF8003001361437D1E700200F
S31508003770BDE8F087F0B5456A8DB00446034602AE4B
S3150800378000F1280718685968324603C20833BB4255
S315080037901646F7D135B9334B9847606218B30368B4
S315080037A043B920E0A3690133A361606A80B1036865
S315080037B0DBB90DE02C4B9847037813F0020FE36949
S315080037C002D043F0010301E023F00103E361ECE7D3
S315080037D002AA0CAD134603CBAB42206061601A46C1
S315080037E004F10804F6D1002039E026691E4DA847E1
S315080037F004F1180300933146224604F114031B4EC4
S31508003800B047C8B1606AA84763698269142101FB99
S3150800381003210023A269086963600C235A438518AB
S315080038208968AB686D68E1605B1B03FB0113A360E5
S31508003830835C2362012012E0636A18686062036889
S3150800384053B1A847037813F0020FE36914BF43F096
S31508003850010323F00103E36100236361A4E70DB0CC
S31508003860F0BD00BF79350008850500080337000854
S31508003870134BDB6870B504460E461546D3B10021D6
S315080038802822104B9847266185B12B6873B14FF0F3
S31508003890FF33A36165620C4B28469847037813F0FB
S315080038A0020FE36908D043F00103E3612046074BA2
S315080038B0984770BD184670BD23F00103F5E700BFB1
S315080038C040190020DD5D00088505000875370008E9
S315080038D008B50022014B984708BD00BF713800089B
S315080038E02DE9F0470446406A8846164610B9002076
S315080038F0BDE8F0870368002BF9D00029F7D01F4BE5
S315080039009847D8F8007082464FF00009002E31D04B
S315080039106268A3689A4206D06368A568F218AA4244
S3150800392007D8354606E02046154B98470028F3D1B8
S31508003930DDE7ED1A9AF80020920709D5B9F1000FCC
S3150800394012D121681944C8F800104FF001090BE09C
S31508003950626A216890681944D0F80CC0D0683B4662
S315080039602A46E0470028C2D06368761B2F441D44C8
S315080039706560CBE70120BDE8F08700BF8505000834
S3150800398075370008012A38B5054604D005D3022A3A
S315080039902ED1846802E0446800E0002401F1004367
S315080039A00233012B0ED8EA68B4FBF2F36FF000403D
S315080039B0814202FB134301D1D11A03E00BB15942EC
S315080039C000E051420C44AB689C420CDBE41A2846E2
S315080039D0084B98470028F6D10AE02846064B984730
S315080039E030B1AB681C44002CF7DB6C60012038BD95
S315080039F0002038BD75370008B5350008F7B5089DAD
S31508003A00002414601C602C600095024CA04703B08B
S31508003A10F0BD00BF03370008F0B51A4E346887B00A
S31508003A201CB91948194B984703E0F3680BB90125E7
S31508003A3015E0002023E0A368E0681B68984790B16A
S31508003A40003518BF0125124B124F2046984704AB84
S31508003A500093302105AA03ABB84730B92468236818
S31508003A60002BE8D107E00546EDE7F368002BE0D127
S31508003A70044BDC60F2E7F368002BDAD0284607B07F
S31508003A80F0BD00BF401900202A6E0008BD2F0008AF
S31508003A9085050008FD3900080120704700F47F43BA
S31508003AA0B3F5007F37B5044619D00ED8B3F5807F35
S31508003AB02CD1012300930022164B0192C0B219693A
S31508003AC0154C08230138A04721E0B3F5407F18D0EC
S31508003AD0B3F5006F1AD1C0B20138104B14E0C0F329
S31508003AE04215284600210E4B984778B928460D4BB3
S31508003AF0984758B1E0B2012102220B4B013898478A
S31508003B0005E0C0B2094B0138984700E0002003B031
S31508003B1030BD00BF88010020253E0008893D000809
S31508003B20FD480008554A0008893F00085153000817
S31508003B3000F47F43B3F5007F10B5044611D006D8CC
S31508003B40B3F5807F1AD1C0B201380D4B14E0B3F536
S31508003B50407F0ED0B3F5006F10D1C0B20138094BC3
S31508003B600AE0C0B2084B01389847C4F34210074B25
S31508003B7002E0C0B2064B0138984710BD002010BDC0
S31508003B80293E0008A93D000819400008D140000850
S31508003B90555300082DE9F04703F1010A04460F467C
S31508003BA0154600F47F49D046002615B93046BDE8CB
S31508003BB0F087B8F1000FF9DDB9F5007F17D008D8FE
S31508003BC0B9F5807F22D1E0B2013839462A461A4B28
S31508003BD018E0B9F5407F10D0B9F5006F16D1E0B2FC
S31508003BE039462A46154B01389847BDE8F087E0B2B2
S31508003BF0013839462A46124B04E0E0B2114B013827
S31508003C0039462A4698470028D0DB0FD100200E4BAC
S31508003C1008F1FF3898470028C8D0B8F1000FC5D07A
S31508003C2000210122094B20209847BEE72D1A074498
S31508003C300644D046B9E700BF2D3E0008C93D000836
S31508003C404D4C0008595300086D2500089D52000880
S31508003C5008B500F47F43B3F5007F11D006D8B3F555
S31508003C60807F16D1C0B201380B4B10E0B3F5407F08
S31508003C700AD0B3F5006F0CD1C0B20138074B06E085
S31508003C80C0B20138064B02E0C0B2064B013898476D
S31508003C9008BD002008BD00BF313E0008E53D00080C
S31508003CA0E94D00085D53000808B500F47F43B3F5F5
S31508003CB0007F11D006D8B3F5807F16D1C0B201387F
S31508003CC00B4B10E0B3F5407F0AD0B3F5006F0CD16B
S31508003CD0C0B20138074B06E0C0B20138064B02E015
S31508003CE0C0B2064B0138984708BD002008BD00BF82
S31508003CF0353E0008013E0008054F000861530008DC
S31508003D0000F47F43B3F5007F13B519D00ED8B3F589
S31508003D10807F1DD10123009300220E4B0192C0B271
S31508003D2019690D4C08230138A04711E0B3F5407F07
S31508003D300AD0B3F5006F0BD1C0B20138074B06E0C5
S31508003D40C0B20138064B02E0C0B2064B01389847AC
S31508003D5002B010BD88010020253E0008893D0008F4
S31508003D60554A00085153000838B5044D044CE86814
S31508003D70A0476869A047034B984738BD88010020CB
S31508003D80013D00084D530008002807DC054B53F891
S31508003D90202013681B681BB150681847002070471D
S31508003DA001207047246F0008002807DC054B53F8EC
S31508003DB0202013685B681BB15068184700207047BD
S31508003DC001207047246F0008002807DC044B53F8CD
S31508003DD0200003689B680BB14068184700207047AD
S31508003DE0246F0008002807DC044B53F820000368FA
S31508003DF0DB680BB94068184700207047246F000835
S31508003E00002807DC054B53F8202013681B691BB1F3
S31508003E10506818470020704701207047246F000833
S31508003E200020704701207047012070470020704726
S31508003E30002070470120704738B5B0F8643090F814
S31508003E40475004469D4228BF1D46216E0F4B006C05
S31508003E502A469847236EB4F8642084F844502B44C5
S31508003E60236694F847309D4208BFB4F86630A9B275
S31508003E700CBF5B1A0023A4F86630B4F86630521AF1
S31508003E80A4F8642003B1024BE36538BD915D0008D0
S31508003E90393E000873B5394B0546C0F342100C4647
S31508003EA016469847014658B30068002864D005F0BE
S31508003EB01F05032D2EDCFF2E02D1FF2C05D129E08C
S31508003EC0731E022B26D8FF2C02D0631E022B21D884
S31508003ED001EB450595F83830FF2B1BD195F839309D
S31508003EE0FF2B17D1FF2E04D0331D51F8233053B9B9
S31508003EF007E0FF2C17D0231D51F82330CBBB00E079
S31508003F003AE0184638E0FF2CF5D106F10A0351F8D5
S31508003F1023300BB100202FE0FF2C04D004F10A0354
S31508003F2051F8230040B301F10803FF2E07D091F89A
S31508003F303820B242EED091F83920B242EAD0FF2CAE
S31508003F4007D091F83820A242E4D091F83920A2424D
S31508003F50E0D002319942E8D10021094B68469847DA
S31508003F6085F8386085F839406846064B9847012039
S31508003F7002E0FF2EC9D1D1E702B070BDA9580008EA
S31508003F8091250008C525000808B5014B984708BDC6
S31508003F90953E000837B51D4B0446C0F342109847B6
S31508003FA0054670B3006870B304F01F04032C29DCBF
S31508003FB0174B68460021984705EB440090F83830BF
S31508003FC0FF2B07D0043355F823301BB100221A60A3
S31508003FD05A609A60FF2380F8383090F83930FF2B02
S31508003FE007D0043355F823301BB100221A605A60F3
S31508003FF09A60FF2380F839306846064B98470120B7
S3150800400001E000E0002003B030BD00BFA958000859
S3150800401091250008C525000808B5014B984708BD35
S31508004020953F0008F7B5224B0646984705460028EF
S3150800403039D0684600211F4B98472C687CB31E4B25
S31508004040586800F47F41C0F34214C0B201382B46C9
S315080040500022B1F5007F03D1A64201D1824207D0E2
S3150800406093F83870FF2F19D193F83970FF2F15D1AF
S315080040700132042A03F10203EBD1B1F5007F03D123
S31508004080A64201D10D4B984700232B6030460C4BB6
S3150800409098470C480C4B9847012400E000246846D2
S315080040A00A4B984700E00446204603B0F0BD00BF1F
S315080040B0A958000891250008880100201940000821
S315080040C08D5A0008A0860100D9010008C5250008F8
S315080040D008B5014B984708BD2540000837B50D4B74
S315080040E004460D4668460021984720460A4B9847DD
S315080040F048B1846845EA04018C42816004D00420F2
S31508004100064B984700E004466846054B9847204604
S3150800411003B030BD91250008A9580008655200086B
S31508004120C525000808B5014B984708BDDD400008BD
S3150800413037B50D4B04460D4668460021984720467C
S315080041400A4B984740B1846824EA0501816021B981
S315080041500420074B984700E004466846054B9847F5
S31508004160204603B030BD00BF91250008A9580008B5
S3150800417089520008C525000808B5014B984708BDAF
S3150800418031410008F7B5194B0D460446002168462B
S31508004190174698470DB99FB91AE004F10C06002591
S315080041A056F8043F43B1B26932B91A605A609A6048
S315080041B0204629460E4B98470135042DF0D1EAE7EB
S315080041C004F10C031C3453F8042F32B9A342FAD174
S315080041D06846084B984703B0F0BD99690029F5D0A1
S315080041E00021116051609160F0E700BF9125000839
S315080041F051590008C525000810B5037990F84620DE
S315080042009A4204461DD0052B03D101210A460D4BBF
S31508004210984794F846302371062B10D8DFE803F048
S3150800422004111111110911000023A4F86430E36583
S3150800423010BD204601210022024B984710BD024BB3
S31508004240984710BD85410008552D00084B8882B057
S315080042506BBBCB88022B2AD190F84620032A26D09E
S315080042600B7803F00F03012B06D002D3022B08D0DC
S315080042701DE000F1500312E0052A18D10DF10603DE
S315080042800DE0042A8B8800D18BB903F07F038B805D
S3150800429090F858209A420AD9426D02EB4303036606
S315080042A00223A0F86430034BC365002000E0012018
S315080042B002B07047393E00084B887F2B10B504467C
S315080042C019D88A88BAB9CA88AAB990F84620042A99
S315080042D011D880F845300BB9032300E0042384F88D
S315080042E046302046054B98470023A4F86430044B13
S315080042F0E365032010BD012010BD00BFF941000889
S31508004300393E000810B54B889BB98C888CB9CA8889
S31508004310012A0ED190F8461003290AD000F1480365
S315080043200366054BA0F86420A0F86620C3652046FE
S3150800433010BD012010BD00BF393E000838B58B8876
S3150800434004461546D3B9CB88C3B990F84630032B33
S3150800435014D04B88012B11D880F848300BB90423A8
S3150800436000E0052384F846302046064B98473DB1C1
S315080043700023A4F86430044BE36501E0012038BD4E
S31508004380052038BDF9410008393E0008C06830B537
S3150800439028B930BD09D82BB38B4209D020460378FB
S315080043A04488032B0444F5D103E0FF2B09D019E018
S315080043B030BD0329F2D153884578DBB29D42EDD151
S315080043C030BD057913789D42E8D1457953789D42E9
S315080043D0E4D1C58853889D42E0D1058993889D42DA
S315080043E0DCD130BD002030BD10B5CB8804460A4666
S315080043F0002B38D190F84630052B34D10B7813F0C2
S315080044000F0302D0022B12D02DE04B88012B2AD1A4
S315080044100221164B984730B3C37A9B0623D5B4F8C6
S31508004420503023F00203A4F85030062015E08B889C
S3150800443003F07F038B80B3B190F85810994212D9D4
S31508004440518881B9406D30F8131021F0010120F828
S315080044501310938884F8593004200023A4F8643094
S31508004460034BE36510BD012010BD00BF8D43000856
S31508004470393E000810B5CB8804460A46002B3CD1C5
S3150800448090F84610032938D0137813F00F0302D09A
S31508004490022B11D031E05388012B2ED10221184B63
S315080044A0984750B3C37A9B0620D5B4F8503043F0EA
S315080044B00203A4F8503019E00429938800D1E3B91F
S315080044C003F07F039380C3B194F85810994214D926
S315080044D0518891B9606D30F8131041F0010120F848
S315080044E01310938884F85930042000E0062000232E
S315080044F0A4F86430034BE36510BD012010BD00BF6E
S315080045008D430008393E000838B5CA884B88A0F89C
S31508004510662004460D46104622B9344BA4F864209A
S31508004520E36538BD94F84620032A0AD8E26C42B1FE
S315080045300022E26494F84720904228BF1046A4F867
S31508004540660000222266A4F864206A78062A33D117
S31508004550190A022905D003290CD001292CD1204695
S315080045601CE020462A46224B984728B3031D23669B
S31508004570C2881AE013F0FF0307D11E4B2366B4F86E
S315080045806630042B28BF042314E0052B04D11A4BEC
S315080045901A780AB1236608E0204603212A46144BF6
S315080045A0984748B1031D23660279B4F866309342EA
S315080045B028BF1346A4F86430236E8BB92046FF2122
S315080045C02A460B4B984778B100F10A0323664388BD
S315080045D0B4F866200A3B9A4228BF9AB2A4F8642027
S315080045E0024BE365002038BD012038BD393E00087E
S315080045F08D430008B00100205419002008B590F832
S315080046004430DBB1016C4B78092B15D8DFE803F091
S315080046100507140A140C14140E10094B00E0094B74
S31508004620984708BD084BFBE7084BF9E7084BF7E73F
S315080046300122084B984708BD074BF1E7022008BD41
S315080046404D420008E943000875440008B9420008CD
S31508004650054300083D43000809450008F0B5002257
S315080046608DB004A90023535401321F2AF9D101AE93
S31508004670FF229A5501330A2BF9D1002214460378F2
S315080046804188022B00EB01052FD003D84BB1012B33
S315080046900DD0DCE0032B00F09B80FF2B00F0A180FF
S315080046A0D5E0002C00F0BB8082F00100D0E0002CA1
S315080046B040F0B780162940F0B6800379122B40F0F7
S315080046C0B2804379012B40F0B080C37A082B06D01C
S315080046D0102B04D0202B02D0402B40F0A880447D1C
S315080046E0012C40F0A6802846C9E7002A40F0A3809E
S315080046F00279092A01D00820AAE0C388043399421E
S31508004700F9D14379022B40F09880077A002F00F000
S315080047109680437A012B00F29480C37A03F08F03C4
S31508004720802B40F0908000F10D035A78042A69D155
S315080047301A78092A68D1DA78002A67D119790029FE
S3150800474066D0B05C93F802E0FF2803D0864503D014
S315080047500132F6E7002000E01A200DF1300C624421
S3150800476002F82CEC03F109025378052B02D01378D2
S315080047701A44F9E7C1EBC10153189A4221D051787E
S31508004780052935D11178072934D1917801F07F01AF
S3150800479001391E2930D892F803E01EF0030F2DD0F8
S315080047A01EF0C00F2AD10DF1300E714411F820EC1D
S315080047B0BEF1000F24D14FF0010E01F820EC0732AC
S315080047C0DBE7013FFFB2002842D1002FADD121E03F
S315080047D003790433994238D14379032B83D01520C2
S315080047E036E090F90430002BFFF67DAF16202FE057
S315080047F012202DE011202BE0182029E0132027E0B5
S31508004800192025E00E2023E00D2021E00F201FE0CF
S3150800481010201DE0AA427FF46EAF012263E7012053
S3150800482016E0022014E0032012E0042010E0052020
S315080048300EE006200CE007200AE0104608E00A20F1
S3150800484006E00B2004E00C2002E0142000E017200C
S315080048500DB0F0BD0928F7B503460D463DDC00222C
S315080048608DF8042055228DF80020313353228DF817
S3150800487001208DF803304222194B8DF80220984703
S31508004880074650B3174C184B002D08BF2546284637
S31508004890984718BBA54226461DD02B461A781AB14A
S315080048A05A8810441344F9E7041D294668462246E7
S315080048B00123DFF844C0E047F868B04201D00B4B4B
S315080048C098470B4B204698472946F8602246094BDD
S315080048D09847002002E0FD6000E01C2003B0F0BD10
S315080048E0A9580008286F00085D460008BD1D000885
S315080048F0B11D0008915D0008114F000808B5014B6D
S31508004900984708BD55480008F0B5454B8BB0054695
S31508004910984700210446434B684698470CB900243B
S3150800492078E023686BB1404B5B6803F47F42B2F5CD
S31508004930007F06D1C3F342139D4202D128463B4B62
S315080049409847E16811B92846394B984702AE2022A4
S315080049503848394B31469847384A88B111460023BA
S31508004960F05C88700027CF7020B10133202B01F14D
S315080049700201F5D15B00023313700323537000E084
S3150800498010700221204600222D4B984721680646C2
S315080049900029C4D10028C2D02A4BE76820466822DD
S315080049A09847FF23E76084F8383084F8393084F86C
S315080049B03A3084F83B3084F83C3084F83D3084F84B
S315080049C03E3084F83F3065712371F37A13F0400F57
S315080049D0B4F8503014BF43F0010323F00103A4F8E0
S315080049E050302846184B9847002898D10E4B5868DF
S315080049F000F47F43B3F5007F09D1C0F342139D420B
S31508004A0005D1C0B2013801210222104B9847012373
S31508004A1023601C4668460E4B984720460BB0F0BDEF
S31508004A20A95800089125000888010020254000089B
S31508004A30554800085B6E0008154F000854190020F9
S31508004A408D430008DD5D0008BD5A0008893F00084F
S31508004A50C525000808B5014B984708BD094900084F
S31508004A6038B50C461546022100221D4B984708B951
S31508004A70002038BD438800F10D011844236813B996
S31508004A8021602B6016E08B42F2D98342F0D22A6865
S31508004A908A42EDD38242EBD259780529E8D11978B2
S31508004AA00729E5D151780429E2D11278092ADFD1FC
S31508004AB007330CE023688342DAD25A78042A08D1ED
S31508004AC01A78092A00D12B602268137813442360C8
S31508004AD0F0E7052AF8D11B78072BF5D1012038BD58
S31508004AE08D430008036881685A1C082A08BF0022FB
S31508004AF061B9416802608A4208BF01214FF0440249
S31508004B0008BF816002FB03000C3070470020704725
S31508004B102DE9F04F424B85B000F01F06C0F3421056
S31508004B208946144698470546002873D0032E71DC3B
S31508004B30002C6DD0B9F1000F6CD090F84630052BDB
S31508004B4068D100EB460696F83970FF2F62D000EB65
S31508004B50870BDBF81030002B5CD002A80021314B04
S31508004B6098470026A046B2462F4BDBF81000984718
S31508004B700346D8B1EA19009292F82460464528BF40
S31508004B8046463EB1043049463246DFF8BCC001937A
S31508004B90E047019B009A92F824201E609642C6EBD5
S31508004BA00808B144B24426D30026DDE70136642E50
S31508004BB007D9A04527D1DBF8102010605060906017
S31508004BC021E00120194B9847E8B902A8184B9847E5
S31508004BD0C8B995F84630052B15D139462846154BE0
S31508004BE0984702A8144B98473220144B984702A8B6
S31508004BF0134B9847B8E795F84630052B03D1284656
S31508004C0039460C4B984702A80E4B9847504603E086
S31508004C10204601E04FF0FF3005B0BDE8F08F00BF39
S31508004C20A958000891250008E54A000855300008EB
S31508004C3041250008B9580008492500088D2E0008A6
S31508004C40A5250008C5250008915D000808B5014B93
S31508004C50984708BD114B00082DE9F0410D469046CE
S31508004C60064608B1032901DD0C4B984706EB850477
S31508004C7023690BB1A36A0BB1084B98472069084B07
S31508004C80984723699B68C8F8003001210746A94060
S31508004C907079044B98473846BDE8F081552D0008D1
S31508004CA0E54A000825410008426803689A4201D18E
S31508004CB083685BB1531C082B08BF0023436000239D
S31508004CC08360442303FB02000C3070471846704784
S31508004CD02DE9F04F87B0C0F34213019300F01F048B
S31508004CE018463A4B02928B4698470746002834D016
S31508004CF0032C34DC90F84630052B30D11C3410F8E0
S31508004D001480B8F1FF0F2AD000EB880ADAF81040B1
S31508004D10002C56D004A800212D4B98470024DDF816
S31508004D2008C02546029B9C4213D2D5B9DAF8101062
S31508004D3091E80500904201D1886820B1442505FB19
S31508004D4002150C350DE001210198224B01FA08F1F4
S31508004D50984704A8204B984733E0044631E00024DE
S31508004D602FE007EB08092E6899F820101B4BCDF8A1
S31508004D700CC0761A664528BF66462944584604314B
S31508004D803246984799F82020DDF80CC03244D2B252
S31508004D9089F8202029688A42B3443444C6EB0C0CAF
S31508004DA0C0D1002589F820500D4ADAF81000CDF850
S31508004DB00CC09047384641460A4A9047DDF80CC071
S31508004DC0B0E7204607B0BDE8F08F00BFA958000835
S31508004DD09125000879410008C5250008915D00085D
S31508004DE0A94C00085159000808B5014B984708BD59
S31508004DF0D14C000870B50E461546044608B103297D
S31508004E0001DD0E4B984704EB860423690BB1A36AB0
S31508004E100BB90A4B98471DB12069094B984770BDD5
S31508004E20226992E80A00994201D1916821B1442089
S31508004E3000FB03200C3070BD284670BD552D0008B8
S31508004E40A94C000890E80C009A4203D202F1080027
S31508004E50C01A7047816809B9D01A70470820704788
S31508004E602DE9F84300F01F05224BC0F3421098477E
S31508004E70044630B3032D24DC90F84630052B1DD1AB
S31508004E8000EB450595F83970FF2F1AD000EB870817
S31508004E90D8F8100060B3184EB0474FF47A758146BB
S31508004EA0D8F8103093E8060091420DD19A685AB99D
S31508004EB0002D03DC00221A605A609A600120BDE8C2
S31508004EC0F8830020BDE8F883002DF3DD39460B4B47
S31508004ED02046984764200A4B9847D8F81000B047F0
S31508004EE081450CBF05F1FF354FF47A758146D7E742
S31508004EF0BDE8F883A9580008454E0008B9580008C7
S31508004F008D2E000808B5014B984708BD614E00086C
S31508004F100020704700207047054B81601860002309
S31508004F2003604360034BC360034B0361704700BFD4
S31508004F30A0190020EFBEADDE0DF0B1BA70B504467B
S31508004F4000283ED01F4B50F8041C9942A0F11406C5
S31508004F501D4606D01C4B1D4854F80C2C98471C4B74
S31508004F60984754F80C2CB31853F8041CA94204D0DB
S31508004F70154B18489847164B984754F8143C164A48
S31508004F8044F8082C6BB1D96891420AD1996854F84B
S31508004F900C0C1B6844F8143C014444F80C1C03B17F
S31508004FA05E6054F8103C63B1D968914209D154F84F
S31508004FB00C2C99680A449A6054F8142C1A6002B1A9
S31508004FC0536070BD0DF0B1BA15510008896E00081E
S31508004FD0E0720008C76E0008EFBEADDE184B10B5CC
S31508004FE01B301C6820F003012CB3E268154B9A426B
S31508004FF014D1A2688A4211D301F1280082422346BD
S315080050000ED9521A14441A6884E80C001C6002B1BE
S315080050105460A1609868411A996001E02468E3E742
S31508005020094BE360A368094A2261234404F114008A
S3150800503043F8042C10BD064B06489847204610BD79
S31508005040A0190020EFBEADDE5EBEADDE0DF0B1BA32
S3150800505015510008056F0008024A034B02609B1AA7
S315080050600B6070476022002064320020024A034B1E
S3150800507002609B1A0B6070470080002004F0012034
S315080050807047000030B50C46ADF5017D1346054660
S3150800509022466846144C4FF40071A04705F47F4336
S315080050A0B3F5A06F044612D0B3F5C06F06D02846F4
S315080050B06946224600230D4DA84711E00C4B1B6894
S315080050C073B100220DF800206846984708E00025CD
S315080050D0A54205DA1DF80500064B98470135F7E79E
S315080050E020460DF5017D30BD655E0008953B00083C
S315080050F0A41900204552000808B50A460349034684
S3150800510048691946024B984708BD00BF8801002028
S31508005110855000080FB407B504A9054B51F8040BD0
S315080051200191984703B05DF804EB04B0704700BFDF
S31508005130F95000080EB403B503AA054B52F8041B30
S315080051400192984702B05DF804EB03B0704700BFC0
S315080051508550000810B5014CA04710BD655E0008D3
S3150800516038B578B172B169B15C1CA1424FF0000440
S3150800517001D2047006E0C45411461A46024B9847F9
S31508005180204638BD012038BDED5D0008034613F8FA
S31508005190012B002AFBD1181A01387047704770474F
S315080051A00120704770474FF04A4070474FF04A4019
S315080051B070474FF07740704708B50248024B98474A
S315080051C008BD00BFB01A0020D15100080000000039
S315080051D02DE97043124E33680446CBB901254FF0CA
S315080051E000084FF000098561C561C0E9088904F126
S315080051F020020C4B183004F11C01984706A3D3E98A
S315080052000023C4E90289C4E90423C4E900233560FC
S315080052100020BDE8708300BF000095D9EE1FCC01C1
S31508005220A8190020B32E00084FF04A407047012005
S315080052307047012070470120704701207047012000
S31508005240704770477047000008B50448044B0021B2
S315080052500160416020309847012008BDD81A002017
S31508005260AB72000810B5064C064B014604F1200047
S315080052709847636A1BB1A06ABDE81040184710BD7D
S31508005280D81A0020BB72000808B5C143014B024872
S31508005290984708BD95720008F81A00202DE9FF47BF
S315080052A01F4B204C81461046884698471E4B06469B
S315080052B00F4602A800219847A04736184F410125F6
S315080052C0A2461A4B1B6A18EA030421D1D047B942F1
S315080052D008BFB0421CD26DB10220154B984748B999
S315080052E002A8144B9847144B9847144B054602A836
S315080052F09847E6E700230193304639464A46104B5D
S31508005300CDF80080984702A80E4B98470125D8E7A4
S3150800531002A80D4B9847204604B0BDE8F08700BFA9
S31508005320592D0008B501000891250008D81A002053
S3150800533055300008492500082D340008A525000821
S315080053408932000859250008C5250008012070473C
S3150800535001207047012070470020704700207047E1
S315080053600020704710B50349034A044C044800233B
S31508005370A04710BDDC010020100200209934000867
S315080053804822002030B58818814213D04FF0604378
S3150800539011F8014BD3F8805EED07F5D5D3F8003E3A
S315080053A0DB07F1D54FF060431D680DB900BFF9E77B
S315080053B01C70E9E7104630BD0120704708B5074B59
S315080053C053221A6091F8463081F8B230062381F8E4
S315080053D046300846024B984708BD00BF081B002008
S315080053E0F941000808B5084B52221A60D0F804386B
S315080053F023F00103C0F8043891F8B23081F846303A
S315080054000846024B984708BD081B0020F9410008CA
S31508005410F8B5474B21221A604FF0FF33436140230A
S3150800542043624FF0401383620D46002395F85810E7
S315080054309A1C8B424FEA821214DA03F1400142F4B5
S31508005440800240F8212000EB4312FF21C2F8081918
S31508005450C2F8081B4FF08041C2F800190133C2F8A0
S31508005460001BE3E74FF4866303614FF40043C0F87B
S315080054700039B5F8B040C0F8003B0023C0F8103931
S315080054804FF0C043C0F8103BA41005F12C0E0227BC
S3150800549001224FF0011164B314F0030323D0AE18B0
S315080054A096F824C0DEF800604CEA83435EB19605A0
S315080054B046F0C05646F40046334302F148067601E4
S315080054C0394383510FE04CF4002600EB421C43F0AD
S315080054D01443CCF8106B02F15806760143F40043E6
S315080054E0835141EA07410132A4087F000EF1040EF8
