S315080000000CE000201D00000831000008310000083F
S3150800001031000008310000083100000800F060BE19
S31508000020DFF808D000F0BFFE00F03CBFF83F001034
S31508000030FEE76E2900F0A282702900F0F383662994
S31508000040AFF300806529AFF300806729AFF300801E
S315080000506129AFF3008003681B0A28BF41F08001BD
S31508000060692900F05182642900F04E82752900F052
S315080000704B826F2900F07E83782900F0BF83E92937
S3150800008000F01683E42900F01383F52900F01083A5
S31508000090EF2900F07B83F82900F0BE830368DB09AB
S315080000A028BF41F08001632900F07C85732900F0A0
S315080000B08185E32900F08C85F32900F091850020DD
S315080000C07047000040BA7047C0BA704700BEFEE7E6
S315080000D0704770477CB515461A460C00009001D04B
S315080000E02044401E074B7B4469460190284600F091
S315080000F060FA05461CB10020694600F06DFA2846EC
S315080001007CBD0000F904000040EA010310B59B0716
S315080001100AD1042A08D310C808C9121F9C42F8D06D
S3150800012020BA19BA401A10BD1AB1D30703D0521C07
S3150800013007E0002010BD10F8013B11F8014B1B1B0E
S3150800014007D110F8013B11F8014B1B1B01D1921E78
S31508000150F1D1184610BD032A40F2308010F0030C86
S3150800016000F0158011F8013BBCF1020F624498BFFC
S3150800017011F801CB00F8013B38BF11F8013BA2F199
S31508000180040298BF00F801CB38BF00F8013B11F014
S31508000190030300F06780083AC0F0088051F8043B72
S315080001A0083A51F804CBA0E80810F5E7121D5CBF21
S315080001B051F8043B40F8043BAFF30080D20724BF54
S315080001C011F8013B11F801CB48BF11F8012B24BFE8
S315080001D000F8013B00F801CB48BF00F8012B704737
S315080001E0431A28BF9A427FF6B6AF032A1044114431
S315080001F040F2268010F0030F1EBF11F8013D521E73
S3150800020000F8013D10F0030F7FF4F6AF11F0030379
S3150800021000F0F583083AC0F00B8051F8043D083A1F
S3150800022051F804CD40F8043D40F804CDFFF7F3BF7C
S31508000230121D5CBF51F8043D40F8043DAFF3008041
S31508000240D20724BF11F8013D11F801CD48BF11F8B6
S31508000250012C24BF00F8013D00F801CD48BF00F885
S31508000260012C704710B5203AC0F00B80B1E8185041
S31508000270203AA0E81850B1E81850A0E81850BFF482
S31508000280F5AF5FEA027C24BFB1E81850A0E8185021
S3150800029044BF18C918C0BDE810405FEA827C24BF75
S315080002A051F8043B40F8043B08BF7047D20728BF03
S315080002B031F8023B48BF11F8012B28BF20F8023B52
S315080002C048BF00F8012B704702F0FF0343EA0322F8
S315080002D042EA024200F002B84FF000020429C0F0D8
S315080002E0128010F0030C00F01B80CCF1040CBCF15A
S315080002F0020F18BF00F8012BA8BF20F8022BA1EBAC
S315080003000C0100F00DB85FEAC17C24BF00F8012B90
S3150800031000F8012B48BF00F8012B70474FF0000288
S3150800032000B5134694469646203922BFA0E80C50DD
S31508000330A0E80C50B1F12001BFF4F7AF090728BFB8
S31508000340A0E80C5048BF0CC05DF804EB890028BF34
S3150800035040F8042B08BF704748BF20F8022B11F05D
S31508000360804F18BF00F8012B704710B5044610F0EF
S31508000370030F08BF11F0030F40F015804FF0013E40
S31508000380121FC0F20E8051F8043BA3EB0E0C2CEAA8
S31508000390030C1CEACE1C08BF40F8043BF0D0A1F1C0
S315080003A0040102F10402521E08DB11F8013B002B7E
S315080003B000F8013BF7D11146FFF78EFF204610BD26
S315080003C04FF0013C50F8042B51F8043B9A4221D1D6
S315080003D0A2EB0C03934313EACC1317D150F8042B62
S315080003E051F8043B9A4215D1A2EB0C03934313EA46
S315080003F0CC130BD150F8042B51F8043B9A4209D17F
S31508000400A2EB0C03934313EACC13DBD04FF00000A6
S31508000410704700BFD01A01BAB1FA81F101F018018C
S3150800042022FA01F0CB40C1F12001DBB2C0B2C01AFA
S315080004302CFA01F3D11A914311EAC311E6D1704798
S3150800044070B50446856900683026C10600D42026A2
S31508000450C00708D070BDD4E9012130469047206A0C
S3150800046000F1010020626D1EF5D570BD70B5044619
S3150800047085690068C00708D170BDD4E9012120202C
S315080004809047206A00F1010020626D1EF5D570BD07
S3150800049009684A0501D540B27047C905FCD500B2BE
S315080004A0704709684A0501D5C0B27047C905FCD529
S315080004B080B2704770B505460C46012A05D02868F3
S315080004C0800600D5EA69002302E0012305E05B1CEB
S315080004D0934202D2E05C0028F9D1A869E618C01A4E
S315080004E0A861286A184428622846FFF7A9FF04E08D
S315080004F0D5E9012114F8010B9047B442F8D32846F0
S31508000500FFF7B4FF70BD00002DE9F04180460026D4
S3150800051010687529414615A512D0FFF7B9FF0028BE
S3150800052003DAC0F1000012A508E0D8F800108A071F
S3150800053001D510A502E0490704D50FA5012601E05B
S31508000540FFF7AFFF002408F1240704E000F06CFB76
S3150800055030313955641C0028F8D133462A462146DD
S315080005604046BDE8F04100F0B9BA000000000000BE
S315080005702D0000002B000000200000001168026812
S31508000580006A530501D508700BE0D30501D508802C
S3150800059007E0130603D5C217C1E9000201E05206B7
S315080005A0086001207047000001694A1C026108784A
S315080005B0704700B58FB0CDE9013100210591054995
S315080005C07944CDE903101146684600F037F90FB0B3
S315080005D000BD0000E5FFFFFF0A6802F8010B0A608C
S315080005E07047D1E900239A4202D2531C0B6010705F
S315080005F0704700002DE9FF5F04468A461546DFF876
S31508000600AC80F8440027D8E900103E46CDE9001032
S3150800061011E03AF816106A4602A800F0E5FA411CFD
S3150800062007D02168890603D5E269391891420ED8A0
S31508000630074406F101062068800602D5E069B8423B
S3150800064005DDAE42E5DB3AF816000028E1D1A069DF
S31508000650C01BA0612046FFF7F3FED8E90010CDE9DC
S315080006600010002016E03AF818106A4602A800F0B2
S31508000670BBFA8146401C0BD000250DF1080B05E09E
S31508000680D4E901211BF8050090476D1C4D45F7D3A9
S3150800069008F10100B0428046E5DB206A3844206252
S315080006A02046FFF7E3FEBDE8FF9F00001A72000030
S315080006B02DE9F0418046D21D22F007020026D2E934
S315080006C00002F52914A512D0002A06DA0023D0EB79
S315080006D0030063EB020211A508E0D8F800108B07A7
S315080006E001D50FA502E0490701D50EA50126114639
S315080006F0002408F1240704E000F0ABF930323A553B
S31508000700641C50EA0102F7D133462A462146404680
S31508000710BDE8F04100F0E2B9000000002D0000003D
S315080007202B0000002000000030B4002100F1240452
S315080007300CE002F0070505F130054FEAD20242EA5D
S315080007404372655401F101014FEAD30352EA0305E6
S31508000750EFD10468002310A2250708D504F0200469
S315080007600C4304D0C46901230CA2641EC46130BCC6
S3150800077000F0B4B910B5044621461068FFF791FE9B
S3150800078002462046BDE810400023CDE7D21D22F0E0
S315080007900701D1E90023C7E7000000003000000088
S315080007A0F0B40F460168090502D5234C7C4402E0E3
S315080007B0214C7C440E34002100F124050BE002F0A4
S315080007C00F064FEA1212A65D42EA03724FEA1313A6
S315080007D06E5401F1010152EA0306F0D1224604687B
S315080007E00023240704D5702F05D009B1113202233E
S315080007F0F0BC00F073B910320123F9E770B504466E
S315080008000D4621461068FFF74CFE0246294620464B
S31508000810BDE870400023C3E7D21D22F00703D3E9E1
S315080008200023BDE70368126843F02003036008232A
S31508000830C3610023B4E70000787000002DE9F05F7B
S315080008404FF0000B054689464FF0010AC0F820B064
S315080008502846E968884798B3252806D0D5E90121AE
S315080008609047286A401C2862F2E75A4F00267F44C0
S315080008702846E96888472028044608DB312C06D232
S3150800088007EB040010F8200C08B10643F0E7B007A0
S3150800089001D526F00406C5F81CB00027C5F818B01F
S315080008A02A2C0ED05246A4F130010A292ED2BAF1CA
S315080008B0000F2BD0924605EB8708C8F818101AE0E7
S315080008C084E059F8041B284605EB87029161E9681C
S315080008D08847012F04461BD1E869002823DA26F049
S315080008E0200620E0D8F8180000EB800004EB400052
S315080008F03038C8F818002846E9688847A0F130015A
S3150800090004460A2902D2BAF1000FEBD1012F0AD008
S315080009102E2C08D12846E96888477F1C0446022FF2
S3150800092046F02006BCDBA869002803DA404246F0F8
S315080009300106A861F00701D026F010066C2C0AD033
S31508000940682C08D04C2C34D06A2C32D0742C30D079
S315080009507A2C2ED015E0E968274628468847B842FB
S31508000960044609D180206C2F00D0C000E9680643F0
S3150800097028468847044604E040206C2F00D08000B3
S3150800098006431CB3A4F14100192802D8203446F4C2
S3150800099000664A46214628462E604E46FFF749FB22
S315080009A090B101280DD0F61D26F0070000F10809C0
S315080009B04EE74C2C5846D9D080206A2CD6D0002039
S315080009C0D4E706F1040943E7204647E7286ABDE865
S315080009D0F09F0000DE6F0000431A28BF9A427FF698
S315080009E041AC104410F0030F11441EBF11F8013D2D
S315080009F0521E00F8013D10F0030F7FF4F6AF103ACF
S31508000A00C0F00A8010B531E91850103A20E918509C
S31508000A10BFF4F9AFBDE81040530724BF31E9081009
S31508000A2020E9081044BF51F8043D40F8043D12F08F
S31508000A30030F08BF7047D20728BF31F8023D48BFE9
S31508000A4011F8012C28BF20F8023D48BF00F8012CF8
S31508000A50704730B5B0F10A024FEA900E71F1000303
S31508000A604EEA817EB0EB0E0061EB91014FEA101E53
S31508000A704EEA017E10EB0E0041EB11114FEA102EE3
S31508000A804EEA016E10EB0E0041EB11214FEA104EB3
S31508000A904EEA014E10EB0E0041EB1141401841F1B0
S31508000AA000014FEAD00040EA41704FEAD10110EB4D
S31508000AB080054FEA810444EA907444EB01046D19F9
S31508000AC044EB0404521BA3414FF0000348BF0A320B
S31508000AD000D530BD401C41F1000130BD2DE9F0477D
S31508000AE00D4604469246994600F124080168880690
S31508000AF004D5E06921F01001216000E001200027FB
S31508000B00A84201DDA0EB0507A16907EB050202EB88
S31508000B100300A1EB0000A0612068C00602D42046AD
S31508000B20FFF78EFC002608E0D4E901211AF8060032
S31508000B309047206A401C761C20624E45F4DB2068EC
S31508000B40C0060AD52046FFF77BFC06E0D4E901215A
S31508000B5030209047206A401C2062381EA7F1010702
S31508000B60F4DC07E0D4E9012118F805009047206A6B
S31508000B70401C2062281EA5F10105F3DC2046FFF77C
S31508000B8075FC21680220090600D40120BDE8F0871B
S31508000B9010B5436913B1AFF3008001E0FFF78AFC93
S31508000BA0012010BD126800F124010A7000224A7063
S31508000BB00122EDE711684FF0FF32E9E710B5436906
S31508000BC013B1AFF3008001E0FFF714FD012010BD5B
S31508000BD0126800F1240182840022C2840122EDE712
S31508000BE011684FF0FF32E9E770B505460C46164620
S31508000BF000F022F8036893F80101012806D0FF2CBB
S31508000C000FD8185D68B101202C7070BDD3F80701A4
S31508000C103246214603442846BDE8704003F20713CE
S31508000C2018474FF0FF3070BD4FF00A01B0FBF1F2E4
S31508000C3002FB11011046704710B500F005F8001DBB
S31508000C4010BD00BF9162000001487047704700BFA1
S31508000C50F06D0010814213D002F0030322F0030264
S31508000C6004E050F804CB41F804CB121F002AF8D14F
S31508000C7004E010F8012B01F8012B5B1E002BF8DCB1
S31508000C80704710B50E480F490F4AFFF7E3FF0F48A4
S31508000C900F49104AFFF7DEFF104A0F4802F003011A
S31508000CA022F00302002301E008C0121F002AFBD12C
S31508000CB002E000F8013B491E0029FADC10BD0000DD
S31508000CC080820008004000100000000080820008B2
S31508000CD0004000103C01000040410010483A000066
S31508000CE0FFF79EB910B572B63348016841F4700132
S31508000CF00160324C0122626050F8741C21F40271C2
S31508000D0040F8741C416F41F4FE6141672C48D0F8E5
S31508000D10001841F00101C0F80018D0F8001889073A
S31508000D20FBD500F5006000238360016821F0A0610F
S31508000D300160016841F480310160A0F50060D0F8D7
S31508000D4000188903FBD52168C9B2112928D040F2B9
S31508000D500571C0F8001C1B49C0F80418D0F8001823
S31508000D6041F08071C0F80018D0F800188901FBD549
S31508000D7000F5006049F2024181604FF48011016379
S31508000D80436383634FF0805101644FF480414164AB
S31508000D90016821F0010101600B48C0F8002810BD68
S31508000DA040F20561D5E710B5FFF79CFF00F0C8FFD4
S31508000DB0BDE81040FFF765BF88ED00E0002004E0BD
S31508000DC0003002400854400700300140EFF310821B
S31508000DD072B602607047016881F310887047EFF3B6
S31508000DE00581006809B14FF001007047016881F379
S31508000DF01088704772B670470168EFF3108281F366
S31508000E00108882F310887047EFF31080EFF305819E
S31508000E1080F0010009B14FF000007047EFF3108031
S31508000E2072B680F001007047EFF3108062B680F06A
S31508000E3001007047EFF3108172B6016070470168D0
S31508000E4081F310887047704770474FF08042D2F898
S31508000E502414506AD2F824348B42F8D170471CB552
S31508000E60044600216846FFF7B1FFFFF7EEFF032CA3
S31508000E7001D8002400E0E41E8446FFF7E6FFB0EB45
S31508000E800C00A042F9D96846FFF7A5FF1CBDA821AA
S31508000E904843401F00F014B980684068704780686E
S31508000EA0806870473EB56FF0030068442E492F4AA4
S31508000EB001E040F804298842FBD22E4C2C482F49E1
S31508000EC060602F4A2C4811440844A06001F03AFF9C
S31508000ED0206000F0EBFB01F09BFA00F0EDFB00232D
S31508000EE00222042127A0009300F024F92BA32EA2A6
S31508000EF0304931A000F01EF9364937A000F01AF93A
S31508000F0001A902A800F022FBDDE90110FFF7E4F9C8
S31508000F1038A005F0CFFF274937A005F0CBFF38A149
S31508000F2035A005F0C7FF20A138A005F0C3FF1BA117
S31508000F3036A005F0BFFF01214EF6602002F0B2F898
S31508000F400121022002F0A2F90121084602F0A8F8C0
S31508000F5001F0E6FD30A005F0ADFF38A005F08EFFE4
S31508000F6003F003F83EBD0000000000100DF0ADBA16
S31508000F7000000008344000108082000000000000D5
S31508000F803C0100002E4E65744D46207625642E25BC
S31508000F90642E25642E25640D0A00000030303A318F
S31508000FA0303A35340000000041756720323320326C
S31508000FB0303132006C70000825732C204275696C3C
S31508000FC06420446174653A0D0A0925732025730D5A
S31508000FD00A0000007143060041524D20436F6D70B0
S31508000FE0696C65722076657273696F6E2025640D6B
S31508000FF00A0000000C000000252D3135730D0A008B
S315080010004275696C6420446174653A002020252D78
S315080010103133730D0A0000000C6D61696E20657826
S315080010206974656421213F3F3F2E202048616C7416
S31508001030696E67204350550D0A0000006D61696EA0
S315080010402065786974656421213F3F3F2E2020483A
S31508001050616C74696E67204350550D0A00000000E4
S3150800106000207047002070470020704710B501F037
S315080010705BFCBDE8104002F078BF000004B02DE923
S31508001080FF0F6846EFF30581FFF7F0BF81B000B5A3
S315080010902DE9FF5F6846EFF30381C163AFF3008074
S315080010A01CB5044600216846FFF790FE002120463D
S315080010B001F03AFC02F059FF6846FFF78CFE1CBDAA
S315080010C0001FFDDCF7460000034951F82020521E98
S315080010D041F82020704700008C440010044951F85C
S315080010E02000002801DD012070470020704700001D
S315080010F08C440010034951F82020521C41F8202046
S31508001100704700008C4400101CB504460021684650
S31508001110FFF75CFE0548016821430160416809B193
S31508001120806888476846FFF756FE1CBD9040001049
S3150800113003F08ABE0FB410B503A9029800F010F8A0
S3150800114010BC5DF814FB03F0F1BE03F077BF0FB4D3
S3150800115010B504AA039900F011FA10BC5DF814FB47
S31508001160034603480A461946406900F007BA0000D4
S315080011700C4000102DE9FF4F89B08046014603F068
S315080011800F0708AA01A805F0BBF8F0B3019805F007
S315080011906FF9049002AB03AA4146019805F06DF970
S315080011A0D0B10498DDE90A6A816903984FF001090C
S315080011B000EB800001EB800108688968A8EB000055
S315080011C0B0FBF1F201FB12000590002803DA0020BB
S315080011D00590FEF77BFF37E14146B64805F04EFE1F
S315080011E0FCE0049900EB8000896901EB8004029811
S315080011F0216900EB4002042000EB82000A58A0682F
S315080012002168034602FB001000E024E1A8EB010177
S31508001210B1FBF3F505990690A3EB010B0021CDF878
S315080012201CB0059102E1DDF81CB0B34500D3B34606
S31508001230A0680790DDF808C020690CEB4C0108226D
S3150800124002EB81014158A94215D20CF1010CCDF8E7
S3150800125008C0E068604502D8FEF738FFEAE00CEB04
S315080012604C020420216900EB8200A2680858216814
S3150800127000FB0210069037B1012F04D0022F36D09A
S31508001280032F0AD1AEE00499096889070FD52FB153
S315080012905A4641465046FEF75EFFBAE00B9940466D
S315080012A00A68594600F0CCFE0B990860B1E02FB9E0
S315080012B0584605F00CFE5FEA000A7AD053465A46AD
S315080012C04146019805F0E6F85FEA000901D02FB11A
S315080012D09FE0F7BB504605F0F8FD9AE00B9950469B
S315080012E00A68594600F0ACFE0B990860F2E74146D9
S315080012F0019802F09BF9002871D00298216900EB49
S31508001300400001EB800005F02DFD88B10698804568
S3150800131033D16949086808B105F0D7FD6649002048
S31508001320486040F60C1005F0D2FD6349086041E0BC
S31508001330A268216805FB0219C8450DD10199C8683C
S315080013408968D1F820C04946E04728B94946019836
S3150800135000E011E005F08DFD0023009353465A4640
S315080013604146019805F09EF85FEA000951D15A46B0
S31508001370414652A005F082FD4BE04F4A0A98516853
S31508001380084440F60C11884214D905F0A0FD0090D7
S31508001390002824D0484908464A6801680098FEF79C
S315080013A0DAFE4549086805F090FD4349009808604B
S315080013B003E013E04049096881B13F493E480A9A6B
S315080013C00968406808445146FEF7C5FE3A490A9836
S315080013D049680144384841601BE000E000200DB030
S315080013E0BDE8F08F4146019802F020F90028F6D0B2
S315080013F00298216900EB400001EB800005F0B2FC81
S3150800140038B9A2682168019805FB021105F031FD7B
S315080014108146A6EB0B06002E4ADDB9F1000F47D030
S31508001420BAF1000F00D0DA44D8446D1C6168A942AD
S315080014303FF6F9AE002E3BDDB9F1000F38D000209B
S3150800144002900398401C03900498416903988142CE
S315080014503FF6C7AE2CE00A98244A08EB0001D2E909
S3150800146006021318804503D3984501D2994207D935
S315080014700093034641461EA00A9A05F0FFFCADE715
S31508001480B7B1012F04D0022F06D0032F10D109E0DF
S31508001490DDE90A20414602E0DDE90A214046FEF779
S315080014A05AFE05E00A99404611B1FF22FEF70CFFE5
S315080014B0012094E728710008504000102046616911
S315080014C06C6564205772697465536563746F72201E
S315080014D06174206C6F636174696F6E2025782C20A7
S315080014E073697A65202578200D0A00000C400010E3
S315080014F020496E76616C69642061646472657373F1
S3150800150020257820616E642072616E6765202578D3
S315080015102052616D2053746172742025782C2052F4
S31508001520616D20656E642025780D0A001CB5044699
S3150800153000216846FFF74AFC03480168A143016099
S315080015406846FFF748FC1CBD90400010034A02603D
S315080015500348801A001D086070470000000001203B
S31508001560F87F01200020704703F081B8014611F882
S31508001570012B002AFBD1081A401E704770B5134686
S31508001580ADF5007D04460A464FF4007631466846B6
S3150800159000F08AF8054604F47F40B0F5407F05D090
S315080015A00ADCB0F5807F01D0B0421CD12A466946D4
S315080015B0204600F002FD16E06E46B0F5A06F0AD090
S315080015C0B0F5C06F0FD10A48016861B100207055A7
S315080015D03046884707E0002403E0305D01F016FD39
S315080015E0641CAC42F9DB0DF5007D284670BD000091
S315080015F04C40001070477047002070470020704725
S3150800160003F054B82DE9F04105000E46904601D086
S31508001610062E01DBFEF75AFD05EB8604206908B1A4
S31508001620606B08B1FEF752FD206905F0C6FC074657
S3150800163020690121B1408068C8F800006879FFF781
S3150800164093FF3846BDE8F08170B504000D4616468E
S3150800165001D0062D01DBFEF739FD04EB8504206970
S3150800166008B1606B08B9FEF731FD20691EB1BDE807
S31508001670704005F07EBCBDE8704005F090BC8C4615
S3150800168010B511461A4640B139B1BCF1000F04D065
S31508001690541C0023A44502D20370012010BD8354B4
S315080016A0FEF763FE002010BDFEF714BD10B500F06E
S315080016B0D1FD012010BD00001CB52348007904287F
S315080016C002D022A005F0DAFB04F090FE04F042FBFB
S315080016D0002001900090694601A800F04BFCDDE966
S315080016E0001001F043FB00F049F900F0F1FA00F0B0
S315080016F053FD00F045FB0020FFF796FB04F082FD42
S3150800170001F0D2FC04F0AAFDFFF775FF05F015F904
S31508001710FFF770FF05F012F900F02FF800F028F82F
S3150800172000F02CFB00F088FF00F0B8F900F005FB8C
S3150800173000F01EFC00F0DAFE00F07CFC00F01AF85F
S31508001740BDE81C4001F063BC64780008436F6E6610
S31508001750696775726174696F6E2076657273696FF1
S315080017606E20213D2076657273696F6E0A0000004F
S31508001770002070474FF04A4070470120704702F03A
S3150800178083BC30B5C0684FF0000C00280BD04388E6
S315080017901C180378012B07D0022B05D0032B06D083
S315080017A0FF2B0AD0002030BD8B42FCD015E0032960
S315080017B013D155884378EDB20DE003791578AB421D
S315080017C00BD143795578AB4207D1C3885588AB42CC
S315080017D003D103899588AB42E5D0BCF1000FE2D16D
S315080017E02046D4E702F076BC02F00ABD30B50A22DC
S315080017F0A0FB023501FB0251002400FB0411184628
S3150800180030BD1CB51C460023CDE90033944623465B
S31508001810624600F001F81CBD2DE9F05FADF5825D6A
S3150800182004460DF580500027D0E91A866018009006
S31508001830154602EB030B384620214FF4805C05AAB7
S315080018401154401C6045FADB90E075D22EB1204653
S31508001850641C04AA0121B04703E014F8010B8DF8B3
S315080018601000002001907EE00146012088409DF886
S3150800187010100842009808D084425DD286B32046EC
S31508001880641C03AA0121B0474EE0844254D22EB10B
S315080018902046641C02AA0121B04703E014F8010B94
S315080018A08DF808000098844246D22EB12046641C62
S315080018B003AA0121B04703E014F8010B8DF80C00C8
S315080018C09DF80C009DF8081000F00F09000901EBBF
S315080018D00020C0F30B0A09F103090AF1100A1BE0FC
S315080018E01EE0CAF30B0005A9C7F30B02085C8DF8C6
S315080018F0080088545D451FD2B8F1000F05D0284668
S315080019006D1C02AA0121C04701E005F8010B7F1CE6
S315080019100AF1010AA9F10109B9F1000FE1D11DE0A7
S3150800192014F8010B8DF80C00C7F30B0205A99DF8F6
S315080019300C0088545D4505D34FF0FF300DF5825DE8
S31508001940BDE8F09FB8F1000F05D028466D1C03AA24
S315080019500121C04701E005F8010B7F1C0198401CD6
S315080019600190082802DA5D45FFF47EAF00988442AC
S31508001970FFF46BAF4FF00100E0E70000014802F00A
S315080019805FBB0000B86D001010B50120FFF7B2FB71
S315080019900220FFF7AFFB4FF6FD7081070882FFF7BD
S315080019A054FA084AD2E90032C01A914101D304F028
S315080019B0A5F90220FFF788FBBDE810400120FFF7D4
S315080019C083BB0000584000107CB505460C461646F9
S315080019D000216846FFF7FAF97CB1002405EB84017B
S315080019E0086938B1496B29B905F0B1FA2146284684
S315080019F000F024F8641C062CF0DB66B1002405EB25
S31508001A008400016921B1406B10B1084605F09FFAC0
S31508001A10641C062CF3DB6846FFF7DDF97CBD02F093
S31508001A205ABC0000022801D30020704735214843DC
S31508001A30014901EB80007047E84400107CB50400BA
S31508001A400D4605D004EB8500016909B1406B08B164
S31508001A5000207CBD0F4E607908B94FF0A0460021E2
S31508001A606846FFF7B3F906EB4510D0F8001B0029C6
S31508001A700BDB611900F5306091F82E1041F4002156
S31508001A800161016841F0044101606846FFF7A3F966
S31508001A9001207CBD0000044001207047704700000B
S31508001AA070B505460120FFF725FB0220FFF722FB4C
S31508001AB0234905EB450001EB0014204604F084F9A0
S31508001AC00123204EAB40C6F8143C94F8200000F0E1
S31508001AD0B5FD0546D6F8140C1842F4D1636A13B35B
S31508001AE094F8220050B1FFF7B0F9174A1268821825
S31508001AF041F10003204604F0D1F819E004F120046E
S31508001B00E1782078A26898476078A4F12004032831
S31508001B100ED194F82300A84206D0D4E9093294F8E5
S31508001B2020002946984703E080F0010084F8230046
S31508001B300220FFF7C9FABDE870400120FFF7C4BAD2
S31508001B404041001000300140004000101CB594468A
S31508001B501C46DDE90423CDE900232346624603F04B
S31508001B6019F81CBD70B5044690F85F00B4F87C50AF
S31508001B70A84200D2054604F158042A46216A20687C
S31508001B80FEF7E9FA2571206A4FF000012844206221
S31508001B90A08C401BA084E079A4F15804A8420BD17C
S31508001BA0B4F87E00401B0004000CA4F87E0005D0A3
S31508001BB0AFF24F00606770BDA4F87E10616770BD14
S31508001BC030B50C46154600220221FFF7DAFD00283B
S31508001BD038D0418800F10D030A18216861B199428D
S31508001BE02FD991422DD2286898422AD3904228D2DA
S31508001BF04B78052B04D024E00020236028601DE0E4
S31508001C000B78072B1DD14378042B1AD100780928A5
S31508001C1017D1C91D216011E04178042902D0052990
S31508001C2005D007E00178092904D1286002E0007888
S31508001C30072808D020680178084420602068904268
S31508001C40EAD3002030BD012030BD02F079BB7047D1
S31508001C5010B54FF0FF34DDF808C00628CCF8004070
S31508001C601C6014600C6011D2094C245C0C60084995
S31508001C70891D0328095C116008D20549891F095C7A
S31508001C8019600349C91E085CCCF8000010BD0000A5
S31508001C907E71000830B4034603F47F440020DBB2AB
S31508001CA0B4F5807F09D0B4F5007F0AD0B4F5407F3B
S31508001CB00BD130BC581EFFF755BC30BC581EFFF779
S31508001CC037BA30BC581E02F051B930BC7047000014
S31508001CD003490020086048600249086001207047EF
S31508001CE0187000109040001010B50446007994F85A
S31508001CF05E10884215D0052804D1012211462046D7
S31508001D00FFF762FE94F85E002071072811D2DFE81B
S31508001D1000F004080808080908000020A4F87C0058
S31508001D20606710BD20460022BDE810400121FFF77C
S31508001D304BBEBDE81040FEF7C9B901207047000048
S31508001D400D4810B5016840F2FF1241EA0201016030
S31508001D504FF000014FF03C0001F0B4FA00213D209D
S31508001D6001F0B0FA00213E2001F0ACFA0021BDE8EE
S31508001D7010403F2001F0A6BA3038024004F034BDC6
S31508001D80012070470048704740420F002DE9FF4781
S31508001D908046022803D3012004B0BDE8F0876D48C9
S31508001DA0B8F1000F06D0D0F8301841F00051C0F84D
S31508001DB0301805E0D0F8341841F08001C0F834181E
S31508001DC04FF03500644908FB00F0644D01EB8004D0
S31508001DD001D14FF0A04500216846FEF7F7FF022023
S31508001DE0C5F804088020A8605D48E8604FF4102014
S31508001DF0A863D5F8000840F00300C5F80008A86BEA
S31508001E0040F40010A8634FF0010A04F1C000C4F8BA
S31508001E10D0A0E0660620B8F1000F00D1042084F8AF
S31508001E207000002201212046FFF7ABFC082100B113
S31508001E30C17A84F85F1001200021402206E004EBF5
S31508001E40800359632318401C83F82E2094F87030B9
S31508001E508342F4DC0026B8F1000F01D0032700E026
S31508001E60002789460291039136E0029894F870207B
S31508001E70817801F07F00824252DD039A9278032A24
S31508001E804ED8090603D504EB8002C2F834A002999D
S31508001E908988082905D0102903D0202901D040298E
S31508001EA03ED1221882F82E108B212E4A794302EB56
S31508001EB0810104EB8002C1F80090C1F80490C1F8D2
S31508001EC00890116102997F1CC97801F00301012964
S31508001ED021D0400081400E4303AA02A92046FFF7FD
S31508001EE06FFE0028C1D1DEB1A4F8CC604FF47A7039
S31508001EF0FEF7B5FF0021404600F0DAF9B8F1000F09
S31508001F004FF0000210D018494D2001F077FB00224F
S31508001F1015494C200FE06846FEF75DFF00203BE7B9
S31508001F206846FEF758FF36E71049432001F066FB7E
S31508001F3000220E492A2001F061FB4FF0FF3068614C
S31508001F404FF48050A861C5F83498A86840F001009D
S31508001F50A860E0E700300240E844001000000440B2
S31508001F60400C0040904600102D3D00081D3D00081D
S31508001F7001207047034A02600348801A001D086062
S31508001F807047000050810120F8FF012000F47F41CE
S31508001F90C0B2B1F5807F07D0B1F5007F07D0B1F5A3
S31508001FA0407F07D000207047401EFFF7CCB8401E80
S31508001FB002F041B8401EFFF71FBB2DE9F0470F4658
S31508001FC0164600F47F494FF000086425C4B22BE09A
S31508001FD0B9F5807F06D0B9F5007F09D0B9F5407FFD
S31508001FE014D10BE0601E32463946FFF7AEF80AE018
S31508001FF0601E3246394602F020F804E0601E32467A
S315080020003946FFF7FBFA002811DB09D10020FEF755
S31508002010FBFE60B101220021202000F03BFC03E01A
S315080020203225361A074480440EB16D1ED0D240467A
S31508002030BDE8F0874FF04A4070470120704700001E
S3150800204010B5084B07E010F8014B84EA126453F800
S31508002050244084EA02220C1EA1F10101F3DC104699
S3150800206010BD0000A471000870B5002833D0A0F197
S315080020701404194D2169A94205D018A0A268FFF7D2
S3150800208059F8FFF703F8A268201F1158A94204D08F
S3150800209022A0FFF74FF8FEF7F9FF3049E160206804
S315080020A050B1C2688A4207D1A26883681A44A260FE
S315080020B00068206000B14460606800280BD0C268E0
S315080020C08A4208D18168A26811448160216801604A
S315080020D0002900D0486070BD0DF0B1BA53696D7023
S315080020E06C65486561705F52656C656173653A2019
S315080020F04D656D6F727920626C6F636B20686561E0
S315080021006420636F7272757074696F6E3A20253039
S31508002110387820253038780D0A00000053696D702C
S315080021206C65486561705F52656C656173653A20D8
S315080021304D656D6F727920626C6F636B207461698F
S315080021406C20636F7272757074696F6E3A202530F1
S31508002150387820253038780D0A000000EFBEADDE4D
S3150800216002F082BD38B58C4604461146502810D276
S3150800217003F00F0001280DD000B102216246204667
S3150800218001F01AF800231A4619462046009301F072
S315080021908DFA38BD0321F1E72DE9F041142000211D
S315080021A000F05EFA00202049054621F81050401C30
S315080021B00528FADB00241D4E012704EB440006EB34
S315080021C000101B490022876104F01AF9641C102CC0
S315080021D0F3DB184805604FF0000217494FF0060078
S315080021E001F00CFA00221549072001F007FA00222F
S315080021F01349082001F002FA00221249092001F0C9
S31508002200FDF9002210490A2001F0F8F900220F49C9
S31508002210172001F0F3F900220D49282001F0EEF904
S315080022200120BDE8F0810000404400104041001044
S315080022303B390008003C0140693100086F3100084D
S31508002240753100087B3100088131000889310008A2
S31508002250F132000812484FF0FF3101604160816099
S31508002260C0F80011C0F80411C0F808110E490D4A4B
S315080022708A60CA600A614A618A61CA620A638A63B5
S31508002280BFF35F8FCA63094AC0F88C2BC0F8881B56
S31508002290D0F8A41B41F4E021C0F8A41B7047000045
S315080022A080E100E07D100008008001200007FA05A3
S315080022B02DE9FC470646884635203449704301EB2C
S315080022C08004B4F8CC0000285DD0314D0EB94FF02B
S315080022D0A04500216846FEF779FD0127D4F8D0000D
S315080022E04FF00009B8F1000F1FD0F0BBC4F8D0704A
S315080022F0D5F8040840F00200C5F8040801250DE0E9
S3150800230004EB8500016941B1406B04E001222946CE
S315080023102046FFF799F90028F8D16D1C94F870004B
S31508002320A842EDDC84F85E9026E0F0B140F2C220C7
S31508002330C4F8D090002E01D140F2A22000F0FF0888
S315080023404FF01E0001D14FF00B0000224346114604
S31508002350FFF708FF1F2006B90C2000224346114646
S31508002360FFF700FFD5F8040800E008E020F00200B7
S31508002370C5F8040884F85E702046FFF7B5FC684681
S31508002380FEF729FD0120BDE8FC870000E84400109F
S31508002390000004407CB504000D4603D094F8700094
S315080023A0A84201DC00207CBD184E607908B94FF0C0
S315080023B0A04600216846FEF709FD04EB8500016981
S315080023C091B1406B80B1E06E30F81500C0070FD0B0
S315080023D0012229462046FFF737F90028F8D1684632
S315080023E0FEF7F9FC01207CBD6846FEF7F4FCD9E748
S315080023F06846FEF7F4FC18B12146304601F021FB89
S315080024002A462146304601F0B5FAE8E700000440BE
S31508002410254830B44FF0FF310A0CC0E900122348B2
S31508002420016841F00301016021484FF00102826012
S315080024304FF080404FF0040303804FF02001818065
S315080024404FF0000101814FF00204848101838183EA
S315080024504FF05304048541634FF0FF34C46282820F
S31508002460A0F80034A0F804144FF01703A0F80834B5
S31508002470A0F80C14A0F828144FF6FF71C0F82C1415
S31508002480A0F81424B0F8001441F00101A0F80014D3
S31508002490018841F00101018030BC4FF00002054976
S315080024A04FF01C0001F0AAB858400010403802400E
S315080024B0002004E0891900087CB504460D46002171
S315080024C06846FEF783FC08484FF08046C0E9004599
S315080024D07463FEF7BAFC001BA94101D30220B0823F
S315080024E06846FEF778FC7CBD584000104FF07740F0
S315080024F070470000194910B51B300A6820F003011F
S31508002500174823E0D36883421FD193688B421CD3B4
S3150800251001F1280083420CD910461A44521A03685E
S31508002520C2E90030026003B15A60916083685B1AA1
S3150800253083606AB10A489138D0600A481061936886
S31508002540111F585002F1140010BD1268002AD9D183
S3150800255005A0FEF7EFFD002010BD00008C4000101E
S31508002560EFBEADDE0DF0B1BA202020204D656D6FAF
S3150800257072793A204F55544F464D454D4F52592181
S31508002580212025640D0A000090F85C1051B1816D78
S315080025904A780A2A15D2DFE802F00709140B140D47
S315080025A014140F110220704700F00EB800F032BD67
S315080025B000F052BA00F02ABA01F026B9012201F059
S315080025C041B901F007BC000008B50022ADF80020AB
S315080025D04A886ABBCA88022A2AD190F85E30032B39
S315080025E026D00A7812F00F0204D0012A05D0022A52
S315080025F01ED106E000F1680112E0052B18D16946E4
S315080026000EE0042B01D18A8892B98A8802F07F02EB
S315080026108A8090F870108A420AD2C16E01EB420194
S3150800262081670221A0F87C1002494167002008BD95
S31508002630012008BD651B000801207047502801D3FA
S3150800264000207047054A010902EB8121096900F05B
S315080026500F00C14001F00100704700000000024071
S3150800266000231A4610B51B1A8A410BDA42F2107279
S31508002670821A71F1000105DA00F02DFD02490860A1
S31508002680012010BD002010BD0040001050280AD2BD
S31508002690064B020903EB822200F00F030120984043
S315080026A080B209B11083704750837047000002401A
S315080026B02DE9F04387B004460F9F894690461E468B
S315080026C0062802DAB8F1030F03DB002007B0BDE8DD
S315080026D0F083002101A8FEF779FB5148514A524977
S315080026E050F82450052C0AD074B1D2F840084FF49B
S315080026F08031A1400843C2F840084C490AE0D2F8A4
S31508002700440840F0200003E0D2F8440840F01000E6
S31508002710C2F8440801EB6900B0FBF9F028810C20E7
S31508002720092E01D141F20C00B8F1000F06D040F491
S315080027308060B8F1010F01D140F40070A881012E24
S3150800274000D100264FEA063028820020790701D5F5
S315080027504FF40070B90701D540F48070A88204AB25
S31508002760009303AB06AA05A92046FFF771FA722063
S31508002770032C00DB8220C6B23346002202210598CC
S31508002780FFF7F0FC3346012200210698FFF7EAFC22
S31508002790780702D50398401C1BD000223346114601
S315080027A00398FFF7DFFCB80702D50498401C10D041
S315080027B03346012200210498FFF7D4FC0021204665
S315080027C000F0AAFA062C11D2DFE804F0070B191D4F
S315080027D0212501A8FEF7FFFA77E7002214492520EC
S315080027E002E000221349262000F008FFA88940F4D9
S315080027F00050A88101A8FEF7EEFA012066E700223C
S315080028000D492720F0E700220C493420ECE7002286
S315080028100B493520E8E700220A494720E4E700008B
S315080028208C7100080030024000BD010580DE800280
S31508002830213300084933000875330008A13300081E
S31508002840CD330008F533000810B5040004D04C2039
S3150800285001F066F84D2003E02A2001F061F84320D4
S3150800286001F05EF801212046FFF722FD084834B141
S31508002870D0F8301821F00051C0F8301805E0D0F82B
S31508002880341821F08001C0F83418002010BD00006B
S31508002890003002402DE9FF5F82460F46104600F0E1
S315080028A01AFC0E460546002102A8FEF78FFAFEF727
S315080028B0CCFA451941EB0604DFF868B001264FF05B
S315080028C00008DBF8009019EA070906D002A8FEF707
S315080028D082FA484604B0BDE8F09FFEF7B6FA401BF8
S315080028E0A14104D302A8FEF776FA0020F2E71EB14A
S315080028F00220FEF7F3FB58B1CDE9007801265246CF
S315080029002846214603F030FA02A8FEF775FAD8E7FA
S3150800291002A8FEF76BFA03F079FD064602A8FEF751
S3150800292069FACEE7904000107CB500230122CDE974
S31508002930002305460C46082300224FF4E131022005
S31508002940FFF704F924B1214611A000F0CFF802E000
S3150800295014A000F0CBF816A0E96B00F0C7F818A091
S31508002960A96B00F0C3F81AA0696B00F0BFF805F16F
S3150800297040011BA000F0BAF80024214655F824208F
S315080029801BA000F0B3F8641C0C2CF6DD7CBD00001F
S31508002990455843455054494F4E20307825303278B3
S315080029A03A0D0A004552524F523A0D0A00000000ED
S315080029B02020637073723D3078253038780D0A0010
S315080029C02020706320203D3078253038780D0A00A5
S315080029D020206C7220203D3078253038780D0A008A
S315080029E02020737020203D3078253038780D0A0075
S315080029F020207225303264203D3078253038780D15
S31508002A000A000000FEF7F2BE0120704710B5044622
S31508002A1048887F2807D88A882AB9C98819B994F8AE
S31508002A205E10052901D3012010BD10F0FF0084F8BF
S31508002A305D000CD0042084F85E002046FFF754F9A8
S31508002A400020A4F87C0003486067032010BD03201B
S31508002A50F1E70000651B000810B50446C88878BB76
S31508002A6094F85E20032A2BD0087810F00F0004D0C3
S31508002A70012826D0022823D113E0488801281FD12F
S31508002A800A4602212046FEF77CFEC8B1C07A8006B7
S31508002A9005D5B4F8680040F00200A4F868000620DE
S31508002AA01BE0042A01D1888850B9888810F07F0075
S31508002AB0888005D094F87020904201D24A880AB1DD
S31508002AC0012010BDE26E32F8103043F0010322F8FF
S31508002AD01030888884F8710004200021A4F87C103E
S31508002AE00149616710BD0000651B00080FB4FF218E
S31508002AF010B5C0B043AB6846429AFEF7D5FD04460A
S31508002B000220FEF720FB224669460220FEF71DFB3F
S31508002B100220FEF718FB40B010BC5DF814FB00005D
S31508002B202DE9F04188B044F62060029006A905A870
S31508002B30FEF70CFDDDE9050100F018F94F4C504889
S31508002B40616802F07FFB02A94E4804F06BF800B1F9
S31508002B50012078B902A800F08DFB58B9484802F060
S31508002B601FFE20B101F004FA08B0BDE8F0814FF06D
S31508002B70FF30029001F05EFA0023CDE9003340F2FF
S31508002B8001550223042240A12846FEF7E0FA45A390
S31508002B90009347A3494A4AA12846FEF7D8FA60682F
S31508002BA000F0AAFA00221146104600F039FCE06847
S31508002BB0FFF7ECF900230222042133A00093FEF765
S31508002BC0B9FA38A33AA23D4944A0FEF7B3FA4949EF
S31508002BD049A0FEF7AFFAE068FFF7D8F9012003AB82
S31508002BE0009303900246082300214A4803F039F867
S31508002BF0FEF72BF9DFF8888006460F468521202048
S31508002C00029AFFF747FE040001D0FEF78FFC200664
S31508002C1004D5002202A9012000F002FC14F0050FD9
S31508002C2002D0174802F052FCD8F8040882070DD5DE
S31508002C3020F00200C8F80408002202A9022000F0C9
S31508002C40EFFBFEF702F906460F46D7E70298411C46
S31508002C50D4D000F040FA04460D46FEF7F6F8801B7D
S31508002C6061EB0701201A8D41C8D2002211460720C0
S31508002C7000F0D6FB024802F093FDBFE70C400010B7
S31508002C80386400106072001054696E79426F6F7470
S31508002C906572207625642E25642E25642E25640DFE
S31508002CA00A00000030303A31303A3338000000006C
S31508002CB04175672032332032303132006C7000089B
S31508002CC02573204275696C6420446174653A0D0A5F
S31508002CD00925732025730D0A00000000257320427C
S31508002CE075696C6420446174653A202573202573E0
S31508002CF00D0A00007143060041524D20436F6D7066
S31508002D00696C65722076657273696F6E2025640D2D
S31508002D100A000000486C001000B5034641B10021C6
S31508002D2001F0F6F8002118465DF804EB01F00CB93D
S31508002D30012101F009F9012118465DF804EB01F0BB
S31508002D40E7B8000070B50022064D074C2021104652
S31508002D50FFF776F9024621462846BDE87040FFF798
S31508002D606FB900000040001000000000074A10601C
S31508002D70816011680020086011684860116804487D
S31508002D80C860116803480861704700008C4000104D
S31508002D90EFBEADDE0DF0B1BA2DE9F04F00278BB0CE
S31508002DA00446B846384639463A466B469E465A540D
S31508002DB0491C1F29FADB0021FF2208AB9B465A54FF
S31508002DC0491C0A29FADB214610E04B880A7803EBEE
S31508002DD00109022A35D003DC6AB1012A04D10FE0C1
S31508002DE0032A73D0FF2A72D0172049460028ECD050
S31508002DF00BB0BDE8F08F17EA080FF9D10120F4E708
S31508002E000FB10220F1E7162B02D10A79122A01D056
S31508002E100320EAE74A79012A01D00420E5E7CA7ABD
S31508002E20082A07D0102A05D0202A03D0402A01D024
S31508002E300520DAE7497D012901D00620D5E70127D3
S31508002E40D3E7B8F1000F01D00720CEE70A79092A9F
S31508002E5073D1CA88121D93426FD14A79022A01D0CA
S31508002E600920C2E70C7A24B14A7A012A03D90B2031
S31508002E70BBE70A20B9E7CA7A02F08F02802A01D096
S31508002E800C20B2E70D315FE04A78042A01D00E2003
S31508002E90ABE70A78092A01D00D20A6E7CA780AB155
S31508002EA00F20A2E70B7913B10022DC4607E01020B9
S31508002EB09BE78E78B54201D11A2009E0521C1CF80E
S31508002EC00250FF2D04D00A2AF3DB03E04AE054E05F
S31508002ED00A2A01DB1B2088E78D780BF80250093196
S31508002EE001E00D7829444A78052AFAD1F4464FF0CC
S31508002EF0010A1A00A3F10103DBB223D04A78052A96
S31508002F0001D0122071E70A78072A01D011206CE750
S31508002F108A7802F07F02551E1F2D01D3182064E718
S31508002F20CD78AE0701D0AD0901D013205DE7624424
S31508002F3012F8015C15B1192057E711E002F801AC47
S31508002F40C91DD6E700288CD12200A4F10104E4B2F9
S31508002F509AD1002885D1494502D14FF0010844E7A6
S31508002F60082042E70A79121D934201D014203CE753
S31508002F704979032985D0152037E70979090687D4C1
S31508002F80162032E71CB5044600216846FDF71EFFE9
S31508002F901C49002051F824108881062C09D2DFE844
S31508002FA004F00305191B1D1F252000E0262000F04C
S31508002FB0B7FC01212046FFF7AFFE1348052C11D0B8
S31508002FC0ACB1D0F840184FF48032A2409143C0F813
S31508002FD0401812E02720EAE73420E8E73520E6E73C
S31508002FE04720E4E7D0F8441821F0200103E0D0F8A0
S31508002FF0441821F01001C0F844186846FDF7EBFEA6
S3150800300001201CBD8C7100080030024070474FF04B
S315080030104A40704710B50446C88858BB94F85E0005
S31508003020052827D1087810F00F0004D0012822D0EF
S3150800303002281FD113E0488801281BD10A4602211D
S315080030402046FEF79EFBA8B1C07A800612D5B4F8D2
S31508003050680020F00200A4F86800062017E08888B7
S3150800306010F07F00888005D094F87020904201D235
S315080030704A880AB1012010BDE26E32F8103023F0FA
S31508003080010322F81030888884F871000420002192
S31508003090A4F87C100149616710BD0000651B000893
S315080030A000207047002070470023024A024903485F
S315080030B003F06EB9D4400010A0400010E06D001077
S315080030C01CB594461A46049BCDE9002300236246A4
S315080030D000F0DEF81CBD4FF47A71A0FB01017047C1
S315080030E0044951F820000088000601D501207047E0
S315080030F0002070478C7100087CB5024600F47F40BA
S31508003100D4B2B0F5807F06D0B0F5007F0FD0B0F509
S31508003110407F13D121E0002301221248CDE9002384
S3150800312008230169601E0022FEF710FD7CBDC2F36C
S31508003130421000210546FEF763FA08B100207CBD5F
S315080031402846FEF74FFB0028F9D0601E02B002227F
S31508003150BDE870400121FEF747BB601EBDE87C4014
S31508003160FEF76BBF0C4000100020FEF799BC01204B
S31508003170FEF796BC0220FEF793BC0320FEF790BC30
S315080031800420FEF78DBC000070B50A484169006846
S315080031904FF0050501EA000101F478704FEA501472
S315080031A0E00702D02846FEF77BFC6D1C6408F7D1C1
S315080031B070BD0000003C01402DE9FF5F1E46030973
S315080031C02A4C00F00F00012704EB832487404300B4
S315080031D003259D404FF0000C022A02D0012A03D095
S315080031E004E04FF0010C01E04FF0020C4FEA162AFA
S315080031F00CFA03FC01FA03F80AFA03FA4107C90EA6
S315080032004FF00F0909FA01F9C208CDE902C9C6F358
S31508003210031B0BFA01FB914600216846FDF7D6FD14
S315080032202268AA4342EA08022260E1680298A94392
S315080032300143E160A068A84340EA0A00A06004EBE5
S315080032408900016ADDF80C9021EA090141EA0B01BF
S315080032500162F007606801D0384300E0B843606057
S315080032606846FDF7B8FDBDE8FF9F00000000024074
S3150800327001F026BD70B5054600242046FFF7DEF9A5
S3150800328010B1601E01242860204670BD00207047DA
S315080032902DE9F8431546DDE90872044688461E46B8
S315080032A0502802D30020BDE8F88300231946FFF70B
S315080032B083FF3B46324629462046CDF8008000F07B
S315080032C0F5F9F0E738B5044650280ED2FFF7DEF9CF
S315080032D000231A4601212046FFF76EFF00231A46EF
S315080032E019462046009300F0E1F938BD7047000002
S315080032F070B50A48416900684FF00A0501EA0001FD
S3150800330001F47C404FEA9024E00702D02846FEF7F5
S31508003310C7FB6D1C6408F7D170BD0000003C014076
S3150800332070B5084D2C88A00603D52946002000F064
S31508003330B9FA200605D52946BDE87040002000F0F8
S31508003340CABA70BD0010014070B509480488084D16
S31508003350A00603D52946012000F0A4FA200605D5C3
S315080033602946BDE87040012000F0B5BA70BD0000DE
S315080033700044004070B509480488084DA00603D5E6
S315080033802946022000F08EFA200605D52946BDE812
S315080033907040022000F09FBA70BD0000004800404F
S315080033A070B509480488084DA00603D529460320A8
S315080033B000F078FA200605D52946BDE870400320B6
S315080033C000F089BA70BD0000004C004070B5084D89
S315080033D02C88A00603D52946042000F063FA2006A7
S315080033E005D52946BDE87040042000F074BA70BDC2
S315080033F00050004070B509480488084DA00603D55A
S315080034002946052000F04EFA200605D52946BDE8CE
S315080034107040052000F05FBA70BD0000001401403E
S3150800342070B50C46154640F20156092826D2DFE843
S3150800343000F005251B26293039254D0001213C20A1
S31508003440FFF740FF01213D20FFF73CFF01213E2009
S31508003450FFF738FF00213F20FFF734FF3046BDE86D
S31508003460704020A1FDF773BE002C07D02068411CD0
S3150800347004D044F62061884200DA216070BD0A460D
S315080034801BA101E00A461DA13046BDE87040FDF7C4
S315080034905EBE1DA13046FDF75AFEBDE870401AA073
S315080034A0FDF748BE29B11CA13046FDF750FE1AA00B
S315080034B004E01EA13046FDF74AFE1CA0FDF73AFEC1
S315080034C01F48C068BDE87040FEF760BD002CD5D027
S315080034D00A461CA13046FDF73AFE44F00100286072
S315080034E070BD000057616974696E670D00000000C1
S315080034F057723A203078253038780D0045723A20D0
S315080035003078253038780D0043686B207369676E0C
S315080035106174757265200D005369676E6174757202
S315080035206520504153530D0A0D0A00005369676E12
S315080035306174757265204641494C0D0A0D0A0000F2
S315080035400C4000105374617274696E672061707064
S315080035506C69636174696F6E2061742030782530F8
S3150800356038780D0A000000000020704710B500F4F6
S315080035707F410446C0B2B1F5807F07D0B1F5007F20
S3150800358009D0B1F5407F0FD0002010BDBDE810402E
S31508003590401EFEF7E5BD401EFEF741FAC4F3421091
S315080035A0BDE81040FEF751BBBDE81040401EFFF7CE
S315080035B02BBA00003EB5044607A0FDF7D7FF002149
S315080035C0009105A2CDE901200B46022204212046DE
S315080035D002F00CFB01203EBD436F70797269676883
S315080035E074204F6265726F6E206D6963726F7379AE
S315080035F07374656D732C20496E632E000A4A02EBBC
S315080036008002BFF35F8F116400F01F020121914011
S3150800361042094FF0E02000EB8200C0F88012C0F8A3
S315080036200011012070470000008001207CB5044687
S315080036300E46D0E9021000258968884701AB6A461C
S31508003640314603F0DBFBD8B1D4E902108968884714
S3150800365081690098102200EB800002EB800009586F
S31508003660019800EB400001EB800001210068C0B220
S31508003670102804D119B103A0FDF75CFD00E001256F
S3150800368028467CBD547279696E6720746F207772FC
S3150800369069746520746F20626F6F747374726170D9
S315080036A020726567696F6E0D0A0000002DE9FF4FED
S315080036B0064600F00F000124894684408107090F59
S315080036C04FF00F084FEA161A08FA01F80AFA01FA33
S315080036D04B4983B000EB400001EB0015DDF840B024
S315080036E01F462846C5F8249002F06EFB002168465E
S315080036F0ED60FDF76BFB434BC6F3810003EB8000DF
S31508003700B9F1000F6CD0D0F8081801EA0801514544
S3150800371012D0D3F8001C214206D06846FDF75BFBA1
S31508003720002007B0BDE8F08FD0F8081821EA080194
S3150800373041EA0A01C0F8081885F8206085F8217062
S3150800374085F822B00598A862D3F8080CA043C3F8F8
S31508003750080CD3F80C0CA043C3F80C0C062F13D294
S31508003760DFE807F012030A1C0A03D3F80C0C2043FF
S31508003770C3F80C0C002005E0D3F8080C2043C3F866
S31508003780080C012085F82300D3F8000C2043C3F861
S31508003790000C042F18D0052F1BD02CE0D3F80C0CE6
S315080037A02043C3F80C0CD3F8080C2043C3F8080CC4
S315080037B0C3F8144C3046FEF741FFD3F8141C2142D7
S315080037C0F6D180F00100DDE73046FEF737FF20B975
S315080037D011E03046FEF732FF68B9C3F8104C0AE02C
S315080037E0D0F8080800EA0800504504D1D3F8000CC0
S315080037F0A043C3F8000C6846FDF7EDFA012090E7F0
S3150800380040410010003001404A88B2B98A88A2B9FE
S31508003810C988012911D190F85E1003290DD000F14D
S31508003820600100F1740041604FF00101018141819E
S31508003830034901604FF000007047012070470000FF
S31508003840651B000870B504468888154640B9C888BF
S3150800385030B994F85E00032802D04888012801D9B7
S31508003860012070BD10F0FF0084F860000DD005201F
S3150800387084F85E002046FEF737FA25B10020A4F842
S315080038807C0003486067052070BD0420F0E700004F
S31508003890651B00080123036000200B60C2E90000D5
S315080038A00146704770B505460C460120FDF722FC17
S315080038B00220FDF71FFCA088C1B22846FFF7D8FCF6
S315080038C00120FDF721FC0220FDF7FEFBBDE8704054
S315080038D00120FDF7F9BB38B505460C460120FDF772
S315080038E009FC0220FDF706FC6946284600F018F98F
S315080038F018B19DF80000A08003E0A08920F08000A0
S31508003900A0810220FDF700FC0220FDF7DDFB012067
S31508003910FDF7DAFB38BD0000004870470CE00020D0
S3150800392000F01F020121914040094FF0E02202EB0E
S315080039308000C0F880110120704710B50446406A1F
S31508003940002816D094F82000FEF778FE94F8232075
S31508003950014682420DD1D4E9093294F820009847ED
S3150800396094F82100032804D114F8230F80F00100ED
S31508003970207010BD2DE9F04100EB42140746D4F83B
S3150800398008090D461646C00702D00120C4F80809E2
S31508003990D4F8000900282BDBEEB105EB8600016997
S315080039A041B3406B30B3012231462846FDF74CFE41
S315080039B001001FD0081D0968E0B104F5106441F440
S315080039C000222261226842F00442226007EB063296
S315080039D002F580520AE0696F61B12846884795F872
S315080039E05C10A86DE8E708C81360091F0029FADC0F
S315080039F0BDE8F081D4F8000940F00060C4F8000979
S31508003A00F6E7F8B5064615001C468C460CD06A46FD
S31508003A1029466046FDF7F6FD0146001D0C6006EBDB
S31508003A20053101F5805109E001F18000CCF8580014
S31508003A308CF85C40F3E70A68241F04C0002CFADC03
S31508003A40F8BD2DE9F041044688460120FDF752FBF2
S31508003A500220FDF74FFB65694FF480264FF4402797
S31508003A600FE0206A00F00F02C0F30A1300F4F0100A
S31508003A70B04201D0B84203D141462046FFF7C1FF04
S31508003A806569E806EDD4680311D5D4F81808002747
S31508003A9086B20AE0F00704D03A4641462046FFF7C8
S31508003AA069FF07F101074FEA5606002EF2D12803EF
S31508003AB011D5D4F81808060C00270AE0F00704D038
S31508003AC03A464146204600F043F807F101074FEA17
S31508003AD05606002EF2D1E80406D54146204600F0E7
S31508003AE075F84FF480506061280506D54146204692
S31508003AF000F063F94FF400606061002D06DA414674
S31508003B00204600F0FDF84FF0004060610220FDF706
S31508003B10DBFABDE8F0410120FDF7D6BA0020704770
S31508003B2001F04CB941094FF0E02202EB8101D1F8CE
S31508003B30001100F01F00C14001F0010070470000AD
S31508003B40024A52F820008180704700008C710008F4
S31508003B5030B400EB4213D3F808CB5FEACC7402D03A
S31508003B600124C3F8084B5FEA0C7402D50824C3F88D
S31508003B70084B62B101EB820000698068B0B1D3F8E6
S31508003B80000B40F00060C3F8000B30BC704791F89A
S31508003B905F200D4B1A43C0F8102BD0F8002B42F0CB
S31508003BA00442C0F8002B30BC00F0C8B8881803F5EA
S31508003BB0306390F82E0040F400201861186840F031
S31508003BC004401860E1E70000000008602DE9F047AE
S31508003BD04FF0FF380C46C0F81480402141624FF080
S31508003BE04011816280230021FF25DE0511E000EBEC
S31508003BF0810743F48002C7F8002100EB41124033E5
S31508003C00C2F80859C2F8085BC2F80069C2F8006B26
S31508003C10491C94F870208A42E9DC4FF486610161F8
S31508003C204FF40041C0F80019C0F8001B4FF0000916
S31508003C30C0F810994FF0C041C0F8101BB4F8CC106A
S31508003C404FF001128B080121022527E013F0030625
S31508003C5021D0234F47EA8646671897F82E7047EA19
S31508003C60060C04EB8106766B4EB14CF0006600EB51
S31508003C70411746EA8156C7F800692A430BE000EB6C
S31508003C80411647F40027C6F8107B4CF00447C6F8DF
S31508003C90007B42EA0542491C9B086D00002BD5D1E2
S31508003CA00125C0F810580921C0F81418C0F81C28B6
S31508003CB00C498161D0F8001821F4FE61C0F800189B
S31508003CC041460020FDF75BFD0320656684F85E002B
S31508003CD084F85D902046BDE8F047FEF705B8000079
S31508003CE00080001010180C80044951F82000008844
S31508003CF0400601D501207047002070478C710008E6
S31508003D0002460846D2F8041821F00101C2F8041840
S31508003D1090F8CE1080F85E10FDF7E6BF02494FF026
S31508003D20A040FFF78EBE0000E84400100149024893
S31508003D30FFF787BEBC4500100000044070B5054675
S31508003D400E460846FEF720FC044604280ED2DFE895
S31508003D5000F00D160B02D5F8000896F85D1040EA3B
S31508003D600110C5F8000801E00020706700223146FE
S31508003D702846FFF7FFFD052C0DD1012418E0D5F8DC
S31508003D80000940F40010C5F80009D5F8000B40F406
S31508003D900010C5F8000B70BD06EB8400016931B14F
S31508003DA0406B20B1224631462846FFF7E3FD641CE6
S31508003DB096F87000A042EFDC70BD084691F85E10D8
S31508003DC080F8CE10062180F85E10FDF78DBF002022
S31508003DD070470000F0B5044648880D46060AC1B289
S31508003DE0E8883B4FA4F87E000023A0B194F85E2033
S31508003DF0032A09D8626E3AB1636694F85F20904246
S31508003E0000D31046A4F87E00A367A4F87C3068782F
S31508003E10062803D045E0A4F87C3054E0012E04D0EF
S31508003E20022E0ED0032E3CD11AE02A46012131E09B
S31508003E30011DA167B4F87E1000790DE0A4F87C1086
S31508003E402DE02A4602212046FDF79BFC38B3011DCA
S31508003E50A167B4F87E10C0888142EFD30146EDE72A
S31508003E6011B105290AD013E01A48A067B4F87E10E4
S31508003E70042004290AD3A4F87C0010E0164908781F
S31508003E8030B1A167B4F87E108142F4D20846F2E751
S31508003E902A4603212046FDF774FC0028C8D1A06FE6
S31508003EA088B92A46FF212046FDF76BFC70B100F160
S31508003EB00A01A1674088B4F87E100A38814200D208
S31508003EC00846A4F87C0000206767F0BD0120F0BD15
S31508003ED0651B000860400010F063001001460B489F
S31508003EE010B550F82100808A80050DD50B200129D0
S31508003EF002D0022902D002E0002000E01D20FEF7D1
S31508003F009DFB08B1002010BD012010BD8C71000872
S31508003F10064A002952F82000818902D041F0200182
S31508003F2001E021F020018181704700008C710008B2
S31508003F30044951F820008089000601D50120704700
S31508003F40002070478C710008064A002952F82000A4
S31508003F50818902D041F0800101E021F08001818150
S31508003F60704700008C7100087047FEE700F032BA0F
S31508003F70024901480860FEE70400FA050CED00E076
S31508003F8070B52A4D284E4FF0E0242968302805D010
S31508003F9040283BD0306840F0040042E001B1884731
S31508003FA004F55164206840F004002060306840F24F
S31508003FB0052140EA0100306030BF1D48D0F80018DE
S31508003FC041F48031C0F80018216821F0040121600D
S31508003FD0D0F800188903FBD5D0F8001841F0807195
S31508003FE0C0F80018D0F800188901FBD500F5006064
S31508003FF0816841F002018160016821F001010160D8
S31508004000686800280FD0BDE87040004701B18847AE
S31508004010D4F8100D40F00400C4F8100D306840F0D4
S315080040200600306030BF70BD0070004004400010CC
S3150800403000300240704700F037BA00F08DBA000031
S3150800404070B50E4E04463068A8B90125A561002151
S31508004050E561C4E9081104F12002111F081FFFF7E2
S3150800406019FC0020C4E9020006490548C4E9000114
S31508004070C4E904013560002070BD00009C400010B2
S31508004080000095D9EE1FCC017CB505460C460021EB
S315080040906846FCF79BFE2846FDF7C4FC70B18568A8
S315080040A025EA0401002481602046FDF7BBFC8068F0
S315080040B048B16846FCF78FFE28467CBD6846FCF783
S315080040C08AFE00207CBD641C022CEDDB0420FDF773
S315080040D02DFAEEE7F0B505462DED028B8BB0FDF710
S315080040E0A1FC0446002108A8FCF770FE7CB33E4FED
S315080040F0206858B17868C0F30721022906D1C0F3B1
S315080041004210A84202D1284600F01AF9E06818B908
S315080041100021284600F0CAFA34A02022694602F097
S3150800412063F9364B002698B10020EC4603EB4001B4
S315080041301CF800208A70CE7012B1401C2028F5DBCE
S31508004140022101EB400018700320587001E02DE0B1
S315080041501E70002202212046FDF713FB0646206842
S3150800416020BB1EB394ED038A80212046FCF7D6F8BF
S31508004170002084ED038AFF2204EB4001401C01F86D
S315080041804C2F06284A70F7DB65712271F07A4006D3
S31508004190B4F8680002D540F0010001E020F0010003
S315080041A0A4F868002846FDF7F1FD38B108A8FCF721
S315080041B012FE00200BB0BDEC028BF0BD7868C0F390
S315080041C00721022909D1C0F34211A94205D1C0B27B
S315080041D0401E0222012100F013F80120206008A8E1
S315080041E0FCF7F9FD0120E5E70C4000105553425F46
S315080041F04E414D455F434F4E46494700F063001018
S315080042007CB50C46C0F3421100F01F061546084659
S31508004210FDF708FCE8B30168D9B3062E4ADAFF2D84
S315080042200ED0691E052945D2FF2C02D0611E05292C
S3150800423040D200EB460696F84C10FF293AD102E028
S31508004240FF2C37D0F2E796F84D10FF2932D1FF2D13
S3150800425003D000EB85010969D9B1FF2C03D000EB27
S3150800426084010969A9B1FF2D03D000EB8501496BCB
S3150800427079B9FF2C03D000EB8401496B49B10021C1
S31508004280FF2D0BD000EB410292F84C30AB4211D017
S3150800429000E00FE092F84D20AA420BD0FF2C0BD07D
S315080042A000EB410292F84C30A34203D092F84D201D
S315080042B0A24201D100207CBD491C0629E0DB002171
S315080042C06846FCF783FD06F84C5F68467470FCF791
S315080042D082FD01207CBD7CB5C0F3421100F01F05AC
S315080042E00846FDF79FFB040003D0206808B1062D99
S315080042F001DB00207CBD00216846FCF767FD04EB66
S31508004300450595F84C00FF2805D004EB80000069A8
S3150800431008B102F01CFEFF2685F84C6095F84D00A2
S31508004320FF2805D004EB8000006908B102F00FFEF3
S3150800433085F84D606846FCF74EFD01207CBD0000FF
S315080043402DE9FC410546FDF76DFB040012D000215E
S315080043506846FCF73BFD2068E8B11C4900204B681D
S31508004360DFB2C3F30721C3F34212A7F1010C0229F6
S3150800437003D006E00020BDE8FC81AA4201D18445AD
S315080043800DD004EB400393F84C60FF2E03D193F84D
S315080043904D30FF2B03D06846FCF71DFDEAE7401CAD
S315080043A00628E4DB022904D1AA4202D16046FFF7B7
S315080043B092FF002020602846FEF746FA0448FCF7DC
S315080043C04EFD6846FCF707FD0120D4E70C400010B7
S315080043D0A08601002DE9F74F8B4684B0C0F3421141
S315080043E000F01F0408460091FDF71CFB5FEA000970
S315080043F019D0062C17DA99F85E00052813D109EBAF
S31508004400440090F84CA0BAF1FF0F0CD009EB8A00D3
S315080044100390006938B1002101A8FCF7D7FC0024F5
S315080044202746069E31E0002007B0BDE8F08F2CB97C
S315080044300398006902F0B3FD04002ED009EB0A08C0
S31508004440216898F828000D1AAE4200D23546211D7B
S3150800445001442A465846FBF77EFE98F82800761B44
S315080044602844C0B288F828002168AB442F44884203
S315080044700BD1002088F8280004460398006902F04A
S3150800448078FD51464846FDF7D9FA069A9742CED3A3
S3150800449001A8FCF7A0FC3846C6E7012101FA0AF193
S315080044A00098FFF7F1FDF3E72DE9F047C0F3421155
S315080044B000F01F054FF47A794C460846FDF7B2FA24
S315080044C0070016D0062D14DA97F85E0005283ED1A7
S315080044D007EB450090F84D80B8F1FF0F09D007EBC0
S315080044E08805286928B102F037FD06464FF0000A0C
S315080044F01EE00020BDE8F08741463846FDF74AFF32
S315080045000020FCF781FC50B1FFF72EF838B10620E1
S31508004510FFF708FB18B14FF4FA70FCF7B8FC2869E6
S3150800452002F01AFD4946864200D1611E0C4606462F
S315080045302869D0E9003C634501D1806810B1BAF119
S31508004540000F06D0002C02DC286902F000FD0120CD
S31508004550D0E7002CD0DCF7E72DE9F74F8946C0F302
S31508004560421100F01F0484B000250846FDF75AFAE8
S3150800457007004FF0FF3043D0062C41DA0699E9B31D
S31508004580B9F1000F3CD097F85E10052938D107EB32
S31508004590440191F84DA0BAF1FF0F31D007EB8A011B
S315080045A00391096900292BD000216846FCF70EFC07
S315080045B00020069E044602900398006902F0FDFC5E
S315080045C05FEA00081FD007EB0A0B9BF82E40B4429F
S315080045D000D334462CB12246494608F10400FBF7BD
S315080045E0BAFD9BF82E00A04201D901200290361B85
S315080045F0A1442544C8F80040002428E0FFE700202D
S3150800460007B0BDE8F08F641C642C07D9069886426B
S3150800461028D10398006902F09AFC23E00120FCF7F0
S315080046205DFDF8B96846FCF7DAFBD8B997F85E007D
S31508004630052817D151463846FDF7ACFE6846FCF703
S31508004640D5FB3220FCF723FC6846FCF7D3FB02981F
S315080046500028B1D097F85E00052803D151463846A0
S31508004660FDF798FE6846FCF7B6FB2846C8E77CB512
S3150800467004460D4600216846FCF7A8FB2046FDF7D0
S31508004680D1F968B1846844EA05018160A14202D083
S315080046900420FCF739FD6846FCF79DFB20467CBDE7
S315080046A06846FCF798FB00207CBD00002DE9F04128
S315080046B00D460024FDF7B6F9060001D01DB103E04A
S315080046C01C20BDE8F081124D2846FEF765FB070061
S315080046D0F7D1DFF83C80F068404501D002F0F5FBE1
S315080046E0454511D0284602E041880C440844017823
S315080046F00029F9D1241D204602F0E9FB2246294665
S31508004700F060FBF728FD00E0F5603846D9E70000C1
S315080047107C76000810B5044602C02021FBF7FEFD92
S3150800472000206062A062C4E90B00C4E90D000246DD
S31508004730014610BD2DE9F04104460D462168DDF815
S315080047401880174609681E4613A001B108460022BC
S31508004750016861604068A06031464046FDF770FC1C
S31508004760206128696061206830F8501F218301881C
S31508004770491C0180A88A608304F11C0147F00200E5
S31508004780A1E8410100200246E0602021201DFDF736
S3150800479057FCE060BDE8F0814D53706B74563100EC
S315080047A070B50446C56800200246E0602021201D39
S315080047B0FDF746FCA84201D1012000E00020E56093
S315080047C070BD10B50446D0E9081000B939B9002201
S315080047D0FDF736FC2169884201D1012010BD002071
S315080047E010BD00002DE9F04104460E462168DDF8AB
S315080047F01880174609681D4611A001B1084600220F
S31508004800016861604068A06029464046FDF718FCCB
S31508004810C4E90406206830F8501F21830188491C22
S31508004820018000206083C4F82480E060C4E907752D
S3150800483002462021201DFDF703FCE060BDE8F0815B
S315080048404D53706B7456310030B50D4693B004461F
S31508004850016802A8FFF75EFF002344F2010045EA5B
S315080048600002194602A80093FFF7BCFF02A92068B8
S3150800487001F0F2F913B030BD2DE9F05F044600F1FE
S31508004880040800F12C0B00F1280A0127A06B072861
S315080048907ED2DFE800F08D040D3C4A69920020467E
S315080048A000F0A8F80220A063201DA062202054E092
S315080048B021685A46C86849680B685146984798B3AC
S315080048C0E06A0826C0F12005002D1CDDB146082D3A
S315080048D000D2A9464A4642A1201DFBF715FC90B115
S315080048E04A4641A1201DFBF70FFC60B16A1E08F17C
S315080048F001014046FBF774FCA06A401EA062E06A0C
S31508004900401CE062DEE7082DC0D303204DE0216895
S315080049105A46C86849680B685146984720B1E06A04
S315080049200028B3D1042040E042E02046FFF738FFD4
S31508004930A8B12168C86889680A682146904770B195
S31508004940206A30B3606A90B3FCF77FFAC4E90C01B9
S315080049500520A063606AA062206AE06296E7E069C3
S31508004960C00728D1042134E0FCF76FFA0D46D4E9D4
S315080049700C120646401A65EB0201FEF743F81C4A7C
S31508004980801A71F1000016D2C4E90C65216801E0AD
S3150800499023E009E0C86849685A460B6851469847B3
S315080049A030B1E06A0028D9D10620A0636EE702E09C
S315080049B00120BDE8F09FA76368E72046FFF701FFDF
S315080049C030B12168C86889684A6821469047F2E785
S315080049D008212046FFF738FFEDE70020E9E7000049
S315080049E04D536462675631004D53706B74563100EF
S315080049F00087930310B50446406A002808D020684B
S31508004A002146083005C8836810469847002060622A
S31508004A1010BD00002DE9FE4304464E480D46D0F869
S31508004A201009F0B34C492069401808D04B49401882
S31508004A3011D0484802F0ECF8042868D162E04548ED
S31508004A4002F0E6F8042862D10121424802F027F96B
S31508004A5038BB01215EE0424C2068002801DCFBF7E8
S31508004A6035FB404E306818B9FBF730FB3068E8B3C1
S31508004A702068A14600286ADD34680025A079042844
S31508004A8038D1344802F0C4F804282AD104F5127241
S31508004A900021304802F0A0F890B1002704F55372BF
S31508004AA000E034E001212B4802F096F850B10024CA
S31508004AB00021284802F0F3F830B14FF0010805E06C
S31508004AC00127EBE70124F3E74FF00008012121480D
S31508004AD002F0E5F800B1012037EA08070AD1844355
S31508004AE008D1D9F800201B48316800E02FE002F011
S31508004AF0BFF80125306802F0E8F900203060284642
S31508004B00BDE8FE832946134802F0C9F808B101201A
S31508004B10F6E729460F4801F0A3FF0028F0D0D4E9AC
S31508004B20021204F114058DE82600D4E90023014693
S31508004B300220FCF797FA02E02846FCF795FA207659
S31508004B40C0B20128F8D0217E01200029D8D0002043
S31508004B50D6E7000060720010B0DFFFBF20E0FEFF5E
S31508004B6054400010504000109DED000ADDF804C0C6
S31508004B7080E80E0080ED030A0021C0E904C1F72190
S31508004B800176704710B504461430FCF769FA2046DA
S31508004B9010BD00002DE9FF5F0546DDE90EB6884623
S31508004BA091469A46062803D3002004B0BDE8F09F34
S31508004BB0002102A8FCF70AF905EB4500264900EB97
S31508004BC0C50001EBC004606980033FD40020C4E936
S31508004BD00F0560616069214908436061300703D5A4
S31508004BE0606940F480706061F00603D5606940F042
S31508004BF004006061B00703D5606940F40060606135
S31508004C00C020606340200021A063C4E9061114484F
S31508004C104FF4807700EB05213A46204602F0E2F988
S31508004C2010483A4600EB052104F1200002F0DAF9B3
S31508004C30CDE900B653464A4641462846FDF738FDB3
S31508004C40044602A8FCF7C7F82046AEE702A8FCF718
S31508004C50C2F80120A9E70000086E0010080002004B
S31508004C60F0570010F05D00101CB50446062801D365
S31508004C7000201CBD00216846FCF7A8F804EB440098
S31508004C800E4900EBC40001EBC000416989030FD54A
S31508004C900021C0E90F14416921F400314161204621
S31508004CA0FEF770F904466846FCF795F820461CBDE1
S31508004CB06846FCF790F801201CBD0000086E00103D
S31508004CC07CB505460E46062801D300207CBD05EBBB
S31508004CD04500314900EBC50001EBC0046069400797
S31508004CE003D5112E12D0132E08D000216846FCF7E2
S31508004CF06DF8226AE16A0020E1B90CE0FCF7A5F834
S31508004D00C4E90601606920F0080002E0606940F025
S31508004D10080060612FE0511C2162A36A994201D004
S31508004D20084600E02062616A884201D10120E062FB
S31508004D30206B104408B3067004F1200002F059F9FC
S31508004D40616B88420DD36069C00503D501212846E9
S31508004D5000F032FA6069000503D500212846FFF7FE
S31508004D60D7F86846FCF737F80521284600F042FAD6
S31508004D700120FCF7C9F901207CBD0121284600F075
S31508004D8039FA06A002F096F808A0FCF7D3F96846A7
S31508004D90FCF721F899E70000086E00100C427566CA
S31508004DA0666572204F56464C570D0A004275666670
S31508004DB06572204F56464C570D0A00007CB50D46C5
S31508004DC0062801D300207CBD00EB400101EBC000A2
S31508004DD01C4901EBC00400216846FBF7F7FF606930
S31508004DE0C007606904D020F001006061132006E066
S31508004DF0800706D5606920F00200606111202870DE
S31508004E0016E06068236800210246984201D1E368EB
S31508004E1043B1401C6060A368984200D16160E160BC
S31508004E202069811849B1087828700220FCF76CF9C6
S31508004E306846FBF7D0FF01207CBD6846FBF7CBFF31
S31508004E40C0E70000086E00102DE9FE4F814688462F
S31508004E5017464FF0FF35062802D3FBF737F90FE060
S31508004E60B8F1000F0CD009EB49002F4900EBC90037
S31508004E7001EBC0046069C00302D46069800302D4F0
S31508004E802846BDE8FE8F002504F1200A32E00021FD
S31508004E9001A8FBF79BFF781B00906946504602F075
S31508004EA0B6F8060033D0504602F0A3F8A16B884244
S31508004EB015D8504602F09DF800990844A16B88421F
S31508004EC00DD96069C00503D50121484600F058F997
S31508004ED06069000503D501214846FFF719F808EB74
S31508004EE005003146009AFBF736F90098054401A8F3
S31508004EF0FBF771FFBD42CAD300216846FBF766FF80
S31508004F000020E063504602F0A7F820B107E001A8A8
S31508004F10FBF761FFF0E70521484600F06BF96846A4
S31508004F20FBF759FFACE70000086E0010FEB5054612
S31508004F30062802D3FBF7CAF833E005EB45003E49DD
S31508004F4000EBC50001EBC0046069C00372D4606958
S31508004F5080036FD560690626400702D56069000799
S31508004F601FD52846FEF7BAFFD8B100216846FBF7D9
S31508004F702DFF6846FBF733FF90BB2846FEF7D8FFA0
S31508004F8070B33046FEF7CEFD50B34FF47A7620461E
S31508004F9002F062F850B36846FBF71DFF6069C0036C
S31508004FA036D50020FEBD6069C00303D56846FBF709
S31508004FB012FFF6E72846FEF791FF0028F6D02846A6
S31508004FC0FEF78EF80028F5D002A92846FFF7F6FE68
S31508004FD09DF808102846FEF7B3FD6846FBF70CFF58
S31508004FE0204602F039F80028DDD0D4E76069C0030E
S31508004FF0DCD42846FEF772FF0028D7D06846FBF7B0
S31508005000F5FE3046FBF743FF6846FBF7F3FEBEE7BF
S315080050102846FEF765F820B92846FEF75FFF002800
S31508005020F6D12846FEF760FE20B92846FEF756FF59
S315080050300028F6D10120FEBD086E00102DE9FE4FAE
S3150800504000256E1E824617468846062802D3FBF7B9
S315080050503DF810E07FB1B8F1000FF8D00AEB4A002E
S31508005060464900EBCA0001EBC0046069C00302D4DC
S315080050706069800302D43046BDE8FE8F60694FF050
S31508005080010B40071FD5606900071CD4FCF77AFEA0
S31508005090C0EB00111BEB810018D0FCF773FEC0EBC8
S315080050A000104FEA80090026FBF7CFFED4E9062355
S315080050B0801A61EB0301B9EB00008E4106D26069E4
S315080050C040F0080060610026B14644E00020D3E7BE
S315080050D0002101A8FBF77AFE781B00902168E26898
S315080050E08C462AB920B16268914205D2511A05E068
S315080050F04846CDF8009014E0A368591A884200D8AB
S3150800510001460091206808442060A168884202D1BF
S315080051104846C4F80090904201D1C4F80CB0206902
S31508005120604438B14146009AFBF715F800980544E3
S3150800513080440AE06069000507D40021504600F063
S3150800514059F801A8FBF747FE07E001A8FBF743FE5D
S31508005150761C022E01DABD42BAD300216846FBF757
S3150800516035FE37B16069C00303D401215046FEF706
S31508005170EBFE6846FBF72FFE28467DE7086E001013
S3150800518000EB40020B4B02EBC00203EBC202536971
S31508005190DB030ED4536923EA41215161516911F4A5
S315080051A0C06F06D1516941F0020151610121FEF734
S315080051B0CBBE7047086E001070B50D4600EB400177
S315080051C00B4A01EBC00102EBC1046169C9030ED4A5
S315080051D0616911F4C06F06D1616941F0010161612D
S315080051E00121FEF7B1FE606940EA4520606170BDA5
S315080051F0086E00107CB504460D4606281ED200210E
S315080052006846FBF7E3FD04EB44000D4900EBC400D8
S3150800521001EBC001052D04D20A6D62B1886C2946DE
S3150800522008E0C86B38B9C86C28B10120C863CA6CD5
S31508005230486C691F90476846FBF7CDFD7CBD0000AA
S31508005240086E001038B50446D0F80408216020F02E
S315080052500200C4F804080C48C4F808080B4B0CA153
S31508005260A3F1A40204F50160009400F0DBFC04F647
S315080052706C1000F009FA3021074801F026FD0748AE
S3150800528000F0AAFE002038BDFFFFFE001C710008D2
S315080052904D5364626756310060720010AC440010CA
S315080052A04B6A021D934207D1D0F8042822F0010266
S315080052B0C0F8042800204862012070471FB5CA6953
S315080052C0920709D401220292082302AACDE90023F3
S315080052D00023012200F059F804B0012010BD10B5D2
S315080052E0002301224C6A00F045F84CB12068C0073B
S315080052F006D1642200212020FDF7CCFAFEF738FEFD
S31508005300012010BD70B50546C8690C46400401D594
S31508005310012070BDD5F8040840F00200C5F804085D
S31508005320E069800702D5012111481CE010480C21CC
S31508005330903818E0026863699A4213D1816805EBD0
S315080053406102C9070CD0116840680B5821461046FF
S315080053509847024600232146284600F00BF8D7E76F
S315080053604368F3E70C30491EE4D200231A46F2E7F5
S31508005370107100081CB51C460023CDE9003394467D
S315080053802346624600F001F81CBD2DE9F04192B0B3
S315080053900D46DDE91867EC6900215FEAC47C23D174
S315080053A044F00104EC61A40401D54FF4005112B194
S315080053B041F4004401E041F480440BB944F001048F
S315080053C00AB90026374600F50161884602A8FFF7A4
S315080053D0A1F93B462246291D02A80096FFF7AAF91D
S315080053E002A9404600F038FC12B0BDE8F081000082
S315080053F02DE9FE434D6A074600F66C1088460346BB
S315080054002C6800F067F828B1184600F0CBF80020A1
S31508005410BDE8FE832968012601B1002602AA68466E
S3150800542000F06EFF20B301AB04222146009801F07C
S3150800543031F8FEF771FA01991DE0012400E0002415
S3150800544054EA06004FF000031CD0012241463846B4
S31508005450FFF790FFC82200212020FDF71BFA0D4810
S3150800546001F0ACFB54B13846296800F089FB0EE020
S31508005470FEF752FA21688842E1D1DEE7384600F0A5
S315080054808FF904E0002241463846FFF773FF0120F2
S31508005490BEE700006072001030B50546C86993B0D3
S315080054A00C4680070FD402A8FEF784F8012800D01E
S315080054B00020402302AACDE9002302460023214604
S315080054C02846FFF762FF13B0012030BD00F50160E2
S315080054D000F0BFBB014601200A68002A03D14968CB
S315080054E0002900D1002070472DE9F04389B089468C
S315080054F090461F460446022B02D2B8F1800F02D00E
S3150800550000F050F823E0E06890B100F0B1FF0646DD
